{
  "address": "0xA694D24155b6d05949F88ed5B4cEc334aF55A3D7",
  "abi": [
    {
      "inputs": [
        {
          "internalType": "address",
          "name": "user",
          "type": "address"
        },
        {
          "internalType": "address",
          "name": "provider",
          "type": "address"
        }
      ],
      "name": "AccountExists",
      "type": "error"
    },
    {
      "inputs": [
        {
          "internalType": "address",
          "name": "user",
          "type": "address"
        },
        {
          "internalType": "address",
          "name": "provider",
          "type": "address"
        }
      ],
      "name": "AccountNotExists",
      "type": "error"
    },
    {
      "inputs": [
        {
          "internalType": "string",
          "name": "reason",
          "type": "string"
        }
      ],
      "name": "InvalidTEESignature",
      "type": "error"
    },
    {
      "inputs": [
        {
          "internalType": "address",
          "name": "provider",
          "type": "address"
        }
      ],
      "name": "ServiceNotExist",
      "type": "error"
    },
    {
      "inputs": [
        {
          "internalType": "address",
          "name": "user",
          "type": "address"
        },
        {
          "internalType": "address",
          "name": "provider",
          "type": "address"
        }
      ],
      "name": "TooManyRefunds",
      "type": "error"
    },
    {
      "anonymous": false,
      "inputs": [
        {
          "indexed": true,
          "internalType": "address",
          "name": "user",
          "type": "address"
        },
        {
          "indexed": true,
          "internalType": "address",
          "name": "provider",
          "type": "address"
        },
        {
          "indexed": false,
          "internalType": "uint256",
          "name": "amount",
          "type": "uint256"
        },
        {
          "indexed": false,
          "internalType": "uint256",
          "name": "pendingRefund",
          "type": "uint256"
        }
      ],
      "name": "BalanceUpdated",
      "type": "event"
    },
    {
      "anonymous": false,
      "inputs": [
        {
          "indexed": false,
          "internalType": "address[]",
          "name": "users",
          "type": "address[]"
        },
        {
          "indexed": false,
          "internalType": "uint256[]",
          "name": "balances",
          "type": "uint256[]"
        },
        {
          "indexed": false,
          "internalType": "uint256[]",
          "name": "pendingRefunds",
          "type": "uint256[]"
        }
      ],
      "name": "BatchBalanceUpdated",
      "type": "event"
    },
    {
      "anonymous": false,
      "inputs": [
        {
          "indexed": true,
          "internalType": "address",
          "name": "previousOwner",
          "type": "address"
        },
        {
          "indexed": true,
          "internalType": "address",
          "name": "newOwner",
          "type": "address"
        }
      ],
      "name": "OwnershipTransferred",
      "type": "event"
    },
    {
      "anonymous": false,
      "inputs": [
        {
          "indexed": true,
          "internalType": "address",
          "name": "provider",
          "type": "address"
        },
        {
          "indexed": true,
          "internalType": "address",
          "name": "teeSignerAddress",
          "type": "address"
        },
        {
          "indexed": false,
          "internalType": "bool",
          "name": "acknowledged",
          "type": "bool"
        }
      ],
      "name": "ProviderTEESignerAcknowledged",
      "type": "event"
    },
    {
      "anonymous": false,
      "inputs": [
        {
          "indexed": true,
          "internalType": "address",
          "name": "user",
          "type": "address"
        },
        {
          "indexed": true,
          "internalType": "address",
          "name": "provider",
          "type": "address"
        },
        {
          "indexed": true,
          "internalType": "uint256",
          "name": "index",
          "type": "uint256"
        },
        {
          "indexed": false,
          "internalType": "uint256",
          "name": "timestamp",
          "type": "uint256"
        }
      ],
      "name": "RefundRequested",
      "type": "event"
    },
    {
      "anonymous": false,
      "inputs": [
        {
          "indexed": true,
          "internalType": "address",
          "name": "service",
          "type": "address"
        }
      ],
      "name": "ServiceRemoved",
      "type": "event"
    },
    {
      "anonymous": false,
      "inputs": [
        {
          "indexed": true,
          "internalType": "address",
          "name": "service",
          "type": "address"
        },
        {
          "indexed": false,
          "internalType": "string",
          "name": "serviceType",
          "type": "string"
        },
        {
          "indexed": false,
          "internalType": "string",
          "name": "url",
          "type": "string"
        },
        {
          "indexed": false,
          "internalType": "uint256",
          "name": "inputPrice",
          "type": "uint256"
        },
        {
          "indexed": false,
          "internalType": "uint256",
          "name": "outputPrice",
          "type": "uint256"
        },
        {
          "indexed": false,
          "internalType": "uint256",
          "name": "updatedAt",
          "type": "uint256"
        },
        {
          "indexed": false,
          "internalType": "string",
          "name": "model",
          "type": "string"
        },
        {
          "indexed": false,
          "internalType": "string",
          "name": "verifiability",
          "type": "string"
        }
      ],
      "name": "ServiceUpdated",
      "type": "event"
    },
    {
      "anonymous": false,
      "inputs": [
        {
          "indexed": true,
          "internalType": "address",
          "name": "user",
          "type": "address"
        },
        {
          "indexed": false,
          "internalType": "enum SettlementStatus",
          "name": "status",
          "type": "uint8"
        },
        {
          "indexed": false,
          "internalType": "uint256",
          "name": "unsettledAmount",
          "type": "uint256"
        }
      ],
      "name": "TEESettlementResult",
      "type": "event"
    },
    {
      "inputs": [
        {
          "internalType": "address",
          "name": "user",
          "type": "address"
        },
        {
          "internalType": "address",
          "name": "provider",
          "type": "address"
        }
      ],
      "name": "accountExists",
      "outputs": [
        {
          "internalType": "bool",
          "name": "",
          "type": "bool"
        }
      ],
      "stateMutability": "view",
      "type": "function"
    },
    {
      "inputs": [
        {
          "internalType": "address",
          "name": "provider",
          "type": "address"
        },
        {
          "internalType": "bool",
          "name": "acknowledged",
          "type": "bool"
        }
      ],
      "name": "acknowledgeTEESigner",
      "outputs": [],
      "stateMutability": "nonpayable",
      "type": "function"
    },
    {
      "inputs": [
        {
          "internalType": "address",
          "name": "provider",
          "type": "address"
        }
      ],
      "name": "acknowledgeTEESignerByOwner",
      "outputs": [],
      "stateMutability": "nonpayable",
      "type": "function"
    },
    {
      "inputs": [
        {
          "internalType": "address",
          "name": "user",
          "type": "address"
        },
        {
          "internalType": "address",
          "name": "provider",
          "type": "address"
        },
        {
          "internalType": "string",
          "name": "additionalInfo",
          "type": "string"
        }
      ],
      "name": "addAccount",
      "outputs": [],
      "stateMutability": "payable",
      "type": "function"
    },
    {
      "inputs": [
        {
          "components": [
            {
              "internalType": "string",
              "name": "serviceType",
              "type": "string"
            },
            {
              "internalType": "string",
              "name": "url",
              "type": "string"
            },
            {
              "internalType": "string",
              "name": "model",
              "type": "string"
            },
            {
              "internalType": "string",
              "name": "verifiability",
              "type": "string"
            },
            {
              "internalType": "uint256",
              "name": "inputPrice",
              "type": "uint256"
            },
            {
              "internalType": "uint256",
              "name": "outputPrice",
              "type": "uint256"
            },
            {
              "internalType": "string",
              "name": "additionalInfo",
              "type": "string"
            },
            {
              "internalType": "address",
              "name": "teeSignerAddress",
              "type": "address"
            }
          ],
          "internalType": "struct ServiceParams",
          "name": "params",
          "type": "tuple"
        }
      ],
      "name": "addOrUpdateService",
      "outputs": [],
      "stateMutability": "nonpayable",
      "type": "function"
    },
    {
      "inputs": [
        {
          "internalType": "address",
          "name": "user",
          "type": "address"
        },
        {
          "internalType": "address",
          "name": "provider",
          "type": "address"
        }
      ],
      "name": "deleteAccount",
      "outputs": [],
      "stateMutability": "nonpayable",
      "type": "function"
    },
    {
      "inputs": [
        {
          "internalType": "address",
          "name": "user",
          "type": "address"
        },
        {
          "internalType": "address",
          "name": "provider",
          "type": "address"
        },
        {
          "internalType": "uint256",
          "name": "cancelRetrievingAmount",
          "type": "uint256"
        }
      ],
      "name": "depositFund",
      "outputs": [],
      "stateMutability": "payable",
      "type": "function"
    },
    {
      "inputs": [
        {
          "internalType": "address",
          "name": "user",
          "type": "address"
        },
        {
          "internalType": "address",
          "name": "provider",
          "type": "address"
        }
      ],
      "name": "getAccount",
      "outputs": [
        {
          "components": [
            {
              "internalType": "address",
              "name": "user",
              "type": "address"
            },
            {
              "internalType": "address",
              "name": "provider",
              "type": "address"
            },
            {
              "internalType": "uint256",
              "name": "nonce",
              "type": "uint256"
            },
            {
              "internalType": "uint256",
              "name": "balance",
              "type": "uint256"
            },
            {
              "internalType": "uint256",
              "name": "pendingRefund",
              "type": "uint256"
            },
            {
              "components": [
                {
                  "internalType": "uint256",
                  "name": "index",
                  "type": "uint256"
                },
                {
                  "internalType": "uint256",
                  "name": "amount",
                  "type": "uint256"
                },
                {
                  "internalType": "uint256",
                  "name": "createdAt",
                  "type": "uint256"
                },
                {
                  "internalType": "bool",
                  "name": "processed",
                  "type": "bool"
                }
              ],
              "internalType": "struct Refund[]",
              "name": "refunds",
              "type": "tuple[]"
            },
            {
              "internalType": "string",
              "name": "additionalInfo",
              "type": "string"
            },
            {
              "internalType": "bool",
              "name": "acknowledged",
              "type": "bool"
            },
            {
              "internalType": "uint256",
              "name": "validRefundsLength",
              "type": "uint256"
            }
          ],
          "internalType": "struct Account",
          "name": "",
          "type": "tuple"
        }
      ],
      "stateMutability": "view",
      "type": "function"
    },
    {
      "inputs": [
        {
          "internalType": "address",
          "name": "provider",
          "type": "address"
        },
        {
          "internalType": "uint256",
          "name": "offset",
          "type": "uint256"
        },
        {
          "internalType": "uint256",
          "name": "limit",
          "type": "uint256"
        }
      ],
      "name": "getAccountsByProvider",
      "outputs": [
        {
          "components": [
            {
              "internalType": "address",
              "name": "user",
              "type": "address"
            },
            {
              "internalType": "address",
              "name": "provider",
              "type": "address"
            },
            {
              "internalType": "uint256",
              "name": "nonce",
              "type": "uint256"
            },
            {
              "internalType": "uint256",
              "name": "balance",
              "type": "uint256"
            },
            {
              "internalType": "uint256",
              "name": "pendingRefund",
              "type": "uint256"
            },
            {
              "components": [
                {
                  "internalType": "uint256",
                  "name": "index",
                  "type": "uint256"
                },
                {
                  "internalType": "uint256",
                  "name": "amount",
                  "type": "uint256"
                },
                {
                  "internalType": "uint256",
                  "name": "createdAt",
                  "type": "uint256"
                },
                {
                  "internalType": "bool",
                  "name": "processed",
                  "type": "bool"
                }
              ],
              "internalType": "struct Refund[]",
              "name": "refunds",
              "type": "tuple[]"
            },
            {
              "internalType": "string",
              "name": "additionalInfo",
              "type": "string"
            },
            {
              "internalType": "bool",
              "name": "acknowledged",
              "type": "bool"
            },
            {
              "internalType": "uint256",
              "name": "validRefundsLength",
              "type": "uint256"
            }
          ],
          "internalType": "struct Account[]",
          "name": "accounts",
          "type": "tuple[]"
        },
        {
          "internalType": "uint256",
          "name": "total",
          "type": "uint256"
        }
      ],
      "stateMutability": "view",
      "type": "function"
    },
    {
      "inputs": [
        {
          "internalType": "address",
          "name": "user",
          "type": "address"
        },
        {
          "internalType": "uint256",
          "name": "offset",
          "type": "uint256"
        },
        {
          "internalType": "uint256",
          "name": "limit",
          "type": "uint256"
        }
      ],
      "name": "getAccountsByUser",
      "outputs": [
        {
          "components": [
            {
              "internalType": "address",
              "name": "user",
              "type": "address"
            },
            {
              "internalType": "address",
              "name": "provider",
              "type": "address"
            },
            {
              "internalType": "uint256",
              "name": "nonce",
              "type": "uint256"
            },
            {
              "internalType": "uint256",
              "name": "balance",
              "type": "uint256"
            },
            {
              "internalType": "uint256",
              "name": "pendingRefund",
              "type": "uint256"
            },
            {
              "components": [
                {
                  "internalType": "uint256",
                  "name": "index",
                  "type": "uint256"
                },
                {
                  "internalType": "uint256",
                  "name": "amount",
                  "type": "uint256"
                },
                {
                  "internalType": "uint256",
                  "name": "createdAt",
                  "type": "uint256"
                },
                {
                  "internalType": "bool",
                  "name": "processed",
                  "type": "bool"
                }
              ],
              "internalType": "struct Refund[]",
              "name": "refunds",
              "type": "tuple[]"
            },
            {
              "internalType": "string",
              "name": "additionalInfo",
              "type": "string"
            },
            {
              "internalType": "bool",
              "name": "acknowledged",
              "type": "bool"
            },
            {
              "internalType": "uint256",
              "name": "validRefundsLength",
              "type": "uint256"
            }
          ],
          "internalType": "struct Account[]",
          "name": "accounts",
          "type": "tuple[]"
        },
        {
          "internalType": "uint256",
          "name": "total",
          "type": "uint256"
        }
      ],
      "stateMutability": "view",
      "type": "function"
    },
    {
      "inputs": [
        {
          "internalType": "uint256",
          "name": "offset",
          "type": "uint256"
        },
        {
          "internalType": "uint256",
          "name": "limit",
          "type": "uint256"
        }
      ],
      "name": "getAllAccounts",
      "outputs": [
        {
          "components": [
            {
              "internalType": "address",
              "name": "user",
              "type": "address"
            },
            {
              "internalType": "address",
              "name": "provider",
              "type": "address"
            },
            {
              "internalType": "uint256",
              "name": "nonce",
              "type": "uint256"
            },
            {
              "internalType": "uint256",
              "name": "balance",
              "type": "uint256"
            },
            {
              "internalType": "uint256",
              "name": "pendingRefund",
              "type": "uint256"
            },
            {
              "components": [
                {
                  "internalType": "uint256",
                  "name": "index",
                  "type": "uint256"
                },
                {
                  "internalType": "uint256",
                  "name": "amount",
                  "type": "uint256"
                },
                {
                  "internalType": "uint256",
                  "name": "createdAt",
                  "type": "uint256"
                },
                {
                  "internalType": "bool",
                  "name": "processed",
                  "type": "bool"
                }
              ],
              "internalType": "struct Refund[]",
              "name": "refunds",
              "type": "tuple[]"
            },
            {
              "internalType": "string",
              "name": "additionalInfo",
              "type": "string"
            },
            {
              "internalType": "bool",
              "name": "acknowledged",
              "type": "bool"
            },
            {
              "internalType": "uint256",
              "name": "validRefundsLength",
              "type": "uint256"
            }
          ],
          "internalType": "struct Account[]",
          "name": "accounts",
          "type": "tuple[]"
        },
        {
          "internalType": "uint256",
          "name": "total",
          "type": "uint256"
        }
      ],
      "stateMutability": "view",
      "type": "function"
    },
    {
      "inputs": [],
      "name": "getAllServices",
      "outputs": [
        {
          "components": [
            {
              "internalType": "address",
              "name": "provider",
              "type": "address"
            },
            {
              "internalType": "string",
              "name": "serviceType",
              "type": "string"
            },
            {
              "internalType": "string",
              "name": "url",
              "type": "string"
            },
            {
              "internalType": "uint256",
              "name": "inputPrice",
              "type": "uint256"
            },
            {
              "internalType": "uint256",
              "name": "outputPrice",
              "type": "uint256"
            },
            {
              "internalType": "uint256",
              "name": "updatedAt",
              "type": "uint256"
            },
            {
              "internalType": "string",
              "name": "model",
              "type": "string"
            },
            {
              "internalType": "string",
              "name": "verifiability",
              "type": "string"
            },
            {
              "internalType": "string",
              "name": "additionalInfo",
              "type": "string"
            },
            {
              "internalType": "address",
              "name": "teeSignerAddress",
              "type": "address"
            },
            {
              "internalType": "bool",
              "name": "teeSignerAcknowledged",
              "type": "bool"
            }
          ],
          "internalType": "struct Service[]",
          "name": "services",
          "type": "tuple[]"
        }
      ],
      "stateMutability": "view",
      "type": "function"
    },
    {
      "inputs": [
        {
          "internalType": "address[]",
          "name": "users",
          "type": "address[]"
        }
      ],
      "name": "getBatchAccountsByUsers",
      "outputs": [
        {
          "components": [
            {
              "internalType": "address",
              "name": "user",
              "type": "address"
            },
            {
              "internalType": "address",
              "name": "provider",
              "type": "address"
            },
            {
              "internalType": "uint256",
              "name": "nonce",
              "type": "uint256"
            },
            {
              "internalType": "uint256",
              "name": "balance",
              "type": "uint256"
            },
            {
              "internalType": "uint256",
              "name": "pendingRefund",
              "type": "uint256"
            },
            {
              "components": [
                {
                  "internalType": "uint256",
                  "name": "index",
                  "type": "uint256"
                },
                {
                  "internalType": "uint256",
                  "name": "amount",
                  "type": "uint256"
                },
                {
                  "internalType": "uint256",
                  "name": "createdAt",
                  "type": "uint256"
                },
                {
                  "internalType": "bool",
                  "name": "processed",
                  "type": "bool"
                }
              ],
              "internalType": "struct Refund[]",
              "name": "refunds",
              "type": "tuple[]"
            },
            {
              "internalType": "string",
              "name": "additionalInfo",
              "type": "string"
            },
            {
              "internalType": "bool",
              "name": "acknowledged",
              "type": "bool"
            },
            {
              "internalType": "uint256",
              "name": "validRefundsLength",
              "type": "uint256"
            }
          ],
          "internalType": "struct Account[]",
          "name": "accounts",
          "type": "tuple[]"
        }
      ],
      "stateMutability": "view",
      "type": "function"
    },
    {
      "inputs": [
        {
          "internalType": "address",
          "name": "user",
          "type": "address"
        },
        {
          "internalType": "address",
          "name": "provider",
          "type": "address"
        }
      ],
      "name": "getPendingRefund",
      "outputs": [
        {
          "internalType": "uint256",
          "name": "",
          "type": "uint256"
        }
      ],
      "stateMutability": "view",
      "type": "function"
    },
    {
      "inputs": [
        {
          "internalType": "address",
          "name": "provider",
          "type": "address"
        }
      ],
      "name": "getService",
      "outputs": [
        {
          "components": [
            {
              "internalType": "address",
              "name": "provider",
              "type": "address"
            },
            {
              "internalType": "string",
              "name": "serviceType",
              "type": "string"
            },
            {
              "internalType": "string",
              "name": "url",
              "type": "string"
            },
            {
              "internalType": "uint256",
              "name": "inputPrice",
              "type": "uint256"
            },
            {
              "internalType": "uint256",
              "name": "outputPrice",
              "type": "uint256"
            },
            {
              "internalType": "uint256",
              "name": "updatedAt",
              "type": "uint256"
            },
            {
              "internalType": "string",
              "name": "model",
              "type": "string"
            },
            {
              "internalType": "string",
              "name": "verifiability",
              "type": "string"
            },
            {
              "internalType": "string",
              "name": "additionalInfo",
              "type": "string"
            },
            {
              "internalType": "address",
              "name": "teeSignerAddress",
              "type": "address"
            },
            {
              "internalType": "bool",
              "name": "teeSignerAcknowledged",
              "type": "bool"
            }
          ],
          "internalType": "struct Service",
          "name": "service",
          "type": "tuple"
        }
      ],
      "stateMutability": "view",
      "type": "function"
    },
    {
      "inputs": [
        {
          "internalType": "uint256",
          "name": "_locktime",
          "type": "uint256"
        },
        {
          "internalType": "address",
          "name": "_ledgerAddress",
          "type": "address"
        },
        {
          "internalType": "address",
          "name": "owner",
          "type": "address"
        }
      ],
      "name": "initialize",
      "outputs": [],
      "stateMutability": "nonpayable",
      "type": "function"
    },
    {
      "inputs": [],
      "name": "initialized",
      "outputs": [
        {
          "internalType": "bool",
          "name": "",
          "type": "bool"
        }
      ],
      "stateMutability": "view",
      "type": "function"
    },
    {
      "inputs": [],
      "name": "ledgerAddress",
      "outputs": [
        {
          "internalType": "address",
          "name": "",
          "type": "address"
        }
      ],
      "stateMutability": "view",
      "type": "function"
    },
    {
      "inputs": [],
      "name": "lockTime",
      "outputs": [
        {
          "internalType": "uint256",
          "name": "",
          "type": "uint256"
        }
      ],
      "stateMutability": "view",
      "type": "function"
    },
    {
      "inputs": [],
      "name": "owner",
      "outputs": [
        {
          "internalType": "address",
          "name": "",
          "type": "address"
        }
      ],
      "stateMutability": "view",
      "type": "function"
    },
    {
      "inputs": [
        {
          "components": [
            {
              "internalType": "address",
              "name": "user",
              "type": "address"
            },
            {
              "internalType": "address",
              "name": "provider",
              "type": "address"
            },
            {
              "internalType": "uint256",
              "name": "totalFee",
              "type": "uint256"
            },
            {
              "internalType": "bytes32",
              "name": "requestsHash",
              "type": "bytes32"
            },
            {
              "internalType": "uint256",
              "name": "nonce",
              "type": "uint256"
            },
            {
              "internalType": "bytes",
              "name": "signature",
              "type": "bytes"
            }
          ],
          "internalType": "struct TEESettlementData[]",
          "name": "settlements",
          "type": "tuple[]"
        }
      ],
      "name": "previewSettlementResults",
      "outputs": [
        {
          "internalType": "address[]",
          "name": "failedUsers",
          "type": "address[]"
        },
        {
          "internalType": "enum SettlementStatus[]",
          "name": "failureReasons",
          "type": "uint8[]"
        },
        {
          "internalType": "address[]",
          "name": "partialUsers",
          "type": "address[]"
        },
        {
          "internalType": "uint256[]",
          "name": "partialAmounts",
          "type": "uint256[]"
        }
      ],
      "stateMutability": "view",
      "type": "function"
    },
    {
      "inputs": [
        {
          "internalType": "address",
          "name": "user",
          "type": "address"
        },
        {
          "internalType": "address",
          "name": "provider",
          "type": "address"
        }
      ],
      "name": "processRefund",
      "outputs": [
        {
          "internalType": "uint256",
          "name": "totalAmount",
          "type": "uint256"
        },
        {
          "internalType": "uint256",
          "name": "balance",
          "type": "uint256"
        },
        {
          "internalType": "uint256",
          "name": "pendingRefund",
          "type": "uint256"
        }
      ],
      "stateMutability": "nonpayable",
      "type": "function"
    },
    {
      "inputs": [],
      "name": "removeService",
      "outputs": [],
      "stateMutability": "nonpayable",
      "type": "function"
    },
    {
      "inputs": [],
      "name": "renounceOwnership",
      "outputs": [],
      "stateMutability": "nonpayable",
      "type": "function"
    },
    {
      "inputs": [
        {
          "internalType": "address",
          "name": "user",
          "type": "address"
        },
        {
          "internalType": "address",
          "name": "provider",
          "type": "address"
        }
      ],
      "name": "requestRefundAll",
      "outputs": [],
      "stateMutability": "nonpayable",
      "type": "function"
    },
    {
      "inputs": [
        {
          "internalType": "address",
          "name": "provider",
          "type": "address"
        }
      ],
      "name": "revokeTEESignerAcknowledgement",
      "outputs": [],
      "stateMutability": "nonpayable",
      "type": "function"
    },
    {
      "inputs": [
        {
          "components": [
            {
              "internalType": "address",
              "name": "user",
              "type": "address"
            },
            {
              "internalType": "address",
              "name": "provider",
              "type": "address"
            },
            {
              "internalType": "uint256",
              "name": "totalFee",
              "type": "uint256"
            },
            {
              "internalType": "bytes32",
              "name": "requestsHash",
              "type": "bytes32"
            },
            {
              "internalType": "uint256",
              "name": "nonce",
              "type": "uint256"
            },
            {
              "internalType": "bytes",
              "name": "signature",
              "type": "bytes"
            }
          ],
          "internalType": "struct TEESettlementData[]",
          "name": "settlements",
          "type": "tuple[]"
        }
      ],
      "name": "settleFeesWithTEE",
      "outputs": [
        {
          "internalType": "address[]",
          "name": "failedUsers",
          "type": "address[]"
        },
        {
          "internalType": "enum SettlementStatus[]",
          "name": "failureReasons",
          "type": "uint8[]"
        },
        {
          "internalType": "address[]",
          "name": "partialUsers",
          "type": "address[]"
        },
        {
          "internalType": "uint256[]",
          "name": "partialAmounts",
          "type": "uint256[]"
        }
      ],
      "stateMutability": "nonpayable",
      "type": "function"
    },
    {
      "inputs": [
        {
          "internalType": "bytes4",
          "name": "interfaceId",
          "type": "bytes4"
        }
      ],
      "name": "supportsInterface",
      "outputs": [
        {
          "internalType": "bool",
          "name": "",
          "type": "bool"
        }
      ],
      "stateMutability": "view",
      "type": "function"
    },
    {
      "inputs": [
        {
          "internalType": "address",
          "name": "newOwner",
          "type": "address"
        }
      ],
      "name": "transferOwnership",
      "outputs": [],
      "stateMutability": "nonpayable",
      "type": "function"
    },
    {
      "inputs": [
        {
          "internalType": "uint256",
          "name": "_locktime",
          "type": "uint256"
        }
      ],
      "name": "updateLockTime",
      "outputs": [],
      "stateMutability": "nonpayable",
      "type": "function"
    },
    {
      "stateMutability": "payable",
      "type": "receive"
    }
  ],
  "transactionHash": "0x4dc15410ef3496424c8067d23cee94e8b08f4f4a6e267786d920b748be87a205",
  "args": [],
  "numDeployments": 2,
  "solcInputHash": "37c74d840738c0ccac108aa9d9871aea",
  "bytecode": "0x6080806040523461005f5760008054336001600160a01b0319821681178355916001600160a01b03909116907f8be0079c531659141344cd1fd0a4f28419497f9722a3daafe3b4186f6b6457e09080a3600180556141e690816100658239f35b600080fdfe60806040526004361015610023575b361561001957600080fd5b610021614028565b005b60003560e01c806301ffc9a7146102035780630d668087146101fe578063147500e3146101f9578063158ef93e146101f457806315a52302146101ef5780631d73b9f5146101ea57806321fe0f30146101e5578063264173d6146101e057806328b60476146101db578063398c8e4e146101d65780634e3c4f22146101d15780634fe63f4d146101cc5780635bd7ace2146101c75780636c79158d146101c2578063715018a6146101bd578063745e87f7146101b85780637ff6fc1c146101b35780638be74119146101ae5780638da5cb5b146101a957806397216725146101a4578063b2394d091461019f578063b4988fd01461019a578063ba16a75014610195578063bbee42d914610190578063d1d200561461018b578063ddf96abd14610186578063e50688f914610181578063f2fde38b1461017c578063fbfa4e11146101775763fd5908470361000e57611cb5565b611c76565b611be5565b611987565b6117f3565b6117bd565b6116c0565b6115c5565b61150e565b61147f565b611446565b61141d565b6111f9565b611120565b610ec9565b610e6b565b610d40565b610d04565b610cd0565b610be6565b610ae2565b61099c565b610819565b610741565b61069b565b610431565b6102f8565b6102cd565b610269565b346102595760203660031901126102595760043563ffffffff60e01b81168091036102595760209063160841b160e01b8114908115610248575b506040519015158152f35b6301ffc9a760e01b1490503861023d565b600080fd5b600091031261025957565b3461025957600036600319011261025957602060008051602061411183398151915254604051908152f35b6001600160a01b0381160361025957565b6040906003190112610259576004356102bd81610294565b906024356102ca81610294565b90565b346102595760206102ee6102e96102e3366102a5565b90612173565b612153565b6040519015158152f35b3461025957600036600319011261025957602060ff60005460a01c166040519015158152f35b919082519283825260005b84811061034a575050826000602080949584010152601f8019910116010190565b602081830181015184830182015201610329565b80516001600160a01b03168252906102ca906103fd6103e96103d76103a7610395602088015161016080602089015287019061031e565b6040880151868203604088015261031e565b606087015160608601526080870151608086015260a087015160a086015260c087015185820360c087015261031e565b60e086015184820360e086015261031e565b61010080860151908483039085015261031e565b610120808501516001600160a01b03169083015292610140908101511515910152565b9060206102ca92818152019061035e565b346102595760203660031901126102595761051f61046260043561045481610294565b61045c6132a2565b506126a3565b61051360ff60096104716118e6565b84546001600160a01b031681529361048b60018201611fb3565b602086015261049c60028201611fb3565b60408601526003810154606086015260048101546080860152600581015460a08601526104cb60068201611fb3565b60c08601526104dc60078201611fb3565b60e08601526104ed60088201611fb3565b61010086015201546001600160a01b03811661012085015260a01c161515610140830152565b60405191829182610420565b0390f35b60609060031901126102595760043561053b81610294565b906024359060443590565b90815180825260208080930193019160005b828110610566575050505090565b83518051865280830151868401526040808201519087015260609081015115159086015260809094019392810192600101610558565b80516001600160a01b03168252906020828101516001600160a01b0316908201526040820151604082015260608201516060820152608082015160808201526106096105f760a08401516101208060a0860152840190610546565b60c084015183820360c085015261031e565b60e080840151151590830152916101008091015191015290565b908082519081815260208091019281808460051b8301019501936000915b8483106106515750505050505090565b909192939495848061066f600193601f198682030187528a5161059c565b9801930193019194939290610641565b929190610696602091604086526040860190610623565b930152565b34610259576106c46106ac36610523565b91821580156106d4575b6106bf906121a4565b612544565b9061051f6040519283928361067f565b5060328311156106b6565b602080820190808352835180925260408301928160408460051b8301019501936000915b8483106107135750505050505090565b9091929394958480610731600193603f198682030187528a5161035e565b9801930193019194939290610703565b34610259576000366003190112610259576000805160206141318339815191525461076b81611edd565b9061077960405192836118c5565b808252601f1961078882611edd565b0160005b81811061080257505060005b8181106107ad576040518061051f85826106df565b806107e26107dd6107c06107fd9461247d565b600052600080516020614191833981519152602052604060002090565b613306565b6107ec82866122be565b526107f781856122be565b50612299565b610798565b60209061080d6132a2565b8282870101520161078c565b34610259576020600461083461082e366102a5565b906120de565b0154604051908152f35b906020600319830112610259576004356001600160401b039283821161025957806023830112156102595781600401359384116102595760248460051b83010111610259576024019190565b90815180825260208080930193019160005b8281106108aa575050505090565b83516001600160a01b03168552938101939281019260010161089c565b600611156108d157565b634e487b7160e01b600052602160045260246000fd5b9060068210156108d15752565b91906109089060808452608084019061088a565b926020938381038585015284808451928381520193019060005b818110610978575050509061093e91838203604085015261088a565b90606081830391015281808451928381520193019160005b828110610964575050505090565b835185529381019392810192600101610956565b90919386808261098e600194899b9a9b516108e7565b979897019501929101610922565b34610259576109aa3661083e565b6109b581151561392c565b6109be81613978565b6109c782613978565b916109d181613978565b6109da82613978565b9160008091815b818110610a05575050808552855280825282526040519450849361051f93856108f4565b610a1081838b6139aa565b9233610a2d610a2160208701612699565b6001600160a01b031690565b03610abf57610a3b84613a3d565b610a468293926108c7565b8215610ab257610a55836108c7565b60018314610a8b5750610a869291610a8191610a79610a7382612299565b97612699565b908c8c614000565b612299565b6109e1565b610a8693925086610aaa610aa4610a8194989992612299565b98612699565b908a8a61401a565b50935050610a8690612299565b90610a8182610ada610ad4610a869592612299565b96612699565b908b8b613fd9565b3461025957600319602036820112610259576004356001600160401b038111610259576101008160040192823603011261025957610b8960e0610be1610b9e610bd17f30ecc203691b2d18e17ee75d47caf34a3fb9f86e855f7e0414d3cec26d0c424b95610b5088336134ca565b610b5a88806133b8565b96909860a4610bac610b6f60248601846133b8565b610b7c60448801866133b8565b96909560648901906133b8565b99909e6040519d8d8f9e8f90815201916133ea565b918b830360208d01526133ea565b93608481013560408a01520135606088015242608088015286830360a08801526133ea565b9083820360c085015233966133ea565b0390a2005b3461025957610bf4366102a5565b6000805160206140b1833981519152546001600160a01b039261051f91610c1e908516331461273f565b610c3860008051602061411183398151915254848361310c565b929194909585610c63575b505050604051938493846040919493926060820195825260208201520152565b6000805160206140d183398151915290610cac60008080808b335af13d15610ccb573d610c8f81611935565b90610c9d60405192836118c5565b8152600060203d92013e6130c0565b60408051898152602081018790529382169490911692a3388080610c43565b6130c0565b34610259576106c4610ce136610523565b9182158015610cf9575b610cf4906121a4565b612608565b506032831115610ceb565b34610259576040366003190112610259576106c460243580158015610d35575b610d2d906121a4565b6004356122d7565b506032811115610d24565b3461025957610d4e366102a5565b6000805160206140b1833981519152546001600160a01b03929190610d76908416331461273f565b610d808183612fcf565b610d8a81836120de565b610d92611906565b81546001600160a01b0316815260018201546001600160a01b031660208201526002820154604082015260038201546060820152600482015460808201526101006008610de160058501611ef4565b9360a08401948552610df560068201611fb3565b60c0850152610e14610e0b600783015460ff1690565b151560e0860152565b0154910152515180610e2257005b610e4c7f54377dfdebf06f6df53fbda737d2dcd7e141f95bbfb0c1223437e856b9de3ac39161227d565b9380604051931693169180610e6642829190602083019252565b0390a4005b3461025957600080600319360112610ec657610e85611d71565b80546001600160a01b03198116825581906001600160a01b03167f8be0079c531659141344cd1fd0a4f28419497f9722a3daafe3b4186f6b6457e08280a380f35b80fd5b606036600319011261025957600435610ee181610294565b602435610eed81610294565b6000805160206140b183398151915254604435916001600160a01b0391610f17908316331461273f565b610f2181856120de565b9280151580611113575b610f7f575b50906000805160206140d183398151915291610f7a60046003860195610f5734885461226b565b809755015483604051948594169716958360209093929193604081019481520152565b0390a3005b60048401805490946000946005820194929392865b86548810156110c857610fa78888612eaf565b506003810195610fb8875460ff1690565b6110ba576001820180548083106110795750610fe6610ffe92610fe0610ffa9354809261228c565b9a61228c565b885460ff19166001178955975b5460ff1690565b1590565b808061106f575b156110475750816110266110389261102061103e958c612eaf565b90612ecb565b80611031818b612eaf565b5055612299565b97612299565b96949394610f94565b905097909761105a575b61103e90612299565b9661106761103e91612299565b979050611051565b50828a1415611005565b82999892611090575b5050610ffa610ffe91610ff3565b906110a38a6110aa959a939b949b61228c565b905561228c565b94610ffe610ffa60009891611082565b969550509661103e90612299565b9195909493506000805160206140d183398151915296509691966008880191808355815481106110fe575b505050559091610f30565b6111089089612f17565b5490553880806110f3565b5060058401541515610f2b565b346102595760403660031901126102595760043561113d81610294565b602435801591821582036102595761115590336120de565b600781019260ff84541690816111f1575b50611182575b50610021919060ff801983541691151516179055565b60030154611190573861116c565b60405162461bcd60e51b815260206004820152603360248201527f43616e6e6f74207265766f6b652061636b6e6f776c656467656d656e742077696044820152727468206e6f6e2d7a65726f2062616c616e636560681b6064820152608490fd5b905038611166565b34610259576112073661083e565b61121281151561392c565b61121f60328211156139cc565b61122881613978565b9061123281613978565b9261123c82613978565b9161124681613978565b91600080918193825b8181106112a957505050808652865280845282528015801561127e575b505061051f91604051948594856108f4565b6000808093819382906112a0575b3390f11561129b57388061126c565b613a31565b506108fc61128c565b6112b78183859896986139aa565b93898b336112ca610a2160208a01612699565b036113a957976112e6986112dd88613b3a565b909b919561226b565b996112f3610a218a612699565b7f1f69e5b87fd0ce34b3760ba6e5d8aa95a36e316c3ba44e1e65a9d0eb9e96d0bf60405180611323858a83613a18565b0390a261132f856108c7565b841561139a5761133e856108c7565b6001851461137057509181610a819361136561135f61136b98979593612299565b9a612699565b92614000565b61124f565b919798905061136b949350610a81925061139261138c82612299565b99612699565b908b8d61401a565b50509550505061136b90612299565b95906113cf90896113bf61136b96959b91612299565b986113c985612699565b92613fd9565b7f1f69e5b87fd0ce34b3760ba6e5d8aa95a36e316c3ba44e1e65a9d0eb9e96d0bf6113f982612699565b60408051600281529381013560208501526001600160a01b039190911692a2612299565b34610259576000366003190112610259576000546040516001600160a01b039091168152602090f35b3461025957610021611457366102a5565b9061147a60018060a01b036000805160206140b18339815191525416331461273f565b612ac4565b3461025957602036600319011261025957600960043561149e81610294565b6114a6611d71565b7f4909107c46469d21135443e891c6ecae55b5baa31b338d50f391935308b08f8960206114d2836126a3565b846114dc856126a3565b01805460ff60a01b1916600160a01b17905590930154604051600181526001600160a01b0391821694939091169290a3005b346102595760603660031901126102595760243561152b81610294565b60443561153781610294565b6000549160ff8360a01c166115645760ff60a01b19909216600160a01b1760005561002191600435611e10565b60405162461bcd60e51b815260206004820152602260248201527f496e697469616c697a61626c653a20616c726561647920696e697469616c697a604482015261195960f21b6064820152608490fd5b9060206102ca928181520190610623565b34610259576115d33661083e565b6101f4811161167b576115e581612205565b9160005b8281106115fe576040518061051f86826115b4565b6116319061161e33611619611614848888612689565b612699565b612173565b61162781612153565b6116365750612299565b6115e9565b61165a61165f916000526000805160206140f1833981519152602052604060002090565b612057565b61166982876122be565b5261167481866122be565b50386107f7565b60405162461bcd60e51b815260206004820152601e60248201527f42617463682073697a6520746f6f206c6172676520286d6178203530302900006044820152606490fd5b3461025957600080600319360112610ec6576116db3361270a565b6116ff81600052600080516020614171833981519152602052604060002054151590565b156117a5578061177c9183526000805160206141918339815191526020528260096040822082815561173360018201612a7b565b61173f60028201612a7b565b82600382015582600482015582600582015561175d60068201612a7b565b61176960078201612a7b565b61177560088201612a7b565b0155612ca4565b50337f29d546abb6e94f4f04d5bdccb6682316f597d43776078f47e273f000e77b2a918280a280f35b6040516304c76d3f60e11b8152336004820152602490fd5b34610259576000366003190112610259576000805160206140b1833981519152546040516001600160a01b039091168152602090f35b3461025957602036600319011261025957600960043561181281610294565b61181a611d71565b7f4909107c46469d21135443e891c6ecae55b5baa31b338d50f391935308b08f896020611846836126a3565b84611850856126a3565b01805460ff60a01b1916905590930154604051600081526001600160a01b0391821694939091169290a3005b634e487b7160e01b600052604160045260246000fd5b608081019081106001600160401b038211176118ad57604052565b61187c565b6001600160401b0381116118ad57604052565b90601f801991011681019081106001600160401b038211176118ad57604052565b6040519061016082018281106001600160401b038211176118ad57604052565b6040519061012082018281106001600160401b038211176118ad57604052565b6040519061193382611892565b565b6001600160401b0381116118ad57601f01601f191660200190565b92919261195c82611935565b9161196a60405193846118c5565b829481845281830111610259578281602093846000960137010152565b60603660031901126102595760043561199f81610294565b602435906119ac82610294565b6001600160401b03916044358381116102595736602382011215610259576119de903690602481600401359101611950565b6000805160206140b1833981519152546001600160a01b039190611a05908316331461273f565b611a0f8385612173565b90611a1982612153565b611bbc5760008281526000805160206140f183398151915260209081526040822034600382015580546001600160a01b0319166001600160a01b0389161781559197600183810180546001600160a01b0319166001600160a01b038a16179055600684019285519283116118ad578a95611a9d84611a978754611f79565b87612968565b81601f8511600114611b3057509280806000805160206140d18339815191529a999794899794600897611b0a9b94611b25575b50501b916000199060031b1c19161790555b0155611aed816127b3565b50611b0081611afb876124d2565b6128ca565b50611afb8661250b565b5060408051348152600060208201529382169490911692a380f35b015192503880611ad0565b9190601f949394198416611b4987600052602060002090565b9389905b828210611ba2575050926008959285926000805160206140d18339815191529c9b9996611b0a9b999610611b89575b505050811b019055611ae2565b015160001960f88460031b161c19169055388080611b7c565b8385015186558f9a50948701949384019390810190611b4d565b604051632cf0675960e21b81526001600160a01b03868116600483015285166024820152604490fd5b3461025957602036600319011261025957600435611c0281610294565b611c0a611d71565b6001600160a01b03811615611c225761002190611dc9565b60405162461bcd60e51b815260206004820152602660248201527f4f776e61626c653a206e6577206f776e657220697320746865207a65726f206160448201526564647265737360d01b6064820152608490fd5b3461025957602036600319011261025957611c8f611d71565b60043560008051602061411183398151915255005b9060206102ca92818152019061059c565b346102595761051f611cd8611cc9366102a5565b90611cd2611e85565b506120de565b6008611ce2611906565b82546001600160a01b031681529160018101546001600160a01b03166020840152600281015460408401526003810154606084015260048101546080840152611d2d60058201611ef4565b60a0840152611d3e60068201611fb3565b60c0840152611d5d611d54600783015460ff1690565b151560e0850152565b015461010082015260405191829182611ca4565b6000546001600160a01b03163303611d8557565b606460405162461bcd60e51b815260206004820152602060248201527f4f776e61626c653a2063616c6c6572206973206e6f7420746865206f776e65726044820152fd5b600080546001600160a01b039283166001600160a01b03198216811783559216907f8be0079c531659141344cd1fd0a4f28419497f9722a3daafe3b4186f6b6457e09080a3565b9091611e1b90611dc9565b6000805160206141118339815191525560018060a01b03166bffffffffffffffffffffffff60a01b906000805160206140b183398151915281838254161790557fdfd123095cdedb1cecbc229b30f7cf8745fb3d3951645ac4a8fa4c0895f8950291825416179055565b6040519061012082018281106001600160401b038211176118ad5760405281610100600091828152826020820152826040820152826060820152826080820152606060a0820152606060c08201528260e08201520152565b6001600160401b0381116118ad5760051b60200190565b908154611f0081611edd565b92604093611f10855191826118c5565b828152809460208092019260005281600020906000935b858510611f3657505050505050565b6004846001928451611f4781611892565b86548152848701548382015260028701548682015260ff60038801541615156060820152815201930194019391611f27565b90600182811c92168015611fa9575b6020831014611f9357565b634e487b7160e01b600052602260045260246000fd5b91607f1691611f88565b9060405191826000825492611fc784611f79565b9081845260019485811690816000146120345750600114611ff1575b5050611933925003836118c5565b9093915060005260209081600020936000915b81831061201c57505061193393508201013880611fe3565b85548884018501529485019487945091830191612004565b91505061193394506020925060ff191682840152151560051b8201013880611fe3565b906008612062611906565b83546001600160a01b031681529260018101546001600160a01b031660208501526002810154604085015260038101546060850152600481015460808501526120ad60058201611ef4565b60a08501526120be60068201611fb3565b60c08501526120d4610e0b600783015460ff1690565b0154610100830152565b906120e98183612173565b91826000526000805160206140918339815191526020526040600020541561212a5750506000526000805160206140f1833981519152602052604060002090565b60405163023280eb60e21b81526001600160a01b03918216600482015291166024820152604490fd5b600052600080516020614091833981519152602052604060002054151590565b604080516001600160a01b03928316602082019081529390921682820152815261219e6060826118c5565b51902090565b156121ab57565b60405162461bcd60e51b815260206004820152600f60248201526e4c696d697420746f6f206c6172676560881b6044820152606490fd5b604051602081018181106001600160401b038211176118ad576040526000815290565b9061220f82611edd565b61221c60405191826118c5565b828152809261222d601f1991611edd565b019060005b82811061223e57505050565b602090612249611e85565b82828501015201612232565b634e487b7160e01b600052601160045260246000fd5b9190820180921161227857565b612255565b60001981019190821161227857565b9190820391821161227857565b60001981146122785760010190565b634e487b7160e01b600052603260045260246000fd5b80518210156122d25760209160051b010190565b6122a8565b9091600080516020614151833981519152549182811015612378578381018082116122785793158385821561236e575b5050612365575b8084039384116122785761232184612205565b9360005b81811061233157505050565b808301908184116122785761234b61165a61236093612388565b61235582896122be565b526107f781886122be565b612325565b9250819261230e565b1190508338612307565b509091506123846121e2565b9190565b600080516020614151833981519152548110156122d2577fa543db6724dca3e06c9a739e16672b6894bb866e0b44759e50bc403282ce062701546000526000805160206140f1833981519152602052604060002090565b60008051602061413183398151915280548210156122d2576000527f94ce1cc9f419dbfb0d7a61a6415af9981ee3d1c02ba0de79a3c180abfae2b4010190600090565b60008051602061415183398151915280548210156122d2576000527fa543db6724dca3e06c9a739e16672b6894bb866e0b44759e50bc403282ce06270190600090565b80548210156122d25760005260206000200190600090565b60008051602061413183398151915280548210156122d2576000527f94ce1cc9f419dbfb0d7a61a6415af9981ee3d1c02ba0de79a3c180abfae2b401015490565b906124c891612465565b90549060031b1c90565b6001600160a01b031660009081527fdfd123095cdedb1cecbc229b30f7cf8745fb3d3951645ac4a8fa4c0895f895066020526040902090565b6001600160a01b031660009081527fdfd123095cdedb1cecbc229b30f7cf8745fb3d3951645ac4a8fa4c0895f895076020526040902090565b612550909392936124d2565b805493848310156125fd57806125ee575083905b8482116125e6575b8282039182116122785761257f82612205565b9260005b83811061259257505050509190565b806125cc61165a6125af6125a96125e1958761226b565b876124be565b6000526000805160206140f1833981519152602052604060002090565b6125d682886122be565b526107f781876122be565b612583565b84915061256c565b82018083116122785790612564565b5050506123846121e2565b6126149093929361250b565b805493848310156125fd578061267a575083905b848211612672575b8282039182116122785761264382612205565b9260005b83811061265657505050509190565b806125cc61165a6125af6125a961266d958761226b565b612647565b849150612630565b82018083116122785790612628565b91908110156122d25760051b0190565b356102ca81610294565b6126ac8161270a565b600052600080516020614191833981519152602052604060002090600080516020614171833981519152602052604060002054156126e8575090565b6040516304c76d3f60e11b81526001600160a01b039091166004820152602490fd5b604051602081019160018060a01b0316825260208152604081018181106001600160401b038211176118ad5760405251902090565b1561274657565b60405162461bcd60e51b815260206004820152602160248201527f43616c6c6572206973206e6f7420746865206c656467657220636f6e747261636044820152601d60fa1b6064820152608490fd5b916127af9183549060031b91821b91600019901b19161790565b9055565b80600052600080516020614091833981519152806020526040600020541560001461283b576000805160206141518339815191528054600160401b8110156118ad57600181018083558110156122d25783907fa543db6724dca3e06c9a739e16672b6894bb866e0b44759e50bc403282ce062701555491600052602052604060002055600190565b5050600090565b80600052600080516020614171833981519152806020526040600020541560001461283b576000805160206141318339815191528054600160401b8110156118ad57600181018083558110156122d25783907f94ce1cc9f419dbfb0d7a61a6415af9981ee3d1c02ba0de79a3c180abfae2b40101555491600052602052604060002055600190565b6001810190826000528160205260406000205415600014612933578054600160401b8110156118ad5761291e612907826001879401855584612465565b819391549060031b91821b91600019901b19161790565b90555491600052602052604060002055600190565b505050600090565b634e487b7160e01b600052600060045260246000fd5b81811061295c575050565b60008155600101612951565b9190601f811161297757505050565b611933926000526020600020906020601f840160051c830193106129a3575b601f0160051c0190612951565b9091508190612996565b91909182516001600160401b0381116118ad576129d4816129ce8454611f79565b84612968565b602080601f8311600114612a10575081929394600092612a05575b50508160011b916000199060031b1c1916179055565b0151905038806129ef565b90601f19831695612a2685600052602060002090565b926000905b888210612a6357505083600195969710612a4a575b505050811b019055565b015160001960f88460031b161c19169055388080612a40565b80600185968294968601518155019501930190612a2b565b612a858154611f79565b9081612a8f575050565b81601f60009311600114612aa1575055565b908083918252612ac0601f60208420940160051c840160018501612951565b5555565b90612acf8183612173565b91612ad983612153565b15612bb657612af38391612af883612af3612afe966124d2565b612e06565b5061250b565b50612b0881612d59565b5060009081526000805160206140f183398151915260205260408120818155816001820155816002820155816003820155600482818301556005820180549084815581612b6c575b50505080612b62600660089301612a7b565b8260078201550155565b6001600160fe1b0382168203612278578452602084209060021b8101905b81811015612b505780612bb0849260036000918281558260018201558260028201550155565b01612b8a565b505050565b634e487b7160e01b600052603160045260246000fd5b6000805160206141318339815191528054908115612c2357600019820191808310156122d2577f94ce1cc9f419dbfb0d7a61a6415af9981ee3d1c02ba0de79a3c180abfae2b400600091838352015555565b612bbb565b6000805160206141518339815191528054908115612c2357600019820191808310156122d2577fa543db6724dca3e06c9a739e16672b6894bb866e0b44759e50bc403282ce0626600091838352015555565b8054908115612c235760001991820191612c948383612465565b909182549160031b1b1916905555565b60008181526000805160206141718339815191526020526040902054801561283b5760001991818301918083116122785760008051602061413183398151915254938401938411612278578383612d269460009603612d2c575b505050612d09612bd1565b600052600080516020614171833981519152602052604060002090565b55600190565b612d09612d4a91612d426124c8612d50956123df565b9283916123df565b90612795565b55388080612cfe565b60008181526000805160206140918339815191526020526040902054801561283b5760001991818301918083116122785760008051602061415183398151915254938401938411612278578383612d269460009603612ddb575b505050612dbe612c28565b600052600080516020614091833981519152602052604060002090565b612dbe612d4a91612dee612dfd94612422565b90549060031b1c928391612422565b55388080612db3565b6001810191806000528260205260406000205492831515600014612ea6576000199284840190858211612278578054948501948511612278576000958583612e5a94612d269803612e69575b505050612c7a565b90600052602052604060002090565b612e8d612d4a91612e7d612e9d9487612465565b90549060031b1c92839187612465565b8590600052602052604060002090565b55388080612e52565b50505050600090565b80548210156122d25760005260206000209060021b0190600090565b90612f1257818103612edb575050565b600360ff818461193395548555600181015460018601556002810154600286015501541691019060ff801983541691151516179055565b61293b565b60050180545b828111612f2957505050565b81548015612c235760001901612f3f8184612eaf565b612f125760036000918281558260018201558260028201550155825580156122785760001901612f1d565b90612f125760036060836119339451845560208101516001850155604081015160028501550151151591019060ff801983541691151516179055565b90815491600160401b8310156118ad5782612fc991600161193395018155612eaf565b90612f6a565b9190612fdb81846120de565b92600384015491612ff2600486019384549061228c565b9182156130b8576008860191825491601e83101561308f57505060056127af94959601908154809110600014613063575061305090612fc98354613034611926565b9281845286602085015242604085015260006060850152612eaf565b61305a8154612299565b9055825461226b565b61308a9161306f611926565b91825284602083015242604083015260006060830152612fa6565b613050565b604051639edd285f60e01b81526001600160a01b03918216600482015291166024820152604490fd5b505050509050565b156130c757565b60405162461bcd60e51b815260206004820152601960248201527f7472616e7366657220746f206c6564676572206661696c6564000000000000006044820152606490fd5b90613116916120de565b90600582019081541561329057600093600092600091825b82548110156131f0576131418184612eaf565b509760038901986131538a5460ff1690565b6131e45761316587600283015461226b565b42106131945761318161318f93926001610a819301549061226b565b8a5460ff1916600117909a55565b61312e565b966131bd919950946131af61318f939660018a01549061226b565b978187036131c35750612299565b93612299565b6131d1906110208388612eaf565b806131dc8187612eaf565b5055386107f7565b50975061318f90612299565b5094925060088301918083558154808210613225575b50505050816004600383019261321d87855461228c565b809455015591565b61323182600f9261228c565b1061324d576132409084612f17565b5490555b38808080613206565b90959391509391935b85548110156132865780610a816003613272613281948a612eaf565b5001805460ff19166001179055565b613256565b5091935091613244565b50506003810154600490910154600092565b6040519061016082018281106001600160401b038211176118ad5760405281610140600091828152606080602083015280604083015283818301528360808301528360a08301528060c08301528060e0830152610100820152826101208201520152565b9061193360ff60096133166118e6565b85546001600160a01b031681529461333060018201611fb3565b602087015261334160028201611fb3565b60408701526003810154606087015260048101546080870152600581015460a087015261337060068201611fb3565b60c087015261338160078201611fb3565b60e087015261339260088201611fb3565b61010087015201546001600160a01b03811661012086015260a01c161515610140840152565b903590601e198136030182121561025957018035906001600160401b0382116102595760200191813603831361025957565b908060209392818452848401376000828201840152601f01601f1916010190565b9092916001600160401b0381116118ad5761342a816129ce8454611f79565b6000601f821160011461346357819293946000926134585750508160011b916000199060031b1c1916179055565b0135905038806129ef565b601f1982169461347884600052602060002090565b91805b8781106134b257508360019596971061349857505050811b019055565b0135600019600384901b60f8161c19169055388080612a40565b9092602060018192868601358155019401910161347b565b6134d38161270a565b6134fa610ffa82600052600080516020614171833981519152602052604060002054151590565b61371b5750613508906126a3565b90600182019061351782611fb3565b805160208092012061353361352c84806133b8565b3691611950565b82815191012014928315936136e9575b83156136b7575b8315613684575b8315613633575b60e0836135a461359a60099561357e6135fe966135788661361f9b6133b8565b9161340b565b608084013560038b015560a084013560048b01558301836133b8565b9060028a0161340b565b4260058801556135c46135ba60408301836133b8565b9060068a0161340b565b6135de6135d460608301836133b8565b9060078a0161340b565b6135f86135ee60c08301836133b8565b9060088a0161340b565b01612699565b930180546001600160a01b0319166001600160a01b03909416939093178355565b6136265750565b805460ff60a01b19169055565b92506135fe60e061361f936135a461359a60099561357e61365660088c01611fb3565b82815191012061366c61352c60c08801886133b8565b83815191012014159996505095505050935050613558565b60098501549093506001600160a01b03166136a4610a2160e08501612699565b6001600160a01b03909116141592613551565b92506136c560078501611fb3565b8181519101206136db61352c60608501856133b8565b82815191012014159261354a565b92506136f760068501611fb3565b81815191012061370d61352c60408501856133b8565b828151910120141592613543565b9161372681806133b8565b9161373460208201826133b8565b9161374260408201826133b8565b61374f60608401846133b8565b93909460c0820161376090836133b8565b97909860e0840161377090612699565b9a6137796118e6565b6001600160a01b03909d168d52369061379192611950565b60208c015236906137a192611950565b60408a0152608081013560608a015260a0013560808901524260a089015236906137ca92611950565b60c087015236906137da92611950565b60e085015236906137ea92611950565b6101008301526001600160a01b0316610120820152600061014082015261381091613813565b50565b6139276102ca928260005260008051602061419183398151915260205261390d6101406009604060002061386c613850865160018060a01b031690565b82546001600160a01b0319166001600160a01b03909116178255565b61387d6020860151600183016129ad565b61388e6040860151600283016129ad565b606085015160038201556080850151600482015560a085015160058201556138bd60c0860151600683016129ad565b6138ce60e0860151600783016129ad565b6138e0610100860151600883016129ad565b610120850151910180546001600160a01b0319166001600160a01b03909216919091178155920151151590565b815460ff60a01b191690151560a01b60ff60a01b16179055565b612842565b1561393357565b60405162461bcd60e51b815260206004820152601760248201527f4e6f20736574746c656d656e74732070726f76696465640000000000000000006044820152606490fd5b9061398282611edd565b61398f60405191826118c5565b82815280926139a0601f1991611edd565b0190602036910137565b91908110156122d25760051b8101359060be1981360301821215610259570190565b156139d357565b60405162461bcd60e51b815260206004820152601d60248201527f546f6f206d616e7920736574746c656d656e747320696e2062617463680000006044820152606490fd5b60209093929193613a2d8160408101966108e7565b0152565b6040513d6000823e3d90fd5b613a50613a4982612699565b33906120de565b613a59336126a3565b613a6a610ffa600784015460ff1690565b8015613b21575b8015613b0c575b613aff57600282015460808401351115613af25760090154613aa790610ffa906001600160a01b031684613e84565b613ae657600301546000916040013581811115613ade57613ac8925061228c565b905b8115613ad65760019190565b600091508190565b505090613aca565b50906040600592013590565b5050906040600492013590565b5050906040600392013590565b5060098101546001600160a01b031615613a78565b506009810154613b359060a01c60ff161590565b613a71565b613b46613a4982612699565b91613b50336126a3565b613b61610ffa600786015460ff1690565b8015613c5d575b8015613c48575b613c375760028401805491608085013580931015613c245760090154613ba290610ffa906001600160a01b031686613e84565b613c12575560406003840154920135918083119081600014613c0c5780935b60009215613c0457613bd3925061228c565b925b8280613bf4575b50508215613beb576001929190565b60009250829190565b613bfd91613c88565b3882613bdc565b505092613bd5565b83613bc1565b50509091506040600592013590600090565b5050509091506040600492013590600090565b509091506040600392013590600090565b5060098101546001600160a01b031615613b6f565b506009810154613c719060a01c60ff161590565b613b68565b600160ff1b8114612278576000190190565b600391828201918254916004820192835490613ca4828261228c565b8311613db1575b50509091929350613cbd81855461228c565b84557fdfd123095cdedb1cecbc229b30f7cf8745fb3d3951645ac4a8fa4c0895f8950254613cf3906001600160a01b0316610a21565b82549091906001600160a01b031690823b1561025957604051631bb1482360e31b81526001600160a01b039290921660048301526024820152906000908290604490829084905af1801561129b576000805160206140d183398151915292613d9392613d6c92613d98575b50546001600160a01b031690565b9354925460408051948552602085019190915233946001600160a01b031693918291820190565b0390a3565b80613da5613dab926118b2565b8061025e565b38613d5e565b613dc7613dc183613dce9361228c565b8461228c565b809261228c565b84556005830190613ddf825461227d565b905b600090818312613e6457613df58385612eaf565b50808a015460ff16613e58576001018054828111613e455750613e1a9250549061228c565b905b8115613e3157613e2b90613c76565b90613de1565b50505090919293505b908392913880613cab565b91613e50919261228c565b905590613e1c565b5091613e2b9150613c76565b505050509091929350613e3a565b60ff601b9116019060ff821161227857565b604190613e9460a08201826133b8565b929092036129335760209181613ead8460009401612699565b613eb682612699565b604080516060808601358983019081526080870135602082015294811b6bffffffffffffffffffffffff199081168685015293901b90921660548401529290920135606882015281608882010391613f16601f19938481018352826118c5565b51902090613f656040519182613f598882019586603c917f19457468657265756d205369676e6564204d6573736167653a0a3332000000008252601c8201520190565b039081018352826118c5565b519020906040810135831a90601b8210613fc4575b6040805193845260ff9092166020840152803591830191909152830135606082015280608081015b838052039060015afa1561129b576000516001600160a01b0390811691161490565b90613fd1613fa291613e72565b919050613f7a565b90600293613feb84613ffd95946122be565b6001600160a01b0390911690526122be565b52565b92613feb8361400e956122be565b60068210156108d15752565b92613feb83613ffd956122be565b7fdfd123095cdedb1cecbc229b30f7cf8745fb3d3951645ac4a8fa4c0895f89502546001600160a01b0316803b1561025957600060249160405192838092637ac2f9f560e11b825233600483015234905af1801561129b576140875750565b611933906118b256fedfd123095cdedb1cecbc229b30f7cf8745fb3d3951645ac4a8fa4c0895f89504dfd123095cdedb1cecbc229b30f7cf8745fb3d3951645ac4a8fa4c0895f89501526824944047da5b81071fb6349412005c5da81380b336103fbe5dd34556c776dfd123095cdedb1cecbc229b30f7cf8745fb3d3951645ac4a8fa4c0895f89505dfd123095cdedb1cecbc229b30f7cf8745fb3d3951645ac4a8fa4c0895f89500dfd123095cdedb1cecbc229b30f7cf8745fb3d3951645ac4a8fa4c0895f89508dfd123095cdedb1cecbc229b30f7cf8745fb3d3951645ac4a8fa4c0895f89503dfd123095cdedb1cecbc229b30f7cf8745fb3d3951645ac4a8fa4c0895f89509dfd123095cdedb1cecbc229b30f7cf8745fb3d3951645ac4a8fa4c0895f8950aa2646970667358221220a8767b9f59801de191e662fcaeac7316bf00a658c71fe24f5d05f38895ae9e9a64736f6c63430008140033",
  "devdoc": {
    "kind": "dev",
    "methods": {
      "owner()": {
        "details": "Returns the address of the current owner."
      },
      "renounceOwnership()": {
        "details": "Leaves the contract without owner. It will not be possible to call `onlyOwner` functions anymore. Can only be called by the current owner. NOTE: Renouncing ownership will leave the contract without an owner, thereby removing any functionality that is only available to the owner."
      },
      "supportsInterface(bytes4)": {
        "details": "See {IERC165-supportsInterface}."
      },
      "transferOwnership(address)": {
        "details": "Transfers ownership of the contract to a new account (`newOwner`). Can only be called by the current owner."
      }
    },
    "version": 1
  },
  "userdoc": {
    "kind": "user",
    "methods": {},
    "version": 1
  },
  "storageLayout": {
    "storage": [
      {
        "astId": 7,
        "contract": "contracts/inference/InferenceServing.sol:InferenceServing",
        "label": "_owner",
        "offset": 0,
        "slot": "0",
        "type": "t_address"
      },
      {
        "astId": 13479,
        "contract": "contracts/inference/InferenceServing.sol:InferenceServing",
        "label": "initialized",
        "offset": 20,
        "slot": "0",
        "type": "t_bool"
      },
      {
        "astId": 123,
        "contract": "contracts/inference/InferenceServing.sol:InferenceServing",
        "label": "_status",
        "offset": 0,
        "slot": "1",
        "type": "t_uint256"
      }
    ],
    "types": {
      "t_address": {
        "encoding": "inplace",
        "label": "address",
        "numberOfBytes": "20"
      },
      "t_bool": {
        "encoding": "inplace",
        "label": "bool",
        "numberOfBytes": "1"
      },
      "t_uint256": {
        "encoding": "inplace",
        "label": "uint256",
        "numberOfBytes": "32"
      }
    }
  }
}