{
  "address": "0x5D5EA4e2c884CBaA04E8f5ba6986f559d499DC0d",
  "abi": [
    {
      "inputs": [
        {
          "internalType": "address",
          "name": "user",
          "type": "address"
        },
        {
          "internalType": "address",
          "name": "provider",
          "type": "address"
        }
      ],
      "name": "AccountExists",
      "type": "error"
    },
    {
      "inputs": [
        {
          "internalType": "address",
          "name": "user",
          "type": "address"
        },
        {
          "internalType": "address",
          "name": "provider",
          "type": "address"
        }
      ],
      "name": "AccountNotExists",
      "type": "error"
    },
    {
      "inputs": [],
      "name": "AdditionalInfoTooLong",
      "type": "error"
    },
    {
      "inputs": [
        {
          "internalType": "string",
          "name": "reason",
          "type": "string"
        }
      ],
      "name": "InvalidTEESignature",
      "type": "error"
    },
    {
      "inputs": [
        {
          "internalType": "address",
          "name": "provider",
          "type": "address"
        }
      ],
      "name": "ServiceNotExist",
      "type": "error"
    },
    {
      "inputs": [
        {
          "internalType": "address",
          "name": "user",
          "type": "address"
        },
        {
          "internalType": "address",
          "name": "provider",
          "type": "address"
        }
      ],
      "name": "TooManyRefunds",
      "type": "error"
    },
    {
      "anonymous": false,
      "inputs": [
        {
          "indexed": true,
          "internalType": "address",
          "name": "user",
          "type": "address"
        },
        {
          "indexed": true,
          "internalType": "address",
          "name": "provider",
          "type": "address"
        },
        {
          "indexed": false,
          "internalType": "uint256",
          "name": "amount",
          "type": "uint256"
        },
        {
          "indexed": false,
          "internalType": "uint256",
          "name": "pendingRefund",
          "type": "uint256"
        }
      ],
      "name": "BalanceUpdated",
      "type": "event"
    },
    {
      "anonymous": false,
      "inputs": [
        {
          "indexed": false,
          "internalType": "address[]",
          "name": "users",
          "type": "address[]"
        },
        {
          "indexed": false,
          "internalType": "uint256[]",
          "name": "balances",
          "type": "uint256[]"
        },
        {
          "indexed": false,
          "internalType": "uint256[]",
          "name": "pendingRefunds",
          "type": "uint256[]"
        }
      ],
      "name": "BatchBalanceUpdated",
      "type": "event"
    },
    {
      "anonymous": false,
      "inputs": [
        {
          "indexed": true,
          "internalType": "address",
          "name": "previousOwner",
          "type": "address"
        },
        {
          "indexed": true,
          "internalType": "address",
          "name": "newOwner",
          "type": "address"
        }
      ],
      "name": "OwnershipTransferred",
      "type": "event"
    },
    {
      "anonymous": false,
      "inputs": [
        {
          "indexed": true,
          "internalType": "address",
          "name": "provider",
          "type": "address"
        },
        {
          "indexed": true,
          "internalType": "address",
          "name": "teeSignerAddress",
          "type": "address"
        },
        {
          "indexed": false,
          "internalType": "bool",
          "name": "acknowledged",
          "type": "bool"
        }
      ],
      "name": "ProviderTEESignerAcknowledged",
      "type": "event"
    },
    {
      "anonymous": false,
      "inputs": [
        {
          "indexed": true,
          "internalType": "address",
          "name": "user",
          "type": "address"
        },
        {
          "indexed": true,
          "internalType": "address",
          "name": "provider",
          "type": "address"
        },
        {
          "indexed": true,
          "internalType": "uint256",
          "name": "index",
          "type": "uint256"
        },
        {
          "indexed": false,
          "internalType": "uint256",
          "name": "timestamp",
          "type": "uint256"
        }
      ],
      "name": "RefundRequested",
      "type": "event"
    },
    {
      "anonymous": false,
      "inputs": [
        {
          "indexed": true,
          "internalType": "address",
          "name": "service",
          "type": "address"
        }
      ],
      "name": "ServiceRemoved",
      "type": "event"
    },
    {
      "anonymous": false,
      "inputs": [
        {
          "indexed": true,
          "internalType": "address",
          "name": "service",
          "type": "address"
        },
        {
          "indexed": false,
          "internalType": "string",
          "name": "serviceType",
          "type": "string"
        },
        {
          "indexed": false,
          "internalType": "string",
          "name": "url",
          "type": "string"
        },
        {
          "indexed": false,
          "internalType": "uint256",
          "name": "inputPrice",
          "type": "uint256"
        },
        {
          "indexed": false,
          "internalType": "uint256",
          "name": "outputPrice",
          "type": "uint256"
        },
        {
          "indexed": false,
          "internalType": "uint256",
          "name": "updatedAt",
          "type": "uint256"
        },
        {
          "indexed": false,
          "internalType": "string",
          "name": "model",
          "type": "string"
        },
        {
          "indexed": false,
          "internalType": "string",
          "name": "verifiability",
          "type": "string"
        }
      ],
      "name": "ServiceUpdated",
      "type": "event"
    },
    {
      "anonymous": false,
      "inputs": [
        {
          "indexed": true,
          "internalType": "address",
          "name": "user",
          "type": "address"
        },
        {
          "indexed": false,
          "internalType": "enum SettlementStatus",
          "name": "status",
          "type": "uint8"
        },
        {
          "indexed": false,
          "internalType": "uint256",
          "name": "unsettledAmount",
          "type": "uint256"
        }
      ],
      "name": "TEESettlementResult",
      "type": "event"
    },
    {
      "inputs": [],
      "name": "MAX_LOCKTIME",
      "outputs": [
        {
          "internalType": "uint256",
          "name": "",
          "type": "uint256"
        }
      ],
      "stateMutability": "view",
      "type": "function"
    },
    {
      "inputs": [],
      "name": "MIN_LOCKTIME",
      "outputs": [
        {
          "internalType": "uint256",
          "name": "",
          "type": "uint256"
        }
      ],
      "stateMutability": "view",
      "type": "function"
    },
    {
      "inputs": [
        {
          "internalType": "address",
          "name": "user",
          "type": "address"
        },
        {
          "internalType": "address",
          "name": "provider",
          "type": "address"
        }
      ],
      "name": "accountExists",
      "outputs": [
        {
          "internalType": "bool",
          "name": "",
          "type": "bool"
        }
      ],
      "stateMutability": "view",
      "type": "function"
    },
    {
      "inputs": [
        {
          "internalType": "address",
          "name": "provider",
          "type": "address"
        },
        {
          "internalType": "bool",
          "name": "acknowledged",
          "type": "bool"
        }
      ],
      "name": "acknowledgeTEESigner",
      "outputs": [],
      "stateMutability": "nonpayable",
      "type": "function"
    },
    {
      "inputs": [
        {
          "internalType": "address",
          "name": "provider",
          "type": "address"
        }
      ],
      "name": "acknowledgeTEESignerByOwner",
      "outputs": [],
      "stateMutability": "nonpayable",
      "type": "function"
    },
    {
      "inputs": [
        {
          "internalType": "address",
          "name": "user",
          "type": "address"
        },
        {
          "internalType": "address",
          "name": "provider",
          "type": "address"
        },
        {
          "internalType": "string",
          "name": "additionalInfo",
          "type": "string"
        }
      ],
      "name": "addAccount",
      "outputs": [],
      "stateMutability": "payable",
      "type": "function"
    },
    {
      "inputs": [
        {
          "components": [
            {
              "internalType": "string",
              "name": "serviceType",
              "type": "string"
            },
            {
              "internalType": "string",
              "name": "url",
              "type": "string"
            },
            {
              "internalType": "string",
              "name": "model",
              "type": "string"
            },
            {
              "internalType": "string",
              "name": "verifiability",
              "type": "string"
            },
            {
              "internalType": "uint256",
              "name": "inputPrice",
              "type": "uint256"
            },
            {
              "internalType": "uint256",
              "name": "outputPrice",
              "type": "uint256"
            },
            {
              "internalType": "string",
              "name": "additionalInfo",
              "type": "string"
            },
            {
              "internalType": "address",
              "name": "teeSignerAddress",
              "type": "address"
            }
          ],
          "internalType": "struct ServiceParams",
          "name": "params",
          "type": "tuple"
        }
      ],
      "name": "addOrUpdateService",
      "outputs": [],
      "stateMutability": "nonpayable",
      "type": "function"
    },
    {
      "inputs": [
        {
          "internalType": "address",
          "name": "user",
          "type": "address"
        },
        {
          "internalType": "address",
          "name": "provider",
          "type": "address"
        }
      ],
      "name": "deleteAccount",
      "outputs": [],
      "stateMutability": "nonpayable",
      "type": "function"
    },
    {
      "inputs": [
        {
          "internalType": "address",
          "name": "user",
          "type": "address"
        },
        {
          "internalType": "address",
          "name": "provider",
          "type": "address"
        },
        {
          "internalType": "uint256",
          "name": "cancelRetrievingAmount",
          "type": "uint256"
        }
      ],
      "name": "depositFund",
      "outputs": [],
      "stateMutability": "payable",
      "type": "function"
    },
    {
      "inputs": [
        {
          "internalType": "address",
          "name": "user",
          "type": "address"
        },
        {
          "internalType": "address",
          "name": "provider",
          "type": "address"
        }
      ],
      "name": "getAccount",
      "outputs": [
        {
          "components": [
            {
              "internalType": "address",
              "name": "user",
              "type": "address"
            },
            {
              "internalType": "address",
              "name": "provider",
              "type": "address"
            },
            {
              "internalType": "uint256",
              "name": "nonce",
              "type": "uint256"
            },
            {
              "internalType": "uint256",
              "name": "balance",
              "type": "uint256"
            },
            {
              "internalType": "uint256",
              "name": "pendingRefund",
              "type": "uint256"
            },
            {
              "components": [
                {
                  "internalType": "uint256",
                  "name": "index",
                  "type": "uint256"
                },
                {
                  "internalType": "uint256",
                  "name": "amount",
                  "type": "uint256"
                },
                {
                  "internalType": "uint256",
                  "name": "createdAt",
                  "type": "uint256"
                },
                {
                  "internalType": "bool",
                  "name": "processed",
                  "type": "bool"
                }
              ],
              "internalType": "struct Refund[]",
              "name": "refunds",
              "type": "tuple[]"
            },
            {
              "internalType": "string",
              "name": "additionalInfo",
              "type": "string"
            },
            {
              "internalType": "bool",
              "name": "acknowledged",
              "type": "bool"
            },
            {
              "internalType": "uint256",
              "name": "validRefundsLength",
              "type": "uint256"
            }
          ],
          "internalType": "struct Account",
          "name": "",
          "type": "tuple"
        }
      ],
      "stateMutability": "view",
      "type": "function"
    },
    {
      "inputs": [
        {
          "internalType": "address",
          "name": "provider",
          "type": "address"
        },
        {
          "internalType": "uint256",
          "name": "offset",
          "type": "uint256"
        },
        {
          "internalType": "uint256",
          "name": "limit",
          "type": "uint256"
        }
      ],
      "name": "getAccountsByProvider",
      "outputs": [
        {
          "components": [
            {
              "internalType": "address",
              "name": "user",
              "type": "address"
            },
            {
              "internalType": "address",
              "name": "provider",
              "type": "address"
            },
            {
              "internalType": "uint256",
              "name": "nonce",
              "type": "uint256"
            },
            {
              "internalType": "uint256",
              "name": "balance",
              "type": "uint256"
            },
            {
              "internalType": "uint256",
              "name": "pendingRefund",
              "type": "uint256"
            },
            {
              "components": [
                {
                  "internalType": "uint256",
                  "name": "index",
                  "type": "uint256"
                },
                {
                  "internalType": "uint256",
                  "name": "amount",
                  "type": "uint256"
                },
                {
                  "internalType": "uint256",
                  "name": "createdAt",
                  "type": "uint256"
                },
                {
                  "internalType": "bool",
                  "name": "processed",
                  "type": "bool"
                }
              ],
              "internalType": "struct Refund[]",
              "name": "refunds",
              "type": "tuple[]"
            },
            {
              "internalType": "string",
              "name": "additionalInfo",
              "type": "string"
            },
            {
              "internalType": "bool",
              "name": "acknowledged",
              "type": "bool"
            },
            {
              "internalType": "uint256",
              "name": "validRefundsLength",
              "type": "uint256"
            }
          ],
          "internalType": "struct Account[]",
          "name": "accounts",
          "type": "tuple[]"
        },
        {
          "internalType": "uint256",
          "name": "total",
          "type": "uint256"
        }
      ],
      "stateMutability": "view",
      "type": "function"
    },
    {
      "inputs": [
        {
          "internalType": "address",
          "name": "user",
          "type": "address"
        },
        {
          "internalType": "uint256",
          "name": "offset",
          "type": "uint256"
        },
        {
          "internalType": "uint256",
          "name": "limit",
          "type": "uint256"
        }
      ],
      "name": "getAccountsByUser",
      "outputs": [
        {
          "components": [
            {
              "internalType": "address",
              "name": "user",
              "type": "address"
            },
            {
              "internalType": "address",
              "name": "provider",
              "type": "address"
            },
            {
              "internalType": "uint256",
              "name": "nonce",
              "type": "uint256"
            },
            {
              "internalType": "uint256",
              "name": "balance",
              "type": "uint256"
            },
            {
              "internalType": "uint256",
              "name": "pendingRefund",
              "type": "uint256"
            },
            {
              "components": [
                {
                  "internalType": "uint256",
                  "name": "index",
                  "type": "uint256"
                },
                {
                  "internalType": "uint256",
                  "name": "amount",
                  "type": "uint256"
                },
                {
                  "internalType": "uint256",
                  "name": "createdAt",
                  "type": "uint256"
                },
                {
                  "internalType": "bool",
                  "name": "processed",
                  "type": "bool"
                }
              ],
              "internalType": "struct Refund[]",
              "name": "refunds",
              "type": "tuple[]"
            },
            {
              "internalType": "string",
              "name": "additionalInfo",
              "type": "string"
            },
            {
              "internalType": "bool",
              "name": "acknowledged",
              "type": "bool"
            },
            {
              "internalType": "uint256",
              "name": "validRefundsLength",
              "type": "uint256"
            }
          ],
          "internalType": "struct Account[]",
          "name": "accounts",
          "type": "tuple[]"
        },
        {
          "internalType": "uint256",
          "name": "total",
          "type": "uint256"
        }
      ],
      "stateMutability": "view",
      "type": "function"
    },
    {
      "inputs": [
        {
          "internalType": "uint256",
          "name": "offset",
          "type": "uint256"
        },
        {
          "internalType": "uint256",
          "name": "limit",
          "type": "uint256"
        }
      ],
      "name": "getAllAccounts",
      "outputs": [
        {
          "components": [
            {
              "internalType": "address",
              "name": "user",
              "type": "address"
            },
            {
              "internalType": "address",
              "name": "provider",
              "type": "address"
            },
            {
              "internalType": "uint256",
              "name": "nonce",
              "type": "uint256"
            },
            {
              "internalType": "uint256",
              "name": "balance",
              "type": "uint256"
            },
            {
              "internalType": "uint256",
              "name": "pendingRefund",
              "type": "uint256"
            },
            {
              "components": [
                {
                  "internalType": "uint256",
                  "name": "index",
                  "type": "uint256"
                },
                {
                  "internalType": "uint256",
                  "name": "amount",
                  "type": "uint256"
                },
                {
                  "internalType": "uint256",
                  "name": "createdAt",
                  "type": "uint256"
                },
                {
                  "internalType": "bool",
                  "name": "processed",
                  "type": "bool"
                }
              ],
              "internalType": "struct Refund[]",
              "name": "refunds",
              "type": "tuple[]"
            },
            {
              "internalType": "string",
              "name": "additionalInfo",
              "type": "string"
            },
            {
              "internalType": "bool",
              "name": "acknowledged",
              "type": "bool"
            },
            {
              "internalType": "uint256",
              "name": "validRefundsLength",
              "type": "uint256"
            }
          ],
          "internalType": "struct Account[]",
          "name": "accounts",
          "type": "tuple[]"
        },
        {
          "internalType": "uint256",
          "name": "total",
          "type": "uint256"
        }
      ],
      "stateMutability": "view",
      "type": "function"
    },
    {
      "inputs": [
        {
          "internalType": "uint256",
          "name": "offset",
          "type": "uint256"
        },
        {
          "internalType": "uint256",
          "name": "limit",
          "type": "uint256"
        }
      ],
      "name": "getAllServices",
      "outputs": [
        {
          "components": [
            {
              "internalType": "address",
              "name": "provider",
              "type": "address"
            },
            {
              "internalType": "string",
              "name": "serviceType",
              "type": "string"
            },
            {
              "internalType": "string",
              "name": "url",
              "type": "string"
            },
            {
              "internalType": "uint256",
              "name": "inputPrice",
              "type": "uint256"
            },
            {
              "internalType": "uint256",
              "name": "outputPrice",
              "type": "uint256"
            },
            {
              "internalType": "uint256",
              "name": "updatedAt",
              "type": "uint256"
            },
            {
              "internalType": "string",
              "name": "model",
              "type": "string"
            },
            {
              "internalType": "string",
              "name": "verifiability",
              "type": "string"
            },
            {
              "internalType": "string",
              "name": "additionalInfo",
              "type": "string"
            },
            {
              "internalType": "address",
              "name": "teeSignerAddress",
              "type": "address"
            },
            {
              "internalType": "bool",
              "name": "teeSignerAcknowledged",
              "type": "bool"
            }
          ],
          "internalType": "struct Service[]",
          "name": "services",
          "type": "tuple[]"
        },
        {
          "internalType": "uint256",
          "name": "total",
          "type": "uint256"
        }
      ],
      "stateMutability": "view",
      "type": "function"
    },
    {
      "inputs": [
        {
          "internalType": "address[]",
          "name": "users",
          "type": "address[]"
        }
      ],
      "name": "getBatchAccountsByUsers",
      "outputs": [
        {
          "components": [
            {
              "internalType": "address",
              "name": "user",
              "type": "address"
            },
            {
              "internalType": "address",
              "name": "provider",
              "type": "address"
            },
            {
              "internalType": "uint256",
              "name": "nonce",
              "type": "uint256"
            },
            {
              "internalType": "uint256",
              "name": "balance",
              "type": "uint256"
            },
            {
              "internalType": "uint256",
              "name": "pendingRefund",
              "type": "uint256"
            },
            {
              "components": [
                {
                  "internalType": "uint256",
                  "name": "index",
                  "type": "uint256"
                },
                {
                  "internalType": "uint256",
                  "name": "amount",
                  "type": "uint256"
                },
                {
                  "internalType": "uint256",
                  "name": "createdAt",
                  "type": "uint256"
                },
                {
                  "internalType": "bool",
                  "name": "processed",
                  "type": "bool"
                }
              ],
              "internalType": "struct Refund[]",
              "name": "refunds",
              "type": "tuple[]"
            },
            {
              "internalType": "string",
              "name": "additionalInfo",
              "type": "string"
            },
            {
              "internalType": "bool",
              "name": "acknowledged",
              "type": "bool"
            },
            {
              "internalType": "uint256",
              "name": "validRefundsLength",
              "type": "uint256"
            }
          ],
          "internalType": "struct Account[]",
          "name": "accounts",
          "type": "tuple[]"
        }
      ],
      "stateMutability": "view",
      "type": "function"
    },
    {
      "inputs": [
        {
          "internalType": "address",
          "name": "user",
          "type": "address"
        },
        {
          "internalType": "address",
          "name": "provider",
          "type": "address"
        }
      ],
      "name": "getPendingRefund",
      "outputs": [
        {
          "internalType": "uint256",
          "name": "",
          "type": "uint256"
        }
      ],
      "stateMutability": "view",
      "type": "function"
    },
    {
      "inputs": [
        {
          "internalType": "address",
          "name": "provider",
          "type": "address"
        }
      ],
      "name": "getService",
      "outputs": [
        {
          "components": [
            {
              "internalType": "address",
              "name": "provider",
              "type": "address"
            },
            {
              "internalType": "string",
              "name": "serviceType",
              "type": "string"
            },
            {
              "internalType": "string",
              "name": "url",
              "type": "string"
            },
            {
              "internalType": "uint256",
              "name": "inputPrice",
              "type": "uint256"
            },
            {
              "internalType": "uint256",
              "name": "outputPrice",
              "type": "uint256"
            },
            {
              "internalType": "uint256",
              "name": "updatedAt",
              "type": "uint256"
            },
            {
              "internalType": "string",
              "name": "model",
              "type": "string"
            },
            {
              "internalType": "string",
              "name": "verifiability",
              "type": "string"
            },
            {
              "internalType": "string",
              "name": "additionalInfo",
              "type": "string"
            },
            {
              "internalType": "address",
              "name": "teeSignerAddress",
              "type": "address"
            },
            {
              "internalType": "bool",
              "name": "teeSignerAcknowledged",
              "type": "bool"
            }
          ],
          "internalType": "struct Service",
          "name": "service",
          "type": "tuple"
        }
      ],
      "stateMutability": "view",
      "type": "function"
    },
    {
      "inputs": [
        {
          "internalType": "uint256",
          "name": "_locktime",
          "type": "uint256"
        },
        {
          "internalType": "address",
          "name": "_ledgerAddress",
          "type": "address"
        },
        {
          "internalType": "address",
          "name": "owner",
          "type": "address"
        }
      ],
      "name": "initialize",
      "outputs": [],
      "stateMutability": "nonpayable",
      "type": "function"
    },
    {
      "inputs": [],
      "name": "initialized",
      "outputs": [
        {
          "internalType": "bool",
          "name": "",
          "type": "bool"
        }
      ],
      "stateMutability": "view",
      "type": "function"
    },
    {
      "inputs": [],
      "name": "ledgerAddress",
      "outputs": [
        {
          "internalType": "address",
          "name": "",
          "type": "address"
        }
      ],
      "stateMutability": "view",
      "type": "function"
    },
    {
      "inputs": [],
      "name": "lockTime",
      "outputs": [
        {
          "internalType": "uint256",
          "name": "",
          "type": "uint256"
        }
      ],
      "stateMutability": "view",
      "type": "function"
    },
    {
      "inputs": [],
      "name": "owner",
      "outputs": [
        {
          "internalType": "address",
          "name": "",
          "type": "address"
        }
      ],
      "stateMutability": "view",
      "type": "function"
    },
    {
      "inputs": [
        {
          "components": [
            {
              "internalType": "address",
              "name": "user",
              "type": "address"
            },
            {
              "internalType": "address",
              "name": "provider",
              "type": "address"
            },
            {
              "internalType": "uint256",
              "name": "totalFee",
              "type": "uint256"
            },
            {
              "internalType": "bytes32",
              "name": "requestsHash",
              "type": "bytes32"
            },
            {
              "internalType": "uint256",
              "name": "nonce",
              "type": "uint256"
            },
            {
              "internalType": "bytes",
              "name": "signature",
              "type": "bytes"
            }
          ],
          "internalType": "struct TEESettlementData[]",
          "name": "settlements",
          "type": "tuple[]"
        }
      ],
      "name": "previewSettlementResults",
      "outputs": [
        {
          "internalType": "address[]",
          "name": "failedUsers",
          "type": "address[]"
        },
        {
          "internalType": "enum SettlementStatus[]",
          "name": "failureReasons",
          "type": "uint8[]"
        },
        {
          "internalType": "address[]",
          "name": "partialUsers",
          "type": "address[]"
        },
        {
          "internalType": "uint256[]",
          "name": "partialAmounts",
          "type": "uint256[]"
        }
      ],
      "stateMutability": "view",
      "type": "function"
    },
    {
      "inputs": [
        {
          "internalType": "address",
          "name": "user",
          "type": "address"
        },
        {
          "internalType": "address",
          "name": "provider",
          "type": "address"
        }
      ],
      "name": "processRefund",
      "outputs": [
        {
          "internalType": "uint256",
          "name": "totalAmount",
          "type": "uint256"
        },
        {
          "internalType": "uint256",
          "name": "balance",
          "type": "uint256"
        },
        {
          "internalType": "uint256",
          "name": "pendingRefund",
          "type": "uint256"
        }
      ],
      "stateMutability": "nonpayable",
      "type": "function"
    },
    {
      "inputs": [],
      "name": "removeService",
      "outputs": [],
      "stateMutability": "nonpayable",
      "type": "function"
    },
    {
      "inputs": [],
      "name": "renounceOwnership",
      "outputs": [],
      "stateMutability": "nonpayable",
      "type": "function"
    },
    {
      "inputs": [
        {
          "internalType": "address",
          "name": "user",
          "type": "address"
        },
        {
          "internalType": "address",
          "name": "provider",
          "type": "address"
        }
      ],
      "name": "requestRefundAll",
      "outputs": [],
      "stateMutability": "nonpayable",
      "type": "function"
    },
    {
      "inputs": [
        {
          "internalType": "address",
          "name": "provider",
          "type": "address"
        }
      ],
      "name": "revokeTEESignerAcknowledgement",
      "outputs": [],
      "stateMutability": "nonpayable",
      "type": "function"
    },
    {
      "inputs": [
        {
          "components": [
            {
              "internalType": "address",
              "name": "user",
              "type": "address"
            },
            {
              "internalType": "address",
              "name": "provider",
              "type": "address"
            },
            {
              "internalType": "uint256",
              "name": "totalFee",
              "type": "uint256"
            },
            {
              "internalType": "bytes32",
              "name": "requestsHash",
              "type": "bytes32"
            },
            {
              "internalType": "uint256",
              "name": "nonce",
              "type": "uint256"
            },
            {
              "internalType": "bytes",
              "name": "signature",
              "type": "bytes"
            }
          ],
          "internalType": "struct TEESettlementData[]",
          "name": "settlements",
          "type": "tuple[]"
        }
      ],
      "name": "settleFeesWithTEE",
      "outputs": [
        {
          "internalType": "address[]",
          "name": "failedUsers",
          "type": "address[]"
        },
        {
          "internalType": "enum SettlementStatus[]",
          "name": "failureReasons",
          "type": "uint8[]"
        },
        {
          "internalType": "address[]",
          "name": "partialUsers",
          "type": "address[]"
        },
        {
          "internalType": "uint256[]",
          "name": "partialAmounts",
          "type": "uint256[]"
        }
      ],
      "stateMutability": "nonpayable",
      "type": "function"
    },
    {
      "inputs": [
        {
          "internalType": "bytes4",
          "name": "interfaceId",
          "type": "bytes4"
        }
      ],
      "name": "supportsInterface",
      "outputs": [
        {
          "internalType": "bool",
          "name": "",
          "type": "bool"
        }
      ],
      "stateMutability": "view",
      "type": "function"
    },
    {
      "inputs": [
        {
          "internalType": "address",
          "name": "newOwner",
          "type": "address"
        }
      ],
      "name": "transferOwnership",
      "outputs": [],
      "stateMutability": "nonpayable",
      "type": "function"
    },
    {
      "inputs": [
        {
          "internalType": "uint256",
          "name": "_locktime",
          "type": "uint256"
        }
      ],
      "name": "updateLockTime",
      "outputs": [],
      "stateMutability": "nonpayable",
      "type": "function"
    },
    {
      "stateMutability": "payable",
      "type": "receive"
    }
  ],
  "transactionHash": "0xe401a50397492709fcaad0b445616aab8bbd48f5400681f0fc2ea002d76bd971",
  "args": [],
  "numDeployments": 3,
  "solcInputHash": "3d5f169021bf6917447ced64c75e4872",
  "bytecode": "0x6080806040523461005f5760008054336001600160a01b0319821681178355916001600160a01b03909116907f8be0079c531659141344cd1fd0a4f28419497f9722a3daafe3b4186f6b6457e09080a3600180556143d190816100658239f35b600080fdfe6080604052600436101561001e575b361561001957600080fd5b614222565b60003560e01c806301ffc9a71461021e5780630d66808714610219578063147500e314610214578063158ef93e1461020f57806315a523021461020a5780631d73b9f514610205578063264173d61461020057806328b60476146101fb578063398c8e4e146101f65780633ea527cb146101f15780634e3c4f22146101ec5780634fe63f4d146101e75780635bd7ace2146101e25780636c79158d146101dd578063715018a6146101d8578063745e87f7146101d35780637ff6fc1c146101ce5780638be74119146101c95780638da5cb5b146101c457806397216725146101bf578063a09cfca9146101ba578063ad6dca3f146101b5578063b2394d09146101b0578063b4988fd0146101ab578063ba16a750146101a6578063bbee42d9146101a1578063d1d200561461019c578063ddf96abd14610197578063e50688f914610192578063f2fde38b1461018d578063fbfa4e11146101885763fd5908470361000e57611cf9565b611c98565b611c07565b6119a9565b6117fa565b6117c4565b6116c7565b6115cb565b611514565b611485565b611468565b6113b1565b611378565b61134f565b61112b565b611050565b610df9565b610d9b565b610c70565b610c21565b610bde565b610af4565b610ad6565b6109d2565b61088c565b610709565b6106b6565b61044c565b610313565b6102e8565b610284565b346102745760203660031901126102745760043563ffffffff60e01b81168091036102745760209063160841b160e01b8114908115610263575b506040519015158152f35b6301ffc9a760e01b14905038610258565b600080fd5b600091031261027457565b346102745760003660031901126102745760206000805160206142fc83398151915254604051908152f35b6001600160a01b0381160361027457565b6040906003190112610274576004356102d8816102af565b906024356102e5816102af565b90565b346102745760206103096103046102fe366102c0565b9061221d565b6121fd565b6040519015158152f35b3461027457600036600319011261027457602060ff60005460a01c166040519015158152f35b919082519283825260005b848110610365575050826000602080949584010152601f8019910116010190565b602081830181015184830182015201610344565b80516001600160a01b03168252906102e5906104186104046103f26103c26103b06020880151610160806020890152870190610339565b60408801518682036040880152610339565b606087015160608601526080870151608086015260a087015160a086015260c087015185820360c0870152610339565b60e086015184820360e0860152610339565b610100808601519084830390850152610339565b610120808501516001600160a01b03169083015292610140908101511515910152565b9060206102e5928181520190610379565b346102745760203660031901126102745761053a61047d60043561046f816102af565b61047761335e565b5061275f565b61052e60ff600961048c611908565b84546001600160a01b03168152936104a66001820161205d565b60208601526104b76002820161205d565b60408601526003810154606086015260048101546080860152600581015460a08601526104e66006820161205d565b60c08601526104f76007820161205d565b60e08601526105086008820161205d565b61010086015201546001600160a01b03811661012085015260a01c161515610140830152565b6040519182918261043b565b0390f35b606090600319011261027457600435610556816102af565b906024359060443590565b90815180825260208080930193019160005b828110610581575050505090565b83518051865280830151868401526040808201519087015260609081015115159086015260809094019392810192600101610573565b80516001600160a01b03168252906020828101516001600160a01b03169082015260408201516040820152606082015160608201526080820151608082015261062461061260a08401516101208060a0860152840190610561565b60c084015183820360c0850152610339565b60e080840151151590830152916101008091015191015290565b908082519081815260208091019281808460051b8301019501936000915b84831061066c5750505050505090565b909192939495848061068a600193601f198682030187528a516105b7565b980193019301919493929061065c565b9291906106b160209160408652604086019061063e565b930152565b34610274576106e86106c73661053e565b80158080156106fe575b6106da9061224e565b156106f857506032916125f4565b9061053a6040519283928361069a565b916125f4565b5060328211156106d1565b34610274576020600461072461071e366102c0565b90612188565b0154604051908152f35b906020600319830112610274576004356001600160401b039283821161027457806023830112156102745781600401359384116102745760248460051b83010111610274576024019190565b90815180825260208080930193019160005b82811061079a575050505090565b83516001600160a01b03168552938101939281019260010161078c565b600611156107c157565b634e487b7160e01b600052602160045260246000fd5b9060068210156107c15752565b91906107f89060808452608084019061077a565b926020938381038585015284808451928381520193019060005b818110610868575050509061082e91838203604085015261077a565b90606081830391015281808451928381520193019160005b828110610854575050505090565b835185529381019392810192600101610846565b90919386808261087e600194899b9a9b516107d7565b979897019501929101610812565b346102745761089a3661072e565b6108a5811515613b0a565b6108ae81613b56565b6108b782613b56565b916108c181613b56565b6108ca82613b56565b9160008091815b8181106108f5575050808552855280825282526040519450849361053a93856107e4565b61090081838b613b88565b923361091d61091160208701612755565b6001600160a01b031690565b036109af5761092b84613c1b565b6109368293926107b7565b82156109a257610945836107b7565b6001831461097b575061097692916109719161096961096382612333565b97612755565b908c8c6141fa565b612333565b6108d1565b6109769392508661099a61099461097194989992612333565b98612755565b908a8a614214565b5093505061097690612333565b90610971826109ca6109c46109769592612333565b96612755565b908b8b6141d3565b3461027457600319602036820112610274576004356001600160401b038111610274576101008160040192823603011261027457610a7960e0610ad1610a8e610ac17f30ecc203691b2d18e17ee75d47caf34a3fb9f86e855f7e0414d3cec26d0c424b95610a408833613673565b610a4a8880613561565b96909860a4610a9c610a5f6024860184613561565b610a6c6044880186613561565b9690956064890190613561565b99909e6040519d8d8f9e8f9081520191613593565b918b830360208d0152613593565b93608481013560408a01520135606088015242608088015286830360a0880152613593565b9083820360c08501523396613593565b0390a2005b3461027457600036600319011261027457602060405162093a808152f35b3461027457610b02366102c0565b60008051602061429c833981519152546001600160a01b039261053a91610b2c90851633146127fb565b610b466000805160206142fc8339815191525484836131c8565b929194909585610b71575b505050604051938493846040919493926060820195825260208201520152565b6000805160206142bc83398151915290610bba60008080808b335af13d15610bd9573d610b9d81611957565b90610bab60405192836118e7565b8152600060203d92013e61317c565b60408051898152602081018790529382169490911692a3388080610b51565b61317c565b34610274576106e8610bef3661053e565b8015808015610c16575b610c029061224e565b15610c1057506032916126c4565b916126c4565b506032821115610bf9565b34610274576040366003190112610274576024358015808015610c65575b610c489061224e565b15610c5c57506106e860325b600435612371565b6106e890610c54565b506032821115610c3f565b3461027457610c7e366102c0565b60008051602061429c833981519152546001600160a01b03929190610ca690841633146127fb565b610cb0818361308b565b610cba8183612188565b610cc2611928565b81546001600160a01b0316815260018201546001600160a01b031660208201526002820154604082015260038201546060820152600482015460808201526101006008610d1160058501611f9e565b9360a08401948552610d256006820161205d565b60c0850152610d44610d3b600783015460ff1690565b151560e0860152565b0154910152515180610d5257005b610d7c7f54377dfdebf06f6df53fbda737d2dcd7e141f95bbfb0c1223437e856b9de3ac391612317565b9380604051931693169180610d9642829190602083019252565b0390a4005b3461027457600080600319360112610df657610db5611db5565b80546001600160a01b03198116825581906001600160a01b03167f8be0079c531659141344cd1fd0a4f28419497f9722a3daafe3b4186f6b6457e08280a380f35b80fd5b606036600319011261027457600435610e11816102af565b602435610e1d816102af565b60008051602061429c83398151915254604435916001600160a01b0391610e4790831633146127fb565b610e518185612188565b9280151580611043575b610eaf575b50906000805160206142bc83398151915291610eaa60046003860195610e87348854612305565b809755015483604051948594169716958360209093929193604081019481520152565b0390a3005b60048401805490946000946005820194929392865b8654881015610ff857610ed78888612f6b565b506003810195610ee8875460ff1690565b610fea57600182018054808310610fa95750610f16610f2e92610f10610f2a93548092612326565b9a612326565b885460ff19166001178955975b5460ff1690565b1590565b8080610f9f575b15610f77575081610f56610f6892610f50610f6e958c612f6b565b90612f87565b80610f61818b612f6b565b5055612333565b97612333565b96949394610ec4565b9050979097610f8a575b610f6e90612333565b96610f97610f6e91612333565b979050610f81565b50828a1415610f35565b82999892610fc0575b5050610f2a610f2e91610f23565b90610fd38a610fda959a939b949b612326565b9055612326565b94610f2e610f2a60009891610fb2565b9695505096610f6e90612333565b9195909493506000805160206142bc833981519152965096919660088801918083558154811061102e575b505050559091610e60565b6110389089612fd3565b549055388080611023565b5060058401541515610e5b565b346102745760403660031901126102745760043561106d816102af565b60243580159182158203610274576110859033612188565b600781019260ff8454169081611123575b506110b4575b506110b2919060ff801983541691151516179055565b005b600301546110c2573861109c565b60405162461bcd60e51b815260206004820152603360248201527f43616e6e6f74207265766f6b652061636b6e6f776c656467656d656e742077696044820152727468206e6f6e2d7a65726f2062616c616e636560681b6064820152608490fd5b905038611096565b34610274576111393661072e565b611144811515613b0a565b6111516032821115613baa565b61115a81613b56565b9061116481613b56565b9261116e82613b56565b9161117881613b56565b91600080918193825b8181106111db5750505080865286528084528252801580156111b0575b505061053a91604051948594856107e4565b6000808093819382906111d2575b3390f1156111cd57388061119e565b613c0f565b506108fc6111be565b6111e9818385989698613b88565b93898b336111fc61091160208a01612755565b036112db57976112189861120f88613d18565b909b9195612305565b996112256109118a612755565b7f1f69e5b87fd0ce34b3760ba6e5d8aa95a36e316c3ba44e1e65a9d0eb9e96d0bf60405180611255858a83613bf6565b0390a2611261856107b7565b84156112cc57611270856107b7565b600185146112a2575091816109719361129761129161129d98979593612333565b9a612755565b926141fa565b611181565b919798905061129d94935061097192506112c46112be82612333565b99612755565b908b8d614214565b50509550505061129d90612333565b959061130190896112f161129d96959b91612333565b986112fb85612755565b926141d3565b7f1f69e5b87fd0ce34b3760ba6e5d8aa95a36e316c3ba44e1e65a9d0eb9e96d0bf61132b82612755565b60408051600281529381013560208501526001600160a01b039190911692a2612333565b34610274576000366003190112610274576000546040516001600160a01b039091168152602090f35b34610274576110b2611389366102c0565b906113ac60018060a01b0360008051602061429c833981519152541633146127fb565b612b80565b3461027457604036600319011261027457602435801580801561145d575b6113d89061224e565b1561145457506113ec60325b6004356134c4565b90604051906040820192604083528151809452606083019160608560051b850101926020809201906000905b87821061142c575050508380955001520390f35b9091948380611447600193605f198b82030186528951610379565b9701920192019091611418565b6113ec906113e4565b5060328211156113cf565b34610274576000366003190112610274576020604051610e108152f35b346102745760203660031901126102745760096004356114a4816102af565b6114ac611db5565b7f4909107c46469d21135443e891c6ecae55b5baa31b338d50f391935308b08f8960206114d88361275f565b846114e28561275f565b01805460ff60a01b1916600160a01b17905590930154604051600181526001600160a01b0391821694939091169290a3005b3461027457606036600319011261027457602435611531816102af565b60443561153d816102af565b6000549160ff8360a01c1661156a5760ff60a01b19909216600160a01b176000556110b291600435611e98565b60405162461bcd60e51b815260206004820152602260248201527f496e697469616c697a61626c653a20616c726561647920696e697469616c697a604482015261195960f21b6064820152608490fd5b9060206102e592818152019061063e565b34610274576115d93661072e565b6101f48111611682576115eb8161229f565b9160005b828110611604576040518061053a86826115ba565b611638906116243361161f61161a848888612745565b612755565b61221d565b61162d816121fd565b61163d575b50612333565b6115ef565b611661611666916000526000805160206142dc833981519152602052604060002090565b612101565b6116708287612358565b5261167b8186612358565b5038611632565b60405162461bcd60e51b815260206004820152601e60248201527f42617463682073697a6520746f6f206c6172676520286d6178203530302900006044820152606490fd5b3461027457600080600319360112610df6576116e2336127c6565b6117068160005260008051602061435c833981519152602052604060002054151590565b156117ac578061178391835260008051602061437c8339815191526020528260096040822082815561173a60018201612b37565b61174660028201612b37565b82600382015582600482015582600582015561176460068201612b37565b61177060078201612b37565b61177c60088201612b37565b0155612d60565b50337f29d546abb6e94f4f04d5bdccb6682316f597d43776078f47e273f000e77b2a918280a280f35b6040516304c76d3f60e11b8152336004820152602490fd5b346102745760003660031901126102745760008051602061429c833981519152546040516001600160a01b039091168152602090f35b34610274576020366003190112610274576009600435611819816102af565b611821611db5565b7f4909107c46469d21135443e891c6ecae55b5baa31b338d50f391935308b08f89602061184d8361275f565b846118578561275f565b01805460ff60a01b1916905590930154604051600081526001600160a01b0391821694939091169290a3005b634e487b7160e01b600052604160045260246000fd5b608081019081106001600160401b038211176118b457604052565b611883565b6001600160401b0381116118b457604052565b602081019081106001600160401b038211176118b457604052565b90601f801991011681019081106001600160401b038211176118b457604052565b6040519061016082018281106001600160401b038211176118b457604052565b6040519061012082018281106001600160401b038211176118b457604052565b6040519061195582611899565b565b6001600160401b0381116118b457601f01601f191660200190565b92919261197e82611957565b9161198c60405193846118e7565b829481845281830111610274578281602093846000960137010152565b6060366003190112610274576004356119c1816102af565b602435906119ce826102af565b6001600160401b0391604435838111610274573660238201121561027457611a00903690602481600401359101611972565b60008051602061429c833981519152546001600160a01b039190611a2790831633146127fb565b611a31838561221d565b90611a3b826121fd565b611bde5760008281526000805160206142dc83398151915260209081526040822034600382015580546001600160a01b0319166001600160a01b0389161781559197600183810180546001600160a01b0319166001600160a01b038a16179055600684019285519283116118b4578a95611abf84611ab98754612023565b87612a24565b81601f8511600114611b5257509280806000805160206142bc8339815191529a999794899794600897611b2c9b94611b47575b50501b916000199060031b1c19161790555b0155611b0f8161286f565b50611b2281611b1d87612582565b612986565b50611b1d866125bb565b5060408051348152600060208201529382169490911692a380f35b015192503880611af2565b9190601f949394198416611b6b87600052602060002090565b9389905b828210611bc4575050926008959285926000805160206142bc8339815191529c9b9996611b2c9b999610611bab575b505050811b019055611b04565b015160001960f88460031b161c19169055388080611b9e565b8385015186558f9a50948701949384019390810190611b6f565b604051632cf0675960e21b81526001600160a01b03868116600483015285166024820152604490fd5b3461027457602036600319011261027457600435611c24816102af565b611c2c611db5565b6001600160a01b03811615611c44576110b290611e0d565b60405162461bcd60e51b815260206004820152602660248201527f4f776e61626c653a206e6577206f776e657220697320746865207a65726f206160448201526564647265737360d01b6064820152608490fd5b3461027457602036600319011261027457600435611cb4611db5565b610e1081101580611cdb575b611cc990611e54565b6000805160206142fc83398151915255005b5062093a80811115611cc0565b9060206102e59281815201906105b7565b346102745761053a611d1c611d0d366102c0565b90611d16611f2f565b50612188565b6008611d26611928565b82546001600160a01b031681529160018101546001600160a01b03166020840152600281015460408401526003810154606084015260048101546080840152611d7160058201611f9e565b60a0840152611d826006820161205d565b60c0840152611da1611d98600783015460ff1690565b151560e0850152565b015461010082015260405191829182611ce8565b6000546001600160a01b03163303611dc957565b606460405162461bcd60e51b815260206004820152602060248201527f4f776e61626c653a2063616c6c6572206973206e6f7420746865206f776e65726044820152fd5b600080546001600160a01b039283166001600160a01b03198216811783559216907f8be0079c531659141344cd1fd0a4f28419497f9722a3daafe3b4186f6b6457e09080a3565b15611e5b57565b60405162461bcd60e51b81526020600482015260156024820152746c6f636b54696d65206f7574206f662072616e676560581b6044820152606490fd5b9091611ea390611e0d565b610e1081101580611f22575b611eb890611e54565b6000805160206142fc8339815191525560018060a01b03166bffffffffffffffffffffffff60a01b9060008051602061429c83398151915281838254161790557fdfd123095cdedb1cecbc229b30f7cf8745fb3d3951645ac4a8fa4c0895f8950291825416179055565b5062093a80811115611eaf565b6040519061012082018281106001600160401b038211176118b45760405281610100600091828152826020820152826040820152826060820152826080820152606060a0820152606060c08201528260e08201520152565b6001600160401b0381116118b45760051b60200190565b908154611faa81611f87565b92604093611fba855191826118e7565b828152809460208092019260005281600020906000935b858510611fe057505050505050565b6004846001928451611ff181611899565b86548152848701548382015260028701548682015260ff60038801541615156060820152815201930194019391611fd1565b90600182811c92168015612053575b602083101461203d57565b634e487b7160e01b600052602260045260246000fd5b91607f1691612032565b906040519182600082549261207184612023565b9081845260019485811690816000146120de575060011461209b575b5050611955925003836118e7565b9093915060005260209081600020936000915b8183106120c65750506119559350820101388061208d565b855488840185015294850194879450918301916120ae565b91505061195594506020925060ff191682840152151560051b820101388061208d565b90600861210c611928565b83546001600160a01b031681529260018101546001600160a01b0316602085015260028101546040850152600381015460608501526004810154608085015261215760058201611f9e565b60a08501526121686006820161205d565b60c085015261217e610d3b600783015460ff1690565b0154610100830152565b90612193818361221d565b918260005260008051602061427c833981519152602052604060002054156121d45750506000526000805160206142dc833981519152602052604060002090565b60405163023280eb60e21b81526001600160a01b03918216600482015291166024820152604490fd5b60005260008051602061427c833981519152602052604060002054151590565b604080516001600160a01b0392831660208201908152939092168282015281526122486060826118e7565b51902090565b1561225557565b60405162461bcd60e51b815260206004820152600f60248201526e4c696d697420746f6f206c6172676560881b6044820152606490fd5b604051612298816118cc565b6000815290565b906122a982611f87565b6122b660405191826118e7565b82815280926122c7601f1991611f87565b019060005b8281106122d857505050565b6020906122e3611f2f565b828285010152016122cc565b634e487b7160e01b600052601160045260246000fd5b9190820180921161231257565b6122ef565b60001981019190821161231257565b9190820391821161231257565b60001981146123125760010190565b634e487b7160e01b600052603260045260246000fd5b805182101561236c5760209160051b010190565b612342565b909160008051602061433c8339815191525491828110156124125783810180821161231257931583858215612408575b50506123ff575b808403938411612312576123bb8461229f565b9360005b8181106123cb57505050565b80830190818411612312576123e56116616123fa93612422565b6123ef8289612358565b526116328188612358565b6123bf565b925081926123a8565b11905083386123a1565b5090915061241e61228c565b9190565b60008051602061433c8339815191525481101561236c577fa543db6724dca3e06c9a739e16672b6894bb866e0b44759e50bc403282ce062701546000526000805160206142dc833981519152602052604060002090565b60008051602061431c8339815191525481101561236c577f94ce1cc9f419dbfb0d7a61a6415af9981ee3d1c02ba0de79a3c180abfae2b401015460005260008051602061437c833981519152602052604060002090565b60008051602061431c833981519152805482101561236c576000527f94ce1cc9f419dbfb0d7a61a6415af9981ee3d1c02ba0de79a3c180abfae2b4010190600090565b60008051602061433c833981519152805482101561236c576000527fa543db6724dca3e06c9a739e16672b6894bb866e0b44759e50bc403282ce06270190600090565b805482101561236c5760005260206000200190600090565b9061257891612556565b90549060031b1c90565b6001600160a01b031660009081527fdfd123095cdedb1cecbc229b30f7cf8745fb3d3951645ac4a8fa4c0895f895066020526040902090565b6001600160a01b031660009081527fdfd123095cdedb1cecbc229b30f7cf8745fb3d3951645ac4a8fa4c0895f895076020526040902090565b61260090939293612582565b805493848310156126ad578061269e5750835b82858211612696575b61262591612326565b9061262f8261229f565b9260005b83811061264257505050509190565b8061267c61166161265f6126596126919587612305565b8761256e565b6000526000805160206142dc833981519152602052604060002090565b6126868288612358565b526116328187612358565b612633565b85915061261c565b820180831115612613576122ef565b5050506040516126bc816118cc565b600081529190565b6126d0909392936125bb565b805493848310156126ad57806127365750835b8285821161272e575b6126f591612326565b906126ff8261229f565b9260005b83811061271257505050509190565b8061267c61166161265f6126596127299587612305565b612703565b8591506126ec565b8201808311156126e3576122ef565b919081101561236c5760051b0190565b356102e5816102af565b612768816127c6565b60005260008051602061437c83398151915260205260406000209060008051602061435c833981519152602052604060002054156127a4575090565b6040516304c76d3f60e11b81526001600160a01b039091166004820152602490fd5b604051602081019160018060a01b0316825260208152604081018181106001600160401b038211176118b45760405251902090565b1561280257565b60405162461bcd60e51b815260206004820152602160248201527f43616c6c6572206973206e6f7420746865206c656467657220636f6e747261636044820152601d60fa1b6064820152608490fd5b9161286b9183549060031b91821b91600019901b19161790565b9055565b8060005260008051602061427c83398151915280602052604060002054156000146128f75760008051602061433c8339815191528054600160401b8110156118b4576001810180835581101561236c5783907fa543db6724dca3e06c9a739e16672b6894bb866e0b44759e50bc403282ce062701555491600052602052604060002055600190565b5050600090565b8060005260008051602061435c83398151915280602052604060002054156000146128f75760008051602061431c8339815191528054600160401b8110156118b4576001810180835581101561236c5783907f94ce1cc9f419dbfb0d7a61a6415af9981ee3d1c02ba0de79a3c180abfae2b40101555491600052602052604060002055600190565b60018101908260005281602052604060002054156000146129ef578054600160401b8110156118b4576129da6129c3826001879401855584612556565b819391549060031b91821b91600019901b19161790565b90555491600052602052604060002055600190565b505050600090565b634e487b7160e01b600052600060045260246000fd5b818110612a18575050565b60008155600101612a0d565b9190601f8111612a3357505050565b611955926000526020600020906020601f840160051c83019310612a5f575b601f0160051c0190612a0d565b9091508190612a52565b91909182516001600160401b0381116118b457612a9081612a8a8454612023565b84612a24565b602080601f8311600114612acc575081929394600092612ac1575b50508160011b916000199060031b1c1916179055565b015190503880612aab565b90601f19831695612ae285600052602060002090565b926000905b888210612b1f57505083600195969710612b06575b505050811b019055565b015160001960f88460031b161c19169055388080612afc565b80600185968294968601518155019501930190612ae7565b612b418154612023565b9081612b4b575050565b81601f60009311600114612b5d575055565b908083918252612b7c601f60208420940160051c840160018501612a0d565b5555565b90612b8b818361221d565b91612b95836121fd565b15612c7257612baf8391612bb483612baf612bba96612582565b612ec2565b506125bb565b50612bc481612e15565b5060009081526000805160206142dc83398151915260205260408120818155816001820155816002820155816003820155600482818301556005820180549084815581612c28575b50505080612c1e600660089301612b37565b8260078201550155565b6001600160fe1b0382168203612312578452602084209060021b8101905b81811015612c0c5780612c6c849260036000918281558260018201558260028201550155565b01612c46565b505050565b634e487b7160e01b600052603160045260246000fd5b60008051602061431c8339815191528054908115612cdf576000198201918083101561236c577f94ce1cc9f419dbfb0d7a61a6415af9981ee3d1c02ba0de79a3c180abfae2b400600091838352015555565b612c77565b60008051602061433c8339815191528054908115612cdf576000198201918083101561236c577fa543db6724dca3e06c9a739e16672b6894bb866e0b44759e50bc403282ce0626600091838352015555565b8054908115612cdf5760001991820191612d508383612556565b909182549160031b1b1916905555565b600081815260008051602061435c833981519152602052604090205480156128f75760001991818301918083116123125760008051602061431c83398151915254938401938411612312578383612de29460009603612de8575b505050612dc5612c8d565b60005260008051602061435c833981519152602052604060002090565b55600190565b612dc5612e0691612dfe612578612e0c956124d0565b9283916124d0565b90612851565b55388080612dba565b600081815260008051602061427c833981519152602052604090205480156128f75760001991818301918083116123125760008051602061433c83398151915254938401938411612312578383612de29460009603612e97575b505050612e7a612ce4565b60005260008051602061427c833981519152602052604060002090565b612e7a612e0691612eaa612eb994612513565b90549060031b1c928391612513565b55388080612e6f565b6001810191806000528260205260406000205492831515600014612f62576000199284840190858211612312578054948501948511612312576000958583612f1694612de29803612f25575b505050612d36565b90600052602052604060002090565b612f49612e0691612f39612f599487612556565b90549060031b1c92839187612556565b8590600052602052604060002090565b55388080612f0e565b50505050600090565b805482101561236c5760005260206000209060021b0190600090565b90612fce57818103612f97575050565b600360ff818461195595548555600181015460018601556002810154600286015501541691019060ff801983541691151516179055565b6129f7565b60050180545b828111612fe557505050565b81548015612cdf5760001901612ffb8184612f6b565b612fce5760036000918281558260018201558260028201550155825580156123125760001901612fd9565b90612fce5760036060836119559451845560208101516001850155604081015160028501550151151591019060ff801983541691151516179055565b90815491600160401b8310156118b4578261308591600161195595018155612f6b565b90613026565b91906130978184612188565b926003840154916130ae6004860193845490612326565b918215613174576008860191825491601e83101561314b575050600561286b9495960190815480911060001461311f575061310c9061308583546130f0611948565b9281845286602085015242604085015260006060850152612f6b565b6131168154612333565b90558254612305565b6131469161312b611948565b91825284602083015242604083015260006060830152613062565b61310c565b604051639edd285f60e01b81526001600160a01b03918216600482015291166024820152604490fd5b505050509050565b1561318357565b60405162461bcd60e51b815260206004820152601960248201527f7472616e7366657220746f206c6564676572206661696c6564000000000000006044820152606490fd5b906131d291612188565b90600582019081541561334c57600093600092600091825b82548110156132ac576131fd8184612f6b565b5097600389019861320f8a5460ff1690565b6132a057613221876002830154612305565b42106132505761323d61324b9392600161097193015490612305565b8a5460ff1916600117909a55565b6131ea565b966132799199509461326b61324b939660018a015490612305565b9781870361327f5750612333565b93612333565b61328d90610f508388612f6b565b806132988187612f6b565b505538611632565b50975061324b90612333565b50949250600883019180835581548082106132e1575b5050505081600460038301926132d9878554612326565b809455015591565b6132ed82600f92612326565b10613309576132fc9084612fd3565b5490555b388080806132c2565b90959391509391935b85548110156133425780610971600361332e61333d948a612f6b565b5001805460ff19166001179055565b613312565b5091935091613300565b50506003810154600490910154600092565b6040519061016082018281106001600160401b038211176118b45760405281610140600091828152606080602083015280604083015283818301528360808301528360a08301528060c08301528060e0830152610100820152826101208201520152565b9061195560ff60096133d2611908565b85546001600160a01b03168152946133ec6001820161205d565b60208701526133fd6002820161205d565b60408701526003810154606087015260048101546080870152600581015460a087015261342c6006820161205d565b60c087015261343d6007820161205d565b60e087015261344e6008820161205d565b61010087015201546001600160a01b03811661012086015260a01c161515610140840152565b9061347e82611f87565b61348b60405191826118e7565b828152809261349c601f1991611f87565b019060005b8281106134ad57505050565b6020906134b861335e565b828285010152016134a1565b9160008051602061431c8339815191525491828410156135515780840180851161231257901583828215613547575b5050613540575b8381039081116123125761350d81613474565b9360005b82811061351d57505050565b806123e561353661353161353b9486612305565b612479565b6133c2565b613511565b50816134fa565b11905083386134f3565b509091506040516126bc816118cc565b903590601e198136030182121561027457018035906001600160401b0382116102745760200191813603831361027457565b908060209392818452848401376000828201840152601f01601f1916010190565b9092916001600160401b0381116118b4576135d381612a8a8454612023565b6000601f821160011461360c57819293946000926136015750508160011b916000199060031b1c1916179055565b013590503880612aab565b601f1982169461362184600052602060002090565b91805b87811061365b57508360019596971061364157505050811b019055565b0135600019600384901b60f8161c19169055388080612afc565b90926020600181928686013581550194019101613624565b60c08201906110006136858385613561565b9050116139df57613695816127c6565b6136bc610f2a8260005260008051602061435c833981519152602052604060002054151590565b6138e557506136ca9061275f565b9160018301916136d98361205d565b80516020809201206136f56136ee8580613561565b3691611972565b82815191012014938415946138b3575b8415613881575b841561384e575b8585156137f4575b50836137b96137af60099561376f6137656137bf9761374960e098613743896137e09e613561565b916135b4565b608087013560038e015560a087013560048e0155860186613561565b9060028d016135b4565b4260058b015561378f6137856040860186613561565b9060068d016135b4565b6137a961379f6060860186613561565b9060078d016135b4565b83613561565b9060088a016135b4565b01612755565b930180546001600160a01b0319166001600160a01b03909416939093178355565b6137e75750565b805460ff60a01b19169055565b60e0919550936137b96137af60099561376f6137656137bf9761374961381f60086137e09d0161205d565b8281519101206138326136ee878b613561565b83815191012014159c985050975050509550505093508561371b565b60098601549094506001600160a01b031661386e61091160e08601612755565b6001600160a01b03909116141593613713565b935061388f6007860161205d565b8181519101206138a56136ee6060860186613561565b82815191012014159361370c565b93506138c16006860161205d565b8181519101206138d76136ee6040860186613561565b828151910120141593613705565b9290916138f28280613561565b9290916139026020830183613561565b926139106040820182613561565b909161391f6060820182613561565b94909561392c9083613561565b97909860e0840161393c90612755565b9a613945611908565b6001600160a01b03909d168d52369061395d92611972565b60208c0152369061396d92611972565b60408a0152608081013560608a015260a0013560808901524260a0890152369061399692611972565b60c087015236906139a692611972565b60e085015236906139b692611972565b6101008301526001600160a01b031661012082015260006101408201526139dc916139f1565b50565b60405163ef54fd9d60e01b8152600490fd5b613b056102e5928260005260008051602061437c833981519152602052613aeb61014060096040600020613a4a613a2e865160018060a01b031690565b82546001600160a01b0319166001600160a01b03909116178255565b613a5b602086015160018301612a69565b613a6c604086015160028301612a69565b606085015160038201556080850151600482015560a08501516005820155613a9b60c086015160068301612a69565b613aac60e086015160078301612a69565b613abe61010086015160088301612a69565b610120850151910180546001600160a01b0319166001600160a01b03909216919091178155920151151590565b815460ff60a01b191690151560a01b60ff60a01b16179055565b6128fe565b15613b1157565b60405162461bcd60e51b815260206004820152601760248201527f4e6f20736574746c656d656e74732070726f76696465640000000000000000006044820152606490fd5b90613b6082611f87565b613b6d60405191826118e7565b8281528092613b7e601f1991611f87565b0190602036910137565b919081101561236c5760051b8101359060be1981360301821215610274570190565b15613bb157565b60405162461bcd60e51b815260206004820152601d60248201527f546f6f206d616e7920736574746c656d656e747320696e2062617463680000006044820152606490fd5b60209093929193613c0b8160408101966107d7565b0152565b6040513d6000823e3d90fd5b613c2e613c2782612755565b3390612188565b613c373361275f565b613c48610f2a600784015460ff1690565b8015613cff575b8015613cea575b613cdd57600282015460808401351115613cd05760090154613c8590610f2a906001600160a01b03168461407e565b613cc457600301546000916040013581811115613cbc57613ca69250612326565b905b8115613cb45760019190565b600091508190565b505090613ca8565b50906040600592013590565b5050906040600492013590565b5050906040600392013590565b5060098101546001600160a01b031615613c56565b506009810154613d139060a01c60ff161590565b613c4f565b613d24613c2782612755565b91613d2e3361275f565b613d3f610f2a600786015460ff1690565b8015613e3b575b8015613e26575b613e155760028401805491608085013580931015613e025760090154613d8090610f2a906001600160a01b03168661407e565b613df0575560406003840154920135918083119081600014613dea5780935b60009215613de257613db19250612326565b925b8280613dd2575b50508215613dc9576001929190565b60009250829190565b613ddb91613e66565b3882613dba565b505092613db3565b83613d9f565b50509091506040600592013590600090565b5050509091506040600492013590600090565b509091506040600392013590600090565b5060098101546001600160a01b031615613d4d565b506009810154613e4f9060a01c60ff161590565b613d46565b600160ff1b8114612312576000190190565b600391828201918254916004820192835490613e828282612326565b8311613f8f575b50509091929350613e9b818554612326565b84557fdfd123095cdedb1cecbc229b30f7cf8745fb3d3951645ac4a8fa4c0895f8950254613ed1906001600160a01b0316610911565b82549091906001600160a01b031690823b1561027457604051631bb1482360e31b81526001600160a01b039290921660048301526024820152906000908290604490829084905af180156111cd576000805160206142bc83398151915292613f7192613f4a92613f76575b50546001600160a01b031690565b9354925460408051948552602085019190915233946001600160a01b031693918291820190565b0390a3565b80613f83613f89926118b9565b80610279565b38613f3c565b613fa5613f9f83613fac93612326565b84612326565b8092612326565b84556005830190613fbd8254612317565b600080821261405e57613fd08285612f6b565b509089820191613fe1835460ff1690565b61405257600101805490949081811161403d5750906140066140159392865490612326565b9455805460ff19166001179055565b81156140295761402490613e54565b613fbd565b50505090919293505b908392913880613e89565b61404a9294959350612326565b905590614015565b50505061402490613e54565b505050509091929350614032565b60ff601b9116019060ff821161231257565b60419061408e60a0820182613561565b929092036129ef57602091816140a78460009401612755565b6140b082612755565b604080516060808601358983019081526080870135602082015294811b6bffffffffffffffffffffffff199081168685015293901b90921660548401529290920135606882015281608882010391614110601f19938481018352826118e7565b5190209061415f60405191826141538882019586603c917f19457468657265756d205369676e6564204d6573736167653a0a3332000000008252601c8201520190565b039081018352826118e7565b519020906040810135831a90601b82106141be575b6040805193845260ff9092166020840152803591830191909152830135606082015280608081015b838052039060015afa156111cd576000516001600160a01b0390811691161490565b906141cb61419c9161406c565b919050614174565b906002936141e5846141f79594612358565b6001600160a01b039091169052612358565b52565b926141e58361420895612358565b60068210156107c15752565b926141e5836141f795612358565b60405162461bcd60e51b815260206004820152602b60248201527f446972656374206465706f736974732064697361626c65643b20757365204c6560448201526a3233b2b926b0b730b3b2b960a91b6064820152608490fdfedfd123095cdedb1cecbc229b30f7cf8745fb3d3951645ac4a8fa4c0895f89504dfd123095cdedb1cecbc229b30f7cf8745fb3d3951645ac4a8fa4c0895f89501526824944047da5b81071fb6349412005c5da81380b336103fbe5dd34556c776dfd123095cdedb1cecbc229b30f7cf8745fb3d3951645ac4a8fa4c0895f89505dfd123095cdedb1cecbc229b30f7cf8745fb3d3951645ac4a8fa4c0895f89500dfd123095cdedb1cecbc229b30f7cf8745fb3d3951645ac4a8fa4c0895f89508dfd123095cdedb1cecbc229b30f7cf8745fb3d3951645ac4a8fa4c0895f89503dfd123095cdedb1cecbc229b30f7cf8745fb3d3951645ac4a8fa4c0895f89509dfd123095cdedb1cecbc229b30f7cf8745fb3d3951645ac4a8fa4c0895f8950aa2646970667358221220fd0e8f17deeeb01d5fe6d56366130aba8a73b9077fdf31189d65d42b12a7180564736f6c63430008140033",
  "devdoc": {
    "kind": "dev",
    "methods": {
      "owner()": {
        "details": "Returns the address of the current owner."
      },
      "renounceOwnership()": {
        "details": "Leaves the contract without owner. It will not be possible to call `onlyOwner` functions anymore. Can only be called by the current owner. NOTE: Renouncing ownership will leave the contract without an owner, thereby removing any functionality that is only available to the owner."
      },
      "supportsInterface(bytes4)": {
        "details": "See {IERC165-supportsInterface}."
      },
      "transferOwnership(address)": {
        "details": "Transfers ownership of the contract to a new account (`newOwner`). Can only be called by the current owner."
      }
    },
    "version": 1
  },
  "userdoc": {
    "kind": "user",
    "methods": {},
    "version": 1
  },
  "storageLayout": {
    "storage": [
      {
        "astId": 7,
        "contract": "contracts/inference/InferenceServing.sol:InferenceServing",
        "label": "_owner",
        "offset": 0,
        "slot": "0",
        "type": "t_address"
      },
      {
        "astId": 13713,
        "contract": "contracts/inference/InferenceServing.sol:InferenceServing",
        "label": "initialized",
        "offset": 20,
        "slot": "0",
        "type": "t_bool"
      },
      {
        "astId": 123,
        "contract": "contracts/inference/InferenceServing.sol:InferenceServing",
        "label": "_status",
        "offset": 0,
        "slot": "1",
        "type": "t_uint256"
      }
    ],
    "types": {
      "t_address": {
        "encoding": "inplace",
        "label": "address",
        "numberOfBytes": "20"
      },
      "t_bool": {
        "encoding": "inplace",
        "label": "bool",
        "numberOfBytes": "1"
      },
      "t_uint256": {
        "encoding": "inplace",
        "label": "uint256",
        "numberOfBytes": "32"
      }
    }
  }
}