{
  "address": "0x26D8337315E65efFcF2EA13966c739486a28AC74",
  "abi": [
    {
      "inputs": [],
      "stateMutability": "nonpayable",
      "type": "constructor"
    },
    {
      "inputs": [
        {
          "internalType": "uint256",
          "name": "length",
          "type": "uint256"
        },
        {
          "internalType": "uint256",
          "name": "max",
          "type": "uint256"
        }
      ],
      "name": "AdditionalInfoTooLong",
      "type": "error"
    },
    {
      "inputs": [],
      "name": "AlreadyInitialized",
      "type": "error"
    },
    {
      "inputs": [],
      "name": "CallFailed",
      "type": "error"
    },
    {
      "inputs": [
        {
          "internalType": "address",
          "name": "caller",
          "type": "address"
        }
      ],
      "name": "CallerNotRegisteredService",
      "type": "error"
    },
    {
      "inputs": [],
      "name": "DirectDepositsDisabled",
      "type": "error"
    },
    {
      "inputs": [
        {
          "internalType": "uint256",
          "name": "available",
          "type": "uint256"
        },
        {
          "internalType": "uint256",
          "name": "required",
          "type": "uint256"
        }
      ],
      "name": "InsufficientAvailableBalance",
      "type": "error"
    },
    {
      "inputs": [
        {
          "internalType": "address",
          "name": "user",
          "type": "address"
        }
      ],
      "name": "InsufficientBalance",
      "type": "error"
    },
    {
      "inputs": [
        {
          "internalType": "address",
          "name": "serviceAddress",
          "type": "address"
        }
      ],
      "name": "InvalidServiceAddress",
      "type": "error"
    },
    {
      "inputs": [
        {
          "internalType": "string",
          "name": "serviceType",
          "type": "string"
        }
      ],
      "name": "InvalidServiceType",
      "type": "error"
    },
    {
      "inputs": [
        {
          "internalType": "address",
          "name": "user",
          "type": "address"
        }
      ],
      "name": "LedgerExists",
      "type": "error"
    },
    {
      "inputs": [],
      "name": "LedgerLocked",
      "type": "error"
    },
    {
      "inputs": [
        {
          "internalType": "address",
          "name": "user",
          "type": "address"
        }
      ],
      "name": "LedgerNotExists",
      "type": "error"
    },
    {
      "inputs": [
        {
          "internalType": "uint256",
          "name": "provided",
          "type": "uint256"
        },
        {
          "internalType": "uint256",
          "name": "required",
          "type": "uint256"
        }
      ],
      "name": "MinimumDepositRequired",
      "type": "error"
    },
    {
      "inputs": [
        {
          "internalType": "uint256",
          "name": "remainingBalance",
          "type": "uint256"
        }
      ],
      "name": "MustWithdrawAllFundsFirst",
      "type": "error"
    },
    {
      "inputs": [
        {
          "internalType": "string",
          "name": "serviceType",
          "type": "string"
        }
      ],
      "name": "NoRecommendedService",
      "type": "error"
    },
    {
      "inputs": [],
      "name": "NoServicesRegistered",
      "type": "error"
    },
    {
      "inputs": [
        {
          "internalType": "uint256",
          "name": "newCount",
          "type": "uint256"
        },
        {
          "internalType": "uint256",
          "name": "expectedCount",
          "type": "uint256"
        }
      ],
      "name": "ProviderCountMismatchInMigration",
      "type": "error"
    },
    {
      "inputs": [
        {
          "internalType": "address",
          "name": "serviceAddress",
          "type": "address"
        }
      ],
      "name": "ServiceAlreadyRegistered",
      "type": "error"
    },
    {
      "inputs": [
        {
          "internalType": "address",
          "name": "serviceAddress",
          "type": "address"
        }
      ],
      "name": "ServiceMustImplementIServing",
      "type": "error"
    },
    {
      "inputs": [
        {
          "internalType": "string",
          "name": "serviceName",
          "type": "string"
        }
      ],
      "name": "ServiceNameExists",
      "type": "error"
    },
    {
      "inputs": [
        {
          "internalType": "address",
          "name": "serviceAddress",
          "type": "address"
        }
      ],
      "name": "ServiceNotFound",
      "type": "error"
    },
    {
      "inputs": [
        {
          "internalType": "address",
          "name": "serviceAddress",
          "type": "address"
        }
      ],
      "name": "ServiceNotRegistered",
      "type": "error"
    },
    {
      "inputs": [
        {
          "internalType": "uint256",
          "name": "limit",
          "type": "uint256"
        }
      ],
      "name": "ServiceRegistryLimitReached",
      "type": "error"
    },
    {
      "inputs": [],
      "name": "ServiceTypeRequired",
      "type": "error"
    },
    {
      "inputs": [
        {
          "internalType": "uint256",
          "name": "index",
          "type": "uint256"
        },
        {
          "internalType": "uint256",
          "name": "max",
          "type": "uint256"
        }
      ],
      "name": "StartUserIndexOutOfBounds",
      "type": "error"
    },
    {
      "inputs": [
        {
          "internalType": "uint256",
          "name": "requested",
          "type": "uint256"
        },
        {
          "internalType": "uint256",
          "name": "maximum",
          "type": "uint256"
        }
      ],
      "name": "TooManyProviders",
      "type": "error"
    },
    {
      "inputs": [
        {
          "internalType": "uint256",
          "name": "current",
          "type": "uint256"
        },
        {
          "internalType": "uint256",
          "name": "maximum",
          "type": "uint256"
        }
      ],
      "name": "TooManyProvidersForService",
      "type": "error"
    },
    {
      "inputs": [],
      "name": "TransferFailed",
      "type": "error"
    },
    {
      "inputs": [],
      "name": "VersionRequired",
      "type": "error"
    },
    {
      "inputs": [],
      "name": "ZeroAddressNotAllowed",
      "type": "error"
    },
    {
      "inputs": [],
      "name": "ZeroAmountNotAllowed",
      "type": "error"
    },
    {
      "anonymous": false,
      "inputs": [
        {
          "indexed": true,
          "internalType": "address",
          "name": "user",
          "type": "address"
        },
        {
          "indexed": true,
          "internalType": "address",
          "name": "service",
          "type": "address"
        },
        {
          "indexed": false,
          "internalType": "uint256",
          "name": "amount",
          "type": "uint256"
        }
      ],
      "name": "FundSpent",
      "type": "event"
    },
    {
      "anonymous": false,
      "inputs": [
        {
          "indexed": false,
          "internalType": "uint8",
          "name": "version",
          "type": "uint8"
        }
      ],
      "name": "Initialized",
      "type": "event"
    },
    {
      "anonymous": false,
      "inputs": [
        {
          "indexed": true,
          "internalType": "address",
          "name": "user",
          "type": "address"
        },
        {
          "indexed": false,
          "internalType": "string",
          "name": "additionalInfo",
          "type": "string"
        }
      ],
      "name": "LedgerInfoUpdated",
      "type": "event"
    },
    {
      "anonymous": false,
      "inputs": [
        {
          "indexed": true,
          "internalType": "address",
          "name": "previousOwner",
          "type": "address"
        },
        {
          "indexed": true,
          "internalType": "address",
          "name": "newOwner",
          "type": "address"
        }
      ],
      "name": "OwnershipTransferred",
      "type": "event"
    },
    {
      "anonymous": false,
      "inputs": [
        {
          "indexed": false,
          "internalType": "string",
          "name": "serviceType",
          "type": "string"
        },
        {
          "indexed": false,
          "internalType": "string",
          "name": "version",
          "type": "string"
        },
        {
          "indexed": false,
          "internalType": "address",
          "name": "serviceAddress",
          "type": "address"
        }
      ],
      "name": "RecommendedServiceUpdated",
      "type": "event"
    },
    {
      "anonymous": false,
      "inputs": [
        {
          "indexed": true,
          "internalType": "address",
          "name": "serviceAddress",
          "type": "address"
        },
        {
          "indexed": false,
          "internalType": "string",
          "name": "serviceName",
          "type": "string"
        }
      ],
      "name": "ServiceRegistered",
      "type": "event"
    },
    {
      "anonymous": false,
      "inputs": [
        {
          "indexed": true,
          "internalType": "address",
          "name": "user",
          "type": "address"
        },
        {
          "indexed": true,
          "internalType": "address",
          "name": "serviceAddress",
          "type": "address"
        },
        {
          "indexed": false,
          "internalType": "uint256",
          "name": "providerCount",
          "type": "uint256"
        }
      ],
      "name": "UserServiceProvidersMigrated",
      "type": "event"
    },
    {
      "inputs": [],
      "name": "MAX_ADDITIONAL_INFO_LENGTH",
      "outputs": [
        {
          "internalType": "uint256",
          "name": "",
          "type": "uint256"
        }
      ],
      "stateMutability": "view",
      "type": "function"
    },
    {
      "inputs": [],
      "name": "MAX_PROVIDERS_PER_BATCH",
      "outputs": [
        {
          "internalType": "uint256",
          "name": "",
          "type": "uint256"
        }
      ],
      "stateMutability": "view",
      "type": "function"
    },
    {
      "inputs": [],
      "name": "MAX_PROVIDERS_PER_USER_PER_SERVICE",
      "outputs": [
        {
          "internalType": "uint256",
          "name": "",
          "type": "uint256"
        }
      ],
      "stateMutability": "view",
      "type": "function"
    },
    {
      "inputs": [],
      "name": "MAX_SERVICES",
      "outputs": [
        {
          "internalType": "uint256",
          "name": "",
          "type": "uint256"
        }
      ],
      "stateMutability": "view",
      "type": "function"
    },
    {
      "inputs": [],
      "name": "MIN_ACCOUNT_BALANCE",
      "outputs": [
        {
          "internalType": "uint256",
          "name": "",
          "type": "uint256"
        }
      ],
      "stateMutability": "view",
      "type": "function"
    },
    {
      "inputs": [],
      "name": "MIN_TRANSFER_AMOUNT",
      "outputs": [
        {
          "internalType": "uint256",
          "name": "",
          "type": "uint256"
        }
      ],
      "stateMutability": "view",
      "type": "function"
    },
    {
      "inputs": [
        {
          "internalType": "string",
          "name": "additionalInfo",
          "type": "string"
        }
      ],
      "name": "addLedger",
      "outputs": [
        {
          "internalType": "uint256",
          "name": "",
          "type": "uint256"
        },
        {
          "internalType": "uint256",
          "name": "",
          "type": "uint256"
        }
      ],
      "stateMutability": "payable",
      "type": "function"
    },
    {
      "inputs": [],
      "name": "deleteLedger",
      "outputs": [],
      "stateMutability": "nonpayable",
      "type": "function"
    },
    {
      "inputs": [],
      "name": "depositFund",
      "outputs": [],
      "stateMutability": "payable",
      "type": "function"
    },
    {
      "inputs": [
        {
          "internalType": "address",
          "name": "recipient",
          "type": "address"
        }
      ],
      "name": "depositFundFor",
      "outputs": [],
      "stateMutability": "payable",
      "type": "function"
    },
    {
      "inputs": [],
      "name": "getAllActiveServices",
      "outputs": [
        {
          "components": [
            {
              "internalType": "address",
              "name": "serviceAddress",
              "type": "address"
            },
            {
              "internalType": "contract IServing",
              "name": "serviceContract",
              "type": "address"
            },
            {
              "internalType": "string",
              "name": "serviceType",
              "type": "string"
            },
            {
              "internalType": "string",
              "name": "version",
              "type": "string"
            },
            {
              "internalType": "string",
              "name": "fullName",
              "type": "string"
            },
            {
              "internalType": "string",
              "name": "description",
              "type": "string"
            },
            {
              "internalType": "bool",
              "name": "isRecommended",
              "type": "bool"
            },
            {
              "internalType": "uint256",
              "name": "registeredAt",
              "type": "uint256"
            }
          ],
          "internalType": "struct ServiceInfo[]",
          "name": "",
          "type": "tuple[]"
        }
      ],
      "stateMutability": "view",
      "type": "function"
    },
    {
      "inputs": [
        {
          "internalType": "uint256",
          "name": "offset",
          "type": "uint256"
        },
        {
          "internalType": "uint256",
          "name": "limit",
          "type": "uint256"
        }
      ],
      "name": "getAllLedgers",
      "outputs": [
        {
          "components": [
            {
              "internalType": "address",
              "name": "user",
              "type": "address"
            },
            {
              "internalType": "uint256",
              "name": "availableBalance",
              "type": "uint256"
            },
            {
              "internalType": "uint256",
              "name": "totalBalance",
              "type": "uint256"
            },
            {
              "internalType": "string",
              "name": "additionalInfo",
              "type": "string"
            }
          ],
          "internalType": "struct Ledger[]",
          "name": "ledgers",
          "type": "tuple[]"
        },
        {
          "internalType": "uint256",
          "name": "total",
          "type": "uint256"
        }
      ],
      "stateMutability": "view",
      "type": "function"
    },
    {
      "inputs": [
        {
          "internalType": "string",
          "name": "serviceType",
          "type": "string"
        }
      ],
      "name": "getAllVersions",
      "outputs": [
        {
          "internalType": "string[]",
          "name": "versions",
          "type": "string[]"
        },
        {
          "internalType": "address[]",
          "name": "addresses",
          "type": "address[]"
        },
        {
          "internalType": "bool[]",
          "name": "isRecommendedFlags",
          "type": "bool[]"
        }
      ],
      "stateMutability": "view",
      "type": "function"
    },
    {
      "inputs": [
        {
          "internalType": "address",
          "name": "user",
          "type": "address"
        }
      ],
      "name": "getLedger",
      "outputs": [
        {
          "components": [
            {
              "internalType": "address",
              "name": "user",
              "type": "address"
            },
            {
              "internalType": "uint256",
              "name": "availableBalance",
              "type": "uint256"
            },
            {
              "internalType": "uint256",
              "name": "totalBalance",
              "type": "uint256"
            },
            {
              "internalType": "string",
              "name": "additionalInfo",
              "type": "string"
            }
          ],
          "internalType": "struct Ledger",
          "name": "",
          "type": "tuple"
        }
      ],
      "stateMutability": "view",
      "type": "function"
    },
    {
      "inputs": [
        {
          "internalType": "address",
          "name": "user",
          "type": "address"
        },
        {
          "internalType": "string",
          "name": "serviceName",
          "type": "string"
        }
      ],
      "name": "getLedgerProviders",
      "outputs": [
        {
          "internalType": "address[]",
          "name": "",
          "type": "address[]"
        }
      ],
      "stateMutability": "view",
      "type": "function"
    },
    {
      "inputs": [
        {
          "internalType": "string",
          "name": "serviceType",
          "type": "string"
        }
      ],
      "name": "getRecommendedService",
      "outputs": [
        {
          "internalType": "string",
          "name": "version",
          "type": "string"
        },
        {
          "internalType": "address",
          "name": "serviceAddress",
          "type": "address"
        }
      ],
      "stateMutability": "view",
      "type": "function"
    },
    {
      "inputs": [
        {
          "internalType": "string",
          "name": "serviceName",
          "type": "string"
        }
      ],
      "name": "getServiceAddressByName",
      "outputs": [
        {
          "internalType": "address",
          "name": "",
          "type": "address"
        }
      ],
      "stateMutability": "view",
      "type": "function"
    },
    {
      "inputs": [
        {
          "internalType": "address",
          "name": "serviceAddress",
          "type": "address"
        }
      ],
      "name": "getServiceInfo",
      "outputs": [
        {
          "components": [
            {
              "internalType": "address",
              "name": "serviceAddress",
              "type": "address"
            },
            {
              "internalType": "contract IServing",
              "name": "serviceContract",
              "type": "address"
            },
            {
              "internalType": "string",
              "name": "serviceType",
              "type": "string"
            },
            {
              "internalType": "string",
              "name": "version",
              "type": "string"
            },
            {
              "internalType": "string",
              "name": "fullName",
              "type": "string"
            },
            {
              "internalType": "string",
              "name": "description",
              "type": "string"
            },
            {
              "internalType": "bool",
              "name": "isRecommended",
              "type": "bool"
            },
            {
              "internalType": "uint256",
              "name": "registeredAt",
              "type": "uint256"
            }
          ],
          "internalType": "struct ServiceInfo",
          "name": "",
          "type": "tuple"
        }
      ],
      "stateMutability": "view",
      "type": "function"
    },
    {
      "inputs": [
        {
          "internalType": "address",
          "name": "owner",
          "type": "address"
        }
      ],
      "name": "initialize",
      "outputs": [],
      "stateMutability": "nonpayable",
      "type": "function"
    },
    {
      "inputs": [],
      "name": "initialized",
      "outputs": [
        {
          "internalType": "bool",
          "name": "",
          "type": "bool"
        }
      ],
      "stateMutability": "view",
      "type": "function"
    },
    {
      "inputs": [
        {
          "internalType": "string",
          "name": "serviceType",
          "type": "string"
        },
        {
          "internalType": "string",
          "name": "version",
          "type": "string"
        }
      ],
      "name": "isRecommendedVersion",
      "outputs": [
        {
          "internalType": "bool",
          "name": "",
          "type": "bool"
        }
      ],
      "stateMutability": "view",
      "type": "function"
    },
    {
      "inputs": [
        {
          "internalType": "uint256",
          "name": "startUserIndex",
          "type": "uint256"
        },
        {
          "internalType": "uint256",
          "name": "batchSize",
          "type": "uint256"
        }
      ],
      "name": "migrateUserServiceProvidersMapping",
      "outputs": [
        {
          "internalType": "uint256",
          "name": "migratedCount",
          "type": "uint256"
        },
        {
          "internalType": "uint256",
          "name": "nextUserIndex",
          "type": "uint256"
        }
      ],
      "stateMutability": "nonpayable",
      "type": "function"
    },
    {
      "inputs": [],
      "name": "owner",
      "outputs": [
        {
          "internalType": "address",
          "name": "",
          "type": "address"
        }
      ],
      "stateMutability": "view",
      "type": "function"
    },
    {
      "inputs": [
        {
          "internalType": "uint256",
          "name": "amount",
          "type": "uint256"
        }
      ],
      "name": "refund",
      "outputs": [],
      "stateMutability": "nonpayable",
      "type": "function"
    },
    {
      "inputs": [
        {
          "internalType": "string",
          "name": "serviceType",
          "type": "string"
        },
        {
          "internalType": "string",
          "name": "version",
          "type": "string"
        },
        {
          "internalType": "address",
          "name": "serviceAddress",
          "type": "address"
        },
        {
          "internalType": "string",
          "name": "description",
          "type": "string"
        }
      ],
      "name": "registerService",
      "outputs": [],
      "stateMutability": "nonpayable",
      "type": "function"
    },
    {
      "inputs": [],
      "name": "renounceOwnership",
      "outputs": [],
      "stateMutability": "nonpayable",
      "type": "function"
    },
    {
      "inputs": [
        {
          "internalType": "address[]",
          "name": "providers",
          "type": "address[]"
        },
        {
          "internalType": "string",
          "name": "serviceName",
          "type": "string"
        }
      ],
      "name": "retrieveFund",
      "outputs": [],
      "stateMutability": "nonpayable",
      "type": "function"
    },
    {
      "inputs": [
        {
          "internalType": "string",
          "name": "serviceType",
          "type": "string"
        },
        {
          "internalType": "string",
          "name": "version",
          "type": "string"
        }
      ],
      "name": "setRecommendedService",
      "outputs": [],
      "stateMutability": "nonpayable",
      "type": "function"
    },
    {
      "inputs": [
        {
          "internalType": "address",
          "name": "user",
          "type": "address"
        },
        {
          "internalType": "uint256",
          "name": "amount",
          "type": "uint256"
        }
      ],
      "name": "spendFund",
      "outputs": [],
      "stateMutability": "nonpayable",
      "type": "function"
    },
    {
      "inputs": [
        {
          "internalType": "address",
          "name": "provider",
          "type": "address"
        },
        {
          "internalType": "string",
          "name": "serviceName",
          "type": "string"
        },
        {
          "internalType": "uint256",
          "name": "amount",
          "type": "uint256"
        }
      ],
      "name": "transferFund",
      "outputs": [],
      "stateMutability": "nonpayable",
      "type": "function"
    },
    {
      "inputs": [
        {
          "internalType": "address",
          "name": "newOwner",
          "type": "address"
        }
      ],
      "name": "transferOwnership",
      "outputs": [],
      "stateMutability": "nonpayable",
      "type": "function"
    },
    {
      "inputs": [
        {
          "internalType": "string",
          "name": "additionalInfo",
          "type": "string"
        }
      ],
      "name": "updateAdditionalInfo",
      "outputs": [],
      "stateMutability": "nonpayable",
      "type": "function"
    },
    {
      "stateMutability": "payable",
      "type": "receive"
    }
  ],
  "transactionHash": "0xc7517fcb1e501e87acd1eea2924d5770d558a5aab4d1ffe3982e6d829fceec4d",
  "args": [],
  "numDeployments": 3,
  "solcInputHash": "ed2c8a27515db2eddee097d8497dbb69",
  "bytecode": "0x608080604052346100c15760008054336001600160a01b031982168117808455919260ff9291906001600160a01b038516907f8be0079c531659141344cd1fd0a4f28419497f9722a3daafe3b4186f6b6457e09080a36001805560a81c1615610073575b604051613c229081620000c78239f35b600161ff0160a01b0319163360ff60a81b191617600160a81b1760005560ff81527f7f26b83ff96e1f2b6a682f133852f6798a09c465da95921460cefb384740249890602090a13880610063565b600080fdfe60806040526004361015610023575b361561001957600080fd5b610021613060565b005b60003560e01c806307940ea2146102235780630e8641741461021e578063158ef93e146102195780631ef4dc4414610214578063278ecde11461020f5780632ba43b821461020a57806331404a19146102055780633c3dbbc714610200578063410b3815146101fb5780634df74a3e146101f6578063715018a6146101f157806373ef900f146101ec5780638158c9e5146101e75780638d0d8cb6146101e25780638da5cb5b146101dd5780639449fe17146101d8578063987086f0146101d35780639ade3972146101ce578063a2610565146101c9578063ac30b622146101c4578063aef42173146101bf578063b8d5e581146101ba578063c4d66de8146101b5578063c5e53f7e146101b0578063d4dca96d146101ab578063dd8a4118146101a6578063e032f732146101a1578063e374248d1461019c578063f2fde38b14610197578063f585f3ea14610192578063f7cd6af91461018d5763ffc22b5f0361000e57611a25565b61199e565b611865565b6117d8565b6117bb565b6116d5565b611601565b611447565b61126b565b6111d6565b6111b1565b6110d0565b61105f565b61103c565b610f6f565b610df1565b610d9c565b610d73565b610c4d565b610a65565b610a06565b6109ab565b610972565b6108b0565b61088d565b6107e3565b610723565b6105a4565b610526565b6104d6565b610414565b610238565b600091031261023357565b600080fd5b346102335760003660031901126102335760206040516101f48152f35b634e487b7160e01b600052604160045260246000fd5b608081019081106001600160401b0382111761028657604052565b610255565b6001600160401b03811161028657604052565b602081019081106001600160401b0382111761028657604052565b606081019081106001600160401b0382111761028657604052565b90601f801991011681019081106001600160401b0382111761028657604052565b6040519061010082018281106001600160401b0382111761028657604052565b6001600160401b03811161028657601f01601f191660200190565b81601f820112156102335780359061034782610315565b9261035560405194856102d4565b8284526020838301011161023357816000926020809301838601378301015290565b602060031982011261023357600435906001600160401b038211610233576103a191600401610330565b90565b60005b8381106103b75750506000910152565b81810151838201526020016103a7565b906020916103e0815180928185528580860191016103a4565b601f01601f1916010190565b906104046020919493946040845260408401906103c7565b6001600160a01b03909416910152565b346102335761042236610377565b604051602081019061044c602082855161043f8187858a016103a4565b81010380845201826102d4565b51902060009081527f0bb5d42557ea6926c17416c5b1c1c29c28d9006d6f713295a2d385f07156ed0460205260409020546001600160a01b03169081156104b557506104a2600361049c83611c33565b01611d63565b6104b1604051928392836103ec565b0390f35b6040516316fab7f360e21b81529081906104d29060048301611c22565b0390fd5b3461023357600036600319011261023357602060ff60005460a01c166040519015158152f35b600435906001600160a01b038216820361023357565b35906001600160a01b038216820361023357565b34610233576080366003190112610233576001600160401b0360043581811161023357610557903690600401610330565b6024358281116102335761056f903690600401610330565b604435906001600160a01b0382168203610233576064359384116102335761059e610021943690600401610330565b92611d80565b34610233576020366003190112610233576004356105c1336131d4565b600091818352600080516020613b2d833981519152908160205260409160ff838620541661071257838552602052818420805460ff1916600117905561060633613209565b6001810180548381106106fb5761061d8482612231565b801515806106ea575b6106c3575083600288959486959461064087968796612231565b90550161064e828254612231565b80915515610692575b335af16106626122ad565b5015610682575061067561067f91611be8565b805460ff19169055565b80f35b516312171d8360e31b8152600490fd5b6106b56106b06106a1336131d4565b6106aa816138d9565b50611c05565b61223e565b6106be33613274565b610657565b85516315110fb160e21b815260048101919091526729a2241af62c00006024820152604490fd5b506729a2241af62c00008110610626565b845163112fed8b60e31b8152336004820152602490fd5b825163344f180560e11b8152600490fd5b346102335760603660031901126102335761073c6104fc565b6024356001600160401b0381116102335761075b903690600401610330565b90610765336131d4565b91600092808452600080516020613b2d8339815191528060205260ff6040862054166107ba5761067f93610675936107b59284885260205260408720600160ff1982541617905560443591612339565b611be8565b60405163344f180560e11b8152600490fd5b6001600160401b0381116102865760051b60200190565b34610233576040366003190112610233576001600160401b03600435818111610233573660238201121561023357806004013561081f816107cc565b9161082d60405193846102d4565b8183526020916024602085019160051b8301019136831161023357602401905b828210610876576024358587821161023357610870610021923690600401610330565b906125be565b83809161088284610512565b81520191019061084d565b34610233576000366003190112610233576020604051670de0b6b3a76400008152f35b346102335760008060031936011261096f5760026001541461092a5760026001556108da336131d4565b808252600080516020613b2d8339815191528060205260ff6040842054166107ba5781835260205260408220805460ff1916600117905561092190610675906107b56128cc565b61067f60018055565b60405162461bcd60e51b815260206004820152601f60248201527f5265656e7472616e637947756172643a207265656e7472616e742063616c6c006044820152606490fd5b80fd5b346102335760403660031901126102335761098b61309c565b610999602435600435612944565b60408051928352602083019190915290f35b346102335760008060031936011261096f576109c561309c565b80546001600160a01b03198116825581906001600160a01b03167f8be0079c531659141344cd1fd0a4f28419497f9722a3daafe3b4186f6b6457e08280a380f35b3461023357600036600319011261023357602060405160328152f35b906040600319830112610233576001600160401b036004358181116102335783610a4e91600401610330565b92602435918211610233576103a191600401610330565b3461023357610a7336610a22565b610a7b61309c565b60405191610ad2610ac584610aac610aa6610a996020840187611bd1565b602d60f81b815260010190565b86611bd1565b0394610ac0601f19968781018352826102d4565b611f98565b546001600160a01b031690565b926001600160a01b03808516918215610c2c5785610bb6610bfd947f22cc4700d5c4d3ff57ddfb4bb70d5a0e1bed5c060482e8eeeb8672d4471ad5e2989487610bd595610b376040519182610b2b602082018096611bd1565b039081018352826102d4565b51902091610b71610ac5846000527f0bb5d42557ea6926c17416c5b1c1c29c28d9006d6f713295a2d385f07156ed04602052604060002090565b918216908115159182610c21575b5050610c02575b506000527f0bb5d42557ea6926c17416c5b1c1c29c28d9006d6f713295a2d385f07156ed04602052604060002090565b80546001600160a01b0319166001600160a01b03909216919091179055565b610bf16006610be383611c33565b01805460ff19166001179055565b60405193849384612bd0565b0390a1005b6006610c10610c1b92611c33565b01805460ff19169055565b38610b86565b141590503880610b7f565b60405163b536580760e01b81526001600160a01b0387166004820152602490fd5b60008060031936011261096f57610c63336131d4565b808252600080516020613b2d8339815191528060205260ff6040842054166107ba5781835260205260408220805460ff191660011790553415610d6157610ca9336131d4565b610cd4610cd082600052600080516020613b4d833981519152602052604060002054151590565b1590565b15610d2b576729a2241af62c00003410610d055761067f916107b561067592610cfb61229a565b90349033906134f8565b6040516315110fb160e21b81523460048201526729a2241af62c00006024820152604490fd5b61067f916002610d3d61067593611c05565b60018101610d4c3482546128bf565b905501610d5a3482546128bf565b9055611be8565b6040516307a1cab560e11b8152600490fd5b34610233576000366003190112610233576000546040516001600160a01b039091168152602090f35b3461023357600036600319011261023357602060405160148152f35b90608060606103a19360018060a01b038151168452602081015160208501526040810151604085015201519181606082015201906103c7565b3461023357604036600319011261023357610e10602435600435612cc2565b906040519060408201926040835281518094526060830160608560051b850101926020809101916000905b878210610e4f578680878760208301520390f35b909192948380610e6b600193605f198b82030186528951610db8565b970192019201909291610e3b565b80516001600160a01b031682529060e080610ef6610ee4610ed2610ec06101006020898101516001600160a01b0316908901526040890151908060408a01528801906103c7565b606088015187820360608901526103c7565b608087015186820360808801526103c7565b60a086015185820360a08701526103c7565b60c08086015115159085015293015191015290565b6020808201906020835283518092526040830192602060408460051b8301019501936000915b848310610f415750505050505090565b9091929394958480610f5f600193603f198682030187528a51610e79565b9801930193019194939290610f31565b3461023357600036600319011261023357600080516020613b0d83398151915254610f99816107cc565b90610fa760405192836102d4565b808252601f19610fb6826107cc565b0160005b81811061102557505060005b818110610fdb57604051806104b18582610f0b565b80611009611004610fff610ff3610ff3600196613a41565b6001600160a01b031690565b611c33565b612dc1565b611013828661288b565b5261101e818561288b565b5001610fc6565b602090611030612d70565b82828701015201610fba565b3461023357602061105561104f36610a22565b90612e54565b6040519015158152f35b346102335760003660031901126102335760206040516729a2241af62c00008152f35b90815180825260208080930193019160005b8281106110a2575050505090565b83516001600160a01b031685529381019392810192600101611094565b9060206103a1928181520190611082565b34610233576040366003190112610233576110e96104fc565b6024356001600160401b038111610233576001600160a01b039061111590610ac0903690600401610330565b541680156111995761112961114092611c5a565b9060018060a01b0316600052602052604060002090565b805461114b81612ed4565b9160005b82811061116457604051806104b186826110bf565b8061119361117a610ff3610ff360019587613b02565b611184838861288b565b6001600160a01b039091169052565b0161114f565b6024906040519063b536580760e01b82526004820152fd5b346102335760206001600160a01b036111cc610ac036610377565b5416604051908152f35b34610233576020366003190112610233576111ef6104fc565b6000549060ff8260a01c16801561125e575b61124d5760ff60a01b19909116600160a01b176000556112209061346c565b7f7f26b83ff96e1f2b6a682f133852f6798a09c465da95921460cefb3847402498602060405160018152a1005b60405162dc149f60e41b8152600490fd5b5060ff8260a81c16611201565b61127436610377565b61127d336131d4565b80600052600080516020613b2d833981519152918260205260409260ff846000205416611386578260005260205282600020600160ff198254161790556729a2241af62c000034106113615780516110008082116113445750506112e0336131d4565b9161130583600052600080516020613b4d833981519152602052604060002054151590565b61132d576107b56106759261131d94349033906134f8565b5134815260006020820152604090f35b835163cde58aa160e01b8152336004820152602490fd5b60449250845191631a78290b60e21b835260048301526024820152fd5b82516315110fb160e21b81523460048201526729a2241af62c00006024820152604490fd5b835163344f180560e11b8152600490fd5b909160608201906060835283518092526080830160808360051b850101926020809601916000905b8282106114175750505050906113db9183820385850152611082565b90604081830391015281808451928381520193019160005b828110611401575050505090565b83511515855293810193928101926001016113f3565b909192948780611436600193607f9b9a9b198c820301865289516103c7565b9701920192019092919695966113bf565b346102335761145536610377565b600080516020613b0d83398151915254600091825b828110611585575061147b83612f8a565b9161148e61148885612ed4565b94612ed4565b91600090815b8381106114ab57604051806104b1878a8a84611397565b6114ba610ff3610ff383613a41565b6114c381611c33565b908888604080516020611508818301836114e08260028c01612f06565b03936114f4601f19958681018352826102d4565b51902093519182019282610b2b858d611bd1565b5190201461151d575b50505050600101611494565b60068461155d8995611184876115769761155760019c9e61156599611547600361157b9f01611d63565b611551838361288b565b5261288b565b5061288b565b015460ff1690565b61156f838a61288b565b9015159052565b612935565b9290388888611511565b6002611599610fff610ff3610ff385613a41565b016040908151906115dc602091836115b48482018093612f06565b03936115c8601f19958681018352826102d4565b51902093519182019282610b2b8589611bd1565b519020146115ed575b60010161146a565b926115f9600191612935565b9390506115e5565b34610233576040806003193601126102335761161b6104fc565b336000908152600080516020613b6d83398151915260205282812054909291906001600160a01b0316156116ad57611652816131d4565b91828452600080516020613b2d8339815191528060205260ff828620541661169c578385526020528320805460ff1916600117905561067f91610675916107b59060243590612fd4565b815163344f180560e11b8152600490fd5b8151631b8815cf60e01b8152336004820152602490fd5b9060206103a1928181520190610e79565b34610233576020366003190112610233576116ee6104fc565b6116f6612d70565b506001600160a01b03166000908152600080516020613b6d833981519152602052604090206104b19060076117296102f5565b82546001600160a01b031681529160018101546001600160a01b0316602084015261175660028201611d63565b604084015261176760038201611d63565b606084015261177860048201611d63565b608084015261178960058201611d63565b60a08401526117a861179f600683015460ff1690565b151560c0850152565b015460e0820152604051918291826116c4565b346102335760003660031901126102335760206040516110008152f35b34610233576020366003190112610233576117f16104fc565b6117f961309c565b6001600160a01b03811615611811576100219061346c565b60405162461bcd60e51b815260206004820152602660248201527f4f776e61626c653a206e6577206f776e657220697320746865207a65726f206160448201526564647265737360d01b6064820152608490fd5b6020366003190112610233576118796104fc565b611882816131d4565b600091818352600080516020613b2d8339815191528060205260409060ff828620541661169c57838552602052808420805460ff191660011790556001600160a01b0382161561197d57341561196d576118db826131d4565b90611903610cd083600052600080516020613b4d833981519152602052604060002054151590565b15611958576729a2241af62c000034106119345750916107b56106759261067f9461192c61229a565b9134916134f8565b516315110fb160e21b81523460048201526729a2241af62c00006024820152604490fd5b506106759150916002610d3d61067f94611c05565b516307a1cab560e11b8152600490fd5b516342bcdf7f60e11b8152600490fd5b9060206103a1928181520190610db8565b34610233576020366003190112610233576104b16119cb6119bd6104fc565b6119c5612bfa565b50613209565b6003611a14604051926119dd8461026b565b60018060a01b0381541684526001810154602085015260028101546040850152611a0d6040518094819301611ccd565b03826102d4565b60608201526040519182918261198d565b3461023357611a3336610377565b611a3c336131d4565b600091818352600080516020613b2d8339815191526020908060205260ff6040862054166107ba5783855260205260408420600190600160ff198254161790558251611000808211611bb35750506003611a9533613209565b01918351916001600160401b03831161028657611abc83611ab68654611c93565b86612038565b602091601f8411600114611b3c57505091611af682610675959361067f97958991611b31575b508160011b916000199060031b1c19161790565b90555b7f12d213c9bc59dc8d250f0d6aba2d21e4e500a72a76621a44600697a285833fb160405180611b29339482611c22565b0390a2611be8565b905084015138611ae2565b9190601f19841690611b5386600052602060002090565b9389915b838310611b9c575050509261067f96949260019282610675989610611b83575b5050811b019055611af9565b85015160001960f88460031b161c191690553880611b77565b888501518655948501949381019391810191611b57565b6044925060405191631a78290b60e21b835260048301526024820152fd5b90611be4602092828151948592016103a4565b0190565b600052600080516020613b2d833981519152602052604060002090565b600052600080516020613bad833981519152602052604060002090565b9060206103a19281815201906103c7565b6001600160a01b03166000908152600080516020613b6d8339815191526020526040902090565b6001600160a01b031660009081527f0bb5d42557ea6926c17416c5b1c1c29c28d9006d6f713295a2d385f07156ed0a6020526040902090565b90600182811c92168015611cc3575b6020831014611cad57565b634e487b7160e01b600052602260045260246000fd5b91607f1691611ca2565b805460009392611cdc82611c93565b91828252602093600191600181169081600014611d445750600114611d03575b5050505050565b90939495506000929192528360002092846000945b838610611d3057505050500101903880808080611cfc565b805485870183015294019385908201611d18565b60ff19168685015250505090151560051b010191503880808080611cfc565b90611d7e611d779260405193848092611ccd565b03836102d4565b565b929091611d8b61309c565b6001600160a01b038116938415611f7757805115611f6557835115611f5357611db9610ff3610ac584611c33565b611f3257604092835194611dee86611de0611dda610a996020840188611bd1565b84611bd1565b03601f1981018852876102d4565b611dfd610ff3610ac588611f98565b611f1857611e0d610cd0856130f4565b611ef857611e1d610cd085613177565b611ef8576101f4600080516020613b0d833981519152541015611edf5792611ebd611eda9593611ec6937f4c76643f3c678c590db6e8ad9fe0bb6e75d36cb853c3bd06c487607ff35e6f719896611e726102f5565b6001600160a01b0386168152926001600160a01b038c16602085015287840152606083015286608083015260a0820152600060c08201524260e0820152611eb883611c33565b61214e565b610bb684611f98565b611ecf856136c9565b505191829182611c22565b0390a2565b845163f1d44a5160e01b81526101f46004820152602490fd5b84516316219dbf60e11b81526001600160a01b0385166004820152602490fd5b845163057f36eb60e21b8152806104d28860048301611c22565b6040516353752f3960e11b81526001600160a01b0383166004820152602490fd5b604051630e84c45560e31b8152600490fd5b604051638dfa0f6f60e01b8152600490fd5b6040516364db873d60e11b81526001600160a01b0383166004820152602490fd5b6020611fb19181604051938285809451938492016103a4565b81017f0bb5d42557ea6926c17416c5b1c1c29c28d9006d6f713295a2d385f07156ed0181520301902090565b602090611ff79282604051948386809551938492016103a4565b82019081520301902090565b9161201d9183549060031b91821b91600019901b19161790565b9055565b81811061202c575050565b60008155600101612021565b9190601f811161204757505050565b611d7e926000526020600020906020601f840160051c83019310612073575b601f0160051c0190612021565b9091508190612066565b91909182516001600160401b038111610286576120a48161209e8454611c93565b84612038565b602080601f83116001146120e35750819061201d9394956000926120d8575b50508160011b916000199060031b1c19161790565b0151905038806120c3565b90601f198316956120f985600052602060002090565b926000905b8882106121365750508360019596971061211d575b505050811b019055565b015160001960f88460031b161c19169055388080612113565b806001859682949686015181550195019301906120fe565b815181546001600160a01b0319166001600160a01b039091161781559060079060e09060208101516001850180546001600160a01b0319166001600160a01b039092169190911790556121a860408201516002860161207d565b6121b960608201516003860161207d565b6121ca60808201516004860161207d565b6121db60a08201516005860161207d565b6122006121eb60c0830151151590565b600686019060ff801983541691151516179055565b0151910155565b634e487b7160e01b600052601160045260246000fd5b60001981019190821161222c57565b612207565b9190820391821161222c57565b60036000918281558260018201558260028201550161225d8154611c93565b8061226757505050565b82601f821160011461227857505055565b9091808252612296601f60208420940160051c840160018501612021565b5555565b604051906122a78261029e565b60008252565b3d156122d8573d906122be82610315565b916122cc60405193846102d4565b82523d6000602084013e565b606090565b90816020910312610233575180151581036102335790565b6040513d6000823e3d90fd5b6001600160a01b039182168152911660208201526060604082018190526103a192910190611ccd565b90816020910312610233575190565b9161234f610ac561234933613209565b93611f98565b926001600160a01b038085161561259d5761236985611c33565b80546001909101546040805163147500e360e01b81523360048201526001600160a01b038681166024830152919893821696602095909316909116929082908581604481885afa9081156124f657600091612570575b50156124fb5750508651631320b9eb60e11b81523360048201526001600160a01b0385166024820152918390839060449082905afa9182156124f65761241e612417600194612461936000916124c9575b5084613447565b8093612231565b885163745e87f760e01b868201523360248201526001600160a01b039096166044870152606486019290925290939081608481015b03601f1981018352826102d4565b945b0180548381106124a95791839161247f60009795889795612231565b905583519301915af16124906122ad565b50156124995750565b51633204506f60e01b8152600490fd5b865163adb9e04360e01b8152600481019190915260248101849052604490fd5b6124e99150873d89116124ef575b6124e181836102d4565b81019061232a565b38612410565b503d6124d7565b6122f5565b949190969250670de0b6b3a764000081106125495750865163e50688f960e01b84820152600192916125449161253d8161245360038701853360248501612301565b97336133c0565b612463565b87516315110fb160e21b81526004810191909152670de0b6b3a76400006024820152604490fd5b6125909150863d8811612596575b61258881836102d4565b8101906122dd565b386123bf565b503d61257e565b60405163b536580760e01b81526001600160a01b0386166004820152602490fd5b91906125c9336131d4565b90600090828252600080516020613b2d8339815191529060208260205260409260ff84862054166113865785855260205282842091600192600160ff198254161790558751601481116128555750610ac561262391611f98565b6001600160a01b039490858116156128335761265560016126478693959495611c33565b01546001600160a01b031690565b9861265f33613209565b998497859116925b61268b575b505050505050509061067591610d5a6001611d7e9596019182546128bf565b815181101561282e576126ae6126a1828461288b565b516001600160a01b031690565b875163147500e360e01b8152336004808301919091526001600160a01b039290921660248201528581604481885afa9081156124f6578791612811575b506126fa575b50850185612667565b976127086126a1838561288b565b885163271e279160e11b8152338b82019081526001600160a01b039092166020830152606092909183908390819060400103818b8a5af19182156124f6576127589389936127e0575b50506128bf565b976127666126a1838561288b565b90843b156127dc578851636c79158d60e01b8152339181019182526001600160a01b03909216602082015290959493929190859087908190604001038183875af19081156124f657879687926127c3575b509192939495506126f1565b806127d06127d69261028b565b80610228565b386127b7565b8680fd5b612800929350803d1061280a575b6127f881836102d4565b8101906128a4565b5050903880612751565b503d6127ee565b6128289150863d88116125965761258881836102d4565b386126eb565b61266c565b845163b536580760e01b81526001600160a01b03919091166004820152602490fd5b845163414f261960e11b8152600481019190915260146024820152604490fd5b634e487b7160e01b600052603260045260246000fd5b805182101561289f5760209160051b010190565b612875565b90816060910312610233578051916040602083015192015190565b9190820180921161222c57565b60026128d733613209565b01548061291d57506128e833613274565b6128f1336131d4565b6128fa816138d9565b50600052600080516020613bad833981519152602052611d7e604060002061223e565b6024906040519063f6ba0ebf60e01b82526004820152fd5b600019811461222c5760010190565b9190600080516020613b0d8339815191525415612bbe57612969610ff3610ff3613a82565b90612978600261049c84611c33565b90600080516020613b8d83398151915254908115612bb05781861015612b875780158015612b75575b15612b63575091905b600094916001600160a01b03908181165b8585106129ca57505050505090565b90919293966129e3610ac56129de8a613ac0565b611c05565b6001600160a01b03811660009081527f0bb5d42557ea6926c17416c5b1c1c29c28d9006d6f713295a2d385f07156ed0960205260409020612a249087611fdd565b908154918215612b5757612a3b8661112984611c5a565b60005b848110612b04575054838103612ae35750849291879160005b848110612ab5575050917f7512efdfec478fc8dfe48e38898da79514e44b21c7d93a9972e4ebefc1afab42612aa9949260019694612aa16040519283921694829190602083019252565b0390a3612935565b975b01939291906129bb565b909250600191939450612ad6612ad0610ff3610ff386613aef565b84613459565b5001918791869493612a57565b6040516333b17cbb60e01b8152600481019190915260248101849052604490fd5b80612b1d610ff3610ff3610ff3610ff360019689613b02565b612b3a610cd0828660019160005201602052604060002054151590565b612b46575b5001612a3e565b612b5090846137e0565b5038612b3f565b50505096600190612aab565b612b6e9150856128bf565b91906129aa565b50612b808683612231565b81116129a1565b85612b918361221d565b60405163a549fe5f60e01b815260048101929092526024820152604490fd5b505050509050600090600090565b6040516355dcae9160e11b8152600490fd5b9161040490612bec6040939695966060865260608601906103c7565b9084820360208601526103c7565b60405190612c078261026b565b606080836000815260006020820152600060408201520152565b90612c2b826107cc565b612c3860405191826102d4565b8281528092612c49601f19916107cc565b019060005b828110612c5a57505050565b602090612c65612bfa565b82828501015201612c4e565b9060036060604051612c828161026b565b612cbe819560018060a01b0381541683526001810154602084015260028101546040840152612cb76040518096819301611ccd565b03846102d4565b0152565b600080516020613b8d83398151915254929183821015612d5a5780612d55575060325b810180821161222c5781612cfc85612d0193613447565b612231565b612d0a81612c21565b9160005b828110612d1c575050509190565b80612d39612d34612d2f600194866128bf565b6134b3565b612c71565b612d43828761288b565b52612d4e818661288b565b5001612d0e565b612ce5565b5050604051612d688161029e565b600081529190565b6040519061010082018281106001600160401b0382111761028657604052600060e0838281528260208201526060604082015260608082015260606080820152606060a08201528260c08201520152565b906007612dcc6102f5565b83546001600160a01b031681529260018101546001600160a01b03166020850152612df960028201611d63565b6040850152612e0a60038201611d63565b6060850152612e1b60048201611d63565b6080850152612e2c60058201611d63565b60a0850152612e4b612e42600683015460ff1690565b151560c0860152565b015460e0830152565b6021612ea1916040519381612e738693518092602080870191016103a4565b8201602d60f81b6020820152612e9282518093602087850191016103a4565b010360018101845201826102d4565b6001600160a01b0390612eb390611f98565b54168015612ece576006612ec860ff92611c33565b01541690565b50600090565b90612ede826107cc565b612eeb60405191826102d4565b8281528092612efc601f19916107cc565b0190602036910137565b600092918154612f1581611c93565b92600191808316908115612f6f5750600114612f32575b50505050565b9091929394506000526020906020600020906000915b858310612f5e5750505050019038808080612f2c565b805485840152918301918101612f48565b60ff1916845250505081151590910201915038808080612f2c565b90612f94826107cc565b612fa160405191826102d4565b8281528092612fb2601f19916107cc565b019060005b828110612fc357505050565b806060602080938501015201612fb7565b90612fde82613209565b6002810160018154920154820382811161222c5783811061303f575082820391821161222c575560405190815233916001600160a01b0316907f6f81b9cf4ed9328799879be7651da4420ab1bc260b34ea71f72e9659aa548e6890602090a3565b60405163adb9e04360e01b8152600481019190915260248101849052604490fd5b336000908152600080516020613b6d83398151915260205260409020546001600160a01b0316611d7e57604051630799a15f60e11b8152600490fd5b6000546001600160a01b031633036130b057565b606460405162461bcd60e51b815260206004820152602060248201527f4f776e61626c653a2063616c6c6572206973206e6f7420746865206f776e65726044820152fd5b6130fd81613627565b9081613165575b8161310d575090565b60209150600090604051838101906301ffc9a760e01b808352602482015260248152613138816102b9565b5191617530fa6000513d82613159575b5081613152575090565b9050151590565b60201115915038613148565b905061317081613650565b1590613104565b61318081613627565b90816131c2575b81613190575090565b60209150600090604051838101906301ffc9a760e01b825263160841b160e01b602482015260248152613138816102b9565b90506131cd81613650565b1590613187565b604051602081019160018060a01b0316825260208152604081018181106001600160401b038211176102865760405251902090565b613212816131d4565b9081600052600080516020613b4d833981519152602052604060002054156132525750600052600080516020613bad833981519152602052604060002090565b604051637d2d536b60e01b81526001600160a01b039091166004820152602490fd5b600080516020613b0d8339815191525460005b81811061329357505050565b6132a2610ff3610ff383613a41565b6132b86132ae82611c33565b9161112986611c5a565b8054906132c482612ed4565b9160005b8181106133a457505081519160006001809501905b8481106132f257505050505050600101613287565b8154613306906001600160a01b0316610ff3565b906133146126a1828661288b565b823b1561023357604051639721672560e01b81526001600160a01b038c8116600483015291909116602482015287926000908290604490829084905af19081613391575b5061337b5761337361336d6126a1838761288b565b86613459565b505b016132dd565b61338b61336d6126a1838761288b565b50613375565b806127d061339e9261028b565b38613358565b806133ba61117a610ff3610ff360019588613b02565b016132c8565b6001600160a01b0390811660009081527f0bb5d42557ea6926c17416c5b1c1c29c28d9006d6f713295a2d385f07156ed0a602090815260408083209484168352939052919091209192919081549360328510156134275761342493945016906137e0565b50565b60405163e949933760e01b81526004810186905260326024820152604490fd5b9080821015613454575090565b905090565b6103a1916001600160a01b031690613998565b600080546001600160a01b039283166001600160a01b03198216811783559216907f8be0079c531659141344cd1fd0a4f28419497f9722a3daafe3b4186f6b6457e09080a3565b600080516020613b8d8339815191525481101561289f57600080516020613bcd8339815191520154600052600080516020613bad833981519152602052604060002090565b9190939293826000526003602091600080516020613bad8339815191526020526135516040600020916001958060018501556002840155829060018060a01b03166bffffffffffffffffffffffff60a01b825416179055565b01918551916001600160401b0383116102865761357283611ab68654611c93565b602091601f84116001146135b057505090806135a99261342496976000926120d85750508160011b916000199060031b1c19161790565b905561376a565b96601f929192198416976135c986600052602060002090565b936000915b8a831061361057505050908392916001946134249899106135f7575b505050811b01905561376a565b015160001960f88460031b161c191690553880806135ea565b8385015186559485019493810193918101916135ce565b6000602091604051838101906301ffc9a760e01b808352602482015260248152613138816102b9565b6000602091604051838101906301ffc9a760e01b825263ffffffff60e01b602482015260248152613138816102b9565b600080516020613b8d833981519152805482101561289f57600052600080516020613bcd8339815191520190600090565b805482101561289f5760005260206000200190600090565b806000527f0bb5d42557ea6926c17416c5b1c1c29c28d9006d6f713295a2d385f07156ed03806020526040600020541560001461376357600080516020613b0d8339815191528054600160401b811015610286576001810180835581101561289f5783907f10f78b23dc0eb204a6d6fa9709ff7d389ae78db91903b42d2351233e11ab5ab801555491600052602052604060002055600190565b5050600090565b80600052600080516020613b4d833981519152806020526040600020541560001461376357600080516020613b8d8339815191528054600160401b811015610286576001810180835581101561289f578390600080516020613bcd83398151915201555491600052602052604060002055600190565b600082815260018201602052604090205461376357805490600160401b82101561028657826138306138198460018096018555846136b1565b819391549060031b91821b91600019901b19161790565b905580549260005201602052604060002055600190565b600080516020613b8d8339815191528054908115613899576000198201918083101561289f577fb41db55c7d24928028896a7eb7f5b05917c002e0088f26af95b1bfac47132b52600091838352015555565b634e487b7160e01b600052603160045260246000fd5b805490811561389957600019918201916138c983836136b1565b909182549160031b1b1916905555565b6000818152600080516020613b4d8339815191526020526040902054801561376357600019918183019180831161222c57600080516020613b8d8339815191525493840193841161222c57838361395b9460009603613961575b50505061393e613847565b600052600080516020613b4d833981519152602052604060002090565b55600190565b61393e6139899161398161397761398f95613680565b90549060031b1c90565b928391613680565b90612003565b55388080613933565b6001810191806000528260205260406000205492831515600014613a3857600019928484019085821161222c57805494850194851161222c5760009585836139ec9461395b98036139fb575b5050506138af565b90600052602052604060002090565b613a1f61398991613a0f613a2f94876136b1565b90549060031b1c928391876136b1565b8590600052602052604060002090565b553880806139e4565b50505050600090565b600080516020613b0d833981519152805482101561289f576000527f10f78b23dc0eb204a6d6fa9709ff7d389ae78db91903b42d2351233e11ab5ab8015490565b600080516020613b0d83398151915280541561289f576000527f10f78b23dc0eb204a6d6fa9709ff7d389ae78db91903b42d2351233e11ab5ab85490565b600080516020613b8d833981519152805482101561289f57600052600080516020613bcd833981519152015490565b80541561289f5760005260206000205490565b90613977916136b156fe0bb5d42557ea6926c17416c5b1c1c29c28d9006d6f713295a2d385f07156ed020bb5d42557ea6926c17416c5b1c1c29c28d9006d6f713295a2d385f07156ed080bb5d42557ea6926c17416c5b1c1c29c28d9006d6f713295a2d385f07156ed060bb5d42557ea6926c17416c5b1c1c29c28d9006d6f713295a2d385f07156ed000bb5d42557ea6926c17416c5b1c1c29c28d9006d6f713295a2d385f07156ed050bb5d42557ea6926c17416c5b1c1c29c28d9006d6f713295a2d385f07156ed07b41db55c7d24928028896a7eb7f5b05917c002e0088f26af95b1bfac47132b53a2646970667358221220601cf91ed12f7961b7dd63995f0640979333f4481208450a6f7ff91ae0f6efa264736f6c63430008160033",
  "devdoc": {
    "errors": {
      "AlreadyInitialized()": [
        {
          "details": "Emitted when attempting to initialize an already initialized or locked contract."
        }
      ]
    },
    "events": {
      "Initialized(uint8)": {
        "details": "Triggered when the contract has been initialized or reinitialized."
      }
    },
    "kind": "dev",
    "methods": {
      "constructor": {
        "custom:oz-upgrades-unsafe-allow": "constructor"
      },
      "migrateUserServiceProvidersMapping(uint256,uint256)": {
        "details": "Migrates userServiceProviders (serviceType-based) to userServiceProvidersByAddress (serviceAddress-based)Supports batch processing to prevent gas limit issues with large user basesCan be called by owner after contract upgrade to migrate existing dataSafe to call multiple times - will only migrate data that hasn't been migrated yet",
        "params": {
          "batchSize": "Maximum number of users to process (use 0 for all remaining users)",
          "startUserIndex": "Index of user to start migration from (0-based, use 0 to start from beginning)"
        },
        "returns": {
          "migratedCount": "Number of users that had data migrated",
          "nextUserIndex": "Index to continue from in next batch (equals total users when complete)"
        }
      },
      "owner()": {
        "details": "Returns the address of the current owner."
      },
      "renounceOwnership()": {
        "details": "Leaves the contract without owner. It will not be possible to call `onlyOwner` functions anymore. Can only be called by the current owner. NOTE: Renouncing ownership will leave the contract without an owner, thereby removing any functionality that is only available to the owner."
      },
      "transferOwnership(address)": {
        "details": "Transfers ownership of the contract to a new account (`newOwner`). Can only be called by the current owner."
      },
      "updateAdditionalInfo(string)": {
        "params": {
          "additionalInfo": "New additional info (max 4KB)"
        }
      }
    },
    "version": 1
  },
  "userdoc": {
    "kind": "user",
    "methods": {
      "migrateUserServiceProvidersMapping(uint256,uint256)": {
        "notice": "One-time migration function to move data from old mapping to new mapping"
      },
      "updateAdditionalInfo(string)": {
        "notice": "Update additional info for an existing ledger"
      }
    },
    "version": 1
  },
  "storageLayout": {
    "storage": [
      {
        "astId": 7,
        "contract": "contracts/ledger/LedgerManager.sol:LedgerManager",
        "label": "_owner",
        "offset": 0,
        "slot": "0",
        "type": "t_address"
      },
      {
        "astId": 16839,
        "contract": "contracts/ledger/LedgerManager.sol:LedgerManager",
        "label": "initialized",
        "offset": 20,
        "slot": "0",
        "type": "t_bool"
      },
      {
        "astId": 16842,
        "contract": "contracts/ledger/LedgerManager.sol:LedgerManager",
        "label": "_initializationLocked",
        "offset": 21,
        "slot": "0",
        "type": "t_bool"
      },
      {
        "astId": 661,
        "contract": "contracts/ledger/LedgerManager.sol:LedgerManager",
        "label": "_status",
        "offset": 0,
        "slot": "1",
        "type": "t_uint256"
      }
    ],
    "types": {
      "t_address": {
        "encoding": "inplace",
        "label": "address",
        "numberOfBytes": "20"
      },
      "t_bool": {
        "encoding": "inplace",
        "label": "bool",
        "numberOfBytes": "1"
      },
      "t_uint256": {
        "encoding": "inplace",
        "label": "uint256",
        "numberOfBytes": "32"
      }
    }
  }
}