{
  "address": "0xB7C67BD36F4128Cf589AB99B11eB5206b01f3145",
  "abi": [
    {
      "inputs": [
        {
          "internalType": "address",
          "name": "user",
          "type": "address"
        }
      ],
      "name": "InsufficientBalance",
      "type": "error"
    },
    {
      "inputs": [
        {
          "internalType": "address",
          "name": "serviceAddress",
          "type": "address"
        }
      ],
      "name": "InvalidServiceAddress",
      "type": "error"
    },
    {
      "inputs": [
        {
          "internalType": "string",
          "name": "serviceType",
          "type": "string"
        }
      ],
      "name": "InvalidServiceType",
      "type": "error"
    },
    {
      "inputs": [
        {
          "internalType": "address",
          "name": "user",
          "type": "address"
        }
      ],
      "name": "LedgerExists",
      "type": "error"
    },
    {
      "inputs": [
        {
          "internalType": "address",
          "name": "user",
          "type": "address"
        }
      ],
      "name": "LedgerNotExists",
      "type": "error"
    },
    {
      "inputs": [
        {
          "internalType": "string",
          "name": "serviceName",
          "type": "string"
        }
      ],
      "name": "ServiceNameExists",
      "type": "error"
    },
    {
      "inputs": [
        {
          "internalType": "address",
          "name": "serviceAddress",
          "type": "address"
        }
      ],
      "name": "ServiceNotRegistered",
      "type": "error"
    },
    {
      "inputs": [
        {
          "internalType": "uint256",
          "name": "requested",
          "type": "uint256"
        },
        {
          "internalType": "uint256",
          "name": "maximum",
          "type": "uint256"
        }
      ],
      "name": "TooManyProviders",
      "type": "error"
    },
    {
      "anonymous": false,
      "inputs": [
        {
          "indexed": true,
          "internalType": "address",
          "name": "previousOwner",
          "type": "address"
        },
        {
          "indexed": true,
          "internalType": "address",
          "name": "newOwner",
          "type": "address"
        }
      ],
      "name": "OwnershipTransferred",
      "type": "event"
    },
    {
      "anonymous": false,
      "inputs": [
        {
          "indexed": true,
          "internalType": "string",
          "name": "serviceType",
          "type": "string"
        },
        {
          "indexed": false,
          "internalType": "string",
          "name": "version",
          "type": "string"
        },
        {
          "indexed": false,
          "internalType": "address",
          "name": "serviceAddress",
          "type": "address"
        }
      ],
      "name": "RecommendedServiceUpdated",
      "type": "event"
    },
    {
      "anonymous": false,
      "inputs": [
        {
          "indexed": true,
          "internalType": "address",
          "name": "serviceAddress",
          "type": "address"
        },
        {
          "indexed": false,
          "internalType": "string",
          "name": "serviceName",
          "type": "string"
        }
      ],
      "name": "ServiceRegistered",
      "type": "event"
    },
    {
      "inputs": [],
      "name": "MAX_PROVIDERS_PER_BATCH",
      "outputs": [
        {
          "internalType": "uint256",
          "name": "",
          "type": "uint256"
        }
      ],
      "stateMutability": "view",
      "type": "function"
    },
    {
      "inputs": [
        {
          "internalType": "string",
          "name": "additionalInfo",
          "type": "string"
        }
      ],
      "name": "addLedger",
      "outputs": [
        {
          "internalType": "uint256",
          "name": "",
          "type": "uint256"
        },
        {
          "internalType": "uint256",
          "name": "",
          "type": "uint256"
        }
      ],
      "stateMutability": "payable",
      "type": "function"
    },
    {
      "inputs": [],
      "name": "deleteLedger",
      "outputs": [],
      "stateMutability": "nonpayable",
      "type": "function"
    },
    {
      "inputs": [],
      "name": "depositFund",
      "outputs": [],
      "stateMutability": "payable",
      "type": "function"
    },
    {
      "inputs": [
        {
          "internalType": "address",
          "name": "recipient",
          "type": "address"
        }
      ],
      "name": "depositFundFor",
      "outputs": [],
      "stateMutability": "payable",
      "type": "function"
    },
    {
      "inputs": [],
      "name": "getAllActiveServices",
      "outputs": [
        {
          "components": [
            {
              "internalType": "address",
              "name": "serviceAddress",
              "type": "address"
            },
            {
              "internalType": "contract IServing",
              "name": "serviceContract",
              "type": "address"
            },
            {
              "internalType": "string",
              "name": "serviceType",
              "type": "string"
            },
            {
              "internalType": "string",
              "name": "version",
              "type": "string"
            },
            {
              "internalType": "string",
              "name": "fullName",
              "type": "string"
            },
            {
              "internalType": "string",
              "name": "description",
              "type": "string"
            },
            {
              "internalType": "bool",
              "name": "isRecommended",
              "type": "bool"
            },
            {
              "internalType": "uint256",
              "name": "registeredAt",
              "type": "uint256"
            }
          ],
          "internalType": "struct ServiceInfo[]",
          "name": "",
          "type": "tuple[]"
        }
      ],
      "stateMutability": "view",
      "type": "function"
    },
    {
      "inputs": [
        {
          "internalType": "uint256",
          "name": "offset",
          "type": "uint256"
        },
        {
          "internalType": "uint256",
          "name": "limit",
          "type": "uint256"
        }
      ],
      "name": "getAllLedgers",
      "outputs": [
        {
          "components": [
            {
              "internalType": "address",
              "name": "user",
              "type": "address"
            },
            {
              "internalType": "uint256",
              "name": "availableBalance",
              "type": "uint256"
            },
            {
              "internalType": "uint256",
              "name": "totalBalance",
              "type": "uint256"
            },
            {
              "internalType": "string",
              "name": "additionalInfo",
              "type": "string"
            }
          ],
          "internalType": "struct Ledger[]",
          "name": "ledgers",
          "type": "tuple[]"
        },
        {
          "internalType": "uint256",
          "name": "total",
          "type": "uint256"
        }
      ],
      "stateMutability": "view",
      "type": "function"
    },
    {
      "inputs": [
        {
          "internalType": "string",
          "name": "serviceType",
          "type": "string"
        }
      ],
      "name": "getAllVersions",
      "outputs": [
        {
          "internalType": "string[]",
          "name": "versions",
          "type": "string[]"
        },
        {
          "internalType": "address[]",
          "name": "addresses",
          "type": "address[]"
        },
        {
          "internalType": "bool[]",
          "name": "isRecommendedFlags",
          "type": "bool[]"
        }
      ],
      "stateMutability": "view",
      "type": "function"
    },
    {
      "inputs": [
        {
          "internalType": "address",
          "name": "user",
          "type": "address"
        }
      ],
      "name": "getLedger",
      "outputs": [
        {
          "components": [
            {
              "internalType": "address",
              "name": "user",
              "type": "address"
            },
            {
              "internalType": "uint256",
              "name": "availableBalance",
              "type": "uint256"
            },
            {
              "internalType": "uint256",
              "name": "totalBalance",
              "type": "uint256"
            },
            {
              "internalType": "string",
              "name": "additionalInfo",
              "type": "string"
            }
          ],
          "internalType": "struct Ledger",
          "name": "",
          "type": "tuple"
        }
      ],
      "stateMutability": "view",
      "type": "function"
    },
    {
      "inputs": [
        {
          "internalType": "address",
          "name": "user",
          "type": "address"
        },
        {
          "internalType": "string",
          "name": "serviceName",
          "type": "string"
        }
      ],
      "name": "getLedgerProviders",
      "outputs": [
        {
          "internalType": "address[]",
          "name": "",
          "type": "address[]"
        }
      ],
      "stateMutability": "view",
      "type": "function"
    },
    {
      "inputs": [
        {
          "internalType": "string",
          "name": "serviceType",
          "type": "string"
        }
      ],
      "name": "getRecommendedService",
      "outputs": [
        {
          "internalType": "string",
          "name": "version",
          "type": "string"
        },
        {
          "internalType": "address",
          "name": "serviceAddress",
          "type": "address"
        }
      ],
      "stateMutability": "view",
      "type": "function"
    },
    {
      "inputs": [
        {
          "internalType": "string",
          "name": "serviceName",
          "type": "string"
        }
      ],
      "name": "getServiceAddressByName",
      "outputs": [
        {
          "internalType": "address",
          "name": "",
          "type": "address"
        }
      ],
      "stateMutability": "view",
      "type": "function"
    },
    {
      "inputs": [
        {
          "internalType": "address",
          "name": "serviceAddress",
          "type": "address"
        }
      ],
      "name": "getServiceInfo",
      "outputs": [
        {
          "components": [
            {
              "internalType": "address",
              "name": "serviceAddress",
              "type": "address"
            },
            {
              "internalType": "contract IServing",
              "name": "serviceContract",
              "type": "address"
            },
            {
              "internalType": "string",
              "name": "serviceType",
              "type": "string"
            },
            {
              "internalType": "string",
              "name": "version",
              "type": "string"
            },
            {
              "internalType": "string",
              "name": "fullName",
              "type": "string"
            },
            {
              "internalType": "string",
              "name": "description",
              "type": "string"
            },
            {
              "internalType": "bool",
              "name": "isRecommended",
              "type": "bool"
            },
            {
              "internalType": "uint256",
              "name": "registeredAt",
              "type": "uint256"
            }
          ],
          "internalType": "struct ServiceInfo",
          "name": "",
          "type": "tuple"
        }
      ],
      "stateMutability": "view",
      "type": "function"
    },
    {
      "inputs": [
        {
          "internalType": "address",
          "name": "owner",
          "type": "address"
        }
      ],
      "name": "initialize",
      "outputs": [],
      "stateMutability": "nonpayable",
      "type": "function"
    },
    {
      "inputs": [],
      "name": "initialized",
      "outputs": [
        {
          "internalType": "bool",
          "name": "",
          "type": "bool"
        }
      ],
      "stateMutability": "view",
      "type": "function"
    },
    {
      "inputs": [
        {
          "internalType": "string",
          "name": "serviceType",
          "type": "string"
        },
        {
          "internalType": "string",
          "name": "version",
          "type": "string"
        }
      ],
      "name": "isRecommendedVersion",
      "outputs": [
        {
          "internalType": "bool",
          "name": "",
          "type": "bool"
        }
      ],
      "stateMutability": "view",
      "type": "function"
    },
    {
      "inputs": [],
      "name": "owner",
      "outputs": [
        {
          "internalType": "address",
          "name": "",
          "type": "address"
        }
      ],
      "stateMutability": "view",
      "type": "function"
    },
    {
      "inputs": [
        {
          "internalType": "uint256",
          "name": "amount",
          "type": "uint256"
        }
      ],
      "name": "refund",
      "outputs": [],
      "stateMutability": "nonpayable",
      "type": "function"
    },
    {
      "inputs": [
        {
          "internalType": "string",
          "name": "serviceType",
          "type": "string"
        },
        {
          "internalType": "string",
          "name": "version",
          "type": "string"
        },
        {
          "internalType": "address",
          "name": "serviceAddress",
          "type": "address"
        },
        {
          "internalType": "string",
          "name": "description",
          "type": "string"
        }
      ],
      "name": "registerService",
      "outputs": [],
      "stateMutability": "nonpayable",
      "type": "function"
    },
    {
      "inputs": [],
      "name": "renounceOwnership",
      "outputs": [],
      "stateMutability": "nonpayable",
      "type": "function"
    },
    {
      "inputs": [
        {
          "internalType": "address[]",
          "name": "providers",
          "type": "address[]"
        },
        {
          "internalType": "string",
          "name": "serviceType",
          "type": "string"
        }
      ],
      "name": "retrieveFund",
      "outputs": [],
      "stateMutability": "nonpayable",
      "type": "function"
    },
    {
      "inputs": [
        {
          "internalType": "string",
          "name": "serviceType",
          "type": "string"
        },
        {
          "internalType": "string",
          "name": "version",
          "type": "string"
        }
      ],
      "name": "setRecommendedService",
      "outputs": [],
      "stateMutability": "nonpayable",
      "type": "function"
    },
    {
      "inputs": [
        {
          "internalType": "address",
          "name": "user",
          "type": "address"
        },
        {
          "internalType": "uint256",
          "name": "amount",
          "type": "uint256"
        }
      ],
      "name": "spendFund",
      "outputs": [],
      "stateMutability": "nonpayable",
      "type": "function"
    },
    {
      "inputs": [
        {
          "internalType": "address",
          "name": "provider",
          "type": "address"
        },
        {
          "internalType": "string",
          "name": "serviceName",
          "type": "string"
        },
        {
          "internalType": "uint256",
          "name": "amount",
          "type": "uint256"
        }
      ],
      "name": "transferFund",
      "outputs": [],
      "stateMutability": "nonpayable",
      "type": "function"
    },
    {
      "inputs": [
        {
          "internalType": "address",
          "name": "newOwner",
          "type": "address"
        }
      ],
      "name": "transferOwnership",
      "outputs": [],
      "stateMutability": "nonpayable",
      "type": "function"
    },
    {
      "stateMutability": "payable",
      "type": "receive"
    }
  ],
  "transactionHash": "0xad20646e969f307f12b0d3d0b7901fc81b4a944e83bc5a74fbc7246b563fc815",
  "args": [],
  "numDeployments": 1,
  "solcInputHash": "f544539b46700b7746bf19937fc79705",
  "bytecode": "0x6080806040523461005f5760008054336001600160a01b0319821681178355916001600160a01b03909116907f8be0079c531659141344cd1fd0a4f28419497f9722a3daafe3b4186f6b6457e09080a3600180556135b590816100658239f35b600080fdfe6080604052600436101561001b575b361561001957600080fd5b005b60003560e01c80630e864174146101ab578063158ef93e146101a65780631ef4dc44146101a1578063278ecde11461019c5780632ba43b821461019757806331404a1914610192578063410b38151461018d578063715018a6146101885780638158c9e5146101835780638d0d8cb61461017e5780638da5cb5b146101795780639449fe1714610174578063987086f01461016f5780639ade39721461016a578063a261056514610165578063aef4217314610160578063b8d5e5811461015b578063c4d66de814610156578063c5e53f7e14610151578063d4dca96d1461014c578063dd8a411814610147578063e032f73214610142578063f2fde38b1461013d578063f585f3ea146101385763f7cd6af90361000e5761191b565b611850565b6117c3565b6116dd565b61162b565b61145c565b6112e4565b611251565b61122c565b61112c565b6110bb565b611000565b610e86565b610e31565b610e08565b610d26565b610c40565b610ba2565b6108d1565b610828565b610563565b610477565b6103f9565b6103a9565b610374565b634e487b7160e01b600052604160045260246000fd5b6001600160401b0381116101d957604052565b6101b0565b608081019081106001600160401b038211176101d957604052565b602081019081106001600160401b038211176101d957604052565b606081019081106001600160401b038211176101d957604052565b90601f801991011681019081106001600160401b038211176101d957604052565b6040519061010082018281106001600160401b038211176101d957604052565b6001600160401b0381116101d957601f01601f191660200190565b81601f820112156102d2578035906102a282610270565b926102b0604051948561022f565b828452602083830101116102d257816000926020809301838601378301015290565b600080fd5b60206003198201126102d257600435906001600160401b0382116102d2576103019160040161028b565b90565b60005b8381106103175750506000910152565b8181015183820152602001610307565b9060209161034081518092818552858086019101610304565b601f01601f1916010190565b90610364602091949394604084526040840190610327565b6001600160a01b03909416910152565b346102d25761038a610385366102d7565b613015565b9061039a6040519283928361034c565b0390f35b60009103126102d257565b346102d25760003660031901126102d257602060ff60005460a01c166040519015158152f35b600435906001600160a01b03821682036102d257565b35906001600160a01b03821682036102d257565b346102d25760803660031901126102d2576001600160401b036004358181116102d25761042a90369060040161028b565b6024358281116102d25761044290369060040161028b565b604435906001600160a01b03821682036102d2576064359384116102d25761047161001994369060040161028b565b9261261c565b346102d25760203660031901126102d2576004356104943361348a565b600091818352600080516020613560833981519152806020526104be60ff60408620541615611f0b565b82845260205260408320805460ff191660011790556104dc336132f3565b6001810190815483811061054b5783810390811161054657859360028594938594938594550161050d828254611c19565b905581811561053d575b3390f1156105385761052b61053591611eee565b805460ff19169055565b80f35b611f57565b506108fc610517565b611bf6565b60405163112fed8b60e31b8152336004820152602490fd5b346102d25760603660031901126102d25761057c6103cf565b6024356001600160401b0381116102d25761059b90369060040161028b565b90604435916105a93361348a565b6000938185526000805160206135608339815191526020948186526040916105d760ff848a20541615611f0b565b8488528652818720805460ff1916600117905561060c6105ff6105f9336132f3565b96611d3a565b546001600160a01b031690565b6001600160a01b03959061062c906106278882161515611da5565b611de5565b80546001820154855163147500e360e01b81523360048201526001600160a01b03868116602483015291909916811698911691868a836044818d5afa8015610538578c9384916107e4575b50156107905750508451631320b9eb60e11b81523360048201526001600160a01b038516602482015297899150889060449082905afa9384156105385761053598600161075e9761072d8d989761071f6106e96106e261052b9f9b8d9c8d91610763575b5086611d11565b8095611c19565b965163745e87f760e01b878201523360248201526001600160a01b03909216604483015260648201939093529182906084820190565b03601f19810183528261022f565b945b0161074783825461074282821015611fb3565b611c19565b905583519301915af1610758611ff6565b50612026565b611eee565b6107839150893d8b11610789575b61077b818361022f565b810190611fa4565b386106db565b503d610771565b919561052b995061075e97506105359a91946107df88976107d960026001955163e50688f960e01b888201526107d28161071f60038901873360248501611f7b565b9901611b38565b336131b9565b61072f565b61080491508c8d3d1061080a575b6107fc818361022f565b810190611f63565b38610677565b503d6107f2565b6001600160401b0381116101d95760051b60200190565b346102d25760403660031901126102d2576001600160401b036004358181116102d257366023820112156102d257806004013561086481610811565b91610872604051938461022f565b81835260209160248385019160051b830101913683116102d257602401905b8282106108ba57602435858782116102d2576108b461001992369060040161028b565b90612072565b8380916108c6846103e5565b815201910190610891565b346102d257600080600319360112610b1457600260019080825414610b5d578082556108fc3361348a565b91828452600080516020613560833981519152918260205260409261092760ff858820541615611f0b565b848652602052828520805460ff19168317905561094f81610947336132f3565b015415612296565b6109583361348a565b926000805160206134c08339815191525492865b8481106109b757876109ae61052b8961075e6109a98b61098b816124a4565b50600052600080516020613500833981519152602052604060002090565b6123b6565b61053560018055565b6109d56106276109c96109c984611e99565b6001600160a01b031690565b3360009081527f0bb5d42557ea6926c17416c5b1c1c29c28d9006d6f713295a2d385f07156ed0860205260409020610a0f90868301612364565b9083825491610a1d83611e0c565b928c5b818110610b1c575050818c9101915b610a46575b50505050610a4190611c26565b61096c565b8251811015610b17578154610a63906001600160a01b03166109c9565b90610a7e610a718286611c4b565b516001600160a01b031690565b908d833b15610b14578951639721672560e01b81523360048201526001600160a01b039390931660248401528893610ae59391908290604490829084905af19081610afb575b50610aeb57610adf610ad9610a718388611c4b565b87612609565b50611c26565b90610a2f565b610adf610ad9610a718388611c4b565b80610b08610b0e926101c6565b8061039e565b38610ac4565b80fd5b610a34565b610b5491929350610b4f610b366109c96109c9848a611eda565b610b408388611c4b565b6001600160a01b039091169052565b611c26565b90869291610a20565b60405162461bcd60e51b815260206004820152601f60248201527f5265656e7472616e637947756172643a207265656e7472616e742063616c6c006044820152606490fd5b346102d257600080600319360112610b1457610bbc6119a2565b80546001600160a01b03198116825581906001600160a01b03167f8be0079c531659141344cd1fd0a4f28419497f9722a3daafe3b4186f6b6457e08280a380f35b9060406003198301126102d2576001600160401b036004358181116102d25783610c299160040161028b565b926024359182116102d2576103019160040161028b565b346102d2577f22cc4700d5c4d3ff57ddfb4bb70d5a0e1bed5c060482e8eeeb8672d4471ad5e2610c6f36610bfd565b9190610c796119a2565b610d11610cd26105ff604051610ccd6021828751610c9e816020840160208c01610304565b8101602d60f81b60208201528a5190610cbe828d60208785019101610304565b0103600181018452018261022f565b611d3a565b91610ce76001600160a01b0384161515611da5565b610cf081612e96565b610d0c6006610cfe85611de5565b01805460ff19166001179055565b612e76565b92610d216040519283928361034c565b0390a2005b600080600319360112610b1457610d3c3361348a565b80825260008051602061356083398151915280602052610d6360ff60408520541615611f0b565b81835260205260408220805460ff19166001179055610d813361348a565b610da581600052600080516020613540833981519152602052604060002054151590565b610dcd576105359161075e61052b9260405190610dc1826101f9565b8682523490339061335e565b50610dd7336132f3565b60018101908154348101809111610546576002925501805491348301809311610546576105359261052b9255611eee565b346102d25760003660031901126102d2576000546040516001600160a01b039091168152602090f35b346102d25760003660031901126102d257602060405160148152f35b90608060606103019360018060a01b03815116845260208101516020850152604081015160408501520151918160608201520190610327565b346102d25760403660031901126102d257610ea5602435600435611c64565b90604051906040820192604083528151809452606083019160608560051b850101926020809201906000905b878210610ee5575050508380955001520390f35b9091948380610f00600193605f198b82030186528951610e4d565b9701920192019091610ed1565b80516001600160a01b03168252906020828101516001600160a01b03169082015260e080610f89610f77610f65610f5360408801516101008060408a0152880190610327565b60608801518782036060890152610327565b60808701518682036080880152610327565b60a086015185820360a0870152610327565b60c08086015115159085015293015191015290565b602080820190808352835180925260408301928160408460051b8301019501936000915b848310610fd25750505050505090565b9091929394958480610ff0600193603f198682030187528a51610f0d565b9801930193019194939290610fc2565b346102d25760003660031901126102d2576000805160206134c08339815191525461102a81610811565b90611038604051928361022f565b808252601f1961104782610811565b0160005b8181106110a457505060005b81811061106c576040518061039a8582610f9e565b8061108a6110856106276109c96109c961109f96611e99565b612f82565b6110948286611c4b565b52610adf8185611c4b565b611057565b6020906110af612f31565b8282870101520161104b565b346102d25760206110d46110ce36610bfd565b90613148565b6040519015158152f35b90815180825260208080930193019160005b8281106110fe575050505090565b83516001600160a01b0316855293810193928101926001016110f0565b9060206103019281815201906110de565b346102d25760403660031901126102d2576111456103cf565b602435906001600160401b0382116102d2576111ec916001600160a01b039061117690610ccd90369060040161028b565b5416611183811515611da5565b6000526000805160206135208339815191526020526111e66111ab6002604060002001611b38565b6001600160a01b0390921660009081527f0bb5d42557ea6926c17416c5b1c1c29c28d9006d6f713295a2d385f07156ed086020526040902090565b90611d7f565b80546111f781611e0c565b9160005b828110611210576040518061039a868261111b565b80610b4f610b366109c96109c96112279587611eda565b6111fb565b346102d25760206001600160a01b03611247610ccd366102d7565b5416604051908152f35b346102d25760203660031901126102d25761126a6103cf565b6000549060ff8260a01c166112945760ff60a01b19909116600160a01b17600055610019906119fa565b60405162461bcd60e51b815260206004820152602260248201527f496e697469616c697a61626c653a20616c726561647920696e697469616c697a604482015261195960f21b6064820152608490fd5b6112ed366102d7565b6112f63361348a565b90816000526000805160206135608339815191528060205261132060ff6040600020541615611f0b565b8260005260205260406000209160ff19926001848254161790556113433361348a565b61136781600052600080516020613540833981519152602052604060002054151590565b6113945761137c9261075e913490339061335e565b80549190911690556040805134815260006020820152f35b60405163cde58aa160e01b8152336004820152602490fd5b909160608201906060835283518092526080830160808360051b850101926020809601916000905b82821061142c5750505050906113f091838203858501526110de565b90604081830391015281808451928381520193019160005b828110611416575050505090565b8351151585529381019392810192600101611408565b90919294878061144b600193607f9b9a9b198c82030186528951610327565b9701920192019092919695966113d4565b346102d25761146a366102d7565b6000805160206134c083398151915254600091825b8281106115a85750611490836130fe565b916114a361149d85611e0c565b94611e0c565b91600090815b8381106114c0576040518061039a878a8a846113ac565b6114cf6109c96109c983611e99565b6114d881611de5565b908888604080516020611529818301836114f58260028c016122e2565b0393611509601f199586810183528261022f565b5190209351918201928261151d858d611d23565b0390810183528261022f565b51902014611544575b5050505061153f90611c26565b6114a9565b6006846115858995610b4087610b4f9761157f61153f9c9e61158d9961156f600361159e9f01611b38565b6115798383611c4b565b52611c4b565b50611c4b565b015460ff1690565b611597838a611c4b565b9015159052565b9290388888611532565b60026115bc6106276109c96109c985611e99565b016040908151906115ff602091836115d784820180936122e2565b03936115eb601f199586810183528261022f565b5190209351918201928261151d8589611d23565b51902014611616575b61161190611c26565b61147f565b9261162361161191611c26565b939050611608565b346102d25760403660031901126102d2576116446103cf565b33600090815260008051602061352083398151915260205260409020546001600160a01b03161561167c57610019906024359061320b565b60405162461bcd60e51b815260206004820152602260248201527f43616c6c6572206973206e6f7420612072656769737465726564207365727669604482015261636560f01b6064820152608490fd5b906020610301928181520190610f0d565b346102d25760203660031901126102d2576116f66103cf565b6116fe612f31565b506001600160a01b031660009081526000805160206135208339815191526020526040902061039a906007611731610250565b82546001600160a01b031681529160018101546001600160a01b0316602084015261175e60028201611b38565b604084015261176f60038201611b38565b606084015261178060048201611b38565b608084015261179160058201611b38565b60a08401526117b06117a7600683015460ff1690565b151560c0850152565b015460e0820152604051918291826116cc565b346102d25760203660031901126102d2576117dc6103cf565b6117e46119a2565b6001600160a01b038116156117fc57610019906119fa565b60405162461bcd60e51b815260206004820152602660248201527f4f776e61626c653a206e6577206f776e657220697320746865207a65726f206160448201526564647265737360d01b6064820152608490fd5b60203660031901126102d2576118646103cf565b61186d8161348a565b6000918183526000805160206135608339815191528060205261189760ff60408620541615611f0b565b82845260205260408320805460ff191660011790556118b58161348a565b6118d981600052600080516020613540833981519152602052604060002054151590565b611900579161075e61052b9261053594604051916118f6836101f9565b878352349161335e565b50610dd7906132f3565b906020610301928181520190610e4d565b346102d25760203660031901126102d25761039a61194861193a6103cf565b611942611a41565b506132f3565b60036119916040519261195a846101de565b60018060a01b038154168452600181015460208501526002810154604085015261198a6040518094819301611aa2565b038261022f565b60608201526040519182918261190a565b6000546001600160a01b031633036119b657565b606460405162461bcd60e51b815260206004820152602060248201527f4f776e61626c653a2063616c6c6572206973206e6f7420746865206f776e65726044820152fd5b600080546001600160a01b039283166001600160a01b03198216811783559216907f8be0079c531659141344cd1fd0a4f28419497f9722a3daafe3b4186f6b6457e09080a3565b60405190611a4e826101de565b606080836000815260006020820152600060408201520152565b90600182811c92168015611a98575b6020831014611a8257565b634e487b7160e01b600052602260045260246000fd5b91607f1691611a77565b9060009291805491611ab383611a68565b918282526001938481169081600014611b155750600114611ad5575b50505050565b90919394506000526020928360002092846000945b838610611b01575050505001019038808080611acf565b805485870183015294019385908201611aea565b9294505050602093945060ff191683830152151560051b01019038808080611acf565b90611b53611b4c9260405193848092611aa2565b038361022f565b565b9060036060604051611b66816101de565b611ba2819560018060a01b0381541683526001810154602084015260028101546040840152611b9b6040518096819301611aa2565b038461022f565b0152565b90611bb082610811565b611bbd604051918261022f565b8281528092611bce601f1991610811565b019060005b828110611bdf57505050565b602090611bea611a41565b82828501015201611bd3565b634e487b7160e01b600052601160045260246000fd5b9190820180921161054657565b9190820391821161054657565b60001981146105465760010190565b634e487b7160e01b600052603260045260246000fd5b8051821015611c5f5760209160051b010190565b611c35565b6000805160206134e083398151915254929183821015611cfb5780611ce35750825b81810390811161054657611c9981611ba6565b9160005b828110611cab575050509190565b80611cc9611cc4611cbf611cde9486611c0c565b61329c565b611b55565b611cd38287611c4b565b52610adf8186611c4b565b611c9d565b81018082116105465783611cf691611d11565b611c86565b5050604051611d09816101f9565b600081529190565b9080821015611d1e575090565b905090565b90611d3660209282815194859201610304565b0190565b6020611d53918160405193828580945193849201610304565b81017f0bb5d42557ea6926c17416c5b1c1c29c28d9006d6f713295a2d385f07156ed0181520301902090565b602090611d99928260405194838680955193849201610304565b82019081520301902090565b15611dac57565b60405162461bcd60e51b815260206004820152601160248201527014d95c9d9a58d9481b9bdd08199bdd5b99607a1b6044820152606490fd5b6001600160a01b031660009081526000805160206135208339815191526020526040902090565b90611e1682610811565b611e23604051918261022f565b8281528092611e34601f1991610811565b0190602036910137565b6000805160206134e08339815191528054821015611c5f576000527f21302f50b88ada34e91c29b444cb23b8bdb1cb81a8967b81f9f41f1744929c3f0190600090565b8054821015611c5f5760005260206000200190600090565b6000805160206134c08339815191528054821015611c5f576000527f10f78b23dc0eb204a6d6fa9709ff7d389ae78db91903b42d2351233e11ab5ab8015490565b90611ee491611e81565b90549060031b1c90565b600052600080516020613560833981519152602052604060002090565b15611f1257565b60405162461bcd60e51b815260206004820152601b60248201527f4c6564676572206c6f636b656420666f72206f7065726174696f6e00000000006044820152606490fd5b6040513d6000823e3d90fd5b908160209103126102d2575180151581036102d25790565b6001600160a01b0391821681529116602082015260606040820181905261030192910190611aa2565b908160209103126102d2575190565b15611fba57565b60405162461bcd60e51b8152602060048201526014602482015273496e73756666696369656e742062616c616e636560601b6044820152606490fd5b3d15612021573d9061200782610270565b91612015604051938461022f565b82523d6000602084013e565b606090565b1561202d57565b60405162461bcd60e51b815260206004820152601d60248201527f43616c6c20746f206368696c6420636f6e7472616374206661696c65640000006044820152606490fd5b61207b3361348a565b91600091838352600080516020613560833981519152806020526040906120a860ff838720541615611f0b565b858552602052808420926001938460ff1982541617905582516014811161225b57506105ff6120d691611d3a565b9383612102816120f460018060a01b03986106278a82161515611da5565b01546001600160a01b031690565b9361210c336132f3565b948397849116925b61213b575b505050505091612134611b53949261052b9401918254611c0c565b9055611eee565b815181101561225657612151610a718284611c4b565b855163271e279160e11b8152336004808301919091526001600160a01b0392909216602482015290986060919082826044818a8a5af1918215610538576121a0938893612225575b5050611c0c565b976121ae610a718385611c4b565b90843b15612221578651636c79158d60e01b8152339181019182526001600160a01b039092166020820152909493929190849086908190604001038183875af19081156105385788956122059261220e5750611c26565b90919293612114565b80610b0861221b926101c6565b38610adf565b8580fd5b612245929350803d1061224f575b61223d818361022f565b81019061227b565b5050903880612199565b503d612233565b612119565b825163414f261960e11b8152600481019190915260146024820152604490fd5b908160609103126102d2578051916040602083015192015190565b1561229d57565b60405162461bcd60e51b815260206004820152601d60248201527f4d75737420776974686472617720616c6c2066756e64732066697273740000006044820152606490fd5b6000929181546122f181611a68565b92600191808316908115612349575060011461230d5750505050565b90919293945060005260209081600020906000915b8583106123385750505050019038808080611acf565b805485840152918301918101612322565b60ff1916845250505081151590910201915038808080611acf565b60209061237792604051938480936122e2565b9081520301902090565b9161239b9183549060031b91821b91600019901b19161790565b9055565b8181106123aa575050565b6000815560010161239f565b6003600091828155826001820155826002820155016123d58154611a68565b806123df57505050565b82601f82116001146123f057505055565b909180825261240e601f60208420940160051c84016001850161239f565b5555565b6000805160206134e083398151915280549081156124645760001982019180831015611c5f577f21302f50b88ada34e91c29b444cb23b8bdb1cb81a8967b81f9f41f1744929c3e600091838352015555565b634e487b7160e01b600052603160045260246000fd5b805490811561246457600019918201916124948383611e81565b909182549160031b1b1916905555565b600081815260008051602061354083398151915260205260409020548015612559576000199181830191808311610546576000805160206134e083398151915254938401938411610546578383612526946000960361252c575b505050612509612412565b600052600080516020613540833981519152602052604060002090565b55600190565b61250961254a91612542611ee461255095611e3e565b928391611e3e565b90612381565b553880806124fe565b5050600090565b60018101918060005282602052604060002054928315156000146126005760001992848401908582116105465780549485019485116105465760009585836125b49461252698036125c3575b50505061247a565b90600052602052604060002090565b6125e761254a916125d76125f79487611e81565b90549060031b1c92839187611e81565b8590600052602052604060002090565b553880806125ac565b50505050600090565b610301916001600160a01b031690612560565b906127897f4c76643f3c678c590db6e8ad9fe0bb6e75d36cb853c3bd06c487607ff35e6f719361276161279f946126516119a2565b6001600160a01b038316976126678915156127a4565b612673825115156127f0565b61267f86511515612834565b6126976126916109c96105ff87611de5565b15612873565b604051956126d3876126c56126bf6126b26020840188611d23565b602d60f81b815260010190565b84611d23565b03601f19810189528861022f565b6126eb6126e56109c96105ff8a611d3a565b156128bf565b6126fc6126f786612baa565b61290b565b61270d61270886612c2d565b61296f565b612715610250565b6001600160a01b0386168152926001600160a01b038b1660208501526040840152606083015285608083015260a0820152600060c08201524260e082015261275c83611de5565b612ae0565b61276a83611d3a565b80546001600160a01b0319166001600160a01b03909216919091179055565b61279284612ce3565b5060405191829182612b99565b0390a2565b156127ab57565b60405162461bcd60e51b815260206004820152601760248201527f496e76616c6964207365727669636520616464726573730000000000000000006044820152606490fd5b156127f757565b60405162461bcd60e51b815260206004820152601560248201527414d95c9d9a58d9481d1e5c19481c995c5d5a5c9959605a1b6044820152606490fd5b1561283b57565b60405162461bcd60e51b815260206004820152601060248201526f15995c9cda5bdb881c995c5d5a5c995960821b6044820152606490fd5b1561287a57565b60405162461bcd60e51b815260206004820152601a60248201527f5365727669636520616c726561647920726567697374657265640000000000006044820152606490fd5b156128c657565b60405162461bcd60e51b815260206004820152601b60248201527f53657276696365206e616d6520616c72656164792065786973747300000000006044820152606490fd5b1561291257565b60405162461bcd60e51b815260206004820152602f60248201527f53657276696365206d75737420737570706f72742045524331363520696e746560448201526e393330b1b2903232ba32b1ba34b7b760891b6064820152608490fd5b1561297657565b60405162461bcd60e51b815260206004820152602960248201527f53657276696365206d75737420696d706c656d656e74204953657276696e6720604482015268696e7465726661636560b81b6064820152608490fd5b9190601f81116129dc57505050565b611b53926000526020600020906020601f840160051c83019310612a08575b601f0160051c019061239f565b90915081906129fb565b91909182516001600160401b0381116101d957612a3981612a338454611a68565b846129cd565b602080601f8311600114612a75575081929394600092612a6a575b50508160011b916000199060031b1c1916179055565b015190503880612a54565b90601f19831695612a8b85600052602060002090565b926000905b888210612ac857505083600195969710612aaf575b505050811b019055565b015160001960f88460031b161c19169055388080612aa5565b80600185968294968601518155019501930190612a90565b815181546001600160a01b0319166001600160a01b039091161781559060079060e09060208101516001850180546001600160a01b0319166001600160a01b03909216919091179055612b3a604082015160028601612a12565b612b4b606082015160038601612a12565b612b5c608082015160048601612a12565b612b6d60a082015160058601612a12565b612b92612b7d60c0830151151590565b600686019060ff801983541691151516179055565b0151910155565b906020610301928181520190610327565b612bb381612c8a565b9081612c1b575b81612bc3575090565b60209150600090604051838101906301ffc9a760e01b808352602482015260248152612bee81610214565b5191617530fa6000513d82612c0f575b5081612c08575090565b9050151590565b60201115915038612bfe565b9050612c2681612cb3565b1590612bba565b612c3681612c8a565b9081612c78575b81612c46575090565b60209150600090604051838101906301ffc9a760e01b825263160841b160e01b602482015260248152612bee81610214565b9050612c8381612cb3565b1590612c3d565b6000602091604051838101906301ffc9a760e01b808352602482015260248152612bee81610214565b6000602091604051838101906301ffc9a760e01b825263ffffffff60e01b602482015260248152612bee81610214565b806000527f0bb5d42557ea6926c17416c5b1c1c29c28d9006d6f713295a2d385f07156ed038060205260406000205415600014612559576000805160206134c08339815191528054600160401b8110156101d95760018101808355811015611c5f5783907f10f78b23dc0eb204a6d6fa9709ff7d389ae78db91903b42d2351233e11ab5ab801555491600052602052604060002055600190565b806000526000805160206135408339815191528060205260406000205415600014612559576000805160206134e08339815191528054600160401b8110156101d95760018101808355811015611c5f5783907f21302f50b88ada34e91c29b444cb23b8bdb1cb81a8967b81f9f41f1744929c3f01555491600052602052604060002055600190565b6001810190826000528160205260406000205415600014612e6e578054600160401b8110156101d957612e59612e42826001879401855584611e81565b819391549060031b91821b91600019901b19161790565b90555491600052602052604060002055600190565b505050600090565b612e8e90602060405192828480945193849201610304565b810103902090565b6000805160206134c0833981519152549060005b828110612eb657505050565b80612ecc6106276109c96109c9612f1c95611e99565b604080516020612f0e81830183612ee682600289016122e2565b0393612efa601f199586810183528261022f565b5190209351918201928261151d858b611d23565b51902014612f215750611c26565b612eaa565b600601805460ff1916905561221b565b6040519061010082018281106001600160401b038211176101d957604052600060e0838281528260208201526060604082015260608082015260606080820152606060a08201528260c08201520152565b906007612f8d610250565b83546001600160a01b031681529260018101546001600160a01b03166020850152612fba60028201611b38565b6040850152612fcb60038201611b38565b6060850152612fdc60048201611b38565b6080850152612fed60058201611b38565b60a085015261300c613003600683015460ff1690565b151560c0860152565b015460e0830152565b906000805160206134c0833981519152549060005b8281106130895760405162461bcd60e51b815260206004820152602a60248201527f4e6f207265636f6d6d656e646564207365727669636520666f756e6420666f726044820152692074686973207479706560b01b6064820152608490fd5b6130986109c96109c983611e99565b6130a181611de5565b6040805160206130bb818301836114f582600289016122e2565b51902014806130f0575b6130d95750506130d490611c26565b61302a565b9094506130ec9293506003915001611b38565b9190565b50600681015460ff166130c5565b9061310882610811565b613115604051918261022f565b8281528092613126601f1991610811565b019060005b82811061313757505050565b80606060208093850101520161312b565b6021613186916040519381613167869351809260208087019101610304565b8201602d60f81b6020820152610cbe8251809360208785019101610304565b6001600160a01b039061319890611d3a565b541680156131b35760066131ad60ff92611de5565b01541690565b50600090565b6001600160a01b0390811660009081527f0bb5d42557ea6926c17416c5b1c1c29c28d9006d6f713295a2d385f07156ed086020526040902061320893926132009190611d7f565b911690612e05565b50565b906132158261348a565b806000526000805160206135608339815191528060205261323e60ff6040600020541615611f0b565b8160005260205261326060406000209360ff19946001868254161790556132f3565b60028101926001845492015482038281116105465781613281911015611fb3565b8103908111610546576132949255611eee565b908154169055565b6000805160206134e083398151915254811015611c5f577f21302f50b88ada34e91c29b444cb23b8bdb1cb81a8967b81f9f41f1744929c3f0154600052600080516020613500833981519152602052604060002090565b6132fc8161348a565b90816000526000805160206135408339815191526020526040600020541561333c5750600052600080516020613500833981519152602052604060002090565b604051637d2d536b60e01b81526001600160a01b039091166004820152602490fd5b9193929382600052600360209260008051602061350083398151915284526133b460406000209160019480868501556002840155829060018060a01b03166bffffffffffffffffffffffff60a01b825416179055565b01918551956001600160401b0387116101d9576133db876133d58654611a68565b866129cd565b81601f881160011461341b575095809281926132089798600094613410575b50501b916000199060031b1c1916179055612d7d565b0151925038806133fa565b909691601f1983169761343386600052602060002090565b926000905b8a82106134735750508361320898991061345a575b505050811b019055612d7d565b015160001960f88460031b161c1916905538808061344d565b808785968294968601518155019501930190613438565b604051602081019160018060a01b0316825260208152604081018181106001600160401b038211176101d9576040525190209056fe0bb5d42557ea6926c17416c5b1c1c29c28d9006d6f713295a2d385f07156ed020bb5d42557ea6926c17416c5b1c1c29c28d9006d6f713295a2d385f07156ed040bb5d42557ea6926c17416c5b1c1c29c28d9006d6f713295a2d385f07156ed060bb5d42557ea6926c17416c5b1c1c29c28d9006d6f713295a2d385f07156ed000bb5d42557ea6926c17416c5b1c1c29c28d9006d6f713295a2d385f07156ed050bb5d42557ea6926c17416c5b1c1c29c28d9006d6f713295a2d385f07156ed07a2646970667358221220281323aa645ac2ef85a4ace55d0bcd908beedd3e980e1ef41e80736ef2769df764736f6c63430008140033",
  "devdoc": {
    "kind": "dev",
    "methods": {
      "owner()": {
        "details": "Returns the address of the current owner."
      },
      "renounceOwnership()": {
        "details": "Leaves the contract without owner. It will not be possible to call `onlyOwner` functions anymore. Can only be called by the current owner. NOTE: Renouncing ownership will leave the contract without an owner, thereby removing any functionality that is only available to the owner."
      },
      "transferOwnership(address)": {
        "details": "Transfers ownership of the contract to a new account (`newOwner`). Can only be called by the current owner."
      }
    },
    "version": 1
  },
  "userdoc": {
    "kind": "user",
    "methods": {},
    "version": 1
  },
  "storageLayout": {
    "storage": [
      {
        "astId": 7,
        "contract": "contracts/ledger/LedgerManager.sol:LedgerManager",
        "label": "_owner",
        "offset": 0,
        "slot": "0",
        "type": "t_address"
      },
      {
        "astId": 13268,
        "contract": "contracts/ledger/LedgerManager.sol:LedgerManager",
        "label": "initialized",
        "offset": 20,
        "slot": "0",
        "type": "t_bool"
      },
      {
        "astId": 123,
        "contract": "contracts/ledger/LedgerManager.sol:LedgerManager",
        "label": "_status",
        "offset": 0,
        "slot": "1",
        "type": "t_uint256"
      }
    ],
    "types": {
      "t_address": {
        "encoding": "inplace",
        "label": "address",
        "numberOfBytes": "20"
      },
      "t_bool": {
        "encoding": "inplace",
        "label": "bool",
        "numberOfBytes": "1"
      },
      "t_uint256": {
        "encoding": "inplace",
        "label": "uint256",
        "numberOfBytes": "32"
      }
    }
  }
}