{
  "address": "0x73665Bd6335b46656ADe94Ad1D12A2586ADE74d8",
  "abi": [
    {
      "inputs": [
        {
          "internalType": "address",
          "name": "user",
          "type": "address"
        }
      ],
      "name": "InsufficientBalance",
      "type": "error"
    },
    {
      "inputs": [
        {
          "internalType": "address",
          "name": "serviceAddress",
          "type": "address"
        }
      ],
      "name": "InvalidServiceAddress",
      "type": "error"
    },
    {
      "inputs": [
        {
          "internalType": "string",
          "name": "serviceType",
          "type": "string"
        }
      ],
      "name": "InvalidServiceType",
      "type": "error"
    },
    {
      "inputs": [
        {
          "internalType": "address",
          "name": "user",
          "type": "address"
        }
      ],
      "name": "LedgerExists",
      "type": "error"
    },
    {
      "inputs": [
        {
          "internalType": "address",
          "name": "user",
          "type": "address"
        }
      ],
      "name": "LedgerNotExists",
      "type": "error"
    },
    {
      "inputs": [
        {
          "internalType": "string",
          "name": "serviceName",
          "type": "string"
        }
      ],
      "name": "ServiceNameExists",
      "type": "error"
    },
    {
      "inputs": [
        {
          "internalType": "address",
          "name": "serviceAddress",
          "type": "address"
        }
      ],
      "name": "ServiceNotRegistered",
      "type": "error"
    },
    {
      "inputs": [
        {
          "internalType": "uint256",
          "name": "requested",
          "type": "uint256"
        },
        {
          "internalType": "uint256",
          "name": "maximum",
          "type": "uint256"
        }
      ],
      "name": "TooManyProviders",
      "type": "error"
    },
    {
      "anonymous": false,
      "inputs": [
        {
          "indexed": true,
          "internalType": "address",
          "name": "previousOwner",
          "type": "address"
        },
        {
          "indexed": true,
          "internalType": "address",
          "name": "newOwner",
          "type": "address"
        }
      ],
      "name": "OwnershipTransferred",
      "type": "event"
    },
    {
      "anonymous": false,
      "inputs": [
        {
          "indexed": true,
          "internalType": "string",
          "name": "serviceType",
          "type": "string"
        },
        {
          "indexed": false,
          "internalType": "string",
          "name": "version",
          "type": "string"
        },
        {
          "indexed": false,
          "internalType": "address",
          "name": "serviceAddress",
          "type": "address"
        }
      ],
      "name": "RecommendedServiceUpdated",
      "type": "event"
    },
    {
      "anonymous": false,
      "inputs": [
        {
          "indexed": true,
          "internalType": "address",
          "name": "serviceAddress",
          "type": "address"
        },
        {
          "indexed": false,
          "internalType": "string",
          "name": "serviceName",
          "type": "string"
        }
      ],
      "name": "ServiceRegistered",
      "type": "event"
    },
    {
      "inputs": [],
      "name": "MAX_ADDITIONAL_INFO_LENGTH",
      "outputs": [
        {
          "internalType": "uint256",
          "name": "",
          "type": "uint256"
        }
      ],
      "stateMutability": "view",
      "type": "function"
    },
    {
      "inputs": [],
      "name": "MAX_PROVIDERS_PER_BATCH",
      "outputs": [
        {
          "internalType": "uint256",
          "name": "",
          "type": "uint256"
        }
      ],
      "stateMutability": "view",
      "type": "function"
    },
    {
      "inputs": [],
      "name": "MAX_SERVICES",
      "outputs": [
        {
          "internalType": "uint256",
          "name": "",
          "type": "uint256"
        }
      ],
      "stateMutability": "view",
      "type": "function"
    },
    {
      "inputs": [
        {
          "internalType": "string",
          "name": "additionalInfo",
          "type": "string"
        }
      ],
      "name": "addLedger",
      "outputs": [
        {
          "internalType": "uint256",
          "name": "",
          "type": "uint256"
        },
        {
          "internalType": "uint256",
          "name": "",
          "type": "uint256"
        }
      ],
      "stateMutability": "payable",
      "type": "function"
    },
    {
      "inputs": [],
      "name": "deleteLedger",
      "outputs": [],
      "stateMutability": "nonpayable",
      "type": "function"
    },
    {
      "inputs": [],
      "name": "depositFund",
      "outputs": [],
      "stateMutability": "payable",
      "type": "function"
    },
    {
      "inputs": [
        {
          "internalType": "address",
          "name": "recipient",
          "type": "address"
        }
      ],
      "name": "depositFundFor",
      "outputs": [],
      "stateMutability": "payable",
      "type": "function"
    },
    {
      "inputs": [],
      "name": "getAllActiveServices",
      "outputs": [
        {
          "components": [
            {
              "internalType": "address",
              "name": "serviceAddress",
              "type": "address"
            },
            {
              "internalType": "contract IServing",
              "name": "serviceContract",
              "type": "address"
            },
            {
              "internalType": "string",
              "name": "serviceType",
              "type": "string"
            },
            {
              "internalType": "string",
              "name": "version",
              "type": "string"
            },
            {
              "internalType": "string",
              "name": "fullName",
              "type": "string"
            },
            {
              "internalType": "string",
              "name": "description",
              "type": "string"
            },
            {
              "internalType": "bool",
              "name": "isRecommended",
              "type": "bool"
            },
            {
              "internalType": "uint256",
              "name": "registeredAt",
              "type": "uint256"
            }
          ],
          "internalType": "struct ServiceInfo[]",
          "name": "",
          "type": "tuple[]"
        }
      ],
      "stateMutability": "view",
      "type": "function"
    },
    {
      "inputs": [
        {
          "internalType": "uint256",
          "name": "offset",
          "type": "uint256"
        },
        {
          "internalType": "uint256",
          "name": "limit",
          "type": "uint256"
        }
      ],
      "name": "getAllLedgers",
      "outputs": [
        {
          "components": [
            {
              "internalType": "address",
              "name": "user",
              "type": "address"
            },
            {
              "internalType": "uint256",
              "name": "availableBalance",
              "type": "uint256"
            },
            {
              "internalType": "uint256",
              "name": "totalBalance",
              "type": "uint256"
            },
            {
              "internalType": "string",
              "name": "additionalInfo",
              "type": "string"
            }
          ],
          "internalType": "struct Ledger[]",
          "name": "ledgers",
          "type": "tuple[]"
        },
        {
          "internalType": "uint256",
          "name": "total",
          "type": "uint256"
        }
      ],
      "stateMutability": "view",
      "type": "function"
    },
    {
      "inputs": [
        {
          "internalType": "string",
          "name": "serviceType",
          "type": "string"
        }
      ],
      "name": "getAllVersions",
      "outputs": [
        {
          "internalType": "string[]",
          "name": "versions",
          "type": "string[]"
        },
        {
          "internalType": "address[]",
          "name": "addresses",
          "type": "address[]"
        },
        {
          "internalType": "bool[]",
          "name": "isRecommendedFlags",
          "type": "bool[]"
        }
      ],
      "stateMutability": "view",
      "type": "function"
    },
    {
      "inputs": [
        {
          "internalType": "address",
          "name": "user",
          "type": "address"
        }
      ],
      "name": "getLedger",
      "outputs": [
        {
          "components": [
            {
              "internalType": "address",
              "name": "user",
              "type": "address"
            },
            {
              "internalType": "uint256",
              "name": "availableBalance",
              "type": "uint256"
            },
            {
              "internalType": "uint256",
              "name": "totalBalance",
              "type": "uint256"
            },
            {
              "internalType": "string",
              "name": "additionalInfo",
              "type": "string"
            }
          ],
          "internalType": "struct Ledger",
          "name": "",
          "type": "tuple"
        }
      ],
      "stateMutability": "view",
      "type": "function"
    },
    {
      "inputs": [
        {
          "internalType": "address",
          "name": "user",
          "type": "address"
        },
        {
          "internalType": "string",
          "name": "serviceName",
          "type": "string"
        }
      ],
      "name": "getLedgerProviders",
      "outputs": [
        {
          "internalType": "address[]",
          "name": "",
          "type": "address[]"
        }
      ],
      "stateMutability": "view",
      "type": "function"
    },
    {
      "inputs": [
        {
          "internalType": "string",
          "name": "serviceType",
          "type": "string"
        }
      ],
      "name": "getRecommendedService",
      "outputs": [
        {
          "internalType": "string",
          "name": "version",
          "type": "string"
        },
        {
          "internalType": "address",
          "name": "serviceAddress",
          "type": "address"
        }
      ],
      "stateMutability": "view",
      "type": "function"
    },
    {
      "inputs": [
        {
          "internalType": "string",
          "name": "serviceName",
          "type": "string"
        }
      ],
      "name": "getServiceAddressByName",
      "outputs": [
        {
          "internalType": "address",
          "name": "",
          "type": "address"
        }
      ],
      "stateMutability": "view",
      "type": "function"
    },
    {
      "inputs": [
        {
          "internalType": "address",
          "name": "serviceAddress",
          "type": "address"
        }
      ],
      "name": "getServiceInfo",
      "outputs": [
        {
          "components": [
            {
              "internalType": "address",
              "name": "serviceAddress",
              "type": "address"
            },
            {
              "internalType": "contract IServing",
              "name": "serviceContract",
              "type": "address"
            },
            {
              "internalType": "string",
              "name": "serviceType",
              "type": "string"
            },
            {
              "internalType": "string",
              "name": "version",
              "type": "string"
            },
            {
              "internalType": "string",
              "name": "fullName",
              "type": "string"
            },
            {
              "internalType": "string",
              "name": "description",
              "type": "string"
            },
            {
              "internalType": "bool",
              "name": "isRecommended",
              "type": "bool"
            },
            {
              "internalType": "uint256",
              "name": "registeredAt",
              "type": "uint256"
            }
          ],
          "internalType": "struct ServiceInfo",
          "name": "",
          "type": "tuple"
        }
      ],
      "stateMutability": "view",
      "type": "function"
    },
    {
      "inputs": [
        {
          "internalType": "address",
          "name": "owner",
          "type": "address"
        }
      ],
      "name": "initialize",
      "outputs": [],
      "stateMutability": "nonpayable",
      "type": "function"
    },
    {
      "inputs": [],
      "name": "initialized",
      "outputs": [
        {
          "internalType": "bool",
          "name": "",
          "type": "bool"
        }
      ],
      "stateMutability": "view",
      "type": "function"
    },
    {
      "inputs": [
        {
          "internalType": "string",
          "name": "serviceType",
          "type": "string"
        },
        {
          "internalType": "string",
          "name": "version",
          "type": "string"
        }
      ],
      "name": "isRecommendedVersion",
      "outputs": [
        {
          "internalType": "bool",
          "name": "",
          "type": "bool"
        }
      ],
      "stateMutability": "view",
      "type": "function"
    },
    {
      "inputs": [],
      "name": "owner",
      "outputs": [
        {
          "internalType": "address",
          "name": "",
          "type": "address"
        }
      ],
      "stateMutability": "view",
      "type": "function"
    },
    {
      "inputs": [
        {
          "internalType": "uint256",
          "name": "amount",
          "type": "uint256"
        }
      ],
      "name": "refund",
      "outputs": [],
      "stateMutability": "nonpayable",
      "type": "function"
    },
    {
      "inputs": [
        {
          "internalType": "string",
          "name": "serviceType",
          "type": "string"
        },
        {
          "internalType": "string",
          "name": "version",
          "type": "string"
        },
        {
          "internalType": "address",
          "name": "serviceAddress",
          "type": "address"
        },
        {
          "internalType": "string",
          "name": "description",
          "type": "string"
        }
      ],
      "name": "registerService",
      "outputs": [],
      "stateMutability": "nonpayable",
      "type": "function"
    },
    {
      "inputs": [],
      "name": "renounceOwnership",
      "outputs": [],
      "stateMutability": "nonpayable",
      "type": "function"
    },
    {
      "inputs": [
        {
          "internalType": "address[]",
          "name": "providers",
          "type": "address[]"
        },
        {
          "internalType": "string",
          "name": "serviceName",
          "type": "string"
        }
      ],
      "name": "retrieveFund",
      "outputs": [],
      "stateMutability": "nonpayable",
      "type": "function"
    },
    {
      "inputs": [
        {
          "internalType": "string",
          "name": "serviceType",
          "type": "string"
        },
        {
          "internalType": "string",
          "name": "version",
          "type": "string"
        }
      ],
      "name": "setRecommendedService",
      "outputs": [],
      "stateMutability": "nonpayable",
      "type": "function"
    },
    {
      "inputs": [
        {
          "internalType": "address",
          "name": "user",
          "type": "address"
        },
        {
          "internalType": "uint256",
          "name": "amount",
          "type": "uint256"
        }
      ],
      "name": "spendFund",
      "outputs": [],
      "stateMutability": "nonpayable",
      "type": "function"
    },
    {
      "inputs": [
        {
          "internalType": "address",
          "name": "provider",
          "type": "address"
        },
        {
          "internalType": "string",
          "name": "serviceName",
          "type": "string"
        },
        {
          "internalType": "uint256",
          "name": "amount",
          "type": "uint256"
        }
      ],
      "name": "transferFund",
      "outputs": [],
      "stateMutability": "nonpayable",
      "type": "function"
    },
    {
      "inputs": [
        {
          "internalType": "address",
          "name": "newOwner",
          "type": "address"
        }
      ],
      "name": "transferOwnership",
      "outputs": [],
      "stateMutability": "nonpayable",
      "type": "function"
    },
    {
      "stateMutability": "payable",
      "type": "receive"
    }
  ],
  "transactionHash": "0x3735833964efdd1b4b9f13db6dc999e483507f23b3f38d5b8f09ae106c7b21b1",
  "args": [],
  "numDeployments": 3,
  "solcInputHash": "6e4d2bb611c7c84c704ac4922a223bde",
  "bytecode": "0x6080806040523461005f5760008054336001600160a01b0319821681178355916001600160a01b03909116907f8be0079c531659141344cd1fd0a4f28419497f9722a3daafe3b4186f6b6457e09080a3600180556139d090816100658239f35b600080fdfe60806040526004361015610023575b361561001957600080fd5b610021613859565b005b60003560e01c806307940ea2146101d35780630e864174146101ce578063158ef93e146101c95780631ef4dc44146101c4578063278ecde1146101bf5780632ba43b82146101ba57806331404a19146101b5578063410b3815146101b0578063715018a6146101ab5780638158c9e5146101a65780638d0d8cb6146101a15780638da5cb5b1461019c5780639449fe1714610197578063987086f0146101925780639ade39721461018d578063a261056514610188578063aef4217314610183578063b8d5e5811461017e578063c4d66de814610179578063c5e53f7e14610174578063d4dca96d1461016f578063dd8a41181461016a578063e032f73214610165578063e374248d14610160578063f2fde38b1461015b578063f585f3ea146101565763f7cd6af90361000e57611b3a565b611a2a565b61199d565b611980565b61189a565b6117e8565b611625565b61145b565b6113c8565b6113a3565b6112a3565b611232565b611177565b610ffd565b610fa8565b610f7f565b610f0d565b610d48565b610caa565b6109d9565b610930565b61066b565b610589565b61050b565b6104bb565b6103c4565b6101e8565b60009103126101e357565b600080fd5b346101e35760003660031901126101e35760206040516101f48152f35b634e487b7160e01b600052604160045260246000fd5b6001600160401b03811161022e57604052565b610205565b608081019081106001600160401b0382111761022e57604052565b602081019081106001600160401b0382111761022e57604052565b606081019081106001600160401b0382111761022e57604052565b90601f801991011681019081106001600160401b0382111761022e57604052565b6040519061010082018281106001600160401b0382111761022e57604052565b6001600160401b03811161022e57601f01601f191660200190565b81601f820112156101e3578035906102f7826102c5565b926103056040519485610284565b828452602083830101116101e357816000926020809301838601378301015290565b60206003198201126101e357600435906001600160401b0382116101e357610351916004016102e0565b90565b60005b8381106103675750506000910152565b8181015183820152602001610357565b9060209161039081518092818552858086019101610354565b601f01601f1916010190565b906103b4602091949394604084526040840190610377565b6001600160a01b03909416910152565b346101e3576103d236610327565b6040516103fc602082816103ef8183019687815193849201610354565b8101038084520182610284565b51902060009081527f0bb5d42557ea6926c17416c5b1c1c29c28d9006d6f713295a2d385f07156ed0460205260409020546001600160a01b0316801561046357610450600361044a83612010565b01611d57565b61045f6040519283928361039c565b0390f35b60405162461bcd60e51b815260206004820152602a60248201527f4e6f207265636f6d6d656e646564207365727669636520666f756e6420666f726044820152692074686973207479706560b01b6064820152608490fd5b346101e35760003660031901126101e357602060ff60005460a01c166040519015158152f35b600435906001600160a01b03821682036101e357565b35906001600160a01b03821682036101e357565b346101e35760803660031901126101e3576001600160401b036004358181116101e35761053c9036906004016102e0565b6024358281116101e3576105549036906004016102e0565b604435906001600160a01b03821682036101e3576064359384116101e3576105836100219436906004016102e0565b92612b1e565b346101e35760203660031901126101e3576004356105a633613824565b906000918083526000805160206138fb833981519152806020526105d160ff60408620541615612136565b81845260205260408320805460ff191660011790556105ef336136b9565b9060018201928354908082106106535780820391821161064e57858080809360026106419861063c9761064b9b5501610629828254611e4b565b9055335af161063661238d565b506123bd565b612119565b805460ff19169055565b80f35b611e28565b60405163112fed8b60e31b8152336004820152602490fd5b346101e35760603660031901126101e3576106846104e1565b6024356001600160401b0381116101e3576106a39036906004016102e0565b90604435916106b133613824565b6000938185526000805160206138fb8339815191526020948186526040916106df60ff848a20541615612136565b8488528652818720805460ff19166001179055610714610707610701336136b9565b96611f65565b546001600160a01b031690565b6001600160a01b0395906107349061072f8882161515611fd0565b612010565b80546001820154855163147500e360e01b81523360048201526001600160a01b03868116602483015291909916811698911691868a836044818d5afa8015610893578c9384916108ec575b50156108985750508451631320b9eb60e11b81523360048201526001600160a01b038516602482015297899150889060449082905afa9384156108935761064b98600161063c976108358d98976108276107f16107ea6106419f9b8d9c8d91610866575b5086611f3c565b8095611e4b565b965163745e87f760e01b878201523360248201526001600160a01b03909216604483015260648201939093529182906084820190565b03601f198101835282610284565b945b0161084f83825461084a8282101561245a565b611e4b565b905583519301915af161086061238d565b5061249d565b6108869150893d8b1161088c575b61087e8183610284565b81019061244b565b386107e3565b503d610874565b612416565b9195610641995061063c975061064b9a91946108e788976108e160026001955163e50688f960e01b888201526108da8161082760038901873360248501612422565b9901611d57565b33613582565b610837565b61090c91508c8d3d10610912575b6109048183610284565b8101906123fe565b3861077f565b503d6108fa565b6001600160401b03811161022e5760051b60200190565b346101e35760403660031901126101e3576001600160401b036004358181116101e357366023820112156101e357806004013561096c81610919565b9161097a6040519384610284565b81835260209160248385019160051b830101913683116101e357602401905b8282106109c257602435858782116101e3576109bc6100219236906004016102e0565b906124e9565b8380916109ce846104f7565b815201910190610999565b346101e357600080600319360112610c1c57600260019080825414610c6557808255610a0433613824565b918284526000805160206138fb8339815191529182602052604092610a2f60ff858820541615612136565b848652602052828520805460ff191683179055610a5781610a4f336136b9565b015415612798565b610a6033613824565b926000805160206138db8339815191525492865b848110610abf5787610ab66106418961063c610ab18b610a93816129a6565b5060005260008051602061397b833981519152602052604060002090565b6128b8565b61064b60018055565b610add61072f610ad1610ad1846120c4565b6001600160a01b031690565b3360009081527f0bb5d42557ea6926c17416c5b1c1c29c28d9006d6f713295a2d385f07156ed0960205260409020610b1790868301612866565b9083825491610b2583612037565b928c5b818110610c24575050818c9101915b610b4e575b50505050610b4990611e58565b610a74565b8251811015610c1f578154610b6b906001600160a01b0316610ad1565b90610b86610b798286611e7d565b516001600160a01b031690565b908d833b15610c1c578951639721672560e01b81523360048201526001600160a01b039390931660248401528893610bed9391908290604490829084905af19081610c03575b50610bf357610be7610be1610b798388611e7d565b87612b0b565b50611e58565b90610b37565b610be7610be1610b798388611e7d565b80610c10610c169261021b565b806101d8565b38610bcc565b80fd5b610b3c565b610c5c91929350610c57610c3e610ad1610ad1848a612105565b610c488388611e7d565b6001600160a01b039091169052565b611e58565b90869291610b28565b60405162461bcd60e51b815260206004820152601f60248201527f5265656e7472616e637947756172643a207265656e7472616e742063616c6c006044820152606490fd5b346101e357600080600319360112610c1c57610cc4611bc1565b80546001600160a01b03198116825581906001600160a01b03167f8be0079c531659141344cd1fd0a4f28419497f9722a3daafe3b4186f6b6457e08280a380f35b9060406003198301126101e3576001600160401b036004358181116101e35783610d31916004016102e0565b926024359182116101e357610351916004016102e0565b346101e357610ece7f22cc4700d5c4d3ff57ddfb4bb70d5a0e1bed5c060482e8eeeb8672d4471ad5e2610e8e610d7d36610d05565b9390610d87611bc1565b610ead604051610dd361070782610dba610db4610da76020840189611f4e565b602d60f81b815260010190565b8b611f4e565b0392610dce601f1994858101835282610284565b611f65565b9485916001600160a01b0380841691610ded831515611fd0565b604051610e0f602082019282610e03858c611f4e565b03908101835282610284565b51902091610e49610707846000527f0bb5d42557ea6926c17416c5b1c1c29c28d9006d6f713295a2d385f07156ed04602052604060002090565b918216908115159182610f02575b5050610ee3575b506000527f0bb5d42557ea6926c17416c5b1c1c29c28d9006d6f713295a2d385f07156ed04602052604060002090565b80546001600160a01b0319166001600160a01b03909216919091179055565b610ec96006610ebb85612010565b01805460ff19166001179055565b6133b4565b92610ede6040519283928361039c565b0390a2005b6006610ef1610efc92612010565b01805460ff19169055565b38610e5e565b141590503880610e57565b600080600319360112610c1c57610f2333613824565b8082526000805160206138fb83398151915280602052610f4a60ff60408520541615612136565b81835280602052604083209160ff1992600184825416179055610f6d3433612195565b83526020526040822090815416905580f35b346101e35760003660031901126101e3576000546040516001600160a01b039091168152602090f35b346101e35760003660031901126101e357602060405160148152f35b90608060606103519360018060a01b03815116845260208101516020850152604081015160408501520151918160608201520190610377565b346101e35760403660031901126101e35761101c602435600435611e96565b90604051906040820192604083528151809452606083019160608560051b850101926020809201906000905b87821061105c575050508380955001520390f35b9091948380611077600193605f198b82030186528951610fc4565b9701920192019091611048565b80516001600160a01b03168252906020828101516001600160a01b03169082015260e0806111006110ee6110dc6110ca60408801516101008060408a0152880190610377565b60608801518782036060890152610377565b60808701518682036080880152610377565b60a086015185820360a0870152610377565b60c08086015115159085015293015191015290565b602080820190808352835180925260408301928160408460051b8301019501936000915b8483106111495750505050505090565b9091929394958480611167600193603f198682030187528a51611084565b9801930193019194939290611139565b346101e35760003660031901126101e3576000805160206138db833981519152546111a181610919565b906111af6040519283610284565b808252601f196111be82610919565b0160005b81811061121b57505060005b8181106111e3576040518061045f8582611115565b806112016111fc61072f610ad1610ad1611216966120c4565b613425565b61120b8286611e7d565b52610be78185611e7d565b6111ce565b6020906112266133d4565b828287010152016111c2565b346101e357602061124b61124536610d05565b90613502565b6040519015158152f35b90815180825260208080930193019160005b828110611275575050505090565b83516001600160a01b031685529381019392810192600101611267565b906020610351928181520190611255565b346101e35760403660031901126101e3576112bc6104e1565b602435906001600160401b0382116101e357611363916001600160a01b03906112ed90610dce9036906004016102e0565b54166112fa811515611fd0565b60005260008051602061393b83398151915260205261135d6113226002604060002001611d57565b6001600160a01b0390921660009081527f0bb5d42557ea6926c17416c5b1c1c29c28d9006d6f713295a2d385f07156ed096020526040902090565b90611faa565b805461136e81612037565b9160005b828110611387576040518061045f8682611292565b80610c57610c3e610ad1610ad161139e9587612105565b611372565b346101e35760206001600160a01b036113be610dce36610327565b5416604051908152f35b346101e35760203660031901126101e3576113e16104e1565b6000549060ff8260a01c1661140b5760ff60a01b19909116600160a01b1760005561002190611c19565b60405162461bcd60e51b815260206004820152602260248201527f496e697469616c697a61626c653a20616c726561647920696e697469616c697a604482015261195960f21b6064820152608490fd5b61146436610327565b61146d33613824565b90816000526000805160206138fb8339815191528060205261149760ff6040600020541615612136565b826000526020526040600020600160ff19825416179055611000815111611526576114c133613824565b916114e68360005260008051602061391b833981519152602052604060002054151590565b61150e5761063c610641926114fe9434903390613724565b6040805134815260006020820152f35b60405163cde58aa160e01b8152336004820152602490fd5b60405162461bcd60e51b815260206004820152602160248201527f4164646974696f6e616c20696e666f206578636565647320344b42206c696d696044820152601d60fa1b6064820152608490fd5b909160608201906060835283518092526080830160808360051b850101926020809601916000905b8282106115f55750505050906115b99183820385850152611255565b90604081830391015281808451928381520193019160005b8281106115df575050505090565b83511515855293810193928101926001016115d1565b909192948780611614600193607f9b9a9b198c82030186528951610377565b97019201920190929196959661159d565b346101e35761163336610327565b6000805160206138db83398151915254600091825b8281106117655750611659836134b8565b9161166c61166685612037565b94612037565b91600090815b838110611689576040518061045f878a8a84611575565b611698610ad1610ad1836120c4565b6116a181612010565b9088886040805160206116e6818301836116be8260028c016127e4565b03936116d2601f1995868101835282610284565b51902093519182019282610e03858d611f4e565b51902014611701575b505050506116fc90611e58565b611672565b6006846117428995610c4887610c579761173c6116fc9c9e61174a9961172c600361175b9f01611d57565b6117368383611e7d565b52611e7d565b50611e7d565b015460ff1690565b611754838a611e7d565b9015159052565b92903888886116ef565b600261177961072f610ad1610ad1856120c4565b016040908151906117bc6020918361179484820180936127e4565b03936117a8601f1995868101835282610284565b51902093519182019282610e038589611f4e565b519020146117d3575b6117ce90611e58565b611648565b926117e06117ce91611e58565b9390506117c5565b346101e35760403660031901126101e3576118016104e1565b33600090815260008051602061393b83398151915260205260409020546001600160a01b0316156118395761002190602435906135d1565b60405162461bcd60e51b815260206004820152602260248201527f43616c6c6572206973206e6f7420612072656769737465726564207365727669604482015261636560f01b6064820152608490fd5b906020610351928181520190611084565b346101e35760203660031901126101e3576118b36104e1565b6118bb6133d4565b506001600160a01b0316600090815260008051602061393b8339815191526020526040902061045f9060076118ee6102a5565b82546001600160a01b031681529160018101546001600160a01b0316602084015261191b60028201611d57565b604084015261192c60038201611d57565b606084015261193d60048201611d57565b608084015261194e60058201611d57565b60a084015261196d611964600683015460ff1690565b151560c0850152565b015460e082015260405191829182611889565b346101e35760003660031901126101e35760206040516110008152f35b346101e35760203660031901126101e3576119b66104e1565b6119be611bc1565b6001600160a01b038116156119d65761002190611c19565b60405162461bcd60e51b815260206004820152602660248201527f4f776e61626c653a206e6577206f776e657220697320746865207a65726f206160448201526564647265737360d01b6064820152608490fd5b60203660031901126101e357611a3e6104e1565b611a4781613824565b6000918183526000805160206138fb83398151915280602052611a7160ff60408620541615612136565b82845260205260408320805460ff19166001179055611a8f81613824565b611ab38160005260008051602061391b833981519152602052604060002054151590565b611ade579161063c6106419261064b94611ace341515612341565b611ad6612182565b913491613724565b9050825260008051602061397b833981519152602052604082206001810190815434810180911161064e57600292550180549134830180931161064e5761064b926106419255612119565b906020610351928181520190610fc4565b346101e35760203660031901126101e35761045f611b67611b596104e1565b611b61611c60565b506136b9565b6003611bb060405192611b7984610233565b60018060a01b0381541684526001810154602085015260028101546040850152611ba96040518094819301611cc1565b0382610284565b606082015260405191829182611b29565b6000546001600160a01b03163303611bd557565b606460405162461bcd60e51b815260206004820152602060248201527f4f776e61626c653a2063616c6c6572206973206e6f7420746865206f776e65726044820152fd5b600080546001600160a01b039283166001600160a01b03198216811783559216907f8be0079c531659141344cd1fd0a4f28419497f9722a3daafe3b4186f6b6457e09080a3565b60405190611c6d82610233565b606080836000815260006020820152600060408201520152565b90600182811c92168015611cb7575b6020831014611ca157565b634e487b7160e01b600052602260045260246000fd5b91607f1691611c96565b9060009291805491611cd283611c87565b918282526001938481169081600014611d345750600114611cf4575b50505050565b90919394506000526020928360002092846000945b838610611d20575050505001019038808080611cee565b805485870183015294019385908201611d09565b9294505050602093945060ff191683830152151560051b01019038808080611cee565b90611d72611d6b9260405193848092611cc1565b0383610284565b565b9060036060604051611d8581610233565b611dc1819560018060a01b0381541683526001810154602084015260028101546040840152611dba6040518096819301611cc1565b0384610284565b0152565b604051611dd18161024e565b6000815290565b90611de282610919565b611def6040519182610284565b8281528092611e00601f1991610919565b019060005b828110611e1157505050565b602090611e1c611c60565b82828501015201611e05565b634e487b7160e01b600052601160045260246000fd5b9190820180921161064e57565b9190820391821161064e57565b600019811461064e5760010190565b634e487b7160e01b600052603260045260246000fd5b8051821015611e915760209160051b010190565b611e67565b60008051602061395b83398151915254929183821015611f2e5780611f29575060325b810180821161064e5783611ecc91611f3c565b81810390811161064e57611edf81611dd8565b9160005b828110611ef1575050509190565b80611f0f611f0a611f05611f249486611e3e565b613662565b611d74565b611f198287611e7d565b52610be78186611e7d565b611ee3565b611eb9565b5050611f38611dc5565b9190565b9080821015611f49575090565b905090565b90611f6160209282815194859201610354565b0190565b6020611f7e918160405193828580945193849201610354565b81017f0bb5d42557ea6926c17416c5b1c1c29c28d9006d6f713295a2d385f07156ed0181520301902090565b602090611fc4928260405194838680955193849201610354565b82019081520301902090565b15611fd757565b60405162461bcd60e51b815260206004820152601160248201527014d95c9d9a58d9481b9bdd08199bdd5b99607a1b6044820152606490fd5b6001600160a01b0316600090815260008051602061393b8339815191526020526040902090565b9061204182610919565b61204e6040519182610284565b828152809261205f601f1991610919565b0190602036910137565b60008051602061395b8339815191528054821015611e91576000527fb41db55c7d24928028896a7eb7f5b05917c002e0088f26af95b1bfac47132b530190600090565b8054821015611e915760005260206000200190600090565b6000805160206138db8339815191528054821015611e91576000527f10f78b23dc0eb204a6d6fa9709ff7d389ae78db91903b42d2351233e11ab5ab8015490565b9061210f916120ac565b90549060031b1c90565b6000526000805160206138fb833981519152602052604060002090565b1561213d57565b60405162461bcd60e51b815260206004820152601b60248201527f4c6564676572206c6f636b656420666f72206f7065726174696f6e00000000006044820152606490fd5b6040519061218f8261024e565b60008252565b9190916121a181613824565b906121c68260005260008051602061391b833981519152602052604060002054151590565b6122fe576121d2612182565b9382600052600360209260008051602061397b833981519152845261222560406000209160019480868501556002840155829060018060a01b03166bffffffffffffffffffffffff60a01b825416179055565b01918551956001600160401b03871161022e5761224c876122468654611c87565b86612f0b565b81601f881160011461228f575095809281926122819798600094612284575b50501b916000199060031b1c19161790556132bb565b50565b01519250388061226b565b909691601f198316976122a786600052602060002090565b926000905b8a82106122e7575050836122819899106122ce575b505050811b0190556132bb565b015160001960f88460031b161c191690553880806122c1565b8087859682949686015181550195019301906122ac565b5060009291925260008051602061397b83398151915260205260406000206001810190815483810180911161064e576002925501805491820180921161064e5755565b1561234857565b60405162461bcd60e51b815260206004820152601f60248201527f5a65726f2d76616c7565206372656174696f6e206e6f7420616c6c6f776564006044820152606490fd5b3d156123b8573d9061239e826102c5565b916123ac6040519384610284565b82523d6000602084013e565b606090565b156123c457565b60405162461bcd60e51b81526020600482015260126024820152710c11c81d1c985b9cd9995c8819985a5b195960721b6044820152606490fd5b908160209103126101e3575180151581036101e35790565b6040513d6000823e3d90fd5b6001600160a01b0391821681529116602082015260606040820181905261035192910190611cc1565b908160209103126101e3575190565b1561246157565b60405162461bcd60e51b8152602060048201526014602482015273496e73756666696369656e742062616c616e636560601b6044820152606490fd5b156124a457565b60405162461bcd60e51b815260206004820152601d60248201527f43616c6c20746f206368696c6420636f6e7472616374206661696c65640000006044820152606490fd5b6124f233613824565b916000918383526000805160206138fb833981519152602081815260409161252060ff848820541615612136565b8686528152818520936001948560ff1982541617905583516014811161275d575061070761255091969296611f65565b948461257c8161256e60018060a01b039961072f8b82161515611fd0565b01546001600160a01b031690565b94612586336136b9565b958498859116925b6125b6575b505050505050916125af611d7294926106419401918254611e3e565b9055612119565b8151811015612758576125cc610b798284611e7d565b865163147500e360e01b8152336004808301919091526001600160a01b039290921660248201528581604481885afa90811561089357879161273b575b50612628575b509061261e8895949392611e58565b909192939461258e565b98612636610b798385611e7d565b875163271e279160e11b8152338c82019081526001600160a01b039092166020830152606092909183908390819060400103818b8a5af19182156108935761268693899361270a575b5050611e3e565b98612694610b798385611e7d565b90843b15612706578751636c79158d60e01b8152339181019182526001600160a01b03909216602082015290959493929190859087908190604001038183875af190811561089357899661261e926126f3575b5091929394955061260f565b80610c106127009261021b565b386126e7565b8680fd5b61272a929350803d10612734575b6127228183610284565b81019061277d565b505090388061267f565b503d612718565b6127529150863d8811610912576109048183610284565b38612609565b612593565b835163414f261960e11b8152600481019190915260146024820152604490fd5b908160609103126101e3578051916040602083015192015190565b1561279f57565b60405162461bcd60e51b815260206004820152601d60248201527f4d75737420776974686472617720616c6c2066756e64732066697273740000006044820152606490fd5b6000929181546127f381611c87565b9260019180831690811561284b575060011461280f5750505050565b90919293945060005260209081600020906000915b85831061283a5750505050019038808080611cee565b805485840152918301918101612824565b60ff1916845250505081151590910201915038808080611cee565b60209061287992604051938480936127e4565b9081520301902090565b9161289d9183549060031b91821b91600019901b19161790565b9055565b8181106128ac575050565b600081556001016128a1565b6003600091828155826001820155826002820155016128d78154611c87565b806128e157505050565b82601f82116001146128f257505055565b9091808252612910601f60208420940160051c8401600185016128a1565b5555565b60008051602061395b83398151915280549081156129665760001982019180831015611e91577fb41db55c7d24928028896a7eb7f5b05917c002e0088f26af95b1bfac47132b52600091838352015555565b634e487b7160e01b600052603160045260246000fd5b8054908115612966576000199182019161299683836120ac565b909182549160031b1b1916905555565b600081815260008051602061391b83398151915260205260409020548015612a5b57600019918183019180831161064e5760008051602061395b8339815191525493840193841161064e578383612a289460009603612a2e575b505050612a0b612914565b60005260008051602061391b833981519152602052604060002090565b55600190565b612a0b612a4c91612a4461210f612a5295612069565b928391612069565b90612883565b55388080612a00565b5050600090565b6001810191806000528260205260406000205492831515600014612b0257600019928484019085821161064e57805494850194851161064e576000958583612ab694612a289803612ac5575b50505061297c565b90600052602052604060002090565b612ae9612a4c91612ad9612af994876120ac565b90549060031b1c928391876120ac565b8590600052602052604060002090565b55388080612aae565b50505050600090565b610351916001600160a01b031690612a62565b90612c7b7f4c76643f3c678c590db6e8ad9fe0bb6e75d36cb853c3bd06c487607ff35e6f7193612c72612c9194612b53611bc1565b6001600160a01b03831697612b69891515612c96565b612b7582511515612ce2565b612b8186511515612d26565b612b99612b93610ad161070787612010565b15612d65565b60405195612bc887612bba612bb4610da76020840188611f4e565b84611f4e565b03601f198101895288610284565b612be0612bda610ad16107078a611f65565b15612db1565b612bf1612bec866130e8565b612dfd565b612c02612bfd8661316b565b612e61565b612c1e6101f46000805160206138db8339815191525410612ebf565b612c266102a5565b6001600160a01b0386168152926001600160a01b038b1660208501526040840152606083015285608083015260a0820152600060c08201524260e0820152612c6d83612010565b61301e565b610e8e83611f65565b612c8484613221565b50604051918291826130d7565b0390a2565b15612c9d57565b60405162461bcd60e51b815260206004820152601760248201527f496e76616c6964207365727669636520616464726573730000000000000000006044820152606490fd5b15612ce957565b60405162461bcd60e51b815260206004820152601560248201527414d95c9d9a58d9481d1e5c19481c995c5d5a5c9959605a1b6044820152606490fd5b15612d2d57565b60405162461bcd60e51b815260206004820152601060248201526f15995c9cda5bdb881c995c5d5a5c995960821b6044820152606490fd5b15612d6c57565b60405162461bcd60e51b815260206004820152601a60248201527f5365727669636520616c726561647920726567697374657265640000000000006044820152606490fd5b15612db857565b60405162461bcd60e51b815260206004820152601b60248201527f53657276696365206e616d6520616c72656164792065786973747300000000006044820152606490fd5b15612e0457565b60405162461bcd60e51b815260206004820152602f60248201527f53657276696365206d75737420737570706f72742045524331363520696e746560448201526e393330b1b2903232ba32b1ba34b7b760891b6064820152608490fd5b15612e6857565b60405162461bcd60e51b815260206004820152602960248201527f53657276696365206d75737420696d706c656d656e74204953657276696e6720604482015268696e7465726661636560b81b6064820152608490fd5b15612ec657565b60405162461bcd60e51b815260206004820152601e60248201527f53657276696365207265676973747279206c696d6974207265616368656400006044820152606490fd5b9190601f8111612f1a57505050565b611d72926000526020600020906020601f840160051c83019310612f46575b601f0160051c01906128a1565b9091508190612f39565b91909182516001600160401b03811161022e57612f7781612f718454611c87565b84612f0b565b602080601f8311600114612fb3575081929394600092612fa8575b50508160011b916000199060031b1c1916179055565b015190503880612f92565b90601f19831695612fc985600052602060002090565b926000905b88821061300657505083600195969710612fed575b505050811b019055565b015160001960f88460031b161c19169055388080612fe3565b80600185968294968601518155019501930190612fce565b815181546001600160a01b0319166001600160a01b039091161781559060079060e09060208101516001850180546001600160a01b0319166001600160a01b03909216919091179055613078604082015160028601612f50565b613089606082015160038601612f50565b61309a608082015160048601612f50565b6130ab60a082015160058601612f50565b6130d06130bb60c0830151151590565b600686019060ff801983541691151516179055565b0151910155565b906020610351928181520190610377565b6130f1816131c8565b9081613159575b81613101575090565b60209150600090604051838101906301ffc9a760e01b80835260248201526024815261312c81610269565b5191617530fa6000513d8261314d575b5081613146575090565b9050151590565b6020111591503861313c565b9050613164816131f1565b15906130f8565b613174816131c8565b90816131b6575b81613184575090565b60209150600090604051838101906301ffc9a760e01b825263160841b160e01b60248201526024815261312c81610269565b90506131c1816131f1565b159061317b565b6000602091604051838101906301ffc9a760e01b80835260248201526024815261312c81610269565b6000602091604051838101906301ffc9a760e01b825263ffffffff60e01b60248201526024815261312c81610269565b806000527f0bb5d42557ea6926c17416c5b1c1c29c28d9006d6f713295a2d385f07156ed038060205260406000205415600014612a5b576000805160206138db8339815191528054600160401b81101561022e5760018101808355811015611e915783907f10f78b23dc0eb204a6d6fa9709ff7d389ae78db91903b42d2351233e11ab5ab801555491600052602052604060002055600190565b8060005260008051602061391b8339815191528060205260406000205415600014612a5b5760008051602061395b8339815191528054600160401b81101561022e5760018101808355811015611e915783907fb41db55c7d24928028896a7eb7f5b05917c002e0088f26af95b1bfac47132b5301555491600052602052604060002055600190565b60018101908260005281602052604060002054156000146133ac578054600160401b81101561022e576133976133808260018794018555846120ac565b819391549060031b91821b91600019901b19161790565b90555491600052602052604060002055600190565b505050600090565b6133cc90602060405192828480945193849201610354565b810103902090565b6040519061010082018281106001600160401b0382111761022e57604052600060e0838281528260208201526060604082015260608082015260606080820152606060a08201528260c08201520152565b9060076134306102a5565b83546001600160a01b031681529260018101546001600160a01b0316602085015261345d60028201611d57565b604085015261346e60038201611d57565b606085015261347f60048201611d57565b608085015261349060058201611d57565b60a08501526134af6134a6600683015460ff1690565b151560c0860152565b015460e0830152565b906134c282610919565b6134cf6040519182610284565b82815280926134e0601f1991610919565b019060005b8281106134f157505050565b8060606020809385010152016134e5565b602161354f916040519381613521869351809260208087019101610354565b8201602d60f81b60208201526135408251809360208785019101610354565b01036001810184520182610284565b6001600160a01b039061356190611f65565b5416801561357c57600661357660ff92612010565b01541690565b50600090565b6001600160a01b0390811660009081527f0bb5d42557ea6926c17416c5b1c1c29c28d9006d6f713295a2d385f07156ed096020526040902061228193926135c99190611faa565b911690613343565b906135db82613824565b806000526000805160206138fb8339815191528060205261360460ff6040600020541615612136565b8160005260205261362660406000209360ff19946001868254161790556136b9565b600281019260018454920154820382811161064e578161364791101561245a565b810390811161064e5761365a9255612119565b908154169055565b60008051602061395b83398151915254811015611e91577fb41db55c7d24928028896a7eb7f5b05917c002e0088f26af95b1bfac47132b53015460005260008051602061397b833981519152602052604060002090565b6136c281613824565b908160005260008051602061391b83398151915260205260406000205415613702575060005260008051602061397b833981519152602052604060002090565b604051637d2d536b60e01b81526001600160a01b039091166004820152602490fd5b9193929382600052600360209260008051602061397b833981519152845261377a60406000209160019480868501556002840155829060018060a01b03166bffffffffffffffffffffffff60a01b825416179055565b01918551956001600160401b03871161022e5761379b876122468654611c87565b81601f88116001146137cf5750958092819261228197986000946122845750501b916000199060031b1c19161790556132bb565b909691601f198316976137e786600052602060002090565b926000905b8a821061380d575050836122819899106122ce57505050811b0190556132bb565b8087859682949686015181550195019301906137ec565b604051602081019160018060a01b0316825260208152604081018181106001600160401b0382111761022e5760405251902090565b33600090815260008051602061393b83398151915260205260409020546001600160a01b0316611d725761064161388f33613824565b806000526000805160206138fb8339815191526020526138b760ff6040600020541615612136565b6138d06138c382612119565b805460ff19166001179055565b61063c343361219556fe0bb5d42557ea6926c17416c5b1c1c29c28d9006d6f713295a2d385f07156ed020bb5d42557ea6926c17416c5b1c1c29c28d9006d6f713295a2d385f07156ed080bb5d42557ea6926c17416c5b1c1c29c28d9006d6f713295a2d385f07156ed060bb5d42557ea6926c17416c5b1c1c29c28d9006d6f713295a2d385f07156ed000bb5d42557ea6926c17416c5b1c1c29c28d9006d6f713295a2d385f07156ed050bb5d42557ea6926c17416c5b1c1c29c28d9006d6f713295a2d385f07156ed07a26469706673582212204a21e1ec87d3cd77002b07d59bc70bd0c093d26621718868b69cd27cd7dbd2bf64736f6c63430008140033",
  "devdoc": {
    "kind": "dev",
    "methods": {
      "owner()": {
        "details": "Returns the address of the current owner."
      },
      "renounceOwnership()": {
        "details": "Leaves the contract without owner. It will not be possible to call `onlyOwner` functions anymore. Can only be called by the current owner. NOTE: Renouncing ownership will leave the contract without an owner, thereby removing any functionality that is only available to the owner."
      },
      "transferOwnership(address)": {
        "details": "Transfers ownership of the contract to a new account (`newOwner`). Can only be called by the current owner."
      }
    },
    "version": 1
  },
  "userdoc": {
    "kind": "user",
    "methods": {},
    "version": 1
  },
  "storageLayout": {
    "storage": [
      {
        "astId": 7,
        "contract": "contracts/ledger/LedgerManager.sol:LedgerManager",
        "label": "_owner",
        "offset": 0,
        "slot": "0",
        "type": "t_address"
      },
      {
        "astId": 13528,
        "contract": "contracts/ledger/LedgerManager.sol:LedgerManager",
        "label": "initialized",
        "offset": 20,
        "slot": "0",
        "type": "t_bool"
      },
      {
        "astId": 123,
        "contract": "contracts/ledger/LedgerManager.sol:LedgerManager",
        "label": "_status",
        "offset": 0,
        "slot": "1",
        "type": "t_uint256"
      }
    ],
    "types": {
      "t_address": {
        "encoding": "inplace",
        "label": "address",
        "numberOfBytes": "20"
      },
      "t_bool": {
        "encoding": "inplace",
        "label": "bool",
        "numberOfBytes": "1"
      },
      "t_uint256": {
        "encoding": "inplace",
        "label": "uint256",
        "numberOfBytes": "32"
      }
    }
  }
}