{
  "address": "0x45fe0a71f5B3a0093058B2a9f5B5a249024d155c",
  "abi": [
    {
      "inputs": [
        {
          "internalType": "address",
          "name": "user",
          "type": "address"
        },
        {
          "internalType": "address",
          "name": "provider",
          "type": "address"
        }
      ],
      "name": "AccountExists",
      "type": "error"
    },
    {
      "inputs": [
        {
          "internalType": "address",
          "name": "user",
          "type": "address"
        },
        {
          "internalType": "address",
          "name": "provider",
          "type": "address"
        }
      ],
      "name": "AccountNotExists",
      "type": "error"
    },
    {
      "inputs": [],
      "name": "AdditionalInfoTooLong",
      "type": "error"
    },
    {
      "inputs": [
        {
          "internalType": "string",
          "name": "reason",
          "type": "string"
        }
      ],
      "name": "InvalidTEESignature",
      "type": "error"
    },
    {
      "inputs": [
        {
          "internalType": "address",
          "name": "provider",
          "type": "address"
        }
      ],
      "name": "ServiceNotExist",
      "type": "error"
    },
    {
      "inputs": [
        {
          "internalType": "address",
          "name": "user",
          "type": "address"
        },
        {
          "internalType": "address",
          "name": "provider",
          "type": "address"
        }
      ],
      "name": "TooManyRefunds",
      "type": "error"
    },
    {
      "anonymous": false,
      "inputs": [
        {
          "indexed": true,
          "internalType": "address",
          "name": "user",
          "type": "address"
        },
        {
          "indexed": true,
          "internalType": "address",
          "name": "provider",
          "type": "address"
        },
        {
          "indexed": false,
          "internalType": "uint256",
          "name": "amount",
          "type": "uint256"
        },
        {
          "indexed": false,
          "internalType": "uint256",
          "name": "pendingRefund",
          "type": "uint256"
        }
      ],
      "name": "BalanceUpdated",
      "type": "event"
    },
    {
      "anonymous": false,
      "inputs": [
        {
          "indexed": false,
          "internalType": "address[]",
          "name": "users",
          "type": "address[]"
        },
        {
          "indexed": false,
          "internalType": "uint256[]",
          "name": "balances",
          "type": "uint256[]"
        },
        {
          "indexed": false,
          "internalType": "uint256[]",
          "name": "pendingRefunds",
          "type": "uint256[]"
        }
      ],
      "name": "BatchBalanceUpdated",
      "type": "event"
    },
    {
      "anonymous": false,
      "inputs": [
        {
          "indexed": true,
          "internalType": "address",
          "name": "previousOwner",
          "type": "address"
        },
        {
          "indexed": true,
          "internalType": "address",
          "name": "newOwner",
          "type": "address"
        }
      ],
      "name": "OwnershipTransferred",
      "type": "event"
    },
    {
      "anonymous": false,
      "inputs": [
        {
          "indexed": true,
          "internalType": "address",
          "name": "provider",
          "type": "address"
        },
        {
          "indexed": false,
          "internalType": "uint256",
          "name": "amount",
          "type": "uint256"
        }
      ],
      "name": "ProviderStakeReturned",
      "type": "event"
    },
    {
      "anonymous": false,
      "inputs": [
        {
          "indexed": true,
          "internalType": "address",
          "name": "provider",
          "type": "address"
        },
        {
          "indexed": false,
          "internalType": "uint256",
          "name": "amount",
          "type": "uint256"
        }
      ],
      "name": "ProviderStaked",
      "type": "event"
    },
    {
      "anonymous": false,
      "inputs": [
        {
          "indexed": true,
          "internalType": "address",
          "name": "provider",
          "type": "address"
        },
        {
          "indexed": true,
          "internalType": "address",
          "name": "teeSignerAddress",
          "type": "address"
        },
        {
          "indexed": false,
          "internalType": "bool",
          "name": "acknowledged",
          "type": "bool"
        }
      ],
      "name": "ProviderTEESignerAcknowledged",
      "type": "event"
    },
    {
      "anonymous": false,
      "inputs": [
        {
          "indexed": true,
          "internalType": "address",
          "name": "user",
          "type": "address"
        },
        {
          "indexed": true,
          "internalType": "address",
          "name": "provider",
          "type": "address"
        },
        {
          "indexed": true,
          "internalType": "uint256",
          "name": "index",
          "type": "uint256"
        },
        {
          "indexed": false,
          "internalType": "uint256",
          "name": "timestamp",
          "type": "uint256"
        }
      ],
      "name": "RefundRequested",
      "type": "event"
    },
    {
      "anonymous": false,
      "inputs": [
        {
          "indexed": true,
          "internalType": "address",
          "name": "service",
          "type": "address"
        }
      ],
      "name": "ServiceRemoved",
      "type": "event"
    },
    {
      "anonymous": false,
      "inputs": [
        {
          "indexed": true,
          "internalType": "address",
          "name": "service",
          "type": "address"
        },
        {
          "indexed": false,
          "internalType": "string",
          "name": "serviceType",
          "type": "string"
        },
        {
          "indexed": false,
          "internalType": "string",
          "name": "url",
          "type": "string"
        },
        {
          "indexed": false,
          "internalType": "uint256",
          "name": "inputPrice",
          "type": "uint256"
        },
        {
          "indexed": false,
          "internalType": "uint256",
          "name": "outputPrice",
          "type": "uint256"
        },
        {
          "indexed": false,
          "internalType": "uint256",
          "name": "updatedAt",
          "type": "uint256"
        },
        {
          "indexed": false,
          "internalType": "string",
          "name": "model",
          "type": "string"
        },
        {
          "indexed": false,
          "internalType": "string",
          "name": "verifiability",
          "type": "string"
        }
      ],
      "name": "ServiceUpdated",
      "type": "event"
    },
    {
      "anonymous": false,
      "inputs": [
        {
          "indexed": true,
          "internalType": "address",
          "name": "user",
          "type": "address"
        },
        {
          "indexed": false,
          "internalType": "enum SettlementStatus",
          "name": "status",
          "type": "uint8"
        },
        {
          "indexed": false,
          "internalType": "uint256",
          "name": "unsettledAmount",
          "type": "uint256"
        }
      ],
      "name": "TEESettlementResult",
      "type": "event"
    },
    {
      "inputs": [],
      "name": "MAX_LOCKTIME",
      "outputs": [
        {
          "internalType": "uint256",
          "name": "",
          "type": "uint256"
        }
      ],
      "stateMutability": "view",
      "type": "function"
    },
    {
      "inputs": [],
      "name": "MIN_LOCKTIME",
      "outputs": [
        {
          "internalType": "uint256",
          "name": "",
          "type": "uint256"
        }
      ],
      "stateMutability": "view",
      "type": "function"
    },
    {
      "inputs": [],
      "name": "MIN_PROVIDER_STAKE",
      "outputs": [
        {
          "internalType": "uint256",
          "name": "",
          "type": "uint256"
        }
      ],
      "stateMutability": "view",
      "type": "function"
    },
    {
      "inputs": [
        {
          "internalType": "address",
          "name": "user",
          "type": "address"
        },
        {
          "internalType": "address",
          "name": "provider",
          "type": "address"
        }
      ],
      "name": "accountExists",
      "outputs": [
        {
          "internalType": "bool",
          "name": "",
          "type": "bool"
        }
      ],
      "stateMutability": "view",
      "type": "function"
    },
    {
      "inputs": [
        {
          "internalType": "address",
          "name": "provider",
          "type": "address"
        },
        {
          "internalType": "bool",
          "name": "acknowledged",
          "type": "bool"
        }
      ],
      "name": "acknowledgeTEESigner",
      "outputs": [],
      "stateMutability": "nonpayable",
      "type": "function"
    },
    {
      "inputs": [
        {
          "internalType": "address",
          "name": "provider",
          "type": "address"
        }
      ],
      "name": "acknowledgeTEESignerByOwner",
      "outputs": [],
      "stateMutability": "nonpayable",
      "type": "function"
    },
    {
      "inputs": [
        {
          "internalType": "address",
          "name": "user",
          "type": "address"
        },
        {
          "internalType": "address",
          "name": "provider",
          "type": "address"
        },
        {
          "internalType": "string",
          "name": "additionalInfo",
          "type": "string"
        }
      ],
      "name": "addAccount",
      "outputs": [],
      "stateMutability": "payable",
      "type": "function"
    },
    {
      "inputs": [
        {
          "components": [
            {
              "internalType": "string",
              "name": "serviceType",
              "type": "string"
            },
            {
              "internalType": "string",
              "name": "url",
              "type": "string"
            },
            {
              "internalType": "string",
              "name": "model",
              "type": "string"
            },
            {
              "internalType": "string",
              "name": "verifiability",
              "type": "string"
            },
            {
              "internalType": "uint256",
              "name": "inputPrice",
              "type": "uint256"
            },
            {
              "internalType": "uint256",
              "name": "outputPrice",
              "type": "uint256"
            },
            {
              "internalType": "string",
              "name": "additionalInfo",
              "type": "string"
            },
            {
              "internalType": "address",
              "name": "teeSignerAddress",
              "type": "address"
            }
          ],
          "internalType": "struct ServiceParams",
          "name": "params",
          "type": "tuple"
        }
      ],
      "name": "addOrUpdateService",
      "outputs": [],
      "stateMutability": "payable",
      "type": "function"
    },
    {
      "inputs": [
        {
          "internalType": "address",
          "name": "user",
          "type": "address"
        },
        {
          "internalType": "address",
          "name": "provider",
          "type": "address"
        }
      ],
      "name": "deleteAccount",
      "outputs": [],
      "stateMutability": "nonpayable",
      "type": "function"
    },
    {
      "inputs": [
        {
          "internalType": "address",
          "name": "user",
          "type": "address"
        },
        {
          "internalType": "address",
          "name": "provider",
          "type": "address"
        },
        {
          "internalType": "uint256",
          "name": "cancelRetrievingAmount",
          "type": "uint256"
        }
      ],
      "name": "depositFund",
      "outputs": [],
      "stateMutability": "payable",
      "type": "function"
    },
    {
      "inputs": [
        {
          "internalType": "address",
          "name": "user",
          "type": "address"
        },
        {
          "internalType": "address",
          "name": "provider",
          "type": "address"
        }
      ],
      "name": "getAccount",
      "outputs": [
        {
          "components": [
            {
              "internalType": "address",
              "name": "user",
              "type": "address"
            },
            {
              "internalType": "address",
              "name": "provider",
              "type": "address"
            },
            {
              "internalType": "uint256",
              "name": "nonce",
              "type": "uint256"
            },
            {
              "internalType": "uint256",
              "name": "balance",
              "type": "uint256"
            },
            {
              "internalType": "uint256",
              "name": "pendingRefund",
              "type": "uint256"
            },
            {
              "components": [
                {
                  "internalType": "uint256",
                  "name": "index",
                  "type": "uint256"
                },
                {
                  "internalType": "uint256",
                  "name": "amount",
                  "type": "uint256"
                },
                {
                  "internalType": "uint256",
                  "name": "createdAt",
                  "type": "uint256"
                },
                {
                  "internalType": "bool",
                  "name": "processed",
                  "type": "bool"
                }
              ],
              "internalType": "struct Refund[]",
              "name": "refunds",
              "type": "tuple[]"
            },
            {
              "internalType": "string",
              "name": "additionalInfo",
              "type": "string"
            },
            {
              "internalType": "bool",
              "name": "acknowledged",
              "type": "bool"
            },
            {
              "internalType": "uint256",
              "name": "validRefundsLength",
              "type": "uint256"
            }
          ],
          "internalType": "struct Account",
          "name": "",
          "type": "tuple"
        }
      ],
      "stateMutability": "view",
      "type": "function"
    },
    {
      "inputs": [
        {
          "internalType": "address",
          "name": "provider",
          "type": "address"
        },
        {
          "internalType": "uint256",
          "name": "offset",
          "type": "uint256"
        },
        {
          "internalType": "uint256",
          "name": "limit",
          "type": "uint256"
        }
      ],
      "name": "getAccountsByProvider",
      "outputs": [
        {
          "components": [
            {
              "internalType": "address",
              "name": "user",
              "type": "address"
            },
            {
              "internalType": "address",
              "name": "provider",
              "type": "address"
            },
            {
              "internalType": "uint256",
              "name": "nonce",
              "type": "uint256"
            },
            {
              "internalType": "uint256",
              "name": "balance",
              "type": "uint256"
            },
            {
              "internalType": "uint256",
              "name": "pendingRefund",
              "type": "uint256"
            },
            {
              "components": [
                {
                  "internalType": "uint256",
                  "name": "index",
                  "type": "uint256"
                },
                {
                  "internalType": "uint256",
                  "name": "amount",
                  "type": "uint256"
                },
                {
                  "internalType": "uint256",
                  "name": "createdAt",
                  "type": "uint256"
                },
                {
                  "internalType": "bool",
                  "name": "processed",
                  "type": "bool"
                }
              ],
              "internalType": "struct Refund[]",
              "name": "refunds",
              "type": "tuple[]"
            },
            {
              "internalType": "string",
              "name": "additionalInfo",
              "type": "string"
            },
            {
              "internalType": "bool",
              "name": "acknowledged",
              "type": "bool"
            },
            {
              "internalType": "uint256",
              "name": "validRefundsLength",
              "type": "uint256"
            }
          ],
          "internalType": "struct Account[]",
          "name": "accounts",
          "type": "tuple[]"
        },
        {
          "internalType": "uint256",
          "name": "total",
          "type": "uint256"
        }
      ],
      "stateMutability": "view",
      "type": "function"
    },
    {
      "inputs": [
        {
          "internalType": "address",
          "name": "user",
          "type": "address"
        },
        {
          "internalType": "uint256",
          "name": "offset",
          "type": "uint256"
        },
        {
          "internalType": "uint256",
          "name": "limit",
          "type": "uint256"
        }
      ],
      "name": "getAccountsByUser",
      "outputs": [
        {
          "components": [
            {
              "internalType": "address",
              "name": "user",
              "type": "address"
            },
            {
              "internalType": "address",
              "name": "provider",
              "type": "address"
            },
            {
              "internalType": "uint256",
              "name": "nonce",
              "type": "uint256"
            },
            {
              "internalType": "uint256",
              "name": "balance",
              "type": "uint256"
            },
            {
              "internalType": "uint256",
              "name": "pendingRefund",
              "type": "uint256"
            },
            {
              "components": [
                {
                  "internalType": "uint256",
                  "name": "index",
                  "type": "uint256"
                },
                {
                  "internalType": "uint256",
                  "name": "amount",
                  "type": "uint256"
                },
                {
                  "internalType": "uint256",
                  "name": "createdAt",
                  "type": "uint256"
                },
                {
                  "internalType": "bool",
                  "name": "processed",
                  "type": "bool"
                }
              ],
              "internalType": "struct Refund[]",
              "name": "refunds",
              "type": "tuple[]"
            },
            {
              "internalType": "string",
              "name": "additionalInfo",
              "type": "string"
            },
            {
              "internalType": "bool",
              "name": "acknowledged",
              "type": "bool"
            },
            {
              "internalType": "uint256",
              "name": "validRefundsLength",
              "type": "uint256"
            }
          ],
          "internalType": "struct Account[]",
          "name": "accounts",
          "type": "tuple[]"
        },
        {
          "internalType": "uint256",
          "name": "total",
          "type": "uint256"
        }
      ],
      "stateMutability": "view",
      "type": "function"
    },
    {
      "inputs": [
        {
          "internalType": "uint256",
          "name": "offset",
          "type": "uint256"
        },
        {
          "internalType": "uint256",
          "name": "limit",
          "type": "uint256"
        }
      ],
      "name": "getAllAccounts",
      "outputs": [
        {
          "components": [
            {
              "internalType": "address",
              "name": "user",
              "type": "address"
            },
            {
              "internalType": "address",
              "name": "provider",
              "type": "address"
            },
            {
              "internalType": "uint256",
              "name": "nonce",
              "type": "uint256"
            },
            {
              "internalType": "uint256",
              "name": "balance",
              "type": "uint256"
            },
            {
              "internalType": "uint256",
              "name": "pendingRefund",
              "type": "uint256"
            },
            {
              "components": [
                {
                  "internalType": "uint256",
                  "name": "index",
                  "type": "uint256"
                },
                {
                  "internalType": "uint256",
                  "name": "amount",
                  "type": "uint256"
                },
                {
                  "internalType": "uint256",
                  "name": "createdAt",
                  "type": "uint256"
                },
                {
                  "internalType": "bool",
                  "name": "processed",
                  "type": "bool"
                }
              ],
              "internalType": "struct Refund[]",
              "name": "refunds",
              "type": "tuple[]"
            },
            {
              "internalType": "string",
              "name": "additionalInfo",
              "type": "string"
            },
            {
              "internalType": "bool",
              "name": "acknowledged",
              "type": "bool"
            },
            {
              "internalType": "uint256",
              "name": "validRefundsLength",
              "type": "uint256"
            }
          ],
          "internalType": "struct Account[]",
          "name": "accounts",
          "type": "tuple[]"
        },
        {
          "internalType": "uint256",
          "name": "total",
          "type": "uint256"
        }
      ],
      "stateMutability": "view",
      "type": "function"
    },
    {
      "inputs": [
        {
          "internalType": "uint256",
          "name": "offset",
          "type": "uint256"
        },
        {
          "internalType": "uint256",
          "name": "limit",
          "type": "uint256"
        }
      ],
      "name": "getAllServices",
      "outputs": [
        {
          "components": [
            {
              "internalType": "address",
              "name": "provider",
              "type": "address"
            },
            {
              "internalType": "string",
              "name": "serviceType",
              "type": "string"
            },
            {
              "internalType": "string",
              "name": "url",
              "type": "string"
            },
            {
              "internalType": "uint256",
              "name": "inputPrice",
              "type": "uint256"
            },
            {
              "internalType": "uint256",
              "name": "outputPrice",
              "type": "uint256"
            },
            {
              "internalType": "uint256",
              "name": "updatedAt",
              "type": "uint256"
            },
            {
              "internalType": "string",
              "name": "model",
              "type": "string"
            },
            {
              "internalType": "string",
              "name": "verifiability",
              "type": "string"
            },
            {
              "internalType": "string",
              "name": "additionalInfo",
              "type": "string"
            },
            {
              "internalType": "address",
              "name": "teeSignerAddress",
              "type": "address"
            },
            {
              "internalType": "bool",
              "name": "teeSignerAcknowledged",
              "type": "bool"
            }
          ],
          "internalType": "struct Service[]",
          "name": "services",
          "type": "tuple[]"
        },
        {
          "internalType": "uint256",
          "name": "total",
          "type": "uint256"
        }
      ],
      "stateMutability": "view",
      "type": "function"
    },
    {
      "inputs": [
        {
          "internalType": "address[]",
          "name": "users",
          "type": "address[]"
        }
      ],
      "name": "getBatchAccountsByUsers",
      "outputs": [
        {
          "components": [
            {
              "internalType": "address",
              "name": "user",
              "type": "address"
            },
            {
              "internalType": "address",
              "name": "provider",
              "type": "address"
            },
            {
              "internalType": "uint256",
              "name": "nonce",
              "type": "uint256"
            },
            {
              "internalType": "uint256",
              "name": "balance",
              "type": "uint256"
            },
            {
              "internalType": "uint256",
              "name": "pendingRefund",
              "type": "uint256"
            },
            {
              "components": [
                {
                  "internalType": "uint256",
                  "name": "index",
                  "type": "uint256"
                },
                {
                  "internalType": "uint256",
                  "name": "amount",
                  "type": "uint256"
                },
                {
                  "internalType": "uint256",
                  "name": "createdAt",
                  "type": "uint256"
                },
                {
                  "internalType": "bool",
                  "name": "processed",
                  "type": "bool"
                }
              ],
              "internalType": "struct Refund[]",
              "name": "refunds",
              "type": "tuple[]"
            },
            {
              "internalType": "string",
              "name": "additionalInfo",
              "type": "string"
            },
            {
              "internalType": "bool",
              "name": "acknowledged",
              "type": "bool"
            },
            {
              "internalType": "uint256",
              "name": "validRefundsLength",
              "type": "uint256"
            }
          ],
          "internalType": "struct Account[]",
          "name": "accounts",
          "type": "tuple[]"
        }
      ],
      "stateMutability": "view",
      "type": "function"
    },
    {
      "inputs": [
        {
          "internalType": "address",
          "name": "user",
          "type": "address"
        },
        {
          "internalType": "address",
          "name": "provider",
          "type": "address"
        }
      ],
      "name": "getPendingRefund",
      "outputs": [
        {
          "internalType": "uint256",
          "name": "",
          "type": "uint256"
        }
      ],
      "stateMutability": "view",
      "type": "function"
    },
    {
      "inputs": [
        {
          "internalType": "address",
          "name": "provider",
          "type": "address"
        }
      ],
      "name": "getService",
      "outputs": [
        {
          "components": [
            {
              "internalType": "address",
              "name": "provider",
              "type": "address"
            },
            {
              "internalType": "string",
              "name": "serviceType",
              "type": "string"
            },
            {
              "internalType": "string",
              "name": "url",
              "type": "string"
            },
            {
              "internalType": "uint256",
              "name": "inputPrice",
              "type": "uint256"
            },
            {
              "internalType": "uint256",
              "name": "outputPrice",
              "type": "uint256"
            },
            {
              "internalType": "uint256",
              "name": "updatedAt",
              "type": "uint256"
            },
            {
              "internalType": "string",
              "name": "model",
              "type": "string"
            },
            {
              "internalType": "string",
              "name": "verifiability",
              "type": "string"
            },
            {
              "internalType": "string",
              "name": "additionalInfo",
              "type": "string"
            },
            {
              "internalType": "address",
              "name": "teeSignerAddress",
              "type": "address"
            },
            {
              "internalType": "bool",
              "name": "teeSignerAcknowledged",
              "type": "bool"
            }
          ],
          "internalType": "struct Service",
          "name": "service",
          "type": "tuple"
        }
      ],
      "stateMutability": "view",
      "type": "function"
    },
    {
      "inputs": [
        {
          "internalType": "uint256",
          "name": "_locktime",
          "type": "uint256"
        },
        {
          "internalType": "address",
          "name": "_ledgerAddress",
          "type": "address"
        },
        {
          "internalType": "address",
          "name": "owner",
          "type": "address"
        }
      ],
      "name": "initialize",
      "outputs": [],
      "stateMutability": "nonpayable",
      "type": "function"
    },
    {
      "inputs": [],
      "name": "initialized",
      "outputs": [
        {
          "internalType": "bool",
          "name": "",
          "type": "bool"
        }
      ],
      "stateMutability": "view",
      "type": "function"
    },
    {
      "inputs": [],
      "name": "ledgerAddress",
      "outputs": [
        {
          "internalType": "address",
          "name": "",
          "type": "address"
        }
      ],
      "stateMutability": "view",
      "type": "function"
    },
    {
      "inputs": [],
      "name": "lockTime",
      "outputs": [
        {
          "internalType": "uint256",
          "name": "",
          "type": "uint256"
        }
      ],
      "stateMutability": "view",
      "type": "function"
    },
    {
      "inputs": [],
      "name": "owner",
      "outputs": [
        {
          "internalType": "address",
          "name": "",
          "type": "address"
        }
      ],
      "stateMutability": "view",
      "type": "function"
    },
    {
      "inputs": [
        {
          "components": [
            {
              "internalType": "address",
              "name": "user",
              "type": "address"
            },
            {
              "internalType": "address",
              "name": "provider",
              "type": "address"
            },
            {
              "internalType": "uint256",
              "name": "totalFee",
              "type": "uint256"
            },
            {
              "internalType": "bytes32",
              "name": "requestsHash",
              "type": "bytes32"
            },
            {
              "internalType": "uint256",
              "name": "nonce",
              "type": "uint256"
            },
            {
              "internalType": "bytes",
              "name": "signature",
              "type": "bytes"
            }
          ],
          "internalType": "struct TEESettlementData[]",
          "name": "settlements",
          "type": "tuple[]"
        }
      ],
      "name": "previewSettlementResults",
      "outputs": [
        {
          "internalType": "address[]",
          "name": "failedUsers",
          "type": "address[]"
        },
        {
          "internalType": "enum SettlementStatus[]",
          "name": "failureReasons",
          "type": "uint8[]"
        },
        {
          "internalType": "address[]",
          "name": "partialUsers",
          "type": "address[]"
        },
        {
          "internalType": "uint256[]",
          "name": "partialAmounts",
          "type": "uint256[]"
        }
      ],
      "stateMutability": "view",
      "type": "function"
    },
    {
      "inputs": [
        {
          "internalType": "address",
          "name": "user",
          "type": "address"
        },
        {
          "internalType": "address",
          "name": "provider",
          "type": "address"
        }
      ],
      "name": "processRefund",
      "outputs": [
        {
          "internalType": "uint256",
          "name": "totalAmount",
          "type": "uint256"
        },
        {
          "internalType": "uint256",
          "name": "balance",
          "type": "uint256"
        },
        {
          "internalType": "uint256",
          "name": "pendingRefund",
          "type": "uint256"
        }
      ],
      "stateMutability": "nonpayable",
      "type": "function"
    },
    {
      "inputs": [],
      "name": "removeService",
      "outputs": [],
      "stateMutability": "nonpayable",
      "type": "function"
    },
    {
      "inputs": [],
      "name": "renounceOwnership",
      "outputs": [],
      "stateMutability": "nonpayable",
      "type": "function"
    },
    {
      "inputs": [
        {
          "internalType": "address",
          "name": "user",
          "type": "address"
        },
        {
          "internalType": "address",
          "name": "provider",
          "type": "address"
        }
      ],
      "name": "requestRefundAll",
      "outputs": [],
      "stateMutability": "nonpayable",
      "type": "function"
    },
    {
      "inputs": [
        {
          "internalType": "address",
          "name": "provider",
          "type": "address"
        }
      ],
      "name": "revokeTEESignerAcknowledgement",
      "outputs": [],
      "stateMutability": "nonpayable",
      "type": "function"
    },
    {
      "inputs": [
        {
          "components": [
            {
              "internalType": "address",
              "name": "user",
              "type": "address"
            },
            {
              "internalType": "address",
              "name": "provider",
              "type": "address"
            },
            {
              "internalType": "uint256",
              "name": "totalFee",
              "type": "uint256"
            },
            {
              "internalType": "bytes32",
              "name": "requestsHash",
              "type": "bytes32"
            },
            {
              "internalType": "uint256",
              "name": "nonce",
              "type": "uint256"
            },
            {
              "internalType": "bytes",
              "name": "signature",
              "type": "bytes"
            }
          ],
          "internalType": "struct TEESettlementData[]",
          "name": "settlements",
          "type": "tuple[]"
        }
      ],
      "name": "settleFeesWithTEE",
      "outputs": [
        {
          "internalType": "address[]",
          "name": "failedUsers",
          "type": "address[]"
        },
        {
          "internalType": "enum SettlementStatus[]",
          "name": "failureReasons",
          "type": "uint8[]"
        },
        {
          "internalType": "address[]",
          "name": "partialUsers",
          "type": "address[]"
        },
        {
          "internalType": "uint256[]",
          "name": "partialAmounts",
          "type": "uint256[]"
        }
      ],
      "stateMutability": "nonpayable",
      "type": "function"
    },
    {
      "inputs": [
        {
          "internalType": "bytes4",
          "name": "interfaceId",
          "type": "bytes4"
        }
      ],
      "name": "supportsInterface",
      "outputs": [
        {
          "internalType": "bool",
          "name": "",
          "type": "bool"
        }
      ],
      "stateMutability": "view",
      "type": "function"
    },
    {
      "inputs": [
        {
          "internalType": "address",
          "name": "newOwner",
          "type": "address"
        }
      ],
      "name": "transferOwnership",
      "outputs": [],
      "stateMutability": "nonpayable",
      "type": "function"
    },
    {
      "inputs": [
        {
          "internalType": "uint256",
          "name": "_locktime",
          "type": "uint256"
        }
      ],
      "name": "updateLockTime",
      "outputs": [],
      "stateMutability": "nonpayable",
      "type": "function"
    },
    {
      "stateMutability": "payable",
      "type": "receive"
    }
  ],
  "transactionHash": "0xfed07e3e576c86fa243aa6ba857138e522fdc1f303cc007ca55a7fb37e00bffc",
  "args": [],
  "numDeployments": 4,
  "solcInputHash": "48ef65684c87405b87a78fa6d8f4fe6d",
  "bytecode": "0x6080806040523461005f5760008054336001600160a01b0319821681178355916001600160a01b03909116907f8be0079c531659141344cd1fd0a4f28419497f9722a3daafe3b4186f6b6457e09080a3600180556146f490816100658239f35b600080fdfe6080604052600436101561001e575b361561001957600080fd5b614545565b60003560e01c806301ffc9a71461022e5780630d66808714610229578063147500e314610224578063158ef93e1461021f57806315a523021461021a5780631d73b9f514610215578063264173d61461021057806328b604761461020b578063398c8e4e146102065780633ea527cb146102015780634e3c4f22146101fc5780634fe63f4d146101f75780635bd7ace2146101f2578063650190e7146101ed5780636c79158d146101e8578063715018a6146101e3578063745e87f7146101de5780637ff6fc1c146101d95780638be74119146101d45780638da5cb5b146101cf57806397216725146101ca578063a09cfca9146101c5578063ad6dca3f146101c0578063b2394d09146101bb578063b4988fd0146101b6578063ba16a750146101b1578063bbee42d9146101ac578063d1d20056146101a7578063ddf96abd146101a2578063e50688f91461019d578063f2fde38b14610198578063fbfa4e11146101935763fd5908470361000e57611e6c565b611e0b565b611d7a565b611b12565b611963565b61192d565b61176a565b61166e565b6115b7565b611528565b61150b565b611454565b61141b565b6113f2565b6111ce565b6110f3565b610e6e565b610e10565b610ce5565b610cc1565b610c72565b610c2f565b610b26565b610b08565b6109e2565b61089c565b610719565b6106c6565b61045c565b610323565b6102f8565b610294565b346102845760203660031901126102845760043563ffffffff60e01b81168091036102845760209063160841b160e01b8114908115610273575b506040519015158152f35b6301ffc9a760e01b14905038610268565b600080fd5b600091031261028457565b3461028457600036600319011261028457602060008051602061461f83398151915254604051908152f35b6001600160a01b0381160361028457565b6040906003190112610284576004356102e8816102bf565b906024356102f5816102bf565b90565b3461028457602061031961031461030e366102d0565b90612390565b612370565b6040519015158152f35b3461028457600036600319011261028457602060ff60005460a01c166040519015158152f35b919082519283825260005b848110610375575050826000602080949584010152601f8019910116010190565b602081830181015184830182015201610354565b80516001600160a01b03168252906102f5906104286104146104026103d26103c06020880151610160806020890152870190610349565b60408801518682036040880152610349565b606087015160608601526080870151608086015260a087015160a086015260c087015185820360c0870152610349565b60e086015184820360e0860152610349565b610100808601519084830390850152610349565b610120808501516001600160a01b03169083015292610140908101511515910152565b9060206102f5928181520190610389565b346102845760203660031901126102845761054a61048d60043561047f816102bf565b610487613536565b5061290b565b61053e60ff600961049c611a71565b84546001600160a01b03168152936104b6600182016121d0565b60208601526104c7600282016121d0565b60408601526003810154606086015260048101546080860152600581015460a08601526104f6600682016121d0565b60c0860152610507600782016121d0565b60e0860152610518600882016121d0565b61010086015201546001600160a01b03811661012085015260a01c161515610140830152565b6040519182918261044b565b0390f35b606090600319011261028457600435610566816102bf565b906024359060443590565b90815180825260208080930193019160005b828110610591575050505090565b83518051865280830151868401526040808201519087015260609081015115159086015260809094019392810192600101610583565b80516001600160a01b03168252906020828101516001600160a01b03169082015260408201516040820152606082015160608201526080820151608082015261063461062260a08401516101208060a0860152840190610571565b60c084015183820360c0850152610349565b60e080840151151590830152916101008091015191015290565b908082519081815260208091019281808460051b8301019501936000915b84831061067c5750505050505090565b909192939495848061069a600193601f198682030187528a516105c7565b980193019301919493929061066c565b9291906106c160209160408652604086019061064e565b930152565b34610284576106f86106d73661054e565b801580801561070e575b6106ea906123c1565b1561070857506032916127a0565b9061054a604051928392836106aa565b916127a0565b5060328211156106e1565b34610284576020600461073461072e366102d0565b906122fb565b0154604051908152f35b906020600319830112610284576004356001600160401b039283821161028457806023830112156102845781600401359384116102845760248460051b83010111610284576024019190565b90815180825260208080930193019160005b8281106107aa575050505090565b83516001600160a01b03168552938101939281019260010161079c565b600611156107d157565b634e487b7160e01b600052602160045260246000fd5b9060068210156107d15752565b91906108089060808452608084019061078a565b926020938381038585015284808451928381520193019060005b818110610878575050509061083e91838203604085015261078a565b90606081830391015281808451928381520193019160005b828110610864575050505090565b835185529381019392810192600101610856565b90919386808261088e600194899b9a9b516107e7565b979897019501929101610822565b34610284576108aa3661073e565b6108b5811515613e2d565b6108be81613e79565b6108c782613e79565b916108d181613e79565b6108da82613e79565b9160008091815b818110610905575050808552855280825282526040519450849361054a93856107f4565b61091081838b613eab565b923361092d61092160208701612901565b6001600160a01b031690565b036109bf5761093b84613f3e565b6109468293926107c7565b82156109b257610955836107c7565b6001831461098b5750610986929161098191610979610973826124a6565b97612901565b908c8c61451d565b6124a6565b6108e1565b610986939250866109aa6109a4610981949899926124a6565b98612901565b908a8a614537565b50935050610986906124a6565b90610981826109da6109d461098695926124a6565b96612901565b908b8b6144f6565b600319602036820112610284576004356001600160401b0381116102845761010081600401928236030112610284577f30ecc203691b2d18e17ee75d47caf34a3fb9f86e855f7e0414d3cec26d0c424b90610a3c336126f5565b5415610ab557610a4c3415613784565b610a568333613954565b610a92610ab0610a6685806137e4565b9093610a7560248201886137e4565b949097610a8560448401826137e4565b92909160648501906137e4565b949093604051988998339c4294608460a4860135950135938c613837565b0390a2005b610aca68056bc75e2d63100000341015613739565b34610ad4336126f5565b5560405134815233907fcd6dbb0e62eeb71e114bae8b2e2547921dd19209bebf32b595be3e7d247dbbb490602090a2610a4c565b3461028457600036600319011261028457602060405162093a808152f35b3461028457610b34366102d0565b9060018060a01b03610b58816000805160206145bf833981519152541633146129ea565b610b7260008051602061461f83398151915254848461339b565b9193909484610ba0575b505061054a9150604051938493846040919493926060820195825260208201520152565b600080808088335af1610bb161336b565b5015610bea57604080518781526020810185905261054a9592831693909216916000805160206145df8339815191529190a33880610b7c565b60405162461bcd60e51b815260206004820152601960248201527f7472616e7366657220746f206c6564676572206661696c6564000000000000006044820152606490fd5b34610284576106f8610c403661054e565b8015808015610c67575b610c53906123c1565b15610c615750603291612870565b91612870565b506032821115610c4a565b34610284576040366003190112610284576024358015808015610cb6575b610c99906123c1565b15610cad57506106f860325b6004356124e4565b6106f890610ca5565b506032821115610c90565b3461028457600036600319011261028457602060405168056bc75e2d631000008152f35b3461028457610cf3366102d0565b6000805160206145bf833981519152546001600160a01b03929190610d1b90841633146129ea565b610d25818361327a565b610d2f81836122fb565b610d37611a91565b81546001600160a01b0316815260018201546001600160a01b031660208201526002820154604082015260038201546060820152600482015460808201526101006008610d8660058501612111565b9360a08401948552610d9a600682016121d0565b60c0850152610db9610db0600783015460ff1690565b151560e0860152565b0154910152515180610dc757005b610df17f54377dfdebf06f6df53fbda737d2dcd7e141f95bbfb0c1223437e856b9de3ac39161248a565b9380604051931693169180610e0b42829190602083019252565b0390a4005b3461028457600080600319360112610e6b57610e2a611f28565b80546001600160a01b03198116825581906001600160a01b03167f8be0079c531659141344cd1fd0a4f28419497f9722a3daafe3b4186f6b6457e08280a380f35b80fd5b606036600319011261028457600435610e86816102bf565b602435610e92816102bf565b6000805160206145bf83398151915254604435916001600160a01b0391610ebc90831633146129ea565b610ec681856122fb565b92801515806110e6575b610f56575b50906000805160206145df83398151915291610f4260046003860195610efc348854612478565b8097550154610f1f610f1b6007610f13868b6122fb565b015460ff1690565b1590565b610f47575b83604051948594169716958360209093929193604081019481520152565b0390a3005b610f5183886129a7565b610f24565b60048401805490946000946005820194929392865b865488101561109b57610f7e888861315a565b506003810195610f8f875460ff1690565b61108d5760018201805480831061104c5750610fbd610fd192610fb7610f1b93548092612499565b9a612499565b885460ff19166001178955975b5460ff1690565b8080611042575b1561101a575081610ff961100b92610ff3611011958c61315a565b90613176565b80611004818b61315a565b50556124a6565b976124a6565b96949394610f6b565b905097909761102d575b611011906124a6565b9661103a611011916124a6565b979050611024565b50828a1415610fd8565b82999892611063575b5050610f1b610fd191610fca565b906110768a61107d959a939b949b612499565b9055612499565b94610fd1610f1b60009891611055565b9695505096611011906124a6565b9195909493506000805160206145df83398151915296509691966008880191808355815481106110d1575b505050559091610ed5565b6110db90896131c2565b5490553880806110c6565b5060058401541515610ed0565b3461028457604036600319011261028457600435611110816102bf565b602435801591821582036102845761112890336122fb565b600781019260ff84541690816111c6575b50611157575b50611155919060ff801983541691151516179055565b005b60030154611165573861113f565b60405162461bcd60e51b815260206004820152603360248201527f43616e6e6f74207265766f6b652061636b6e6f776c656467656d656e742077696044820152727468206e6f6e2d7a65726f2062616c616e636560681b6064820152608490fd5b905038611139565b34610284576111dc3661073e565b6111e7811515613e2d565b6111f46032821115613ecd565b6111fd81613e79565b9061120781613e79565b9261121182613e79565b9161121b81613e79565b91600080918193825b81811061127e575050508086528652808452825280158015611253575b505061054a91604051948594856107f4565b600080809381938290611275575b3390f115611270573880611241565b613f32565b506108fc611261565b61128c818385989698613eab565b93898b3361129f61092160208a01612901565b0361137e57976112bb986112b28861403b565b909b9195612478565b996112c86109218a612901565b7f1f69e5b87fd0ce34b3760ba6e5d8aa95a36e316c3ba44e1e65a9d0eb9e96d0bf604051806112f8858a83613f19565b0390a2611304856107c7565b841561136f57611313856107c7565b60018514611345575091816109819361133a611334611340989795936124a6565b9a612901565b9261451d565b611224565b91979890506113409493506109819250611367611361826124a6565b99612901565b908b8d614537565b505095505050611340906124a6565b95906113a4908961139461134096959b916124a6565b9861139e85612901565b926144f6565b7f1f69e5b87fd0ce34b3760ba6e5d8aa95a36e316c3ba44e1e65a9d0eb9e96d0bf6113ce82612901565b60408051600281529381013560208501526001600160a01b039190911692a26124a6565b34610284576000366003190112610284576000546040516001600160a01b039091168152602090f35b346102845761115561142c366102d0565b9061144f60018060a01b036000805160206145bf833981519152541633146129ea565b612d6f565b34610284576040366003190112610284576024358015808015611500575b61147b906123c1565b156114f7575061148f60325b60043561369c565b90604051906040820192604083528151809452606083019160608560051b850101926020809201906000905b8782106114cf575050508380955001520390f35b90919483806114ea600193605f198b82030186528951610389565b97019201920190916114bb565b61148f90611487565b506032821115611472565b34610284576000366003190112610284576020604051610e108152f35b34610284576020366003190112610284576009600435611547816102bf565b61154f611f28565b7f4909107c46469d21135443e891c6ecae55b5baa31b338d50f391935308b08f89602061157b8361290b565b846115858561290b565b01805460ff60a01b1916600160a01b17905590930154604051600181526001600160a01b0391821694939091169290a3005b34610284576060366003190112610284576024356115d4816102bf565b6044356115e0816102bf565b6000549160ff8360a01c1661160d5760ff60a01b19909216600160a01b176000556111559160043561200b565b60405162461bcd60e51b815260206004820152602260248201527f496e697469616c697a61626c653a20616c726561647920696e697469616c697a604482015261195960f21b6064820152608490fd5b9060206102f592818152019061064e565b346102845761167c3661073e565b6101f481116117255761168e81612412565b9160005b8281106116a7576040518061054a868261165d565b6116db906116c7336116c26116bd8488886128f1565b612901565b612390565b6116d081612370565b6116e0575b506124a6565b611692565b611704611709916000526000805160206145ff833981519152602052604060002090565b612274565b61171382876124cb565b5261171e81866124cb565b50386116d5565b60405162461bcd60e51b815260206004820152601e60248201527f42617463682073697a6520746f6f206c6172676520286d6178203530302900006044820152606490fd5b3461028457600080600319360112610e6b576002600154146118e857600260015561179433612972565b6117b88160005260008051602061467f833981519152602052604060002054151590565b156118d0578061183591835260008051602061469f833981519152602052826009604082208281556117ec60018201612d26565b6117f860028201612d26565b82600382015582600482015582600582015561181660068201612d26565b61182260078201612d26565b61182e60088201612d26565b0155612f4f565b5061183f336126f5565b5480611878575b50337f29d546abb6e94f4f04d5bdccb6682316f597d43776078f47e273f000e77b2a918280a261187560018055565b80f35b81611882336126f5565b5561189c8280808085335af161189661336b565b50613deb565b60405190815233907f17f7db034d4b59fadec3e44a684cb4396ca10fd036c4e4f718bf06e99371588290602090a238611846565b6040516304c76d3f60e11b8152336004820152602490fd5b60405162461bcd60e51b815260206004820152601f60248201527f5265656e7472616e637947756172643a207265656e7472616e742063616c6c006044820152606490fd5b34610284576000366003190112610284576000805160206145bf833981519152546040516001600160a01b039091168152602090f35b34610284576020366003190112610284576009600435611982816102bf565b61198a611f28565b7f4909107c46469d21135443e891c6ecae55b5baa31b338d50f391935308b08f8960206119b68361290b565b846119c08561290b565b01805460ff60a01b1916905590930154604051600081526001600160a01b0391821694939091169290a3005b634e487b7160e01b600052604160045260246000fd5b608081019081106001600160401b03821117611a1d57604052565b6119ec565b6001600160401b038111611a1d57604052565b602081019081106001600160401b03821117611a1d57604052565b90601f801991011681019081106001600160401b03821117611a1d57604052565b6040519061016082018281106001600160401b03821117611a1d57604052565b6040519061012082018281106001600160401b03821117611a1d57604052565b60405190611abe82611a02565b565b6001600160401b038111611a1d57601f01601f191660200190565b929192611ae782611ac0565b91611af56040519384611a50565b829481845281830111610284578281602093846000960137010152565b606036600319011261028457600435611b2a816102bf565b60243590611b37826102bf565b6001600160401b0391604435838111610284573660238201121561028457611b69903690602481600401359101611adb565b6000805160206145bf833981519152546001600160a01b039190611b9090831633146129ea565b611b9a8385612390565b90611ba482612370565b611d515760008281526000805160206145ff83398151915260209081526040822034600382015580546001600160a01b0319166001600160a01b0389161781559197600183810180546001600160a01b0319166001600160a01b038a1617905560068401928551928311611a1d578a95611c2884611c228754612196565b87612c13565b81601f8511600114611cc557509280806000805160206145df8339815191529a999794899794600897611c959b94611cba575b50501b916000199060031b1c19161790555b0155611c7881612a5e565b50611c8b81611c868761272e565b612b75565b50611c8686612767565b50611ca083856129a7565b60408051348152600060208201529382169490911692a380f35b015192503880611c5b565b9190601f949394198416611cde87600052602060002090565b9389905b828210611d37575050926008959285926000805160206145df8339815191529c9b9996611c959b999610611d1e575b505050811b019055611c6d565b015160001960f88460031b161c19169055388080611d11565b8385015186558f9a50948701949384019390810190611ce2565b604051632cf0675960e21b81526001600160a01b03868116600483015285166024820152604490fd5b3461028457602036600319011261028457600435611d97816102bf565b611d9f611f28565b6001600160a01b03811615611db75761115590611f80565b60405162461bcd60e51b815260206004820152602660248201527f4f776e61626c653a206e6577206f776e657220697320746865207a65726f206160448201526564647265737360d01b6064820152608490fd5b3461028457602036600319011261028457600435611e27611f28565b610e1081101580611e4e575b611e3c90611fc7565b60008051602061461f83398151915255005b5062093a80811115611e33565b9060206102f59281815201906105c7565b346102845761054a611e8f611e80366102d0565b90611e896120a2565b506122fb565b6008611e99611a91565b82546001600160a01b031681529160018101546001600160a01b03166020840152600281015460408401526003810154606084015260048101546080840152611ee460058201612111565b60a0840152611ef5600682016121d0565b60c0840152611f14611f0b600783015460ff1690565b151560e0850152565b015461010082015260405191829182611e5b565b6000546001600160a01b03163303611f3c57565b606460405162461bcd60e51b815260206004820152602060248201527f4f776e61626c653a2063616c6c6572206973206e6f7420746865206f776e65726044820152fd5b600080546001600160a01b039283166001600160a01b03198216811783559216907f8be0079c531659141344cd1fd0a4f28419497f9722a3daafe3b4186f6b6457e09080a3565b15611fce57565b60405162461bcd60e51b81526020600482015260156024820152746c6f636b54696d65206f7574206f662072616e676560581b6044820152606490fd5b909161201690611f80565b610e1081101580612095575b61202b90611fc7565b60008051602061461f8339815191525560018060a01b03166bffffffffffffffffffffffff60a01b906000805160206145bf83398151915281838254161790557fdfd123095cdedb1cecbc229b30f7cf8745fb3d3951645ac4a8fa4c0895f8950291825416179055565b5062093a80811115612022565b6040519061012082018281106001600160401b03821117611a1d5760405281610100600091828152826020820152826040820152826060820152826080820152606060a0820152606060c08201528260e08201520152565b6001600160401b038111611a1d5760051b60200190565b90815461211d816120fa565b9260409361212d85519182611a50565b828152809460208092019260005281600020906000935b85851061215357505050505050565b600484600192845161216481611a02565b86548152848701548382015260028701548682015260ff60038801541615156060820152815201930194019391612144565b90600182811c921680156121c6575b60208310146121b057565b634e487b7160e01b600052602260045260246000fd5b91607f16916121a5565b90604051918260008254926121e484612196565b908184526001948581169081600014612251575060011461220e575b5050611abe92500383611a50565b9093915060005260209081600020936000915b818310612239575050611abe93508201013880612200565b85548884018501529485019487945091830191612221565b915050611abe94506020925060ff191682840152151560051b8201013880612200565b90600861227f611a91565b83546001600160a01b031681529260018101546001600160a01b031660208501526002810154604085015260038101546060850152600481015460808501526122ca60058201612111565b60a08501526122db600682016121d0565b60c08501526122f1610db0600783015460ff1690565b0154610100830152565b906123068183612390565b918260005260008051602061459f833981519152602052604060002054156123475750506000526000805160206145ff833981519152602052604060002090565b60405163023280eb60e21b81526001600160a01b03918216600482015291166024820152604490fd5b60005260008051602061459f833981519152602052604060002054151590565b604080516001600160a01b0392831660208201908152939092168282015281526123bb606082611a50565b51902090565b156123c857565b60405162461bcd60e51b815260206004820152600f60248201526e4c696d697420746f6f206c6172676560881b6044820152606490fd5b60405161240b81611a35565b6000815290565b9061241c826120fa565b6124296040519182611a50565b828152809261243a601f19916120fa565b019060005b82811061244b57505050565b6020906124566120a2565b8282850101520161243f565b634e487b7160e01b600052601160045260246000fd5b9190820180921161248557565b612462565b60001981019190821161248557565b9190820391821161248557565b60001981146124855760010190565b634e487b7160e01b600052603260045260246000fd5b80518210156124df5760209160051b010190565b6124b5565b909160008051602061465f833981519152549182811015612585578381018082116124855793158385821561257b575b5050612572575b8084039384116124855761252e84612412565b9360005b81811061253e57505050565b808301908184116124855761255861170461256d93612595565b61256282896124cb565b526116d581886124cb565b612532565b9250819261251b565b1190508338612514565b509091506125916123ff565b9190565b60008051602061465f833981519152548110156124df577fa543db6724dca3e06c9a739e16672b6894bb866e0b44759e50bc403282ce062701546000526000805160206145ff833981519152602052604060002090565b60008051602061463f833981519152548110156124df577f94ce1cc9f419dbfb0d7a61a6415af9981ee3d1c02ba0de79a3c180abfae2b401015460005260008051602061469f833981519152602052604060002090565b60008051602061463f83398151915280548210156124df576000527f94ce1cc9f419dbfb0d7a61a6415af9981ee3d1c02ba0de79a3c180abfae2b4010190600090565b60008051602061465f83398151915280548210156124df576000527fa543db6724dca3e06c9a739e16672b6894bb866e0b44759e50bc403282ce06270190600090565b80548210156124df5760005260206000200190600090565b906126eb916126c9565b90549060031b1c90565b6001600160a01b031660009081527fdfd123095cdedb1cecbc229b30f7cf8745fb3d3951645ac4a8fa4c0895f8950b6020526040902090565b6001600160a01b031660009081527fdfd123095cdedb1cecbc229b30f7cf8745fb3d3951645ac4a8fa4c0895f895066020526040902090565b6001600160a01b031660009081527fdfd123095cdedb1cecbc229b30f7cf8745fb3d3951645ac4a8fa4c0895f895076020526040902090565b6127ac9093929361272e565b80549384831015612859578061284a5750835b82858211612842575b6127d191612499565b906127db82612412565b9260005b8381106127ee57505050509190565b8061282861170461280b61280561283d9587612478565b876126e1565b6000526000805160206145ff833981519152602052604060002090565b61283282886124cb565b526116d581876124cb565b6127df565b8591506127c8565b8201808311156127bf57612462565b50505060405161286881611a35565b600081529190565b61287c90939293612767565b8054938483101561285957806128e25750835b828582116128da575b6128a191612499565b906128ab82612412565b9260005b8381106128be57505050509190565b8061282861170461280b6128056128d59587612478565b6128af565b859150612898565b82018083111561288f57612462565b91908110156124df5760051b0190565b356102f5816102bf565b61291481612972565b60005260008051602061469f83398151915260205260406000209060008051602061467f83398151915260205260406000205415612950575090565b6040516304c76d3f60e11b81526001600160a01b039091166004820152602490fd5b604051602081019160018060a01b0316825260208152604081018181106001600160401b03821117611a1d5760405251902090565b906129b1916122fb565b600781019081549060ff8216806129e2575b6129d4575b5060ff19166001179055565b6003015461116557386129c8565b5060006129c3565b156129f157565b60405162461bcd60e51b815260206004820152602160248201527f43616c6c6572206973206e6f7420746865206c656467657220636f6e747261636044820152601d60fa1b6064820152608490fd5b91612a5a9183549060031b91821b91600019901b19161790565b9055565b8060005260008051602061459f8339815191528060205260406000205415600014612ae65760008051602061465f8339815191528054600160401b811015611a1d57600181018083558110156124df5783907fa543db6724dca3e06c9a739e16672b6894bb866e0b44759e50bc403282ce062701555491600052602052604060002055600190565b5050600090565b8060005260008051602061467f8339815191528060205260406000205415600014612ae65760008051602061463f8339815191528054600160401b811015611a1d57600181018083558110156124df5783907f94ce1cc9f419dbfb0d7a61a6415af9981ee3d1c02ba0de79a3c180abfae2b40101555491600052602052604060002055600190565b6001810190826000528160205260406000205415600014612bde578054600160401b811015611a1d57612bc9612bb28260018794018555846126c9565b819391549060031b91821b91600019901b19161790565b90555491600052602052604060002055600190565b505050600090565b634e487b7160e01b600052600060045260246000fd5b818110612c07575050565b60008155600101612bfc565b9190601f8111612c2257505050565b611abe926000526020600020906020601f840160051c83019310612c4e575b601f0160051c0190612bfc565b9091508190612c41565b91909182516001600160401b038111611a1d57612c7f81612c798454612196565b84612c13565b602080601f8311600114612cbb575081929394600092612cb0575b50508160011b916000199060031b1c1916179055565b015190503880612c9a565b90601f19831695612cd185600052602060002090565b926000905b888210612d0e57505083600195969710612cf5575b505050811b019055565b015160001960f88460031b161c19169055388080612ceb565b80600185968294968601518155019501930190612cd6565b612d308154612196565b9081612d3a575050565b81601f60009311600114612d4c575055565b908083918252612d6b601f60208420940160051c840160018501612bfc565b5555565b90612d7a8183612390565b91612d8483612370565b15612e6157612d9e8391612da383612d9e612da99661272e565b6130b1565b50612767565b50612db381613004565b5060009081526000805160206145ff83398151915260205260408120818155816001820155816002820155816003820155600482818301556005820180549084815581612e17575b50505080612e0d600660089301612d26565b8260078201550155565b6001600160fe1b0382168203612485578452602084209060021b8101905b81811015612dfb5780612e5b849260036000918281558260018201558260028201550155565b01612e35565b505050565b634e487b7160e01b600052603160045260246000fd5b60008051602061463f8339815191528054908115612ece57600019820191808310156124df577f94ce1cc9f419dbfb0d7a61a6415af9981ee3d1c02ba0de79a3c180abfae2b400600091838352015555565b612e66565b60008051602061465f8339815191528054908115612ece57600019820191808310156124df577fa543db6724dca3e06c9a739e16672b6894bb866e0b44759e50bc403282ce0626600091838352015555565b8054908115612ece5760001991820191612f3f83836126c9565b909182549160031b1b1916905555565b600081815260008051602061467f83398151915260205260409020548015612ae65760001991818301918083116124855760008051602061463f83398151915254938401938411612485578383612fd19460009603612fd7575b505050612fb4612e7c565b60005260008051602061467f833981519152602052604060002090565b55600190565b612fb4612ff591612fed6126eb612ffb95612643565b928391612643565b90612a40565b55388080612fa9565b600081815260008051602061459f83398151915260205260409020548015612ae65760001991818301918083116124855760008051602061465f83398151915254938401938411612485578383612fd19460009603613086575b505050613069612ed3565b60005260008051602061459f833981519152602052604060002090565b613069612ff5916130996130a894612686565b90549060031b1c928391612686565b5538808061305e565b600181019180600052826020526040600020549283151560001461315157600019928484019085821161248557805494850194851161248557600095858361310594612fd19803613114575b505050612f25565b90600052602052604060002090565b613138612ff59161312861314894876126c9565b90549060031b1c928391876126c9565b8590600052602052604060002090565b553880806130fd565b50505050600090565b80548210156124df5760005260206000209060021b0190600090565b906131bd57818103613186575050565b600360ff8184611abe95548555600181015460018601556002810154600286015501541691019060ff801983541691151516179055565b612be6565b60050180545b8281116131d457505050565b81548015612ece57600019016131ea818461315a565b6131bd57600360009182815582600182015582600282015501558255801561248557600019016131c8565b906131bd576003606083611abe9451845560208101516001850155604081015160028501550151151591019060ff801983541691151516179055565b90815491600160401b831015611a1d5782613274916001611abe9501815561315a565b90613215565b919061328681846122fb565b9260038401549161329d6004860193845490612499565b918215613363576008860191825491600583101561333a5750506005612a5a9495960190815480911060001461330e57506132fb9061327483546132df611ab1565b928184528660208501524260408501526000606085015261315a565b61330581546124a6565b90558254612478565b6133359161331a611ab1565b91825284602083015242604083015260006060830152613251565b6132fb565b604051639edd285f60e01b81526001600160a01b03918216600482015291166024820152604490fd5b505050509050565b3d15613396573d9061337c82611ac0565b9161338a6040519384611a50565b82523d6000602084013e565b606090565b906133a5916122fb565b90600582019081541561352457600093600092600091825b825481101561347f576133d0818461315a565b509760038901986133e28a5460ff1690565b613473576133f4876002830154612478565b42106134235761341061341e9392600161098193015490612478565b8a5460ff1916600117909a55565b6133bd565b9661344c9199509461343e61341e939660018a015490612478565b9781870361345257506124a6565b936124a6565b61346090610ff3838861315a565b8061346b818761315a565b5055386116d5565b50975061341e906124a6565b50949250600883019180835581548082106134b4575b5050505081600460038301926134ac878554612499565b809455015591565b81906134c36003928392612499565b106134e057506134d390846131c2565b5490555b38808080613495565b96939592509390935b8454811015613518578061098188613504613513948961315a565b5001805460ff19166001179055565b6134e9565b509250929093506134d7565b50506003810154600490910154600092565b6040519061016082018281106001600160401b03821117611a1d5760405281610140600091828152606080602083015280604083015283818301528360808301528360a08301528060c08301528060e0830152610100820152826101208201520152565b90611abe60ff60096135aa611a71565b85546001600160a01b03168152946135c4600182016121d0565b60208701526135d5600282016121d0565b60408701526003810154606087015260048101546080870152600581015460a0870152613604600682016121d0565b60c0870152613615600782016121d0565b60e0870152613626600882016121d0565b61010087015201546001600160a01b03811661012086015260a01c161515610140840152565b90613656826120fa565b6136636040519182611a50565b8281528092613674601f19916120fa565b019060005b82811061368557505050565b602090613690613536565b82828501015201613679565b9160008051602061463f833981519152549182841015613729578084018085116124855790158382821561371f575b5050613718575b838103908111612485576136e58161364c565b9360005b8281106136f557505050565b8061255861370e6137096137139486612478565b6125ec565b61359a565b6136e9565b50816136d2565b11905083386136cb565b5090915060405161286881611a35565b1561374057565b606460405162461bcd60e51b815260206004820152602060248201527f4d696e696d756d207374616b65206f66203130302030472072657175697265646044820152fd5b1561378b57565b60405162461bcd60e51b815260206004820152602b60248201527f43616e6e6f7420616464206d6f7265207374616b65207768656e20757064617460448201526a696e67207365727669636560a81b6064820152608490fd5b903590601e198136030182121561028457018035906001600160401b0382116102845760200191813603831361028457565b908060209392818452848401376000828201840152601f01601f1916010190565b99979392613887979361385c61386a936102f59e9c98999560e08f8181520191613816565b8c810360208e015291613816565b9460408a01526060890152608088015286830360a0880152613816565b9260c0818503910152613816565b9092916001600160401b038111611a1d576138b481612c798454612196565b6000601f82116001146138ed57819293946000926138e25750508160011b916000199060031b1c1916179055565b013590503880612c9a565b601f1982169461390284600052602060002090565b91805b87811061393c57508360019596971061392257505050811b019055565b0135600019600384901b60f8161c19169055388080612ceb565b90926020600181928686013581550194019101613905565b60c082019061100061396683856137e4565b905011613cc05761397681612972565b61399d610f1b8260005260008051602061467f833981519152602052604060002054151590565b613bc657506139ab9061290b565b9160018301916139ba836121d0565b80516020809201206139d66139cf85806137e4565b3691611adb565b8281519101201493841594613b94575b8415613b62575b8415613b2f575b858515613ad5575b5083613a9a613a90600995613a50613a46613aa097613a2a60e098613a2489613ac19e6137e4565b91613895565b608087013560038e015560a087013560048e01558601866137e4565b9060028d01613895565b4260058b0155613a70613a6660408601866137e4565b9060068d01613895565b613a8a613a8060608601866137e4565b9060078d01613895565b836137e4565b9060088a01613895565b01612901565b930180546001600160a01b0319166001600160a01b03909416939093178355565b613ac85750565b805460ff60a01b19169055565b60e091955093613a9a613a90600995613a50613a46613aa097613a2a613b006008613ac19d016121d0565b828151910120613b136139cf878b6137e4565b83815191012014159c98505097505050955050509350856139fc565b60098601549094506001600160a01b0316613b4f61092160e08601612901565b6001600160a01b039091161415936139f4565b9350613b70600786016121d0565b818151910120613b866139cf60608601866137e4565b8281519101201415936139ed565b9350613ba2600686016121d0565b818151910120613bb86139cf60408601866137e4565b8281519101201415936139e6565b929091613bd382806137e4565b929091613be360208301836137e4565b92613bf160408201826137e4565b9091613c0060608201826137e4565b949095613c0d90836137e4565b97909860e08401613c1d90612901565b9a613c26611a71565b6001600160a01b03909d168d523690613c3e92611adb565b60208c01523690613c4e92611adb565b60408a0152608081013560608a015260a0013560808901524260a08901523690613c7792611adb565b60c08701523690613c8792611adb565b60e08501523690613c9792611adb565b6101008301526001600160a01b03166101208201526000610140820152613cbd91613cd2565b50565b60405163ef54fd9d60e01b8152600490fd5b613de66102f5928260005260008051602061469f833981519152602052613dcc61014060096040600020613d2b613d0f865160018060a01b031690565b82546001600160a01b0319166001600160a01b03909116178255565b613d3c602086015160018301612c58565b613d4d604086015160028301612c58565b606085015160038201556080850151600482015560a08501516005820155613d7c60c086015160068301612c58565b613d8d60e086015160078301612c58565b613d9f61010086015160088301612c58565b610120850151910180546001600160a01b0319166001600160a01b03909216919091178155920151151590565b815460ff60a01b191690151560a01b60ff60a01b16179055565b612aed565b15613df257565b60405162461bcd60e51b815260206004820152601360248201527214dd185ad9481c995d1d5c9b8819985a5b1959606a1b6044820152606490fd5b15613e3457565b60405162461bcd60e51b815260206004820152601760248201527f4e6f20736574746c656d656e74732070726f76696465640000000000000000006044820152606490fd5b90613e83826120fa565b613e906040519182611a50565b8281528092613ea1601f19916120fa565b0190602036910137565b91908110156124df5760051b8101359060be1981360301821215610284570190565b15613ed457565b60405162461bcd60e51b815260206004820152601d60248201527f546f6f206d616e7920736574746c656d656e747320696e2062617463680000006044820152606490fd5b60209093929193613f2e8160408101966107e7565b0152565b6040513d6000823e3d90fd5b613f51613f4a82612901565b33906122fb565b613f5a3361290b565b613f6b610f1b600784015460ff1690565b8015614022575b801561400d575b61400057600282015460808401351115613ff35760090154613fa890610f1b906001600160a01b0316846143a1565b613fe757600301546000916040013581811115613fdf57613fc99250612499565b905b8115613fd75760019190565b600091508190565b505090613fcb565b50906040600592013590565b5050906040600492013590565b5050906040600392013590565b5060098101546001600160a01b031615613f79565b5060098101546140369060a01c60ff161590565b613f72565b614047613f4a82612901565b916140513361290b565b614062610f1b600786015460ff1690565b801561415e575b8015614149575b614138576002840180549160808501358093101561412557600901546140a390610f1b906001600160a01b0316866143a1565b61411357556040600384015492013591808311908160001461410d5780935b60009215614105576140d49250612499565b925b82806140f5575b505082156140ec576001929190565b60009250829190565b6140fe91614189565b38826140dd565b5050926140d6565b836140c2565b50509091506040600592013590600090565b5050509091506040600492013590600090565b509091506040600392013590600090565b5060098101546001600160a01b031615614070565b5060098101546141729060a01c60ff161590565b614069565b600160ff1b8114612485576000190190565b6003918282019182549160048201928354906141a58282612499565b83116142b2575b505090919293506141be818554612499565b84557fdfd123095cdedb1cecbc229b30f7cf8745fb3d3951645ac4a8fa4c0895f89502546141f4906001600160a01b0316610921565b82549091906001600160a01b031690823b1561028457604051631bb1482360e31b81526001600160a01b039290921660048301526024820152906000908290604490829084905af18015611270576000805160206145df833981519152926142949261426d92614299575b50546001600160a01b031690565b9354925460408051948552602085019190915233946001600160a01b031693918291820190565b0390a3565b806142a66142ac92611a22565b80610289565b3861425f565b6142c86142c2836142cf93612499565b84612499565b8092612499565b845560058301906142e0825461248a565b6000808212614381576142f3828561315a565b509089820191614304835460ff1690565b6143755760010180549094908181116143605750906143296143389392865490612499565b9455805460ff19166001179055565b811561434c5761434790614177565b6142e0565b50505090919293505b9083929138806141ac565b61436d9294959350612499565b905590614338565b50505061434790614177565b505050509091929350614355565b60ff601b9116019060ff821161248557565b6041906143b160a08201826137e4565b92909203612bde57602091816143ca8460009401612901565b6143d382612901565b604080516060808601358983019081526080870135602082015294811b6bffffffffffffffffffffffff199081168685015293901b90921660548401529290920135606882015281608882010391614433601f1993848101835282611a50565b5190209061448260405191826144768882019586603c917f19457468657265756d205369676e6564204d6573736167653a0a3332000000008252601c8201520190565b03908101835282611a50565b519020906040810135831a90601b82106144e1575b6040805193845260ff9092166020840152803591830191909152830135606082015280608081015b838052039060015afa15611270576000516001600160a01b0390811691161490565b906144ee6144bf9161438f565b919050614497565b906002936145088461451a95946124cb565b6001600160a01b0390911690526124cb565b52565b926145088361452b956124cb565b60068210156107d15752565b926145088361451a956124cb565b60405162461bcd60e51b815260206004820152602b60248201527f446972656374206465706f736974732064697361626c65643b20757365204c6560448201526a3233b2b926b0b730b3b2b960a91b6064820152608490fdfedfd123095cdedb1cecbc229b30f7cf8745fb3d3951645ac4a8fa4c0895f89504dfd123095cdedb1cecbc229b30f7cf8745fb3d3951645ac4a8fa4c0895f89501526824944047da5b81071fb6349412005c5da81380b336103fbe5dd34556c776dfd123095cdedb1cecbc229b30f7cf8745fb3d3951645ac4a8fa4c0895f89505dfd123095cdedb1cecbc229b30f7cf8745fb3d3951645ac4a8fa4c0895f89500dfd123095cdedb1cecbc229b30f7cf8745fb3d3951645ac4a8fa4c0895f89508dfd123095cdedb1cecbc229b30f7cf8745fb3d3951645ac4a8fa4c0895f89503dfd123095cdedb1cecbc229b30f7cf8745fb3d3951645ac4a8fa4c0895f89509dfd123095cdedb1cecbc229b30f7cf8745fb3d3951645ac4a8fa4c0895f8950aa2646970667358221220efb2c749983bb1db40e37f67a1aa8623c3f15d8df58d20bf73dfb122669e371664736f6c63430008140033",
  "devdoc": {
    "kind": "dev",
    "methods": {
      "owner()": {
        "details": "Returns the address of the current owner."
      },
      "renounceOwnership()": {
        "details": "Leaves the contract without owner. It will not be possible to call `onlyOwner` functions anymore. Can only be called by the current owner. NOTE: Renouncing ownership will leave the contract without an owner, thereby removing any functionality that is only available to the owner."
      },
      "supportsInterface(bytes4)": {
        "details": "See {IERC165-supportsInterface}."
      },
      "transferOwnership(address)": {
        "details": "Transfers ownership of the contract to a new account (`newOwner`). Can only be called by the current owner."
      }
    },
    "version": 1
  },
  "userdoc": {
    "kind": "user",
    "methods": {},
    "version": 1
  },
  "storageLayout": {
    "storage": [
      {
        "astId": 7,
        "contract": "contracts/inference/InferenceServing.sol:InferenceServing",
        "label": "_owner",
        "offset": 0,
        "slot": "0",
        "type": "t_address"
      },
      {
        "astId": 9674,
        "contract": "contracts/inference/InferenceServing.sol:InferenceServing",
        "label": "initialized",
        "offset": 20,
        "slot": "0",
        "type": "t_bool"
      },
      {
        "astId": 123,
        "contract": "contracts/inference/InferenceServing.sol:InferenceServing",
        "label": "_status",
        "offset": 0,
        "slot": "1",
        "type": "t_uint256"
      }
    ],
    "types": {
      "t_address": {
        "encoding": "inplace",
        "label": "address",
        "numberOfBytes": "20"
      },
      "t_bool": {
        "encoding": "inplace",
        "label": "bool",
        "numberOfBytes": "1"
      },
      "t_uint256": {
        "encoding": "inplace",
        "label": "uint256",
        "numberOfBytes": "32"
      }
    }
  }
}