{
  "address": "0x4EBB1e1F179A616cd098f85Edd3697f1F516013B",
  "abi": [
    {
      "inputs": [],
      "stateMutability": "nonpayable",
      "type": "constructor"
    },
    {
      "inputs": [
        {
          "internalType": "address",
          "name": "user",
          "type": "address"
        },
        {
          "internalType": "address",
          "name": "provider",
          "type": "address"
        }
      ],
      "name": "AccountExists",
      "type": "error"
    },
    {
      "inputs": [
        {
          "internalType": "address",
          "name": "user",
          "type": "address"
        },
        {
          "internalType": "address",
          "name": "provider",
          "type": "address"
        }
      ],
      "name": "AccountNotExists",
      "type": "error"
    },
    {
      "inputs": [
        {
          "internalType": "uint256",
          "name": "oldPendingRefund",
          "type": "uint256"
        },
        {
          "internalType": "uint256",
          "name": "newPendingRefund",
          "type": "uint256"
        }
      ],
      "name": "AccountingMismatchInMigration",
      "type": "error"
    },
    {
      "inputs": [],
      "name": "AdditionalInfoTooLong",
      "type": "error"
    },
    {
      "inputs": [],
      "name": "AlreadyInitialized",
      "type": "error"
    },
    {
      "inputs": [
        {
          "internalType": "uint256",
          "name": "size",
          "type": "uint256"
        },
        {
          "internalType": "uint256",
          "name": "max",
          "type": "uint256"
        }
      ],
      "name": "BatchSizeTooLarge",
      "type": "error"
    },
    {
      "inputs": [
        {
          "internalType": "address",
          "name": "caller",
          "type": "address"
        }
      ],
      "name": "CallerNotLedger",
      "type": "error"
    },
    {
      "inputs": [],
      "name": "CannotAddStakeWhenUpdating",
      "type": "error"
    },
    {
      "inputs": [
        {
          "internalType": "address",
          "name": "user",
          "type": "address"
        },
        {
          "internalType": "address",
          "name": "provider",
          "type": "address"
        },
        {
          "internalType": "uint256",
          "name": "balance",
          "type": "uint256"
        }
      ],
      "name": "CannotRevokeWithNonZeroBalance",
      "type": "error"
    },
    {
      "inputs": [],
      "name": "DirectDepositsDisabled",
      "type": "error"
    },
    {
      "inputs": [
        {
          "internalType": "uint256",
          "name": "provided",
          "type": "uint256"
        },
        {
          "internalType": "uint256",
          "name": "required",
          "type": "uint256"
        }
      ],
      "name": "InsufficientStake",
      "type": "error"
    },
    {
      "inputs": [
        {
          "internalType": "address",
          "name": "addr",
          "type": "address"
        }
      ],
      "name": "InvalidAddress",
      "type": "error"
    },
    {
      "inputs": [
        {
          "internalType": "string",
          "name": "reason",
          "type": "string"
        }
      ],
      "name": "InvalidTEESignature",
      "type": "error"
    },
    {
      "inputs": [
        {
          "internalType": "uint256",
          "name": "limit",
          "type": "uint256"
        },
        {
          "internalType": "uint256",
          "name": "max",
          "type": "uint256"
        }
      ],
      "name": "LimitTooLarge",
      "type": "error"
    },
    {
      "inputs": [
        {
          "internalType": "uint256",
          "name": "lockTime",
          "type": "uint256"
        },
        {
          "internalType": "uint256",
          "name": "min",
          "type": "uint256"
        },
        {
          "internalType": "uint256",
          "name": "max",
          "type": "uint256"
        }
      ],
      "name": "LockTimeOutOfRange",
      "type": "error"
    },
    {
      "inputs": [],
      "name": "NoSettlementsProvided",
      "type": "error"
    },
    {
      "inputs": [],
      "name": "ProviderCannotBeUser",
      "type": "error"
    },
    {
      "inputs": [
        {
          "internalType": "address",
          "name": "provider",
          "type": "address"
        }
      ],
      "name": "ServiceNotExist",
      "type": "error"
    },
    {
      "inputs": [
        {
          "internalType": "uint256",
          "name": "index",
          "type": "uint256"
        },
        {
          "internalType": "uint256",
          "name": "max",
          "type": "uint256"
        }
      ],
      "name": "StartIndexOutOfBounds",
      "type": "error"
    },
    {
      "inputs": [
        {
          "internalType": "address",
          "name": "user",
          "type": "address"
        },
        {
          "internalType": "address",
          "name": "provider",
          "type": "address"
        }
      ],
      "name": "TooManyRefunds",
      "type": "error"
    },
    {
      "inputs": [
        {
          "internalType": "uint256",
          "name": "count",
          "type": "uint256"
        },
        {
          "internalType": "uint256",
          "name": "max",
          "type": "uint256"
        }
      ],
      "name": "TooManySettlements",
      "type": "error"
    },
    {
      "inputs": [],
      "name": "TransferFailed",
      "type": "error"
    },
    {
      "anonymous": false,
      "inputs": [
        {
          "indexed": true,
          "internalType": "address",
          "name": "user",
          "type": "address"
        },
        {
          "indexed": true,
          "internalType": "address",
          "name": "provider",
          "type": "address"
        },
        {
          "indexed": false,
          "internalType": "uint256",
          "name": "refundedAmount",
          "type": "uint256"
        }
      ],
      "name": "AccountDeleted",
      "type": "event"
    },
    {
      "anonymous": false,
      "inputs": [
        {
          "indexed": true,
          "internalType": "address",
          "name": "user",
          "type": "address"
        },
        {
          "indexed": true,
          "internalType": "address",
          "name": "provider",
          "type": "address"
        },
        {
          "indexed": false,
          "internalType": "uint256",
          "name": "newGeneration",
          "type": "uint256"
        }
      ],
      "name": "AllTokensRevoked",
      "type": "event"
    },
    {
      "anonymous": false,
      "inputs": [
        {
          "indexed": true,
          "internalType": "address",
          "name": "user",
          "type": "address"
        },
        {
          "indexed": true,
          "internalType": "address",
          "name": "provider",
          "type": "address"
        },
        {
          "indexed": false,
          "internalType": "uint256",
          "name": "amount",
          "type": "uint256"
        },
        {
          "indexed": false,
          "internalType": "uint256",
          "name": "pendingRefund",
          "type": "uint256"
        }
      ],
      "name": "BalanceUpdated",
      "type": "event"
    },
    {
      "anonymous": false,
      "inputs": [
        {
          "indexed": false,
          "internalType": "address[]",
          "name": "users",
          "type": "address[]"
        },
        {
          "indexed": false,
          "internalType": "uint256[]",
          "name": "balances",
          "type": "uint256[]"
        },
        {
          "indexed": false,
          "internalType": "uint256[]",
          "name": "pendingRefunds",
          "type": "uint256[]"
        }
      ],
      "name": "BatchBalanceUpdated",
      "type": "event"
    },
    {
      "anonymous": false,
      "inputs": [
        {
          "indexed": true,
          "internalType": "address",
          "name": "owner",
          "type": "address"
        },
        {
          "indexed": false,
          "internalType": "uint256",
          "name": "lockTime",
          "type": "uint256"
        },
        {
          "indexed": false,
          "internalType": "address",
          "name": "ledgerAddress",
          "type": "address"
        }
      ],
      "name": "ContractInitialized",
      "type": "event"
    },
    {
      "anonymous": false,
      "inputs": [
        {
          "indexed": false,
          "internalType": "uint8",
          "name": "version",
          "type": "uint8"
        }
      ],
      "name": "Initialized",
      "type": "event"
    },
    {
      "anonymous": false,
      "inputs": [
        {
          "indexed": false,
          "internalType": "uint256",
          "name": "oldLockTime",
          "type": "uint256"
        },
        {
          "indexed": false,
          "internalType": "uint256",
          "name": "newLockTime",
          "type": "uint256"
        }
      ],
      "name": "LockTimeUpdated",
      "type": "event"
    },
    {
      "anonymous": false,
      "inputs": [
        {
          "indexed": true,
          "internalType": "address",
          "name": "previousOwner",
          "type": "address"
        },
        {
          "indexed": true,
          "internalType": "address",
          "name": "newOwner",
          "type": "address"
        }
      ],
      "name": "OwnershipTransferred",
      "type": "event"
    },
    {
      "anonymous": false,
      "inputs": [
        {
          "indexed": true,
          "internalType": "address",
          "name": "provider",
          "type": "address"
        },
        {
          "indexed": false,
          "internalType": "uint256",
          "name": "amount",
          "type": "uint256"
        }
      ],
      "name": "ProviderStakeReturned",
      "type": "event"
    },
    {
      "anonymous": false,
      "inputs": [
        {
          "indexed": true,
          "internalType": "address",
          "name": "provider",
          "type": "address"
        },
        {
          "indexed": false,
          "internalType": "uint256",
          "name": "amount",
          "type": "uint256"
        }
      ],
      "name": "ProviderStaked",
      "type": "event"
    },
    {
      "anonymous": false,
      "inputs": [
        {
          "indexed": true,
          "internalType": "address",
          "name": "provider",
          "type": "address"
        },
        {
          "indexed": true,
          "internalType": "address",
          "name": "teeSignerAddress",
          "type": "address"
        },
        {
          "indexed": false,
          "internalType": "bool",
          "name": "acknowledged",
          "type": "bool"
        }
      ],
      "name": "ProviderTEESignerAcknowledged",
      "type": "event"
    },
    {
      "anonymous": false,
      "inputs": [
        {
          "indexed": true,
          "internalType": "address",
          "name": "user",
          "type": "address"
        },
        {
          "indexed": true,
          "internalType": "address",
          "name": "provider",
          "type": "address"
        },
        {
          "indexed": true,
          "internalType": "uint256",
          "name": "index",
          "type": "uint256"
        },
        {
          "indexed": false,
          "internalType": "uint256",
          "name": "timestamp",
          "type": "uint256"
        }
      ],
      "name": "RefundRequested",
      "type": "event"
    },
    {
      "anonymous": false,
      "inputs": [
        {
          "indexed": true,
          "internalType": "address",
          "name": "user",
          "type": "address"
        },
        {
          "indexed": true,
          "internalType": "address",
          "name": "provider",
          "type": "address"
        },
        {
          "indexed": false,
          "internalType": "uint256",
          "name": "migratedCount",
          "type": "uint256"
        },
        {
          "indexed": false,
          "internalType": "uint256",
          "name": "newValidLength",
          "type": "uint256"
        }
      ],
      "name": "RefundsMigrated",
      "type": "event"
    },
    {
      "anonymous": false,
      "inputs": [
        {
          "indexed": true,
          "internalType": "address",
          "name": "service",
          "type": "address"
        }
      ],
      "name": "ServiceRemoved",
      "type": "event"
    },
    {
      "anonymous": false,
      "inputs": [
        {
          "indexed": true,
          "internalType": "address",
          "name": "service",
          "type": "address"
        },
        {
          "indexed": false,
          "internalType": "string",
          "name": "serviceType",
          "type": "string"
        },
        {
          "indexed": false,
          "internalType": "string",
          "name": "url",
          "type": "string"
        },
        {
          "indexed": false,
          "internalType": "uint256",
          "name": "inputPrice",
          "type": "uint256"
        },
        {
          "indexed": false,
          "internalType": "uint256",
          "name": "outputPrice",
          "type": "uint256"
        },
        {
          "indexed": false,
          "internalType": "uint256",
          "name": "updatedAt",
          "type": "uint256"
        },
        {
          "indexed": false,
          "internalType": "string",
          "name": "model",
          "type": "string"
        },
        {
          "indexed": false,
          "internalType": "string",
          "name": "verifiability",
          "type": "string"
        }
      ],
      "name": "ServiceUpdated",
      "type": "event"
    },
    {
      "anonymous": false,
      "inputs": [
        {
          "indexed": true,
          "internalType": "address",
          "name": "user",
          "type": "address"
        },
        {
          "indexed": false,
          "internalType": "enum SettlementStatus",
          "name": "status",
          "type": "uint8"
        },
        {
          "indexed": false,
          "internalType": "uint256",
          "name": "unsettledAmount",
          "type": "uint256"
        }
      ],
      "name": "TEESettlementResult",
      "type": "event"
    },
    {
      "anonymous": false,
      "inputs": [
        {
          "indexed": true,
          "internalType": "address",
          "name": "user",
          "type": "address"
        },
        {
          "indexed": true,
          "internalType": "address",
          "name": "provider",
          "type": "address"
        },
        {
          "indexed": false,
          "internalType": "uint8",
          "name": "tokenId",
          "type": "uint8"
        }
      ],
      "name": "TokenRevoked",
      "type": "event"
    },
    {
      "anonymous": false,
      "inputs": [
        {
          "indexed": true,
          "internalType": "address",
          "name": "user",
          "type": "address"
        },
        {
          "indexed": true,
          "internalType": "address",
          "name": "provider",
          "type": "address"
        },
        {
          "indexed": false,
          "internalType": "uint8[]",
          "name": "tokenIds",
          "type": "uint8[]"
        }
      ],
      "name": "TokensRevoked",
      "type": "event"
    },
    {
      "inputs": [],
      "name": "MAX_LOCKTIME",
      "outputs": [
        {
          "internalType": "uint256",
          "name": "",
          "type": "uint256"
        }
      ],
      "stateMutability": "view",
      "type": "function"
    },
    {
      "inputs": [],
      "name": "MIN_LOCKTIME",
      "outputs": [
        {
          "internalType": "uint256",
          "name": "",
          "type": "uint256"
        }
      ],
      "stateMutability": "view",
      "type": "function"
    },
    {
      "inputs": [],
      "name": "MIN_PROVIDER_STAKE",
      "outputs": [
        {
          "internalType": "uint256",
          "name": "",
          "type": "uint256"
        }
      ],
      "stateMutability": "view",
      "type": "function"
    },
    {
      "inputs": [
        {
          "internalType": "address",
          "name": "user",
          "type": "address"
        },
        {
          "internalType": "address",
          "name": "provider",
          "type": "address"
        }
      ],
      "name": "accountExists",
      "outputs": [
        {
          "internalType": "bool",
          "name": "",
          "type": "bool"
        }
      ],
      "stateMutability": "view",
      "type": "function"
    },
    {
      "inputs": [
        {
          "internalType": "address",
          "name": "provider",
          "type": "address"
        },
        {
          "internalType": "bool",
          "name": "acknowledged",
          "type": "bool"
        }
      ],
      "name": "acknowledgeTEESigner",
      "outputs": [],
      "stateMutability": "nonpayable",
      "type": "function"
    },
    {
      "inputs": [
        {
          "internalType": "address",
          "name": "provider",
          "type": "address"
        }
      ],
      "name": "acknowledgeTEESignerByOwner",
      "outputs": [],
      "stateMutability": "nonpayable",
      "type": "function"
    },
    {
      "inputs": [
        {
          "internalType": "address",
          "name": "user",
          "type": "address"
        },
        {
          "internalType": "address",
          "name": "provider",
          "type": "address"
        },
        {
          "internalType": "string",
          "name": "additionalInfo",
          "type": "string"
        }
      ],
      "name": "addAccount",
      "outputs": [],
      "stateMutability": "payable",
      "type": "function"
    },
    {
      "inputs": [
        {
          "components": [
            {
              "internalType": "string",
              "name": "serviceType",
              "type": "string"
            },
            {
              "internalType": "string",
              "name": "url",
              "type": "string"
            },
            {
              "internalType": "string",
              "name": "model",
              "type": "string"
            },
            {
              "internalType": "string",
              "name": "verifiability",
              "type": "string"
            },
            {
              "internalType": "uint256",
              "name": "inputPrice",
              "type": "uint256"
            },
            {
              "internalType": "uint256",
              "name": "outputPrice",
              "type": "uint256"
            },
            {
              "internalType": "string",
              "name": "additionalInfo",
              "type": "string"
            },
            {
              "internalType": "address",
              "name": "teeSignerAddress",
              "type": "address"
            }
          ],
          "internalType": "struct ServiceParams",
          "name": "params",
          "type": "tuple"
        }
      ],
      "name": "addOrUpdateService",
      "outputs": [],
      "stateMutability": "payable",
      "type": "function"
    },
    {
      "inputs": [
        {
          "internalType": "address",
          "name": "user",
          "type": "address"
        },
        {
          "internalType": "address",
          "name": "provider",
          "type": "address"
        }
      ],
      "name": "deleteAccount",
      "outputs": [],
      "stateMutability": "nonpayable",
      "type": "function"
    },
    {
      "inputs": [
        {
          "internalType": "address",
          "name": "user",
          "type": "address"
        },
        {
          "internalType": "address",
          "name": "provider",
          "type": "address"
        },
        {
          "internalType": "uint256",
          "name": "cancelRetrievingAmount",
          "type": "uint256"
        }
      ],
      "name": "depositFund",
      "outputs": [],
      "stateMutability": "payable",
      "type": "function"
    },
    {
      "inputs": [
        {
          "internalType": "address",
          "name": "user",
          "type": "address"
        },
        {
          "internalType": "address",
          "name": "provider",
          "type": "address"
        }
      ],
      "name": "getAccount",
      "outputs": [
        {
          "components": [
            {
              "internalType": "address",
              "name": "user",
              "type": "address"
            },
            {
              "internalType": "address",
              "name": "provider",
              "type": "address"
            },
            {
              "internalType": "uint256",
              "name": "nonce",
              "type": "uint256"
            },
            {
              "internalType": "uint256",
              "name": "balance",
              "type": "uint256"
            },
            {
              "internalType": "uint256",
              "name": "pendingRefund",
              "type": "uint256"
            },
            {
              "components": [
                {
                  "internalType": "uint256",
                  "name": "index",
                  "type": "uint256"
                },
                {
                  "internalType": "uint256",
                  "name": "amount",
                  "type": "uint256"
                },
                {
                  "internalType": "uint256",
                  "name": "createdAt",
                  "type": "uint256"
                },
                {
                  "internalType": "bool",
                  "name": "processed",
                  "type": "bool"
                }
              ],
              "internalType": "struct Refund[]",
              "name": "refunds",
              "type": "tuple[]"
            },
            {
              "internalType": "string",
              "name": "additionalInfo",
              "type": "string"
            },
            {
              "internalType": "bool",
              "name": "acknowledged",
              "type": "bool"
            },
            {
              "internalType": "uint256",
              "name": "validRefundsLength",
              "type": "uint256"
            },
            {
              "internalType": "uint256",
              "name": "generation",
              "type": "uint256"
            },
            {
              "internalType": "uint256",
              "name": "revokedBitmap",
              "type": "uint256"
            }
          ],
          "internalType": "struct Account",
          "name": "",
          "type": "tuple"
        }
      ],
      "stateMutability": "view",
      "type": "function"
    },
    {
      "inputs": [
        {
          "internalType": "address",
          "name": "provider",
          "type": "address"
        },
        {
          "internalType": "uint256",
          "name": "offset",
          "type": "uint256"
        },
        {
          "internalType": "uint256",
          "name": "limit",
          "type": "uint256"
        }
      ],
      "name": "getAccountsByProvider",
      "outputs": [
        {
          "components": [
            {
              "internalType": "address",
              "name": "user",
              "type": "address"
            },
            {
              "internalType": "address",
              "name": "provider",
              "type": "address"
            },
            {
              "internalType": "uint256",
              "name": "nonce",
              "type": "uint256"
            },
            {
              "internalType": "uint256",
              "name": "balance",
              "type": "uint256"
            },
            {
              "internalType": "uint256",
              "name": "pendingRefund",
              "type": "uint256"
            },
            {
              "components": [
                {
                  "internalType": "uint256",
                  "name": "index",
                  "type": "uint256"
                },
                {
                  "internalType": "uint256",
                  "name": "amount",
                  "type": "uint256"
                },
                {
                  "internalType": "uint256",
                  "name": "createdAt",
                  "type": "uint256"
                },
                {
                  "internalType": "bool",
                  "name": "processed",
                  "type": "bool"
                }
              ],
              "internalType": "struct Refund[]",
              "name": "refunds",
              "type": "tuple[]"
            },
            {
              "internalType": "string",
              "name": "additionalInfo",
              "type": "string"
            },
            {
              "internalType": "bool",
              "name": "acknowledged",
              "type": "bool"
            },
            {
              "internalType": "uint256",
              "name": "validRefundsLength",
              "type": "uint256"
            },
            {
              "internalType": "uint256",
              "name": "generation",
              "type": "uint256"
            },
            {
              "internalType": "uint256",
              "name": "revokedBitmap",
              "type": "uint256"
            }
          ],
          "internalType": "struct Account[]",
          "name": "accounts",
          "type": "tuple[]"
        },
        {
          "internalType": "uint256",
          "name": "total",
          "type": "uint256"
        }
      ],
      "stateMutability": "view",
      "type": "function"
    },
    {
      "inputs": [
        {
          "internalType": "address",
          "name": "user",
          "type": "address"
        },
        {
          "internalType": "uint256",
          "name": "offset",
          "type": "uint256"
        },
        {
          "internalType": "uint256",
          "name": "limit",
          "type": "uint256"
        }
      ],
      "name": "getAccountsByUser",
      "outputs": [
        {
          "components": [
            {
              "internalType": "address",
              "name": "user",
              "type": "address"
            },
            {
              "internalType": "address",
              "name": "provider",
              "type": "address"
            },
            {
              "internalType": "uint256",
              "name": "nonce",
              "type": "uint256"
            },
            {
              "internalType": "uint256",
              "name": "balance",
              "type": "uint256"
            },
            {
              "internalType": "uint256",
              "name": "pendingRefund",
              "type": "uint256"
            },
            {
              "components": [
                {
                  "internalType": "uint256",
                  "name": "index",
                  "type": "uint256"
                },
                {
                  "internalType": "uint256",
                  "name": "amount",
                  "type": "uint256"
                },
                {
                  "internalType": "uint256",
                  "name": "createdAt",
                  "type": "uint256"
                },
                {
                  "internalType": "bool",
                  "name": "processed",
                  "type": "bool"
                }
              ],
              "internalType": "struct Refund[]",
              "name": "refunds",
              "type": "tuple[]"
            },
            {
              "internalType": "string",
              "name": "additionalInfo",
              "type": "string"
            },
            {
              "internalType": "bool",
              "name": "acknowledged",
              "type": "bool"
            },
            {
              "internalType": "uint256",
              "name": "validRefundsLength",
              "type": "uint256"
            },
            {
              "internalType": "uint256",
              "name": "generation",
              "type": "uint256"
            },
            {
              "internalType": "uint256",
              "name": "revokedBitmap",
              "type": "uint256"
            }
          ],
          "internalType": "struct Account[]",
          "name": "accounts",
          "type": "tuple[]"
        },
        {
          "internalType": "uint256",
          "name": "total",
          "type": "uint256"
        }
      ],
      "stateMutability": "view",
      "type": "function"
    },
    {
      "inputs": [
        {
          "internalType": "uint256",
          "name": "offset",
          "type": "uint256"
        },
        {
          "internalType": "uint256",
          "name": "limit",
          "type": "uint256"
        }
      ],
      "name": "getAllAccounts",
      "outputs": [
        {
          "components": [
            {
              "internalType": "address",
              "name": "user",
              "type": "address"
            },
            {
              "internalType": "address",
              "name": "provider",
              "type": "address"
            },
            {
              "internalType": "uint256",
              "name": "nonce",
              "type": "uint256"
            },
            {
              "internalType": "uint256",
              "name": "balance",
              "type": "uint256"
            },
            {
              "internalType": "uint256",
              "name": "pendingRefund",
              "type": "uint256"
            },
            {
              "components": [
                {
                  "internalType": "uint256",
                  "name": "index",
                  "type": "uint256"
                },
                {
                  "internalType": "uint256",
                  "name": "amount",
                  "type": "uint256"
                },
                {
                  "internalType": "uint256",
                  "name": "createdAt",
                  "type": "uint256"
                },
                {
                  "internalType": "bool",
                  "name": "processed",
                  "type": "bool"
                }
              ],
              "internalType": "struct Refund[]",
              "name": "refunds",
              "type": "tuple[]"
            },
            {
              "internalType": "string",
              "name": "additionalInfo",
              "type": "string"
            },
            {
              "internalType": "bool",
              "name": "acknowledged",
              "type": "bool"
            },
            {
              "internalType": "uint256",
              "name": "validRefundsLength",
              "type": "uint256"
            },
            {
              "internalType": "uint256",
              "name": "generation",
              "type": "uint256"
            },
            {
              "internalType": "uint256",
              "name": "revokedBitmap",
              "type": "uint256"
            }
          ],
          "internalType": "struct Account[]",
          "name": "accounts",
          "type": "tuple[]"
        },
        {
          "internalType": "uint256",
          "name": "total",
          "type": "uint256"
        }
      ],
      "stateMutability": "view",
      "type": "function"
    },
    {
      "inputs": [
        {
          "internalType": "uint256",
          "name": "offset",
          "type": "uint256"
        },
        {
          "internalType": "uint256",
          "name": "limit",
          "type": "uint256"
        }
      ],
      "name": "getAllServices",
      "outputs": [
        {
          "components": [
            {
              "internalType": "address",
              "name": "provider",
              "type": "address"
            },
            {
              "internalType": "string",
              "name": "serviceType",
              "type": "string"
            },
            {
              "internalType": "string",
              "name": "url",
              "type": "string"
            },
            {
              "internalType": "uint256",
              "name": "inputPrice",
              "type": "uint256"
            },
            {
              "internalType": "uint256",
              "name": "outputPrice",
              "type": "uint256"
            },
            {
              "internalType": "uint256",
              "name": "updatedAt",
              "type": "uint256"
            },
            {
              "internalType": "string",
              "name": "model",
              "type": "string"
            },
            {
              "internalType": "string",
              "name": "verifiability",
              "type": "string"
            },
            {
              "internalType": "string",
              "name": "additionalInfo",
              "type": "string"
            },
            {
              "internalType": "address",
              "name": "teeSignerAddress",
              "type": "address"
            },
            {
              "internalType": "bool",
              "name": "teeSignerAcknowledged",
              "type": "bool"
            }
          ],
          "internalType": "struct Service[]",
          "name": "services",
          "type": "tuple[]"
        },
        {
          "internalType": "uint256",
          "name": "total",
          "type": "uint256"
        }
      ],
      "stateMutability": "view",
      "type": "function"
    },
    {
      "inputs": [
        {
          "internalType": "address[]",
          "name": "users",
          "type": "address[]"
        }
      ],
      "name": "getBatchAccountsByUsers",
      "outputs": [
        {
          "components": [
            {
              "internalType": "address",
              "name": "user",
              "type": "address"
            },
            {
              "internalType": "address",
              "name": "provider",
              "type": "address"
            },
            {
              "internalType": "uint256",
              "name": "nonce",
              "type": "uint256"
            },
            {
              "internalType": "uint256",
              "name": "balance",
              "type": "uint256"
            },
            {
              "internalType": "uint256",
              "name": "pendingRefund",
              "type": "uint256"
            },
            {
              "components": [
                {
                  "internalType": "uint256",
                  "name": "index",
                  "type": "uint256"
                },
                {
                  "internalType": "uint256",
                  "name": "amount",
                  "type": "uint256"
                },
                {
                  "internalType": "uint256",
                  "name": "createdAt",
                  "type": "uint256"
                },
                {
                  "internalType": "bool",
                  "name": "processed",
                  "type": "bool"
                }
              ],
              "internalType": "struct Refund[]",
              "name": "refunds",
              "type": "tuple[]"
            },
            {
              "internalType": "string",
              "name": "additionalInfo",
              "type": "string"
            },
            {
              "internalType": "bool",
              "name": "acknowledged",
              "type": "bool"
            },
            {
              "internalType": "uint256",
              "name": "validRefundsLength",
              "type": "uint256"
            },
            {
              "internalType": "uint256",
              "name": "generation",
              "type": "uint256"
            },
            {
              "internalType": "uint256",
              "name": "revokedBitmap",
              "type": "uint256"
            }
          ],
          "internalType": "struct Account[]",
          "name": "accounts",
          "type": "tuple[]"
        }
      ],
      "stateMutability": "view",
      "type": "function"
    },
    {
      "inputs": [
        {
          "internalType": "address",
          "name": "user",
          "type": "address"
        },
        {
          "internalType": "address",
          "name": "provider",
          "type": "address"
        }
      ],
      "name": "getPendingRefund",
      "outputs": [
        {
          "internalType": "uint256",
          "name": "",
          "type": "uint256"
        }
      ],
      "stateMutability": "view",
      "type": "function"
    },
    {
      "inputs": [
        {
          "internalType": "address",
          "name": "provider",
          "type": "address"
        }
      ],
      "name": "getService",
      "outputs": [
        {
          "components": [
            {
              "internalType": "address",
              "name": "provider",
              "type": "address"
            },
            {
              "internalType": "string",
              "name": "serviceType",
              "type": "string"
            },
            {
              "internalType": "string",
              "name": "url",
              "type": "string"
            },
            {
              "internalType": "uint256",
              "name": "inputPrice",
              "type": "uint256"
            },
            {
              "internalType": "uint256",
              "name": "outputPrice",
              "type": "uint256"
            },
            {
              "internalType": "uint256",
              "name": "updatedAt",
              "type": "uint256"
            },
            {
              "internalType": "string",
              "name": "model",
              "type": "string"
            },
            {
              "internalType": "string",
              "name": "verifiability",
              "type": "string"
            },
            {
              "internalType": "string",
              "name": "additionalInfo",
              "type": "string"
            },
            {
              "internalType": "address",
              "name": "teeSignerAddress",
              "type": "address"
            },
            {
              "internalType": "bool",
              "name": "teeSignerAcknowledged",
              "type": "bool"
            }
          ],
          "internalType": "struct Service",
          "name": "service",
          "type": "tuple"
        }
      ],
      "stateMutability": "view",
      "type": "function"
    },
    {
      "inputs": [
        {
          "internalType": "uint256",
          "name": "_locktime",
          "type": "uint256"
        },
        {
          "internalType": "address",
          "name": "_ledgerAddress",
          "type": "address"
        },
        {
          "internalType": "address",
          "name": "owner",
          "type": "address"
        }
      ],
      "name": "initialize",
      "outputs": [],
      "stateMutability": "nonpayable",
      "type": "function"
    },
    {
      "inputs": [],
      "name": "initialized",
      "outputs": [
        {
          "internalType": "bool",
          "name": "",
          "type": "bool"
        }
      ],
      "stateMutability": "view",
      "type": "function"
    },
    {
      "inputs": [
        {
          "internalType": "address",
          "name": "user",
          "type": "address"
        },
        {
          "internalType": "address",
          "name": "provider",
          "type": "address"
        },
        {
          "internalType": "uint8",
          "name": "tokenId",
          "type": "uint8"
        }
      ],
      "name": "isTokenRevoked",
      "outputs": [
        {
          "internalType": "bool",
          "name": "",
          "type": "bool"
        }
      ],
      "stateMutability": "view",
      "type": "function"
    },
    {
      "inputs": [],
      "name": "ledgerAddress",
      "outputs": [
        {
          "internalType": "address",
          "name": "",
          "type": "address"
        }
      ],
      "stateMutability": "view",
      "type": "function"
    },
    {
      "inputs": [],
      "name": "lockTime",
      "outputs": [
        {
          "internalType": "uint256",
          "name": "",
          "type": "uint256"
        }
      ],
      "stateMutability": "view",
      "type": "function"
    },
    {
      "inputs": [
        {
          "internalType": "address",
          "name": "provider",
          "type": "address"
        },
        {
          "internalType": "uint256",
          "name": "startIndex",
          "type": "uint256"
        },
        {
          "internalType": "uint256",
          "name": "batchSize",
          "type": "uint256"
        }
      ],
      "name": "migrateRefunds",
      "outputs": [
        {
          "internalType": "uint256",
          "name": "cleanedCount",
          "type": "uint256"
        },
        {
          "internalType": "uint256",
          "name": "nextIndex",
          "type": "uint256"
        }
      ],
      "stateMutability": "nonpayable",
      "type": "function"
    },
    {
      "inputs": [],
      "name": "owner",
      "outputs": [
        {
          "internalType": "address",
          "name": "",
          "type": "address"
        }
      ],
      "stateMutability": "view",
      "type": "function"
    },
    {
      "inputs": [
        {
          "components": [
            {
              "internalType": "address",
              "name": "user",
              "type": "address"
            },
            {
              "internalType": "address",
              "name": "provider",
              "type": "address"
            },
            {
              "internalType": "uint256",
              "name": "totalFee",
              "type": "uint256"
            },
            {
              "internalType": "bytes32",
              "name": "requestsHash",
              "type": "bytes32"
            },
            {
              "internalType": "uint256",
              "name": "nonce",
              "type": "uint256"
            },
            {
              "internalType": "bytes",
              "name": "signature",
              "type": "bytes"
            }
          ],
          "internalType": "struct TEESettlementData[]",
          "name": "settlements",
          "type": "tuple[]"
        }
      ],
      "name": "previewSettlementResults",
      "outputs": [
        {
          "internalType": "address[]",
          "name": "failedUsers",
          "type": "address[]"
        },
        {
          "internalType": "enum SettlementStatus[]",
          "name": "failureReasons",
          "type": "uint8[]"
        },
        {
          "internalType": "address[]",
          "name": "partialUsers",
          "type": "address[]"
        },
        {
          "internalType": "uint256[]",
          "name": "partialAmounts",
          "type": "uint256[]"
        }
      ],
      "stateMutability": "view",
      "type": "function"
    },
    {
      "inputs": [
        {
          "internalType": "address",
          "name": "user",
          "type": "address"
        },
        {
          "internalType": "address",
          "name": "provider",
          "type": "address"
        }
      ],
      "name": "processRefund",
      "outputs": [
        {
          "internalType": "uint256",
          "name": "totalAmount",
          "type": "uint256"
        },
        {
          "internalType": "uint256",
          "name": "balance",
          "type": "uint256"
        },
        {
          "internalType": "uint256",
          "name": "pendingRefund",
          "type": "uint256"
        }
      ],
      "stateMutability": "nonpayable",
      "type": "function"
    },
    {
      "inputs": [],
      "name": "removeService",
      "outputs": [],
      "stateMutability": "nonpayable",
      "type": "function"
    },
    {
      "inputs": [],
      "name": "renounceOwnership",
      "outputs": [],
      "stateMutability": "nonpayable",
      "type": "function"
    },
    {
      "inputs": [
        {
          "internalType": "address",
          "name": "user",
          "type": "address"
        },
        {
          "internalType": "address",
          "name": "provider",
          "type": "address"
        }
      ],
      "name": "requestRefundAll",
      "outputs": [],
      "stateMutability": "nonpayable",
      "type": "function"
    },
    {
      "inputs": [
        {
          "internalType": "address",
          "name": "provider",
          "type": "address"
        }
      ],
      "name": "revokeAllTokens",
      "outputs": [],
      "stateMutability": "nonpayable",
      "type": "function"
    },
    {
      "inputs": [
        {
          "internalType": "address",
          "name": "provider",
          "type": "address"
        }
      ],
      "name": "revokeTEESignerAcknowledgement",
      "outputs": [],
      "stateMutability": "nonpayable",
      "type": "function"
    },
    {
      "inputs": [
        {
          "internalType": "address",
          "name": "provider",
          "type": "address"
        },
        {
          "internalType": "uint8",
          "name": "tokenId",
          "type": "uint8"
        }
      ],
      "name": "revokeToken",
      "outputs": [],
      "stateMutability": "nonpayable",
      "type": "function"
    },
    {
      "inputs": [
        {
          "internalType": "address",
          "name": "provider",
          "type": "address"
        },
        {
          "internalType": "uint8[]",
          "name": "tokenIds",
          "type": "uint8[]"
        }
      ],
      "name": "revokeTokens",
      "outputs": [],
      "stateMutability": "nonpayable",
      "type": "function"
    },
    {
      "inputs": [
        {
          "internalType": "address",
          "name": "provider",
          "type": "address"
        }
      ],
      "name": "serviceExists",
      "outputs": [
        {
          "internalType": "bool",
          "name": "",
          "type": "bool"
        }
      ],
      "stateMutability": "view",
      "type": "function"
    },
    {
      "inputs": [
        {
          "components": [
            {
              "internalType": "address",
              "name": "user",
              "type": "address"
            },
            {
              "internalType": "address",
              "name": "provider",
              "type": "address"
            },
            {
              "internalType": "uint256",
              "name": "totalFee",
              "type": "uint256"
            },
            {
              "internalType": "bytes32",
              "name": "requestsHash",
              "type": "bytes32"
            },
            {
              "internalType": "uint256",
              "name": "nonce",
              "type": "uint256"
            },
            {
              "internalType": "bytes",
              "name": "signature",
              "type": "bytes"
            }
          ],
          "internalType": "struct TEESettlementData[]",
          "name": "settlements",
          "type": "tuple[]"
        }
      ],
      "name": "settleFeesWithTEE",
      "outputs": [
        {
          "internalType": "uint8[]",
          "name": "statuses",
          "type": "uint8[]"
        }
      ],
      "stateMutability": "nonpayable",
      "type": "function"
    },
    {
      "inputs": [
        {
          "internalType": "bytes4",
          "name": "interfaceId",
          "type": "bytes4"
        }
      ],
      "name": "supportsInterface",
      "outputs": [
        {
          "internalType": "bool",
          "name": "",
          "type": "bool"
        }
      ],
      "stateMutability": "view",
      "type": "function"
    },
    {
      "inputs": [
        {
          "internalType": "address",
          "name": "newOwner",
          "type": "address"
        }
      ],
      "name": "transferOwnership",
      "outputs": [],
      "stateMutability": "nonpayable",
      "type": "function"
    },
    {
      "inputs": [
        {
          "internalType": "uint256",
          "name": "_locktime",
          "type": "uint256"
        }
      ],
      "name": "updateLockTime",
      "outputs": [],
      "stateMutability": "nonpayable",
      "type": "function"
    },
    {
      "stateMutability": "payable",
      "type": "receive"
    }
  ],
  "transactionHash": "0xd19f276e00ef811d4e06151bb7e56f5ccaf76e30cd3ef102f8dd8f036f2db518",
  "args": [],
  "numDeployments": 7,
  "solcInputHash": "ed2c8a27515db2eddee097d8497dbb69",
  "bytecode": "0x60808060405234620000c45760008054336001600160a01b031982168117808455919260ff9291906001600160a01b038516907f8be0079c531659141344cd1fd0a4f28419497f9722a3daafe3b4186f6b6457e09080a36001805560a81c161562000075575b604051614d369081620000ca8239f35b600161ff0160a01b0319163360ff60a81b191617600160a81b1760005560ff81527f7f26b83ff96e1f2b6a682f133852f6798a09c465da95921460cefb384740249890602090a1388062000065565b600080fdfe6080604052600436101561001e575b361561001957600080fd5b61272c565b60003560e01c806301ffc9a71461028e5780630a2a8f88146102895780630d66808714610284578063147500e31461027f578063158ef93e1461027a57806315a523021461027557806317c30a03146102705780631d07cb971461026b5780631d73b9f514610266578063264173d61461026157806328b604761461025c578063398c8e4e146102575780633ea527cb14610252578063405a85e81461024d5780634e3c4f22146102485780634fe63f4d146102435780635bd7ace21461023e578063650190e7146102395780636c79158d14610234578063715018a61461022f578063745e87f71461022a5780637ff6fc1c146102255780638be74119146102205780638da5cb5b1461021b5780639721672514610216578063a09cfca914610211578063ad6dca3f1461020c578063b2394d0914610207578063b4988fd014610202578063ba16a750146101fd578063bbee42d9146101f8578063cab33d8f146101f3578063d1d20056146101ee578063ddf96abd146101e9578063e50688f9146101e4578063f2fde38b146101df578063fbfa4e11146101da578063fd111abe146101d55763fd5908470361000e57612042565b611f87565b611ed8565b611e47565b611d01565b611b4e565b611b18565b611a9d565b6119bd565b6118ec565b611746565b6116b7565b61169a565b6115e8565b61157c565b611553565b6113c8565b6112e9565b6111c5565b611167565b61102e565b61100a565b610fa1565b610f60565b610e76565b610e21565b610e03565b610c8b565b610b12565b6109a8565b610937565b61072b565b610629565b610507565b6103cd565b6103ac565b610359565b6102fa565b346102e45760203660031901126102e45760043563ffffffff60e01b81168091036102e45760209063160841b160e01b81149081156102d3575b506040519015158152f35b6301ffc9a760e01b149050386102c8565b600080fd5b6001600160a01b038116036102e457565b346102e45760203660031901126102e457602061034461032460043561031f816102e9565b613e44565b600052600080516020614cc1833981519152602052604060002054151590565b6040519015158152f35b60009103126102e457565b346102e45760003660031901126102e4576020600080516020614c6183398151915254604051908152f35b60409060031901126102e45760043561039c816102e9565b906024356103a9816102e9565b90565b346102e45760206103446103c86103c236610384565b90613e6c565b614b3e565b346102e45760003660031901126102e457602060ff60005460a01c166040519015158152f35b919082519283825260005b84811061041f575050826000602080949584010152601f8019910116010190565b6020818301810151848301820152016103fe565b80516001600160a01b03168252906103a9906104d36104bf6104ad61047d61046b6101606020890151908060208901528701906103f3565b604088015186820360408801526103f3565b606087015160608601526080870151608086015260a087015160a086015260c087015185820360c08701526103f3565b60e086015184820360e08601526103f3565b6101008086015190848303908501526103f3565b610120808501516001600160a01b03169083015292610140908101511515910152565b9060206103a9928181520190610433565b346102e45760203660031901126102e4576105f561053860043561052a816102e9565b610532612114565b50613e97565b6105e960ff6009610547611c93565b84546001600160a01b0316815293610561600182016121a1565b6020860152610572600282016121a1565b60408601526003810154606086015260048101546080860152600581015460a08601526105a1600682016121a1565b60c08601526105b2600782016121a1565b60e08601526105c3600882016121a1565b61010086015201546001600160a01b03811661012085015260a01c161515610140830152565b604051918291826104f6565b0390f35b9181601f840112156102e4578235916001600160401b0383116102e4576020808501948460051b0101116102e457565b346102e45760403660031901126102e457600435610646816102e9565b6024356001600160401b0381116102e4576106659036906004016105f9565b916106708133613edc565b600a0160005b8481106106f8575050604051926020908060208601602087525260408501939160005b8281106106d3576001600160a01b038516337f70147140547b3e1660123a6725577c5574b4d40747abe6ff7c458f449e18b84f8989038aa3005b90919294828060019260ff89356106e981610720565b16815201960193929101610699565b80600160ff6107098294898961273e565b3561071381610720565b161b835417835501610676565b60ff8116036102e457565b346102e45760403660031901126102e457600435610748816102e9565b6024359061075582610720565b600a60ff6107638333613edc565b931692016001831b815417905560405191825260018060a01b0316907fcf558f061a5a4e28657b8e5c662b95b8258d880896e7a859299457be036ed4a460203392a3005b60609060031901126102e4576004356107bf816102e9565b906024359060443590565b90815180825260208080930193019160005b8281106107ea575050505090565b835180518652808301518684015260408082015190870152606090810151151590860152608090940193928101926001016107dc565b80516001600160a01b031682529061088e61087c6101606020858101516001600160a01b03169085015260408501516040850152606085015160608501526080850151608085015260a0850151908060a08601528401906107ca565b60c084015183820360c08501526103f3565b60e08084015115159083015291610100808201519083015261012080820151908301526101408091015191015290565b90808251908181526020809101926020808460051b8301019501936000915b8483106108ed5750505050505090565b909192939495848061090b600193601f198682030187528a51610820565b98019301930191949392906108dd565b9291906109326020916040865260408601906108be565b930152565b346102e457610945366107a7565b9190821580158061099e575b61097e5761096893901561097857506032916127b1565b906105f56040519283928361091b565b916127b1565b60405163062ba4db60e01b81526004810185905260326024820152604490fd5b5060328411610951565b346102e457602060046109c36109bd36610384565b90613edc565b0154604051908152f35b60206003198201126102e457600435906001600160401b0382116102e4576109f7916004016105f9565b9091565b90815180825260208080930193019160005b828110610a1b575050505090565b83516001600160a01b031685529381019392810192600101610a0d565b634e487b7160e01b600052602160045260246000fd5b60061115610a5857565b610a38565b906006821015610a585752565b9190610a7e906080845260808401906109fb565b926020938381038585015284808451928381520193019060005b818110610aee5750505090610ab49183820360408501526109fb565b90606081830391015281808451928381520193019160005b828110610ada575050505090565b835185529381019392810192600101610acc565b909193868082610b04600194899b9a9b51610a5d565b979897019501929101610a98565b346102e457610b20366109cd565b8015610c795760328111610c5857610b3781612325565b610b4082612325565b91610b4a81612325565b610b5382612325565b9160008091815b818110610b7e57505080855285528082528252604051945084936105f59385610a6a565b610b8981838b61236d565b9233610ba6610b9a60208701612394565b6001600160a01b031690565b03610c3657610bb4846128c3565b610bbf829392610a4e565b8215610c2a57610bce83610a4e565b60018314610bff575060019291610bf991610bf1610beb826123b4565b97612394565b908c8c6128a9565b01610b5a565b600193925086610c1d610c17610c25949899926123b4565b98612394565b908a8a612a03565b610bf9565b50935050600190610bf9565b90610c2582610c50610c4a600195926123b4565b96612394565b908b8b612882565b60405163f1c82a5760e01b8152600481019190915260326024820152604490fd5b60405163192912c960e01b8152600490fd5b6003196020368201126102e4576004356001600160401b0381116102e457610100816004019282360301126102e457610cc3336123c8565b5415610d6c5734610d5a577f30ecc203691b2d18e17ee75d47caf34a3fb9f86e855f7e0414d3cec26d0c424b905b610cfb8333612b6b565b610d37610d55610d0b8580612473565b9093610d1a6024820188612473565b949097610d2a6044840182612473565b9290916064850190612473565b949093604051988998339c4294608460a4860135950135938c6124c6565b0390a2005b6040516396ab6ec560e01b8152600490fd5b68056bc75e2d631000003410610ddc577f30ecc203691b2d18e17ee75d47caf34a3fb9f86e855f7e0414d3cec26d0c424b9034610da8336123c8565b5560405134815233907fcd6dbb0e62eeb71e114bae8b2e2547921dd19209bebf32b595be3e7d247dbbb490602090a2610cf1565b6040516322df051360e11b815234600482015268056bc75e2d631000006024820152604490fd5b346102e45760003660031901126102e457602060405162093a808152f35b346102e45760603660031901126102e4576020600435610e40816102e9565b600a610e63602435610e51816102e9565b60443593610e5e85610720565b613edc565b0154600160ff60405193161b1615158152f35b346102e457610e8436610384565b600080516020614c01833981519152546001600160a01b03929083163303610f4857610ec0600080516020614c61833981519152548383612f51565b929193909484610eef575b5050506105f590604051938493846040919493926060820195825260208201520152565b60408051878152602081018690529282169390911691600080516020614c218339815191529190a3600080808085335af1610f28612524565b5015610f3657388080610ecb565b6040516312171d8360e31b8152600490fd5b6040516352446b8760e01b8152336004820152602490fd5b346102e457610f6e366107a7565b91908215801580610f97575b61097e57610968939015610f915750603291613043565b91613043565b5060328411610f7a565b346102e45760403660031901126102e4576024358015801580611000575b610fe05715610fd7575061096860325b6004356130da565b61096890610fcf565b60405163062ba4db60e01b81526004810183905260326024820152604490fd5b5060328211610fbf565b346102e45760003660031901126102e457602060405168056bc75e2d631000008152f35b346102e45761103c36610384565b600080516020614c01833981519152546001600160a01b0392919083163303610f485761106981836131e6565b6110738183613edc565b61107b611c93565b81546001600160a01b0316815260018201546001600160a01b031660208201526002820154604082015260038201546060820152600482015460808201526110c560058301612554565b60a08201526110d6600683016121a1565b60c08201526110f56110ec600784015460ff1690565b151560e0830152565b610140600a60088401549384610100850152600981015461012085015201549101528061111e57005b6111487f54377dfdebf06f6df53fbda737d2dcd7e141f95bbfb0c1223437e856b9de3ac391612681565b938060405193169316918061116242829190602083019252565b0390a4005b346102e4576000806003193601126111c2576111816132d4565b80546001600160a01b03198116825581906001600160a01b03167f8be0079c531659141344cd1fd0a4f28419497f9722a3daafe3b4186f6b6457e08280a380f35b80fd5b60603660031901126102e4576004356111dd816102e9565b6024356111e9816102e9565b600080516020614c01833981519152546001600160a01b03919082163303610f48578183169182156112c85781169283156112a75783831461129557600080516020614c2183398151915291611243346044358385613380565b92909161126461126060076112588486613edc565b015460ff1690565b1590565b611285575b505060408051918252602082019290925290819081015b0390a3005b61128e91613487565b3880611269565b60405163133db0fb60e31b8152600490fd5b604051634726455360e11b81526001600160a01b0383166004820152602490fd5b604051634726455360e11b81526001600160a01b0385166004820152602490fd5b346102e45760403660031901126102e457600435611306816102e9565b6024358015801582036102e45761131d8333613edc565b600781019160ff8354169081611381575b50611347575b815460ff191660ff84151516178255005b005b600301549283156113345760405163faa2387760e01b81523360048201526001600160a01b03909116602482015260448101849052606490fd5b90503861132e565b602090602060408183019282815285518094520193019160005b8281106113b1575050505090565b835160ff16855293810193928101926001016113a3565b346102e4576113d6366109cd565b6113de6134fa565b8015610c795760328111610c58576113f581612325565b9160009160005b8181106114425750505080611425575b6105f58261141960018055565b60405191829182611389565b600080808093335af1611436612524565b5015610f36573861140c565b8461144e82848661236d565b943361145f610b9a60208901612394565b036114e3577f1f69e5b87fd0ce34b3760ba6e5d8aa95a36e316c3ba44e1e65a9d0eb9e96d0bf83926114c9610b9a6114c36001976114b6966114be6114a38e613550565b94829b91996114b184610a4e565b61269d565b9060ff169052565b6126ca565b99612394565b926114d9604051928392836126b1565b0390a25b016113fc565b946114fa6114f4846001959461269d565b60029052565b7f1f69e5b87fd0ce34b3760ba6e5d8aa95a36e316c3ba44e1e65a9d0eb9e96d0bf61152482612394565b60409061154b8251928392888060a01b031695013582919060206040840193600281520152565b0390a26114dd565b346102e45760003660031901126102e4576000546040516001600160a01b039091168152602090f35b346102e45761158a36610384565b600080516020614c01833981519152546001600160a01b039081163303610f48576020817f342d961f860d5b1c27877a790eff2b213c020d1955a4903d6a9bf3ed590b7cd7926115da8587613777565b9460405195865216941692a3005b346102e45760403660031901126102e4576024358015801580611690575b610fe05715611687575061161e60325b60043561387b565b906040519060408201926040835281518094526060830160608560051b850101926020809101916000905b87821061165d578680878760208301520390f35b909192948380611679600193605f198b82030186528951610433565b970192019201909291611649565b61161e90611616565b5060328211611606565b346102e45760003660031901126102e4576020604051610e108152f35b346102e45760203660031901126102e45760096004356116d6816102e9565b6116de6132d4565b7f4909107c46469d21135443e891c6ecae55b5baa31b338d50f391935308b08f89602061170a83613e97565b8461171485613e97565b01805460ff60a01b1916600160a01b17905590930154604051600181526001600160a01b0391821694939091169290a3005b346102e45760603660031901126102e457602435600435611766826102e9565b60443591611773836102e9565b60005460ff8160a01c1680156118ce575b6118bd5760ff60a01b1916600160a01b176000556117a18361332c565b610e109283831080156118b1575b61188a57907f9e1c480deaf2caaa9170098a3275b53d208beaeb277601363025975cf8274eb6916117ec84600080516020614c6183398151915255565b600080516020614c0183398151915280546001600160a01b039384166001600160a01b031991821681179092557fdfd123095cdedb1cecbc229b30f7cf8745fb3d3951645ac4a8fa4c0895f89502805490911682179055604080519586526020860191909152911692a2604051600181527f7f26b83ff96e1f2b6a682f133852f6798a09c465da95921460cefb38474024989080602081015b0390a1005b60648385604051916329cc3d9d60e21b83526004830152602482015262093a806044820152fd5b5062093a8083116117af565b60405162dc149f60e41b8152600490fd5b5060ff8160a81c16611784565b9060206103a99281815201906108be565b346102e4576118fa366109cd565b6101f48082116119a0575061190e81612761565b9160005b82811061192757604051806105f586826118db565b6001906119463361194161193c84888861273e565b612394565b613e6c565b61194f81614b3e565b61195b575b5001611912565b61197f61198491600052600080516020614c41833981519152602052604060002090565b6125db565b61198e828761269d565b52611999818661269d565b5038611954565b604492506040519162ef8cfb60e11b835260048301526024820152fd5b346102e4576000806003193601126111c2576119d76134fa565b6119e03361391e565b806119ea336123c8565b548015611a715781808092816119ff336123c8565b5560405181815233907f17f7db034d4b59fadec3e44a684cb4396ca10fd036c4e4f718bf06e99371588290602090a2337f29d546abb6e94f4f04d5bdccb6682316f597d43776078f47e273f000e77b2a918380a2335af1611a5e612524565b5015610f36575b611a6e60018055565b80f35b5050337f29d546abb6e94f4f04d5bdccb6682316f597d43776078f47e273f000e77b2a918280a2611a65565b346102e45760203660031901126102e457600435611aba816102e9565b611ac48133613edc565b906000600a6009840193611ad885546123b4565b9485905501556040519182526001600160a01b03169033907f989726e0ba0fa7747d8a6618329b929bfcc4f3ac46de5930a368310944f7554790602090a3005b346102e45760003660031901126102e457600080516020614c01833981519152546040516001600160a01b039091168152602090f35b346102e45760203660031901126102e4576009600435611b6d816102e9565b611b756132d4565b7f4909107c46469d21135443e891c6ecae55b5baa31b338d50f391935308b08f896020611ba183613e97565b84611bab85613e97565b01805460ff60a01b1916905590930154604051600081526001600160a01b0391821694939091169290a3005b634e487b7160e01b600052604160045260246000fd5b61016081019081106001600160401b03821117611c0957604052565b611bd7565b608081019081106001600160401b03821117611c0957604052565b6001600160401b038111611c0957604052565b602081019081106001600160401b03821117611c0957604052565b604081019081106001600160401b03821117611c0957604052565b90601f801991011681019081106001600160401b03821117611c0957604052565b60405190611ca082611bed565b565b60405190611ca082611c0e565b6001600160401b038111611c0957601f01601f191660200190565b929192611cd682611caf565b91611ce46040519384611c72565b8294818452818301116102e4578281602093846000960137010152565b60603660031901126102e45760048035611d1a816102e9565b602435611d26816102e9565b6044356001600160401b0381116102e457366023820112156102e457611d559036906024818701359101611cca565b600080516020614c01833981519152546001600160a01b0393919084163303611e3057838216938415611e0a578316948515611de357858514611dd4575090611dbb611db3600080516020614c2183398151915294933485856139ed565b939092613487565b6040805191825260208201929092529081908101611280565b60405163133db0fb60e31b8152fd5b604051634726455360e11b81526001600160a01b0385169181019182529081906020010390fd5b604051634726455360e11b81526001600160a01b03841681880190815281906020010390fd5b6040516352446b8760e01b81523381870152602490fd5b346102e45760203660031901126102e457600435611e64816102e9565b611e6c6132d4565b6001600160a01b03811615611e84576113459061332c565b60405162461bcd60e51b815260206004820152602660248201527f4f776e61626c653a206e6577206f776e657220697320746865207a65726f206160448201526564647265737360d01b6064820152608490fd5b346102e45760203660031901126102e457600435611ef46132d4565b610e10908181108015611f7b575b611f5557600080516020614c618339815191528054908290556040805191825260208201929092527f5707a70527b6cbb892bfe5d8739a8f0643d3212d9b1139bc31c742e731c652709181908101611885565b606491604051916329cc3d9d60e21b83526004830152602482015262093a806044820152fd5b5062093a808111611f02565b346102e457611faa611f98366107a7565b90611fa49392936132d4565b83613bce565b91929460005b858110611fc7576040805187815260208101899052f35b6001906001600160a01b0380611fdd838961269d565b51167f669bb60970f3863024eba6252b945f647b38a93e60648e56e35351b0ee80ca4861200a848861269d565b5192612016858a61269d565b5160408051958652602086019190915290871693a301611fb0565b9060206103a9928181520190610820565b346102e4576105f561206561205636610384565b9061205f6126d7565b50613edc565b600a61206f611c93565b82546001600160a01b031681529160018101546001600160a01b031660208401526002810154604084015260038101546060840152600481015460808401526120ba60058201612554565b60a08401526120cb600682016121a1565b60c08401526120ea6120e1600783015460ff1690565b151560e0850152565b60088101546101008401526009810154610120840152015461014082015260405191829182612031565b6040519061212182611bed565b81610140600091828152606080602083015280604083015283818301528360808301528360a08301528060c08301528060e0830152610100820152826101208201520152565b90600182811c92168015612197575b602083101461218157565b634e487b7160e01b600052602260045260246000fd5b91607f1691612176565b906040519182600082546121b481612167565b9081845260209460019160018116908160001461222257506001146121e3575b505050611ca092500383611c72565b600090815285812095935091905b81831061220a575050611ca093508201013880806121d4565b855488840185015294850194879450918301916121f1565b92505050611ca094925060ff191682840152151560051b8201013880806121d4565b90611ca060ff6009612254611c93565b85546001600160a01b031681529461226e600182016121a1565b602087015261227f600282016121a1565b60408701526003810154606087015260048101546080870152600581015460a08701526122ae600682016121a1565b60c08701526122bf600782016121a1565b60e08701526122d0600882016121a1565b61010087015201546001600160a01b03811661012086015260a01c161515610140840152565b6001600160401b038111611c095760051b60200190565b60405161231981611c3c565b60008152906000368137565b9061232f826122f6565b61233c6040519182611c72565b828152809261234d601f19916122f6565b0190602036910137565b634e487b7160e01b600052603260045260246000fd5b919081101561238f5760051b8101359060be19813603018212156102e4570190565b612357565b356103a9816102e9565b634e487b7160e01b600052601160045260246000fd5b60001981146123c35760010190565b61239e565b6001600160a01b031660009081527fdfd123095cdedb1cecbc229b30f7cf8745fb3d3951645ac4a8fa4c0895f8950b6020526040902090565b6001600160a01b031660009081527fdfd123095cdedb1cecbc229b30f7cf8745fb3d3951645ac4a8fa4c0895f895066020526040902090565b6001600160a01b031660009081527fdfd123095cdedb1cecbc229b30f7cf8745fb3d3951645ac4a8fa4c0895f895076020526040902090565b903590601e19813603018212156102e457018035906001600160401b0382116102e4576020019181360383136102e457565b908060209392818452848401376000828201840152601f01601f1916010190565b9997939261251697936124eb6124f9936103a99e9c98999560e08f81815201916124a5565b8c810360208e0152916124a5565b9460408a01526060890152608088015286830360a08801526124a5565b9260c08185039101526124a5565b3d1561254f573d9061253582611caf565b916125436040519384611c72565b82523d6000602084013e565b606090565b908154612560816122f6565b926040936125716040519182611c72565b82815280946020809201926000526020600020906000935b85851061259857505050505050565b60048460019284516125a981611c0e565b86548152848701548382015260028701548682015260ff60038801541615156060820152815201930194019391612589565b90600a6125e6611c93565b83546001600160a01b031681529260018101546001600160a01b0316602085015260028101546040850152600381015460608501526004810154608085015261263160058201612554565b60a0850152612642600682016121a1565b60c0850152612661612658600783015460ff1690565b151560e0860152565b600881015461010085015260098101546101208501520154610140830152565b6000198101919082116123c357565b919082039182116123c357565b805182101561238f5760209160051b010190565b602090939291936126c6816040810196610a5d565b0152565b919082018092116123c357565b604051906126e482611bed565b81610140600091828152826020820152826040820152826060820152826080820152606060a0820152606060c08201528260e082015282610100820152826101208201520152565b604051630799a15f60e11b8152600490fd5b919081101561238f5760051b0190565b60405161275a81611c3c565b6000815290565b9061276b826122f6565b6127786040519182611c72565b8281528092612789601f19916122f6565b019060005b82811061279a57505050565b6020906127a56126d7565b8282850101520161278e565b6127bd90939293612401565b8054938483101561286b578061285c5750835b82858211612854575b6127e291612690565b906127ec82612761565b9260005b8381106127ff57505050509190565b8061283861197f61281b612815600195876126ca565b87614590565b600052600080516020614c41833981519152602052604060002090565b612842828861269d565b5261284d818761269d565b50016127f0565b8591506127d9565b8201808311156127d05761239e565b50505060405161287a81611c3c565b600081529190565b90600293612894846128a6959461269d565b6001600160a01b03909116905261269d565b52565b92612894836128b79561269d565b6006821015610a585752565b6128dc6112606103c86128d584612394565b3390613e6c565b6129f8576128ef61126061032433613e44565b6129ed5761290033610e5e83612394565b61290933613e97565b61291a611260600784015460ff1690565b80156129d4575b80156129bf575b6129b2576002820154608084013511156129a5576009015461295790611260906001600160a01b031684613f5b565b61299957600360409101549101359080821160001461298f5761297991612690565b905b81156129875760019190565b600091508190565b505060009061297b565b50906040600592013590565b5050906040600492013590565b5050906040600392013590565b5060098101546001600160a01b031615612928565b5060098101546129e89060a01c60ff161590565b612921565b906040600292013590565b906040600592013590565b92612894836128a69561269d565b634e487b7160e01b600052600060045260246000fd5b91612a419183549060031b91821b91600019901b19161790565b9055565b818110612a50575050565b60008155600101612a45565b9190601f8111612a6b57505050565b611ca0926000526020600020906020601f840160051c83019310612a97575b601f0160051c0190612a45565b9091508190612a8a565b9092916001600160401b038111611c0957612ac681612ac08454612167565b84612a5c565b6000601f8211600114612b03578190612a41939495600092612af8575b50508160011b916000199060031b1c19161790565b013590503880612ae3565b601f19821694612b1884600052602060002090565b91805b878110612b53575083600195969710612b39575b505050811b019055565b0135600019600384901b60f8161c19169055388080612b2f565b90926020600181928686013581550194019101612b1b565b60c0820190611000612b7d8385612473565b905011612ed757612b8d81613e44565b612bb461126082600052600080516020614cc1833981519152602052604060002054151590565b612ddd5750612bc290613e97565b916001830191612bd1836121a1565b8051602080920120612bed612be68580612473565b3691611cca565b8281519101201493841594612dab575b8415612d79575b8415612d46575b858515612cec575b5083612cb1612ca7600995612c67612c5d612cb797612c4160e098612c3b89612cd89e612473565b91612aa1565b608087013560038e015560a087013560048e0155860186612473565b9060028d01612aa1565b4260058b0155612c87612c7d6040860186612473565b9060068d01612aa1565b612ca1612c976060860186612473565b9060078d01612aa1565b83612473565b9060088a01612aa1565b01612394565b930180546001600160a01b0319166001600160a01b03909416939093178355565b612cdf5750565b805460ff60a01b19169055565b60e091955093612cb1612ca7600995612c67612c5d612cb797612c41612d176008612cd89d016121a1565b828151910120612d2a612be6878b612473565b83815191012014159c9850509750505095505050935085612c13565b60098601549094506001600160a01b0316612d66610b9a60e08601612394565b6001600160a01b03909116141593612c0b565b9350612d87600786016121a1565b818151910120612d9d612be66060860186612473565b828151910120141593612c04565b9350612db9600686016121a1565b818151910120612dcf612be66040860186612473565b828151910120141593612bfd565b929091612dea8280612473565b929091612dfa6020830183612473565b92612e086040820182612473565b9091612e176060820182612473565b949095612e249083612473565b97909860e08401612e3490612394565b9a612e3d611c93565b6001600160a01b03909d168d523690612e5592611cca565b60208c01523690612e6592611cca565b60408a0152608081013560608a015260a0013560808901524260a08901523690612e8e92611cca565b60c08701523690612e9e92611cca565b60e08501523690612eae92611cca565b6101008301526001600160a01b03166101208201526000610140820152612ed49161413e565b50565b60405163ef54fd9d60e01b8152600490fd5b805482101561238f5760005260206000209060021b0190600090565b90612f4c57818103612f15575050565b600360ff8184611ca095548555600181015460018601556002810154600286015501541691019060ff801983541691151516179055565b612a11565b90612f5b91613edc565b906008820192835415613030576000939284918291600581019190835b875486101561300c57612f8b8685612ee9565b50612f9a8860028301546126ca565b4210612fb95760019182612fb0920154906126ca565b955b0194612f78565b986001919695612fd0612fdf92848d0154906126ca565b9a818803612fe5575b506123b4565b94612fb2565b612ff990612ff38389612ee9565b90612f05565b806130048188612ee9565b505538612fd9565b9795509350949050558160046003830192613028878554612690565b809455015591565b6003830154600490930154600094509150565b61304f9093929361243a565b8054938483101561286b57806130cb5750835b828582116130c3575b61307491612690565b9061307e82612761565b9260005b83811061309157505050509190565b806130a761197f61281b612815600195876126ca565b6130b1828861269d565b526130bc818761269d565b5001613082565b85915061306b565b8201808311156130625761239e565b91600080516020614ca183398151915254918284101561317157806131625750815b82811161315b575b8381039081116123c35761311781612761565b9360005b82811061312757505050565b8061313f61197f61313a600194866126ca565b614257565b613149828961269d565b52613154818861269d565b500161311b565b5081613104565b8301808411156130fc5761239e565b5090915061317d61274e565b9190565b90612f4c576003606083611ca09451845560208101516001850155604081015160028501550151151591019060ff801983541691151516179055565b90815491600160401b831015611c0957826131e0916001611ca095018155612ee9565b90613181565b91906131f28184613edc565b926003840154916132096004860193845490612690565b9182156132cc57600886019182549160058310156132a35750506005612a41949596018181541115600014613273579061326091613245611ca2565b918252846020830152426040830152600060608301526131bd565b61326a81546123b4565b905582546126ca565b6131e061329e92613282611ca2565b9281845286602085015242604085015260006060850152612ee9565b613260565b604051639edd285f60e01b81526001600160a01b03918216600482015291166024820152604490fd5b505050509050565b6000546001600160a01b031633036132e857565b606460405162461bcd60e51b815260206004820152602060248201527f4f776e61626c653a2063616c6c6572206973206e6f7420746865206f776e65726044820152fd5b600080546001600160a01b039283166001600160a01b03198216811783559216907f8be0079c531659141344cd1fd0a4f28419497f9722a3daafe3b4186f6b6457e09080a3565b80156123c3576000190190565b9061338d91949394613edc565b908015158061347a575b6133b7575b50806133af6003600493019485546126ca565b809455015490565b600093929391600091946008820194855491829360058101945b80151580613471575b1561344e57600019019360016133f08688612ee9565b500180549097908b811161342d5750908861341a613421936134148b5480926126ca565b9d612690565b9855613373565b975b97939895986133d1565b9a61343f81613445939c9a949c6126ca565b9b612690565b90558695613423565b50949350959096506004945055613469838301918254612690565b90559061339c565b508915156133da565b5060088201541515613397565b906134928183613edc565b90600782019283549260ff8416806134f2575b6134b8575b50505060ff19166001179055565b600301549081156134aa5760405163faa2387760e01b81526001600160a01b03918216600482015292166024830152604482015260649150fd5b5060006134a5565b60026001541461350b576002600155565b60405162461bcd60e51b815260206004820152601f60248201527f5265656e7472616e637947756172643a207265656e7472616e742063616c6c006044820152606490fd5b6135626112606103c86128d584612394565b6136c25761357561126061032433613e44565b6136b45761358633610e5e83612394565b9161359033613e97565b6135a1611260600786015460ff1690565b801561369b575b8015613686575b613675576002840180549160808501358093101561366257600901546135e290611260906001600160a01b031686613f5b565b61365057556040600384015492013582811192836000146136495780935b1561363f5761360e91612690565b925b828061362f575b50508215613626576001929190565b60009250829190565b61363891614311565b3882613617565b5050600092613610565b8193613600565b50509091506040600592013590600090565b5050509091506040600492013590600090565b509091506040600392013590600090565b5060098101546001600160a01b0316156135af565b5060098101546136af9060a01c60ff161590565b6135a8565b906040600292013590600090565b906040600592013590600090565b805490600090818155826136e357505050565b6002906001600160fe1b03841684036123c3578252602082209260021b8301925b8381106137115750505050565b808360049255836001820155838382015583600382015501613704565b6137388154612167565b9081613742575050565b81601f60009311600114613754575055565b908083918252613773601f60208420940160051c840160018501612a45565b5555565b9190916137848382613e6c565b9061378e82614b3e565b1561382357819081600095818752600080516020614c4183398151915260205260408720600381019780895499558060048301556007820160ff198154169055806008830155600a820155600581016137e6906136d0565b6006016137f29061372e565b6137fb90612401565b9061380591614914565b5061380f9061243a565b9061381991614914565b50612ed4906147a7565b506000925050565b90613835826122f6565b6138426040519182611c72565b8281528092613853601f19916122f6565b019060005b82811061386457505050565b60209061386f612114565b82828501015201613858565b91600080516020614c81833981519152549182841015613171578084018085116123c357901583828215613914575b505061390d575b8381039081116123c3576138c48161382b565b9360005b8281106138d457505050565b806138f16138ec6138e7600194866126ca565b6142ae565b612244565b6138fb828961269d565b52613906818861269d565b50016138c8565b50816138b1565b11905083386138aa565b61392781613e44565b9061394c82600052600080516020614cc1833981519152602052604060002054151590565b156139cb5750612ed4906000818152600080516020614ce18339815191526020526009604082208281556139826001820161372e565b61398e6002820161372e565b8260038201558260048201558260058201556139ac6006820161372e565b6139b86007820161372e565b6139c46008820161372e565b0155614867565b6040516304c76d3f60e11b81526001600160a01b039091166004820152602490fd5b9392936139fa8282613e6c565b91613a0483614b3e565b613ba5576000838152600080516020614c418339815191526020908152604082206003810187905580546001600160a01b0319166001600160a01b03861617815591979190600182810180546001600160a01b0319166001600160a01b0387161790559260068301918151916001600160401b038311611c09578b95613a9484613a8e8754612167565b87612a5c565b602092601f8511600114613b0b575050946008613af5958a999795613adc86613af097613af09c97613afb9f9a8892613b005750508160011b916000199060031b1c19161790565b90555b0155613aea836149bd565b50612401565b614acd565b5061243a565b509190565b015190503880612ae3565b929190601f19851690613b2387600052602060002090565b9489915b838310613b7b57505050958a99979295600186613af09b96613afb9e99600896613af09a613af59d10613b62575b505050811b019055613adf565b015160001960f88460031b161c19169055388080613b55565b9195859798999a5082829495969183928801518155019701950190918f9998979695949392613b27565b604051632cf0675960e21b81526001600160a01b03928316600482015291166024820152604490fd5b909291600093613bdf600093612401565b918254908115613e1e5781831015613df55780158015613de3575b15613dd357505b613c0b8282612690565b92613c1584612325565b94613c28613c2286612325565b95612325565b935b838110613c405750505093858452858352858252565b613c4d61281b8285614590565b600881018054918215613dc8578492859286938760058501935b808210613d4b575050613c84575b50505050506001905b01613c2a565b60049d959d90818401918683549255889389905b888210613d27575050838203613d035750505554600193613cf89390929091613cdd906001600160a01b0316613cce858e61269d565b6001600160a01b039091169052565b613ce7838b61269d565b52613cf2828961269d565b526123b4565b989038808080613c75565b60408051631544af6b60e01b81529182019283526020830185905290918291010390fd5b9094613d4360019182613d3a8986612ee9565b500154906126ca565b950190613c98565b9096613d686112606003613d5f8b89612ee9565b50015460ff1690565b15613db257613d7f816001928a03613d88576123b4565b975b0190613c67565b613da0613d958b89612ee9565b50612ff3838a612ee9565b80613dab8189612ee9565b50556123b4565b969591506001613dc281936123b4565b96613d81565b505050600190613c7e565b613dde9150826126ca565b613c01565b50613dee8383612690565b8111613bfa565b50613dff90612681565b60405163b584e77d60e01b815260048101929092526024820152604490fd5b505050509150613e2c61230d565b90613e3561230d565b90613e3e61230d565b84939291565b6040516001600160a01b039091166020808301918252825290613e6681611c57565b51902090565b604080516001600160a01b039283166020820190815293909216828201528152613e66606082611c72565b613ea081613e44565b600052600080516020614ce1833981519152602052604060002090600080516020614cc1833981519152602052604060002054156139cb575090565b90613ee78183613e6c565b9182600052600080516020614be183398151915260205260406000205415613f28575050600052600080516020614c41833981519152602052604060002090565b60405163023280eb60e21b81526001600160a01b03918216600482015291166024820152604490fd5b60051115610a5857565b61405890614052612be6613ff0614038614044613f7a60208701612394565b613f8387612394565b604080517f6e525043a6c7323bdf60ce222f35127cdd9d8e867ec6350c83fcc254ed18b756602082019081526060808c0135838501526080808d0135918401919091526001600160a01b03958616908301529390921660a083015288013560c082015293849060e0820190565b0393614004601f1995868101835282611c72565b519020926140106145a4565b93604051938491602083019687909160429261190160f01b8352600283015260228201520190565b03908101835282611c72565b5190209260a0810190612473565b9061468f565b61406181613f51565b15918261406d57505090565b6001600160a01b03918216911614919050565b91909182516001600160401b038111611c09576140a181612ac08454612167565b602080601f83116001146140d457508190612a41939495600092613b005750508160011b916000199060031b1c19161790565b90601f198316956140ea85600052602060002090565b926000905b8882106141265750508360019596971061410d57505050811b019055565b015160001960f88460031b161c19169055388080612b2f565b806001859682949686015181550195019301906140ef565b6142526103a99282600052600080516020614ce18339815191526020526142386101406009604060002061419761417b865160018060a01b031690565b82546001600160a01b0319166001600160a01b03909116178255565b6141a8602086015160018301614080565b6141b9604086015160028301614080565b606085015160038201556080850151600482015560a085015160058201556141e860c086015160068301614080565b6141f960e086015160078301614080565b61420b61010086015160088301614080565b610120850151910180546001600160a01b0319166001600160a01b03909216919091178155920151151590565b815460ff60a01b191690151560a01b60ff60a01b16179055565b614a45565b600080516020614ca18339815191525481101561238f577fa543db6724dca3e06c9a739e16672b6894bb866e0b44759e50bc403282ce06270154600052600080516020614c41833981519152602052604060002090565b600080516020614c818339815191525481101561238f577f94ce1cc9f419dbfb0d7a61a6415af9981ee3d1c02ba0de79a3c180abfae2b4010154600052600080516020614ce1833981519152602052604060002090565b6040513d6000823e3d90fd5b906003820191825491600482019283549061432c8282612690565b8311614439575b5050614340818554612690565b84557fdfd123095cdedb1cecbc229b30f7cf8745fb3d3951645ac4a8fa4c0895f8950254614376906001600160a01b0316610b9a565b82549091906001600160a01b031690823b156102e457604051631bb1482360e31b81526001600160a01b039290921660048301526024820152906000908290604490829084905af1801561443457600080516020614c2183398151915292614416926143ef9261441b575b50546001600160a01b031690565b9354925460408051948552602085019190915233946001600160a01b031693918291820190565b0390a3565b8061442861442e92611c29565b8061034e565b386143e1565b614305565b6144539161444d9197939697959495612690565b85612690565b9485926008850195865494855b801515806144e9575b156144cb57600019019560016144828860058b01612ee9565b50018054909a908181116144b357509060006144a36144aa938d5490612690565b9b55613373565b975b9795614460565b906144c1919b929a9b612690565b90556000986144ac565b50919594909397506144e09296558454612690565b83553880614333565b50891515614469565b600080516020614ca1833981519152805482101561238f576000527fa543db6724dca3e06c9a739e16672b6894bb866e0b44759e50bc403282ce06270190600090565b600080516020614c81833981519152805482101561238f576000527f94ce1cc9f419dbfb0d7a61a6415af9981ee3d1c02ba0de79a3c180abfae2b4010190600090565b805482101561238f5760005260206000200190600090565b9061459a91614578565b90549060031b1c90565b73304720496e666572656e63652053657276696e6760601b60206040516145ca81611c57565b601481520152603160f81b60206040516145e381611c57565b60018152015260405160208101907f8b73c3c69bb8fe3d512ecc4cf759cc79239f7b179b0ffacaa9a75d522b39400f82527f2f4ba393a20b900f9f0a8fdd993b162f640c29a02a710d04f515521a29be839b60408201527fc89efdaa54c0f20c7adf612882df0950f5a951637e0307cdcb4c672f298b8bc660608201524660808201523060a082015260a0815260c081018181106001600160401b03821117611c095760405251902090565b9060418151146000146146b9576109f7916020820151906060604084015193015160001a90614b5e565b5050600090600290565b600080516020614ca18339815191528054908115614715576000198201918083101561238f577fa543db6724dca3e06c9a739e16672b6894bb866e0b44759e50bc403282ce0626600091838352015555565b634e487b7160e01b600052603160045260246000fd5b600080516020614c818339815191528054908115614715576000198201918083101561238f577f94ce1cc9f419dbfb0d7a61a6415af9981ee3d1c02ba0de79a3c180abfae2b400600091838352015555565b805490811561471557600019918201916147978383614578565b909182549160031b1b1916905555565b6000818152600080516020614be1833981519152602052604090205480156148605760001991818301918083116123c357600080516020614ca1833981519152549384019384116123c3578383614829946000960361482f575b50505061480c6146c3565b600052600080516020614be1833981519152602052604060002090565b55600190565b61480c61485191614842614857946144f2565b90549060031b1c9283916144f2565b90612a27565b55388080614801565b5050600090565b6000818152600080516020614cc1833981519152602052604090205480156148605760001991818301918083116123c357600080516020614c81833981519152549384019384116123c357838361482994600096036148e9575b5050506148cc61472b565b600052600080516020614cc1833981519152602052604060002090565b6148cc614851916148fc61490b94614535565b90549060031b1c928391614535565b553880806148c1565b60018101918060005282602052604060002054928315156000146149b45760001992848401908582116123c35780549485019485116123c3576000958583614968946148299803614977575b50505061477d565b90600052602052604060002090565b61499b6148519161498b6149ab9487614578565b90549060031b1c92839187614578565b8590600052602052604060002090565b55388080614960565b50505050600090565b80600052600080516020614be1833981519152806020526040600020541560001461486057600080516020614ca18339815191528054600160401b811015611c09576001810180835581101561238f5783907fa543db6724dca3e06c9a739e16672b6894bb866e0b44759e50bc403282ce062701555491600052602052604060002055600190565b80600052600080516020614cc1833981519152806020526040600020541560001461486057600080516020614c818339815191528054600160401b811015611c09576001810180835581101561238f5783907f94ce1cc9f419dbfb0d7a61a6415af9981ee3d1c02ba0de79a3c180abfae2b40101555491600052602052604060002055600190565b6001810190826000528160205260406000205415600014614b36578054600160401b811015611c0957614b21614b0a826001879401855584614578565b819391549060031b91821b91600019901b19161790565b90555491600052602052604060002055600190565b505050600090565b600052600080516020614be1833981519152602052604060002054151590565b9291907f7fffffffffffffffffffffffffffffff5d576e7357a4501ddfe92f46681b20a08311614bd45791608094939160ff602094604051948552168484015260408301526060820152600093849182805260015afa156144345781516001600160a01b03811615614bce579190565b50600190565b5050505060009060039056fedfd123095cdedb1cecbc229b30f7cf8745fb3d3951645ac4a8fa4c0895f89504dfd123095cdedb1cecbc229b30f7cf8745fb3d3951645ac4a8fa4c0895f89501526824944047da5b81071fb6349412005c5da81380b336103fbe5dd34556c776dfd123095cdedb1cecbc229b30f7cf8745fb3d3951645ac4a8fa4c0895f89505dfd123095cdedb1cecbc229b30f7cf8745fb3d3951645ac4a8fa4c0895f89500dfd123095cdedb1cecbc229b30f7cf8745fb3d3951645ac4a8fa4c0895f89508dfd123095cdedb1cecbc229b30f7cf8745fb3d3951645ac4a8fa4c0895f89503dfd123095cdedb1cecbc229b30f7cf8745fb3d3951645ac4a8fa4c0895f89509dfd123095cdedb1cecbc229b30f7cf8745fb3d3951645ac4a8fa4c0895f8950aa26469706673582212200657414bfb58f7f7895537d7df33d82fae5fb414766f843607a10e657023160f64736f6c63430008160033",
  "devdoc": {
    "errors": {
      "AlreadyInitialized()": [
        {
          "details": "Emitted when attempting to initialize an already initialized or locked contract."
        }
      ]
    },
    "events": {
      "Initialized(uint8)": {
        "details": "Triggered when the contract has been initialized or reinitialized."
      }
    },
    "kind": "dev",
    "methods": {
      "constructor": {
        "custom:oz-upgrades-unsafe-allow": "constructor"
      },
      "migrateRefunds(address,uint256,uint256)": {
        "details": "Supports batch processing to prevent gas limit issues with large user bases",
        "params": {
          "batchSize": "Maximum number of accounts to process (use 0 for all remaining)",
          "provider": "Provider address - will migrate users associated with this provider",
          "startIndex": "Index to start migration from (0-based, use 0 to start from beginning)"
        },
        "returns": {
          "cleanedCount": "Number of accounts that had dirty data cleaned",
          "nextIndex": "Index to continue from in next batch (equals total when complete)"
        }
      },
      "owner()": {
        "details": "Returns the address of the current owner."
      },
      "previewSettlementResults((address,address,uint256,bytes32,uint256,bytes)[])": {
        "details": "WARNING: If the same user appears multiple times in the batch,      only the first occurrence will show accurate preview results.      Subsequent occurrences will use stale balance/nonce values since      this is a view function that cannot simulate state changes.      For accurate preview of batches with duplicate users, call this      function separately for each unique user.",
        "params": {
          "settlements": "Array of settlement data to preview"
        },
        "returns": {
          "failedUsers": "Array of user addresses that failed validation",
          "failureReasons": "Array of failure reasons corresponding to failedUsers",
          "partialAmounts": "Array of unsettled amounts corresponding to partialUsers",
          "partialUsers": "Array of user addresses with insufficient balance"
        }
      },
      "renounceOwnership()": {
        "details": "Leaves the contract without owner. It will not be possible to call `onlyOwner` functions anymore. Can only be called by the current owner. NOTE: Renouncing ownership will leave the contract without an owner, thereby removing any functionality that is only available to the owner."
      },
      "settleFeesWithTEE((address,address,uint256,bytes32,uint256,bytes)[])": {
        "details": "Status codes: 0=SUCCESS, 1=PARTIAL_SETTLEMENT, 2=PROVIDER_MISMATCH, 3=NO_TEE_SIGNER, 4=INVALID_NONCE, 5=INVALID_SIGNATUREStatuses array has same length as input, with statuses[i] corresponding to settlements[i]All settlement details are emitted via TEESettlementResult events",
        "params": {
          "settlements": "Array of settlement data to process"
        },
        "returns": {
          "statuses": "Array of settlement statuses (uint8), preserving one-to-one correspondence with input"
        }
      },
      "supportsInterface(bytes4)": {
        "details": "See {IERC165-supportsInterface}."
      },
      "transferOwnership(address)": {
        "details": "Transfers ownership of the contract to a new account (`newOwner`). Can only be called by the current owner."
      }
    },
    "version": 1
  },
  "userdoc": {
    "kind": "user",
    "methods": {
      "migrateRefunds(address,uint256,uint256)": {
        "notice": "Migration function to clean up old processed refunds (one-time use after upgrade)"
      },
      "previewSettlementResults((address,address,uint256,bytes32,uint256,bytes)[])": {
        "notice": "Preview settlement results for a batch of settlements without state changes"
      },
      "settleFeesWithTEE((address,address,uint256,bytes32,uint256,bytes)[])": {
        "notice": "Settle fees with TEE-signed settlement data"
      }
    },
    "version": 1
  },
  "storageLayout": {
    "storage": [
      {
        "astId": 7,
        "contract": "contracts/inference/InferenceServing.sol:InferenceServing",
        "label": "_owner",
        "offset": 0,
        "slot": "0",
        "type": "t_address"
      },
      {
        "astId": 16839,
        "contract": "contracts/inference/InferenceServing.sol:InferenceServing",
        "label": "initialized",
        "offset": 20,
        "slot": "0",
        "type": "t_bool"
      },
      {
        "astId": 16842,
        "contract": "contracts/inference/InferenceServing.sol:InferenceServing",
        "label": "_initializationLocked",
        "offset": 21,
        "slot": "0",
        "type": "t_bool"
      },
      {
        "astId": 661,
        "contract": "contracts/inference/InferenceServing.sol:InferenceServing",
        "label": "_status",
        "offset": 0,
        "slot": "1",
        "type": "t_uint256"
      }
    ],
    "types": {
      "t_address": {
        "encoding": "inplace",
        "label": "address",
        "numberOfBytes": "20"
      },
      "t_bool": {
        "encoding": "inplace",
        "label": "bool",
        "numberOfBytes": "1"
      },
      "t_uint256": {
        "encoding": "inplace",
        "label": "uint256",
        "numberOfBytes": "32"
      }
    }
  }
}