{
  "address": "0x94FAF104B056226460DCF870EDBEa28E84832D4e",
  "abi": [
    {
      "inputs": [
        {
          "internalType": "address",
          "name": "user",
          "type": "address"
        },
        {
          "internalType": "address",
          "name": "provider",
          "type": "address"
        }
      ],
      "name": "AccountExists",
      "type": "error"
    },
    {
      "inputs": [
        {
          "internalType": "address",
          "name": "user",
          "type": "address"
        },
        {
          "internalType": "address",
          "name": "provider",
          "type": "address"
        }
      ],
      "name": "AccountNotExists",
      "type": "error"
    },
    {
      "inputs": [
        {
          "internalType": "string",
          "name": "reason",
          "type": "string"
        }
      ],
      "name": "InvalidTEESignature",
      "type": "error"
    },
    {
      "inputs": [
        {
          "internalType": "address",
          "name": "provider",
          "type": "address"
        }
      ],
      "name": "ServiceNotExist",
      "type": "error"
    },
    {
      "inputs": [
        {
          "internalType": "address",
          "name": "user",
          "type": "address"
        },
        {
          "internalType": "address",
          "name": "provider",
          "type": "address"
        }
      ],
      "name": "TooManyRefunds",
      "type": "error"
    },
    {
      "anonymous": false,
      "inputs": [
        {
          "indexed": true,
          "internalType": "address",
          "name": "user",
          "type": "address"
        },
        {
          "indexed": true,
          "internalType": "address",
          "name": "provider",
          "type": "address"
        },
        {
          "indexed": false,
          "internalType": "uint256",
          "name": "amount",
          "type": "uint256"
        },
        {
          "indexed": false,
          "internalType": "uint256",
          "name": "pendingRefund",
          "type": "uint256"
        }
      ],
      "name": "BalanceUpdated",
      "type": "event"
    },
    {
      "anonymous": false,
      "inputs": [
        {
          "indexed": false,
          "internalType": "address[]",
          "name": "users",
          "type": "address[]"
        },
        {
          "indexed": false,
          "internalType": "uint256[]",
          "name": "balances",
          "type": "uint256[]"
        },
        {
          "indexed": false,
          "internalType": "uint256[]",
          "name": "pendingRefunds",
          "type": "uint256[]"
        }
      ],
      "name": "BatchBalanceUpdated",
      "type": "event"
    },
    {
      "anonymous": false,
      "inputs": [
        {
          "indexed": true,
          "internalType": "address",
          "name": "previousOwner",
          "type": "address"
        },
        {
          "indexed": true,
          "internalType": "address",
          "name": "newOwner",
          "type": "address"
        }
      ],
      "name": "OwnershipTransferred",
      "type": "event"
    },
    {
      "anonymous": false,
      "inputs": [
        {
          "indexed": true,
          "internalType": "address",
          "name": "provider",
          "type": "address"
        },
        {
          "indexed": true,
          "internalType": "address",
          "name": "teeSignerAddress",
          "type": "address"
        },
        {
          "indexed": false,
          "internalType": "bool",
          "name": "acknowledged",
          "type": "bool"
        }
      ],
      "name": "ProviderTEESignerAcknowledged",
      "type": "event"
    },
    {
      "anonymous": false,
      "inputs": [
        {
          "indexed": true,
          "internalType": "address",
          "name": "user",
          "type": "address"
        },
        {
          "indexed": true,
          "internalType": "address",
          "name": "provider",
          "type": "address"
        },
        {
          "indexed": true,
          "internalType": "uint256",
          "name": "index",
          "type": "uint256"
        },
        {
          "indexed": false,
          "internalType": "uint256",
          "name": "timestamp",
          "type": "uint256"
        }
      ],
      "name": "RefundRequested",
      "type": "event"
    },
    {
      "anonymous": false,
      "inputs": [
        {
          "indexed": true,
          "internalType": "address",
          "name": "service",
          "type": "address"
        }
      ],
      "name": "ServiceRemoved",
      "type": "event"
    },
    {
      "anonymous": false,
      "inputs": [
        {
          "indexed": true,
          "internalType": "address",
          "name": "service",
          "type": "address"
        },
        {
          "indexed": false,
          "internalType": "string",
          "name": "serviceType",
          "type": "string"
        },
        {
          "indexed": false,
          "internalType": "string",
          "name": "url",
          "type": "string"
        },
        {
          "indexed": false,
          "internalType": "uint256",
          "name": "inputPrice",
          "type": "uint256"
        },
        {
          "indexed": false,
          "internalType": "uint256",
          "name": "outputPrice",
          "type": "uint256"
        },
        {
          "indexed": false,
          "internalType": "uint256",
          "name": "updatedAt",
          "type": "uint256"
        },
        {
          "indexed": false,
          "internalType": "string",
          "name": "model",
          "type": "string"
        },
        {
          "indexed": false,
          "internalType": "string",
          "name": "verifiability",
          "type": "string"
        }
      ],
      "name": "ServiceUpdated",
      "type": "event"
    },
    {
      "anonymous": false,
      "inputs": [
        {
          "indexed": true,
          "internalType": "address",
          "name": "user",
          "type": "address"
        },
        {
          "indexed": false,
          "internalType": "enum SettlementStatus",
          "name": "status",
          "type": "uint8"
        },
        {
          "indexed": false,
          "internalType": "uint256",
          "name": "unsettledAmount",
          "type": "uint256"
        }
      ],
      "name": "TEESettlementResult",
      "type": "event"
    },
    {
      "inputs": [
        {
          "internalType": "address",
          "name": "user",
          "type": "address"
        },
        {
          "internalType": "address",
          "name": "provider",
          "type": "address"
        }
      ],
      "name": "accountExists",
      "outputs": [
        {
          "internalType": "bool",
          "name": "",
          "type": "bool"
        }
      ],
      "stateMutability": "view",
      "type": "function"
    },
    {
      "inputs": [
        {
          "internalType": "address",
          "name": "provider",
          "type": "address"
        },
        {
          "internalType": "bool",
          "name": "acknowledged",
          "type": "bool"
        }
      ],
      "name": "acknowledgeTEESigner",
      "outputs": [],
      "stateMutability": "nonpayable",
      "type": "function"
    },
    {
      "inputs": [
        {
          "internalType": "address",
          "name": "provider",
          "type": "address"
        }
      ],
      "name": "acknowledgeTEESignerByOwner",
      "outputs": [],
      "stateMutability": "nonpayable",
      "type": "function"
    },
    {
      "inputs": [
        {
          "internalType": "address",
          "name": "user",
          "type": "address"
        },
        {
          "internalType": "address",
          "name": "provider",
          "type": "address"
        },
        {
          "internalType": "string",
          "name": "additionalInfo",
          "type": "string"
        }
      ],
      "name": "addAccount",
      "outputs": [],
      "stateMutability": "payable",
      "type": "function"
    },
    {
      "inputs": [
        {
          "components": [
            {
              "internalType": "string",
              "name": "serviceType",
              "type": "string"
            },
            {
              "internalType": "string",
              "name": "url",
              "type": "string"
            },
            {
              "internalType": "string",
              "name": "model",
              "type": "string"
            },
            {
              "internalType": "string",
              "name": "verifiability",
              "type": "string"
            },
            {
              "internalType": "uint256",
              "name": "inputPrice",
              "type": "uint256"
            },
            {
              "internalType": "uint256",
              "name": "outputPrice",
              "type": "uint256"
            },
            {
              "internalType": "string",
              "name": "additionalInfo",
              "type": "string"
            },
            {
              "internalType": "address",
              "name": "teeSignerAddress",
              "type": "address"
            }
          ],
          "internalType": "struct ServiceParams",
          "name": "params",
          "type": "tuple"
        }
      ],
      "name": "addOrUpdateService",
      "outputs": [],
      "stateMutability": "nonpayable",
      "type": "function"
    },
    {
      "inputs": [
        {
          "internalType": "address",
          "name": "user",
          "type": "address"
        },
        {
          "internalType": "address",
          "name": "provider",
          "type": "address"
        }
      ],
      "name": "deleteAccount",
      "outputs": [],
      "stateMutability": "nonpayable",
      "type": "function"
    },
    {
      "inputs": [
        {
          "internalType": "address",
          "name": "user",
          "type": "address"
        },
        {
          "internalType": "address",
          "name": "provider",
          "type": "address"
        },
        {
          "internalType": "uint256",
          "name": "cancelRetrievingAmount",
          "type": "uint256"
        }
      ],
      "name": "depositFund",
      "outputs": [],
      "stateMutability": "payable",
      "type": "function"
    },
    {
      "inputs": [
        {
          "internalType": "address",
          "name": "user",
          "type": "address"
        },
        {
          "internalType": "address",
          "name": "provider",
          "type": "address"
        }
      ],
      "name": "getAccount",
      "outputs": [
        {
          "components": [
            {
              "internalType": "address",
              "name": "user",
              "type": "address"
            },
            {
              "internalType": "address",
              "name": "provider",
              "type": "address"
            },
            {
              "internalType": "uint256",
              "name": "nonce",
              "type": "uint256"
            },
            {
              "internalType": "uint256",
              "name": "balance",
              "type": "uint256"
            },
            {
              "internalType": "uint256",
              "name": "pendingRefund",
              "type": "uint256"
            },
            {
              "components": [
                {
                  "internalType": "uint256",
                  "name": "index",
                  "type": "uint256"
                },
                {
                  "internalType": "uint256",
                  "name": "amount",
                  "type": "uint256"
                },
                {
                  "internalType": "uint256",
                  "name": "createdAt",
                  "type": "uint256"
                },
                {
                  "internalType": "bool",
                  "name": "processed",
                  "type": "bool"
                }
              ],
              "internalType": "struct Refund[]",
              "name": "refunds",
              "type": "tuple[]"
            },
            {
              "internalType": "string",
              "name": "additionalInfo",
              "type": "string"
            },
            {
              "internalType": "bool",
              "name": "acknowledged",
              "type": "bool"
            },
            {
              "internalType": "uint256",
              "name": "validRefundsLength",
              "type": "uint256"
            }
          ],
          "internalType": "struct Account",
          "name": "",
          "type": "tuple"
        }
      ],
      "stateMutability": "view",
      "type": "function"
    },
    {
      "inputs": [
        {
          "internalType": "address",
          "name": "provider",
          "type": "address"
        },
        {
          "internalType": "uint256",
          "name": "offset",
          "type": "uint256"
        },
        {
          "internalType": "uint256",
          "name": "limit",
          "type": "uint256"
        }
      ],
      "name": "getAccountsByProvider",
      "outputs": [
        {
          "components": [
            {
              "internalType": "address",
              "name": "user",
              "type": "address"
            },
            {
              "internalType": "address",
              "name": "provider",
              "type": "address"
            },
            {
              "internalType": "uint256",
              "name": "nonce",
              "type": "uint256"
            },
            {
              "internalType": "uint256",
              "name": "balance",
              "type": "uint256"
            },
            {
              "internalType": "uint256",
              "name": "pendingRefund",
              "type": "uint256"
            },
            {
              "components": [
                {
                  "internalType": "uint256",
                  "name": "index",
                  "type": "uint256"
                },
                {
                  "internalType": "uint256",
                  "name": "amount",
                  "type": "uint256"
                },
                {
                  "internalType": "uint256",
                  "name": "createdAt",
                  "type": "uint256"
                },
                {
                  "internalType": "bool",
                  "name": "processed",
                  "type": "bool"
                }
              ],
              "internalType": "struct Refund[]",
              "name": "refunds",
              "type": "tuple[]"
            },
            {
              "internalType": "string",
              "name": "additionalInfo",
              "type": "string"
            },
            {
              "internalType": "bool",
              "name": "acknowledged",
              "type": "bool"
            },
            {
              "internalType": "uint256",
              "name": "validRefundsLength",
              "type": "uint256"
            }
          ],
          "internalType": "struct Account[]",
          "name": "accounts",
          "type": "tuple[]"
        },
        {
          "internalType": "uint256",
          "name": "total",
          "type": "uint256"
        }
      ],
      "stateMutability": "view",
      "type": "function"
    },
    {
      "inputs": [
        {
          "internalType": "address",
          "name": "user",
          "type": "address"
        },
        {
          "internalType": "uint256",
          "name": "offset",
          "type": "uint256"
        },
        {
          "internalType": "uint256",
          "name": "limit",
          "type": "uint256"
        }
      ],
      "name": "getAccountsByUser",
      "outputs": [
        {
          "components": [
            {
              "internalType": "address",
              "name": "user",
              "type": "address"
            },
            {
              "internalType": "address",
              "name": "provider",
              "type": "address"
            },
            {
              "internalType": "uint256",
              "name": "nonce",
              "type": "uint256"
            },
            {
              "internalType": "uint256",
              "name": "balance",
              "type": "uint256"
            },
            {
              "internalType": "uint256",
              "name": "pendingRefund",
              "type": "uint256"
            },
            {
              "components": [
                {
                  "internalType": "uint256",
                  "name": "index",
                  "type": "uint256"
                },
                {
                  "internalType": "uint256",
                  "name": "amount",
                  "type": "uint256"
                },
                {
                  "internalType": "uint256",
                  "name": "createdAt",
                  "type": "uint256"
                },
                {
                  "internalType": "bool",
                  "name": "processed",
                  "type": "bool"
                }
              ],
              "internalType": "struct Refund[]",
              "name": "refunds",
              "type": "tuple[]"
            },
            {
              "internalType": "string",
              "name": "additionalInfo",
              "type": "string"
            },
            {
              "internalType": "bool",
              "name": "acknowledged",
              "type": "bool"
            },
            {
              "internalType": "uint256",
              "name": "validRefundsLength",
              "type": "uint256"
            }
          ],
          "internalType": "struct Account[]",
          "name": "accounts",
          "type": "tuple[]"
        },
        {
          "internalType": "uint256",
          "name": "total",
          "type": "uint256"
        }
      ],
      "stateMutability": "view",
      "type": "function"
    },
    {
      "inputs": [
        {
          "internalType": "uint256",
          "name": "offset",
          "type": "uint256"
        },
        {
          "internalType": "uint256",
          "name": "limit",
          "type": "uint256"
        }
      ],
      "name": "getAllAccounts",
      "outputs": [
        {
          "components": [
            {
              "internalType": "address",
              "name": "user",
              "type": "address"
            },
            {
              "internalType": "address",
              "name": "provider",
              "type": "address"
            },
            {
              "internalType": "uint256",
              "name": "nonce",
              "type": "uint256"
            },
            {
              "internalType": "uint256",
              "name": "balance",
              "type": "uint256"
            },
            {
              "internalType": "uint256",
              "name": "pendingRefund",
              "type": "uint256"
            },
            {
              "components": [
                {
                  "internalType": "uint256",
                  "name": "index",
                  "type": "uint256"
                },
                {
                  "internalType": "uint256",
                  "name": "amount",
                  "type": "uint256"
                },
                {
                  "internalType": "uint256",
                  "name": "createdAt",
                  "type": "uint256"
                },
                {
                  "internalType": "bool",
                  "name": "processed",
                  "type": "bool"
                }
              ],
              "internalType": "struct Refund[]",
              "name": "refunds",
              "type": "tuple[]"
            },
            {
              "internalType": "string",
              "name": "additionalInfo",
              "type": "string"
            },
            {
              "internalType": "bool",
              "name": "acknowledged",
              "type": "bool"
            },
            {
              "internalType": "uint256",
              "name": "validRefundsLength",
              "type": "uint256"
            }
          ],
          "internalType": "struct Account[]",
          "name": "accounts",
          "type": "tuple[]"
        },
        {
          "internalType": "uint256",
          "name": "total",
          "type": "uint256"
        }
      ],
      "stateMutability": "view",
      "type": "function"
    },
    {
      "inputs": [],
      "name": "getAllServices",
      "outputs": [
        {
          "components": [
            {
              "internalType": "address",
              "name": "provider",
              "type": "address"
            },
            {
              "internalType": "string",
              "name": "serviceType",
              "type": "string"
            },
            {
              "internalType": "string",
              "name": "url",
              "type": "string"
            },
            {
              "internalType": "uint256",
              "name": "inputPrice",
              "type": "uint256"
            },
            {
              "internalType": "uint256",
              "name": "outputPrice",
              "type": "uint256"
            },
            {
              "internalType": "uint256",
              "name": "updatedAt",
              "type": "uint256"
            },
            {
              "internalType": "string",
              "name": "model",
              "type": "string"
            },
            {
              "internalType": "string",
              "name": "verifiability",
              "type": "string"
            },
            {
              "internalType": "string",
              "name": "additionalInfo",
              "type": "string"
            },
            {
              "internalType": "address",
              "name": "teeSignerAddress",
              "type": "address"
            },
            {
              "internalType": "bool",
              "name": "teeSignerAcknowledged",
              "type": "bool"
            }
          ],
          "internalType": "struct Service[]",
          "name": "services",
          "type": "tuple[]"
        }
      ],
      "stateMutability": "view",
      "type": "function"
    },
    {
      "inputs": [
        {
          "internalType": "address[]",
          "name": "users",
          "type": "address[]"
        }
      ],
      "name": "getBatchAccountsByUsers",
      "outputs": [
        {
          "components": [
            {
              "internalType": "address",
              "name": "user",
              "type": "address"
            },
            {
              "internalType": "address",
              "name": "provider",
              "type": "address"
            },
            {
              "internalType": "uint256",
              "name": "nonce",
              "type": "uint256"
            },
            {
              "internalType": "uint256",
              "name": "balance",
              "type": "uint256"
            },
            {
              "internalType": "uint256",
              "name": "pendingRefund",
              "type": "uint256"
            },
            {
              "components": [
                {
                  "internalType": "uint256",
                  "name": "index",
                  "type": "uint256"
                },
                {
                  "internalType": "uint256",
                  "name": "amount",
                  "type": "uint256"
                },
                {
                  "internalType": "uint256",
                  "name": "createdAt",
                  "type": "uint256"
                },
                {
                  "internalType": "bool",
                  "name": "processed",
                  "type": "bool"
                }
              ],
              "internalType": "struct Refund[]",
              "name": "refunds",
              "type": "tuple[]"
            },
            {
              "internalType": "string",
              "name": "additionalInfo",
              "type": "string"
            },
            {
              "internalType": "bool",
              "name": "acknowledged",
              "type": "bool"
            },
            {
              "internalType": "uint256",
              "name": "validRefundsLength",
              "type": "uint256"
            }
          ],
          "internalType": "struct Account[]",
          "name": "accounts",
          "type": "tuple[]"
        }
      ],
      "stateMutability": "view",
      "type": "function"
    },
    {
      "inputs": [
        {
          "internalType": "address",
          "name": "user",
          "type": "address"
        },
        {
          "internalType": "address",
          "name": "provider",
          "type": "address"
        }
      ],
      "name": "getPendingRefund",
      "outputs": [
        {
          "internalType": "uint256",
          "name": "",
          "type": "uint256"
        }
      ],
      "stateMutability": "view",
      "type": "function"
    },
    {
      "inputs": [
        {
          "internalType": "address",
          "name": "provider",
          "type": "address"
        }
      ],
      "name": "getService",
      "outputs": [
        {
          "components": [
            {
              "internalType": "address",
              "name": "provider",
              "type": "address"
            },
            {
              "internalType": "string",
              "name": "serviceType",
              "type": "string"
            },
            {
              "internalType": "string",
              "name": "url",
              "type": "string"
            },
            {
              "internalType": "uint256",
              "name": "inputPrice",
              "type": "uint256"
            },
            {
              "internalType": "uint256",
              "name": "outputPrice",
              "type": "uint256"
            },
            {
              "internalType": "uint256",
              "name": "updatedAt",
              "type": "uint256"
            },
            {
              "internalType": "string",
              "name": "model",
              "type": "string"
            },
            {
              "internalType": "string",
              "name": "verifiability",
              "type": "string"
            },
            {
              "internalType": "string",
              "name": "additionalInfo",
              "type": "string"
            },
            {
              "internalType": "address",
              "name": "teeSignerAddress",
              "type": "address"
            },
            {
              "internalType": "bool",
              "name": "teeSignerAcknowledged",
              "type": "bool"
            }
          ],
          "internalType": "struct Service",
          "name": "service",
          "type": "tuple"
        }
      ],
      "stateMutability": "view",
      "type": "function"
    },
    {
      "inputs": [
        {
          "internalType": "uint256",
          "name": "_locktime",
          "type": "uint256"
        },
        {
          "internalType": "address",
          "name": "_ledgerAddress",
          "type": "address"
        },
        {
          "internalType": "address",
          "name": "owner",
          "type": "address"
        }
      ],
      "name": "initialize",
      "outputs": [],
      "stateMutability": "nonpayable",
      "type": "function"
    },
    {
      "inputs": [],
      "name": "initialized",
      "outputs": [
        {
          "internalType": "bool",
          "name": "",
          "type": "bool"
        }
      ],
      "stateMutability": "view",
      "type": "function"
    },
    {
      "inputs": [],
      "name": "ledgerAddress",
      "outputs": [
        {
          "internalType": "address",
          "name": "",
          "type": "address"
        }
      ],
      "stateMutability": "view",
      "type": "function"
    },
    {
      "inputs": [],
      "name": "lockTime",
      "outputs": [
        {
          "internalType": "uint256",
          "name": "",
          "type": "uint256"
        }
      ],
      "stateMutability": "view",
      "type": "function"
    },
    {
      "inputs": [],
      "name": "owner",
      "outputs": [
        {
          "internalType": "address",
          "name": "",
          "type": "address"
        }
      ],
      "stateMutability": "view",
      "type": "function"
    },
    {
      "inputs": [
        {
          "components": [
            {
              "internalType": "address",
              "name": "user",
              "type": "address"
            },
            {
              "internalType": "address",
              "name": "provider",
              "type": "address"
            },
            {
              "internalType": "uint256",
              "name": "totalFee",
              "type": "uint256"
            },
            {
              "internalType": "bytes32",
              "name": "requestsHash",
              "type": "bytes32"
            },
            {
              "internalType": "uint256",
              "name": "nonce",
              "type": "uint256"
            },
            {
              "internalType": "bytes",
              "name": "signature",
              "type": "bytes"
            }
          ],
          "internalType": "struct TEESettlementData[]",
          "name": "settlements",
          "type": "tuple[]"
        }
      ],
      "name": "previewSettlementResults",
      "outputs": [
        {
          "internalType": "address[]",
          "name": "failedUsers",
          "type": "address[]"
        },
        {
          "internalType": "enum SettlementStatus[]",
          "name": "failureReasons",
          "type": "uint8[]"
        },
        {
          "internalType": "address[]",
          "name": "partialUsers",
          "type": "address[]"
        },
        {
          "internalType": "uint256[]",
          "name": "partialAmounts",
          "type": "uint256[]"
        }
      ],
      "stateMutability": "view",
      "type": "function"
    },
    {
      "inputs": [
        {
          "internalType": "address",
          "name": "user",
          "type": "address"
        },
        {
          "internalType": "address",
          "name": "provider",
          "type": "address"
        }
      ],
      "name": "processRefund",
      "outputs": [
        {
          "internalType": "uint256",
          "name": "totalAmount",
          "type": "uint256"
        },
        {
          "internalType": "uint256",
          "name": "balance",
          "type": "uint256"
        },
        {
          "internalType": "uint256",
          "name": "pendingRefund",
          "type": "uint256"
        }
      ],
      "stateMutability": "nonpayable",
      "type": "function"
    },
    {
      "inputs": [],
      "name": "removeService",
      "outputs": [],
      "stateMutability": "nonpayable",
      "type": "function"
    },
    {
      "inputs": [],
      "name": "renounceOwnership",
      "outputs": [],
      "stateMutability": "nonpayable",
      "type": "function"
    },
    {
      "inputs": [
        {
          "internalType": "address",
          "name": "user",
          "type": "address"
        },
        {
          "internalType": "address",
          "name": "provider",
          "type": "address"
        }
      ],
      "name": "requestRefundAll",
      "outputs": [],
      "stateMutability": "nonpayable",
      "type": "function"
    },
    {
      "inputs": [
        {
          "internalType": "address",
          "name": "provider",
          "type": "address"
        }
      ],
      "name": "revokeTEESignerAcknowledgement",
      "outputs": [],
      "stateMutability": "nonpayable",
      "type": "function"
    },
    {
      "inputs": [
        {
          "components": [
            {
              "internalType": "address",
              "name": "user",
              "type": "address"
            },
            {
              "internalType": "address",
              "name": "provider",
              "type": "address"
            },
            {
              "internalType": "uint256",
              "name": "totalFee",
              "type": "uint256"
            },
            {
              "internalType": "bytes32",
              "name": "requestsHash",
              "type": "bytes32"
            },
            {
              "internalType": "uint256",
              "name": "nonce",
              "type": "uint256"
            },
            {
              "internalType": "bytes",
              "name": "signature",
              "type": "bytes"
            }
          ],
          "internalType": "struct TEESettlementData[]",
          "name": "settlements",
          "type": "tuple[]"
        }
      ],
      "name": "settleFeesWithTEE",
      "outputs": [
        {
          "internalType": "address[]",
          "name": "failedUsers",
          "type": "address[]"
        },
        {
          "internalType": "enum SettlementStatus[]",
          "name": "failureReasons",
          "type": "uint8[]"
        },
        {
          "internalType": "address[]",
          "name": "partialUsers",
          "type": "address[]"
        },
        {
          "internalType": "uint256[]",
          "name": "partialAmounts",
          "type": "uint256[]"
        }
      ],
      "stateMutability": "nonpayable",
      "type": "function"
    },
    {
      "inputs": [
        {
          "internalType": "bytes4",
          "name": "interfaceId",
          "type": "bytes4"
        }
      ],
      "name": "supportsInterface",
      "outputs": [
        {
          "internalType": "bool",
          "name": "",
          "type": "bool"
        }
      ],
      "stateMutability": "view",
      "type": "function"
    },
    {
      "inputs": [
        {
          "internalType": "address",
          "name": "newOwner",
          "type": "address"
        }
      ],
      "name": "transferOwnership",
      "outputs": [],
      "stateMutability": "nonpayable",
      "type": "function"
    },
    {
      "inputs": [
        {
          "internalType": "uint256",
          "name": "_locktime",
          "type": "uint256"
        }
      ],
      "name": "updateLockTime",
      "outputs": [],
      "stateMutability": "nonpayable",
      "type": "function"
    }
  ],
  "transactionHash": "0xe3e6e273ea716a9c931a0d53b4fd42e85f1891ab2e2abff2297325e2ce3ae00d",
  "args": [],
  "numDeployments": 1,
  "solcInputHash": "232217fa6977c2b1c239fb5928de0ff5",
  "bytecode": "0x6080806040523461005f5760008054336001600160a01b0319821681178355916001600160a01b03909116907f8be0079c531659141344cd1fd0a4f28419497f9722a3daafe3b4186f6b6457e09080a3600180556140fa90816100658239f35b600080fdfe6080604052600436101561001257600080fd5b60003560e01c806301ffc9a7146101f75780630d668087146101f2578063147500e3146101ed578063158ef93e146101e857806315a52302146101e35780631d73b9f5146101de57806321fe0f30146101d9578063264173d6146101d457806328b60476146101cf578063398c8e4e146101ca5780634e3c4f22146101c55780634fe63f4d146101c05780635bd7ace2146101bb5780636c79158d146101b6578063715018a6146101b1578063745e87f7146101ac5780637ff6fc1c146101a75780638be74119146101a25780638da5cb5b1461019d5780639721672514610198578063b2394d0914610193578063b4988fd01461018e578063ba16a75014610189578063bbee42d914610184578063d1d200561461017f578063ddf96abd1461017a578063e50688f914610175578063f2fde38b14610170578063fbfa4e111461016b5763fd5908471461016657600080fd5b611c7d565b611c3e565b611bad565b61194f565b6117c7565b611791565b611694565b611599565b6114e2565b611453565b61141a565b6113f1565b6111d2565b6110f7565b610ea0565b610e42565b610d17565b610cdb565b610ca7565b610bda565b610ad6565b610990565b61080d565b610735565b61068f565b610425565b6102ec565b6102c1565b61025d565b3461024d57602036600319011261024d5760043563ffffffff60e01b811680910361024d5760209063160841b160e01b811490811561023c575b506040519015158152f35b6301ffc9a760e01b14905038610231565b600080fd5b600091031261024d57565b3461024d57600036600319011261024d57602060008051602061402583398151915254604051908152f35b6001600160a01b0381160361024d57565b604090600319011261024d576004356102b181610288565b906024356102be81610288565b90565b3461024d5760206102e26102dd6102d736610299565b9061213b565b61211b565b6040519015158152f35b3461024d57600036600319011261024d57602060ff60005460a01c166040519015158152f35b919082519283825260005b84811061033e575050826000602080949584010152601f8019910116010190565b60208183018101518483018201520161031d565b80516001600160a01b03168252906102be906103f16103dd6103cb61039b6103896020880151610160806020890152870190610312565b60408801518682036040880152610312565b606087015160608601526080870151608086015260a087015160a086015260c087015185820360c0870152610312565b60e086015184820360e0860152610312565b610100808601519084830390850152610312565b610120808501516001600160a01b03169083015292610140908101511515910152565b9060206102be928181520190610352565b3461024d57602036600319011261024d5761051361045660043561044881610288565b61045061322a565b5061266b565b61050760ff60096104656118ba565b84546001600160a01b031681529361047f60018201611f7b565b602086015261049060028201611f7b565b60408601526003810154606086015260048101546080860152600581015460a08601526104bf60068201611f7b565b60c08601526104d060078201611f7b565b60e08601526104e160088201611f7b565b61010086015201546001600160a01b03811661012085015260a01c161515610140830152565b60405191829182610414565b0390f35b606090600319011261024d5760043561052f81610288565b906024359060443590565b90815180825260208080930193019160005b82811061055a575050505090565b8351805186528083015186840152604080820151908701526060908101511515908601526080909401939281019260010161054c565b80516001600160a01b03168252906020828101516001600160a01b0316908201526040820151604082015260608201516060820152608082015160808201526105fd6105eb60a08401516101208060a086015284019061053a565b60c084015183820360c0850152610312565b60e080840151151590830152916101008091015191015290565b908082519081815260208091019281808460051b8301019501936000915b8483106106455750505050505090565b9091929394958480610663600193601f198682030187528a51610590565b9801930193019194939290610635565b92919061068a602091604086526040860190610617565b930152565b3461024d576106b86106a036610517565b91821580156106c8575b6106b39061216c565b61250c565b9061051360405192839283610673565b5060328311156106aa565b602080820190808352835180925260408301928160408460051b8301019501936000915b8483106107075750505050505090565b9091929394958480610725600193603f198682030187528a51610352565b98019301930191949392906106f7565b3461024d57600036600319011261024d576000805160206140458339815191525461075f81611ea5565b9061076d6040519283611899565b808252601f1961077c82611ea5565b0160005b8181106107f657505060005b8181106107a1576040518061051385826106d3565b806107d66107d16107b46107f194612445565b6000526000805160206140a5833981519152602052604060002090565b61328e565b6107e08286612286565b526107eb8185612286565b50612261565b61078c565b60209061080161322a565b82828701015201610780565b3461024d576020600461082861082236610299565b906120a6565b0154604051908152f35b90602060031983011261024d576004356001600160401b039283821161024d578060238301121561024d57816004013593841161024d5760248460051b8301011161024d576024019190565b90815180825260208080930193019160005b82811061089e575050505090565b83516001600160a01b031685529381019392810192600101610890565b600611156108c557565b634e487b7160e01b600052602160045260246000fd5b9060068210156108c55752565b91906108fc9060808452608084019061087e565b926020938381038585015284808451928381520193019060005b81811061096c575050509061093291838203604085015261087e565b90606081830391015281808451928381520193019160005b828110610958575050505090565b83518552938101939281019260010161094a565b909193868082610982600194899b9a9b516108db565b979897019501929101610916565b3461024d5761099e36610832565b6109a98115156138b4565b6109b281613900565b6109bb82613900565b916109c581613900565b6109ce82613900565b9160008091815b8181106109f9575050808552855280825282526040519450849361051393856108e8565b610a0481838b613932565b9233610a21610a1560208701612661565b6001600160a01b031690565b03610ab357610a2f846139b9565b610a3a8293926108bb565b8215610aa657610a49836108bb565b60018314610a7f5750610a7a9291610a7591610a6d610a6782612261565b97612661565b908c8c613f7c565b612261565b6109d5565b610a7a93925086610a9e610a98610a7594989992612261565b98612661565b908a8a613f96565b50935050610a7a90612261565b90610a7582610ace610ac8610a7a9592612261565b96612661565b908b8b613f55565b3461024d5760031960203682011261024d576004356001600160401b03811161024d576101008160040192823603011261024d57610b7d60e0610bd5610b92610bc57f30ecc203691b2d18e17ee75d47caf34a3fb9f86e855f7e0414d3cec26d0c424b95610b448833613452565b610b4e8880613340565b96909860a4610ba0610b636024860184613340565b610b706044880186613340565b9690956064890190613340565b99909e6040519d8d8f9e8f9081520191613372565b918b830360208d0152613372565b93608481013560408a01520135606088015242608088015286830360a0880152613372565b9083820360c08501523396613372565b0390a2005b3461024d57610be836610299565b600080516020613fc5833981519152546001600160a01b039290610c0f9084163314612707565b610c29600080516020614025833981519152548383613094565b9290919384158015610c4d575b606086868660405192835260208301526040820152f35b8590600090610c9e575b600080809381933390f115610c995760408051848152602081018690526060979283169390921691600080516020613fe58339815191529190a3388080610c36565b613088565b506108fc610c57565b3461024d576106b8610cb836610517565b9182158015610cd0575b610ccb9061216c565b6125d0565b506032831115610cc2565b3461024d57604036600319011261024d576106b860243580158015610d0c575b610d049061216c565b60043561229f565b506032811115610cfb565b3461024d57610d2536610299565b600080516020613fc5833981519152546001600160a01b03929190610d4d9084163314612707565b610d578183612f97565b610d6181836120a6565b610d696118da565b81546001600160a01b0316815260018201546001600160a01b031660208201526002820154604082015260038201546060820152600482015460808201526101006008610db860058501611ebc565b9360a08401948552610dcc60068201611f7b565b60c0850152610deb610de2600783015460ff1690565b151560e0860152565b0154910152515180610df957005b610e237f54377dfdebf06f6df53fbda737d2dcd7e141f95bbfb0c1223437e856b9de3ac391612245565b9380604051931693169180610e3d42829190602083019252565b0390a4005b3461024d57600080600319360112610e9d57610e5c611d39565b80546001600160a01b03198116825581906001600160a01b03167f8be0079c531659141344cd1fd0a4f28419497f9722a3daafe3b4186f6b6457e08280a380f35b80fd5b606036600319011261024d57600435610eb881610288565b602435610ec481610288565b600080516020613fc583398151915254604435916001600160a01b0391610eee9083163314612707565b610ef881856120a6565b92801515806110ea575b610f56575b5090600080516020613fe583398151915291610f5160046003860195610f2e348854612233565b809755015483604051948594169716958360209093929193604081019481520152565b0390a3005b60048401805490946000946005820194929392865b865488101561109f57610f7e8888612e77565b506003810195610f8f875460ff1690565b611091576001820180548083106110505750610fbd610fd592610fb7610fd193548092612254565b9a612254565b885460ff19166001178955975b5460ff1690565b1590565b8080611046575b1561101e575081610ffd61100f92610ff7611015958c612e77565b90612e93565b80611008818b612e77565b5055612261565b97612261565b96949394610f6b565b9050979097611031575b61101590612261565b9661103e61101591612261565b979050611028565b50828a1415610fdc565b82999892611067575b5050610fd1610fd591610fca565b9061107a8a611081959a939b949b612254565b9055612254565b94610fd5610fd160009891611059565b969550509661101590612261565b919590949350600080516020613fe583398151915296509691966008880191808355815481106110d5575b505050559091610f07565b6110df9089612edf565b5490553880806110ca565b5060058401541515610f02565b3461024d57604036600319011261024d5760043561111481610288565b6024358015918215820361024d5761112c90336120a6565b600781019260ff84541690816111ca575b5061115b575b50611159919060ff801983541691151516179055565b005b600301546111695738611143565b60405162461bcd60e51b815260206004820152603360248201527f43616e6e6f74207265766f6b652061636b6e6f776c656467656d656e742077696044820152727468206e6f6e2d7a65726f2062616c616e636560681b6064820152608490fd5b90503861113d565b3461024d576111e036610832565b6111eb8115156138b4565b6111f86032821115613954565b61120181613900565b9061120b81613900565b9261121582613900565b9161121f81613900565b91600080918193825b81811061127d575050508086528652808452825280158015611257575b505061051391604051948594856108e8565b600080809381938290611274575b3390f115610c99573880611245565b506108fc611265565b61128b818385989698613932565b93898b3361129e610a1560208a01612661565b0361137d57976112ba986112b188613ab6565b909b9195612233565b996112c7610a158a612661565b7f1f69e5b87fd0ce34b3760ba6e5d8aa95a36e316c3ba44e1e65a9d0eb9e96d0bf604051806112f7858a836139a0565b0390a2611303856108bb565b841561136e57611312856108bb565b6001851461134457509181610a759361133961133361133f98979593612261565b9a612661565b92613f7c565b611228565b919798905061133f949350610a75925061136661136082612261565b99612661565b908b8d613f96565b50509550505061133f90612261565b95906113a3908961139361133f96959b91612261565b9861139d85612661565b92613f55565b7f1f69e5b87fd0ce34b3760ba6e5d8aa95a36e316c3ba44e1e65a9d0eb9e96d0bf6113cd82612661565b60408051600281529381013560208501526001600160a01b039190911692a2612261565b3461024d57600036600319011261024d576000546040516001600160a01b039091168152602090f35b3461024d5761115961142b36610299565b9061144e60018060a01b03600080516020613fc583398151915254163314612707565b612a8c565b3461024d57602036600319011261024d57600960043561147281610288565b61147a611d39565b7f4909107c46469d21135443e891c6ecae55b5baa31b338d50f391935308b08f8960206114a68361266b565b846114b08561266b565b01805460ff60a01b1916600160a01b17905590930154604051600181526001600160a01b0391821694939091169290a3005b3461024d57606036600319011261024d576024356114ff81610288565b60443561150b81610288565b6000549160ff8360a01c166115385760ff60a01b19909216600160a01b1760005561115991600435611dd8565b60405162461bcd60e51b815260206004820152602260248201527f496e697469616c697a61626c653a20616c726561647920696e697469616c697a604482015261195960f21b6064820152608490fd5b9060206102be928181520190610617565b3461024d576115a736610832565b6101f4811161164f576115b9816121cd565b9160005b8281106115d257604051806105138682611588565b611605906115f2336115ed6115e8848888612651565b612661565b61213b565b6115fb8161211b565b61160a5750612261565b6115bd565b61162e61163391600052600080516020614005833981519152602052604060002090565b61201f565b61163d8287612286565b526116488186612286565b50386107eb565b60405162461bcd60e51b815260206004820152601e60248201527f42617463682073697a6520746f6f206c6172676520286d6178203530302900006044820152606490fd5b3461024d57600080600319360112610e9d576116af336126d2565b6116d381600052600080516020614085833981519152602052604060002054151590565b1561177957806117509183526000805160206140a58339815191526020528260096040822082815561170760018201612a43565b61171360028201612a43565b82600382015582600482015582600582015561173160068201612a43565b61173d60078201612a43565b61174960088201612a43565b0155612c6c565b50337f29d546abb6e94f4f04d5bdccb6682316f597d43776078f47e273f000e77b2a918280a280f35b6040516304c76d3f60e11b8152336004820152602490fd5b3461024d57600036600319011261024d57600080516020613fc5833981519152546040516001600160a01b039091168152602090f35b3461024d57602036600319011261024d5760096004356117e681610288565b6117ee611d39565b7f4909107c46469d21135443e891c6ecae55b5baa31b338d50f391935308b08f89602061181a8361266b565b846118248561266b565b01805460ff60a01b1916905590930154604051600081526001600160a01b0391821694939091169290a3005b634e487b7160e01b600052604160045260246000fd5b608081019081106001600160401b0382111761188157604052565b611850565b6001600160401b03811161188157604052565b90601f801991011681019081106001600160401b0382111761188157604052565b6040519061016082018281106001600160401b0382111761188157604052565b6040519061012082018281106001600160401b0382111761188157604052565b6040519061190782611866565b565b9291926001600160401b0382116118815760405191611932601f8201601f191660200184611899565b82948184528183011161024d578281602093846000960137010152565b606036600319011261024d5760043561196781610288565b6024359061197482610288565b6001600160401b039160443583811161024d573660238201121561024d576119a6903690602481600401359101611909565b600080516020613fc5833981519152546001600160a01b0391906119cd9083163314612707565b6119d7838561213b565b906119e18261211b565b611b8457600082815260008051602061400583398151915260209081526040822034600382015580546001600160a01b0319166001600160a01b0389161781559197600183810180546001600160a01b0319166001600160a01b038a1617905560068401928551928311611881578a95611a6584611a5f8754611f41565b87612930565b81601f8511600114611af85750928080600080516020613fe58339815191529a999794899794600897611ad29b94611aed575b50501b916000199060031b1c19161790555b0155611ab58161277b565b50611ac881611ac38761249a565b612892565b50611ac3866124d3565b5060408051348152600060208201529382169490911692a380f35b015192503880611a98565b9190601f949394198416611b1187600052602060002090565b9389905b828210611b6a57505092600895928592600080516020613fe58339815191529c9b9996611ad29b999610611b51575b505050811b019055611aaa565b015160001960f88460031b161c19169055388080611b44565b8385015186558f9a50948701949384019390810190611b15565b604051632cf0675960e21b81526001600160a01b03868116600483015285166024820152604490fd5b3461024d57602036600319011261024d57600435611bca81610288565b611bd2611d39565b6001600160a01b03811615611bea5761115990611d91565b60405162461bcd60e51b815260206004820152602660248201527f4f776e61626c653a206e6577206f776e657220697320746865207a65726f206160448201526564647265737360d01b6064820152608490fd5b3461024d57602036600319011261024d57611c57611d39565b60043560008051602061402583398151915255005b9060206102be928181520190610590565b3461024d57610513611ca0611c9136610299565b90611c9a611e4d565b506120a6565b6008611caa6118da565b82546001600160a01b031681529160018101546001600160a01b03166020840152600281015460408401526003810154606084015260048101546080840152611cf560058201611ebc565b60a0840152611d0660068201611f7b565b60c0840152611d25611d1c600783015460ff1690565b151560e0850152565b015461010082015260405191829182611c6c565b6000546001600160a01b03163303611d4d57565b606460405162461bcd60e51b815260206004820152602060248201527f4f776e61626c653a2063616c6c6572206973206e6f7420746865206f776e65726044820152fd5b600080546001600160a01b039283166001600160a01b03198216811783559216907f8be0079c531659141344cd1fd0a4f28419497f9722a3daafe3b4186f6b6457e09080a3565b9091611de390611d91565b6000805160206140258339815191525560018060a01b03166bffffffffffffffffffffffff60a01b90600080516020613fc583398151915281838254161790557fdfd123095cdedb1cecbc229b30f7cf8745fb3d3951645ac4a8fa4c0895f8950291825416179055565b6040519061012082018281106001600160401b038211176118815760405281610100600091828152826020820152826040820152826060820152826080820152606060a0820152606060c08201528260e08201520152565b6001600160401b0381116118815760051b60200190565b908154611ec881611ea5565b92604093611ed885519182611899565b828152809460208092019260005281600020906000935b858510611efe57505050505050565b6004846001928451611f0f81611866565b86548152848701548382015260028701548682015260ff60038801541615156060820152815201930194019391611eef565b90600182811c92168015611f71575b6020831014611f5b57565b634e487b7160e01b600052602260045260246000fd5b91607f1691611f50565b9060405191826000825492611f8f84611f41565b908184526001948581169081600014611ffc5750600114611fb9575b505061190792500383611899565b9093915060005260209081600020936000915b818310611fe457505061190793508201013880611fab565b85548884018501529485019487945091830191611fcc565b91505061190794506020925060ff191682840152151560051b8201013880611fab565b90600861202a6118da565b83546001600160a01b031681529260018101546001600160a01b0316602085015260028101546040850152600381015460608501526004810154608085015261207560058201611ebc565b60a085015261208660068201611f7b565b60c085015261209c610de2600783015460ff1690565b0154610100830152565b906120b1818361213b565b9182600052600080516020613fa5833981519152602052604060002054156120f2575050600052600080516020614005833981519152602052604060002090565b60405163023280eb60e21b81526001600160a01b03918216600482015291166024820152604490fd5b600052600080516020613fa5833981519152602052604060002054151590565b604080516001600160a01b039283166020820190815293909216828201528152612166606082611899565b51902090565b1561217357565b60405162461bcd60e51b815260206004820152600f60248201526e4c696d697420746f6f206c6172676560881b6044820152606490fd5b604051602081018181106001600160401b03821117611881576040526000815290565b906121d782611ea5565b6121e46040519182611899565b82815280926121f5601f1991611ea5565b019060005b82811061220657505050565b602090612211611e4d565b828285010152016121fa565b634e487b7160e01b600052601160045260246000fd5b9190820180921161224057565b61221d565b60001981019190821161224057565b9190820391821161224057565b60001981146122405760010190565b634e487b7160e01b600052603260045260246000fd5b805182101561229a5760209160051b010190565b612270565b90916000805160206140658339815191525491828110156123405783810180821161224057931583858215612336575b505061232d575b808403938411612240576122e9846121cd565b9360005b8181106122f957505050565b808301908184116122405761231361162e61232893612350565b61231d8289612286565b526107eb8188612286565b6122ed565b925081926122d6565b11905083386122cf565b5090915061234c6121aa565b9190565b6000805160206140658339815191525481101561229a577fa543db6724dca3e06c9a739e16672b6894bb866e0b44759e50bc403282ce06270154600052600080516020614005833981519152602052604060002090565b600080516020614045833981519152805482101561229a576000527f94ce1cc9f419dbfb0d7a61a6415af9981ee3d1c02ba0de79a3c180abfae2b4010190600090565b600080516020614065833981519152805482101561229a576000527fa543db6724dca3e06c9a739e16672b6894bb866e0b44759e50bc403282ce06270190600090565b805482101561229a5760005260206000200190600090565b600080516020614045833981519152805482101561229a576000527f94ce1cc9f419dbfb0d7a61a6415af9981ee3d1c02ba0de79a3c180abfae2b401015490565b906124909161242d565b90549060031b1c90565b6001600160a01b031660009081527fdfd123095cdedb1cecbc229b30f7cf8745fb3d3951645ac4a8fa4c0895f895066020526040902090565b6001600160a01b031660009081527fdfd123095cdedb1cecbc229b30f7cf8745fb3d3951645ac4a8fa4c0895f895076020526040902090565b6125189093929361249a565b805493848310156125c557806125b6575083905b8482116125ae575b82820391821161224057612547826121cd565b9260005b83811061255a57505050509190565b8061259461162e6125776125716125a99587612233565b87612486565b600052600080516020614005833981519152602052604060002090565b61259e8288612286565b526107eb8187612286565b61254b565b849150612534565b8201808311612240579061252c565b50505061234c6121aa565b6125dc909392936124d3565b805493848310156125c55780612642575083905b84821161263a575b8282039182116122405761260b826121cd565b9260005b83811061261e57505050509190565b8061259461162e6125776125716126359587612233565b61260f565b8491506125f8565b820180831161224057906125f0565b919081101561229a5760051b0190565b356102be81610288565b612674816126d2565b6000526000805160206140a5833981519152602052604060002090600080516020614085833981519152602052604060002054156126b0575090565b6040516304c76d3f60e11b81526001600160a01b039091166004820152602490fd5b604051602081019160018060a01b0316825260208152604081018181106001600160401b038211176118815760405251902090565b1561270e57565b60405162461bcd60e51b815260206004820152602160248201527f43616c6c6572206973206e6f7420746865206c656467657220636f6e747261636044820152601d60fa1b6064820152608490fd5b916127779183549060031b91821b91600019901b19161790565b9055565b80600052600080516020613fa58339815191528060205260406000205415600014612803576000805160206140658339815191528054600160401b811015611881576001810180835581101561229a5783907fa543db6724dca3e06c9a739e16672b6894bb866e0b44759e50bc403282ce062701555491600052602052604060002055600190565b5050600090565b806000526000805160206140858339815191528060205260406000205415600014612803576000805160206140458339815191528054600160401b811015611881576001810180835581101561229a5783907f94ce1cc9f419dbfb0d7a61a6415af9981ee3d1c02ba0de79a3c180abfae2b40101555491600052602052604060002055600190565b60018101908260005281602052604060002054156000146128fb578054600160401b811015611881576128e66128cf82600187940185558461242d565b819391549060031b91821b91600019901b19161790565b90555491600052602052604060002055600190565b505050600090565b634e487b7160e01b600052600060045260246000fd5b818110612924575050565b60008155600101612919565b9190601f811161293f57505050565b611907926000526020600020906020601f840160051c8301931061296b575b601f0160051c0190612919565b909150819061295e565b91909182516001600160401b0381116118815761299c816129968454611f41565b84612930565b602080601f83116001146129d85750819293946000926129cd575b50508160011b916000199060031b1c1916179055565b0151905038806129b7565b90601f198316956129ee85600052602060002090565b926000905b888210612a2b57505083600195969710612a12575b505050811b019055565b015160001960f88460031b161c19169055388080612a08565b806001859682949686015181550195019301906129f3565b612a4d8154611f41565b9081612a57575050565b81601f60009311600114612a69575055565b908083918252612a88601f60208420940160051c840160018501612919565b5555565b90612a97818361213b565b91612aa18361211b565b15612b7e57612abb8391612ac083612abb612ac69661249a565b612dce565b506124d3565b50612ad081612d21565b50600090815260008051602061400583398151915260205260408120818155816001820155816002820155816003820155600482818301556005820180549084815581612b34575b50505080612b2a600660089301612a43565b8260078201550155565b6001600160fe1b0382168203612240578452602084209060021b8101905b81811015612b185780612b78849260036000918281558260018201558260028201550155565b01612b52565b505050565b634e487b7160e01b600052603160045260246000fd5b6000805160206140458339815191528054908115612beb576000198201918083101561229a577f94ce1cc9f419dbfb0d7a61a6415af9981ee3d1c02ba0de79a3c180abfae2b400600091838352015555565b612b83565b6000805160206140658339815191528054908115612beb576000198201918083101561229a577fa543db6724dca3e06c9a739e16672b6894bb866e0b44759e50bc403282ce0626600091838352015555565b8054908115612beb5760001991820191612c5c838361242d565b909182549160031b1b1916905555565b6000818152600080516020614085833981519152602052604090205480156128035760001991818301918083116122405760008051602061404583398151915254938401938411612240578383612cee9460009603612cf4575b505050612cd1612b99565b600052600080516020614085833981519152602052604060002090565b55600190565b612cd1612d1291612d0a612490612d18956123a7565b9283916123a7565b9061275d565b55388080612cc6565b6000818152600080516020613fa5833981519152602052604090205480156128035760001991818301918083116122405760008051602061406583398151915254938401938411612240578383612cee9460009603612da3575b505050612d86612bf0565b600052600080516020613fa5833981519152602052604060002090565b612d86612d1291612db6612dc5946123ea565b90549060031b1c9283916123ea565b55388080612d7b565b6001810191806000528260205260406000205492831515600014612e6e576000199284840190858211612240578054948501948511612240576000958583612e2294612cee9803612e31575b505050612c42565b90600052602052604060002090565b612e55612d1291612e45612e65948761242d565b90549060031b1c9283918761242d565b8590600052602052604060002090565b55388080612e1a565b50505050600090565b805482101561229a5760005260206000209060021b0190600090565b90612eda57818103612ea3575050565b600360ff818461190795548555600181015460018601556002810154600286015501541691019060ff801983541691151516179055565b612903565b60050180545b828111612ef157505050565b81548015612beb5760001901612f078184612e77565b612eda5760036000918281558260018201558260028201550155825580156122405760001901612ee5565b90612eda5760036060836119079451845560208101516001850155604081015160028501550151151591019060ff801983541691151516179055565b90815491600160401b8310156118815782612f9191600161190795018155612e77565b90612f32565b9190612fa381846120a6565b92600384015491612fba6004860193845490612254565b918215613080576008860191825491601e83101561305757505060056127779495960190815480911060001461302b575061301890612f918354612ffc6118fa565b9281845286602085015242604085015260006060850152612e77565b6130228154612261565b90558254612233565b613052916130376118fa565b91825284602083015242604083015260006060830152612f6e565b613018565b604051639edd285f60e01b81526001600160a01b03918216600482015291166024820152604490fd5b505050509050565b6040513d6000823e3d90fd5b9061309e916120a6565b90600582019081541561321857600093600092600091825b8254811015613178576130c98184612e77565b509760038901986130db8a5460ff1690565b61316c576130ed876002830154612233565b421061311c5761310961311793926001610a7593015490612233565b8a5460ff1916600117909a55565b6130b6565b9661314591995094613137613117939660018a015490612233565b9781870361314b5750612261565b93612261565b61315990610ff78388612e77565b806131648187612e77565b5055386107eb565b50975061311790612261565b50949250600883019180835581548082106131ad575b5050505081600460038301926131a5878554612254565b809455015591565b6131b982600f92612254565b106131d5576131c89084612edf565b5490555b3880808061318e565b90959391509391935b855481101561320e5780610a7560036131fa613209948a612e77565b5001805460ff19166001179055565b6131de565b50919350916131cc565b50506003810154600490910154600092565b6040519061016082018281106001600160401b038211176118815760405281610140600091828152606080602083015280604083015283818301528360808301528360a08301528060c08301528060e0830152610100820152826101208201520152565b9061190760ff600961329e6118ba565b85546001600160a01b03168152946132b860018201611f7b565b60208701526132c960028201611f7b565b60408701526003810154606087015260048101546080870152600581015460a08701526132f860068201611f7b565b60c087015261330960078201611f7b565b60e087015261331a60088201611f7b565b61010087015201546001600160a01b03811661012086015260a01c161515610140840152565b903590601e198136030182121561024d57018035906001600160401b03821161024d5760200191813603831361024d57565b908060209392818452848401376000828201840152601f01601f1916010190565b9092916001600160401b038111611881576133b2816129968454611f41565b6000601f82116001146133eb57819293946000926133e05750508160011b916000199060031b1c1916179055565b0135905038806129b7565b601f1982169461340084600052602060002090565b91805b87811061343a57508360019596971061342057505050811b019055565b0135600019600384901b60f8161c19169055388080612a08565b90926020600181928686013581550194019101613403565b61345b816126d2565b613482610fd182600052600080516020614085833981519152602052604060002054151590565b6136a357506134909061266b565b90600182019061349f82611f7b565b80516020809201206134bb6134b48480613340565b3691611909565b8281519101201492831593613671575b831561363f575b831561360c575b83156135bb575b60e08361352c61352260099561350661358696613500866135a79b613340565b91613393565b608084013560038b015560a084013560048b0155830183613340565b9060028a01613393565b42600588015561354c6135426040830183613340565b9060068a01613393565b61356661355c6060830183613340565b9060078a01613393565b61358061357660c0830183613340565b9060088a01613393565b01612661565b930180546001600160a01b0319166001600160a01b03909416939093178355565b6135ae5750565b805460ff60a01b19169055565b925061358660e06135a79361352c6135226009956135066135de60088c01611f7b565b8281519101206135f46134b460c0880188613340565b838151910120141599965050955050509350506134e0565b60098501549093506001600160a01b031661362c610a1560e08501612661565b6001600160a01b039091161415926134d9565b925061364d60078501611f7b565b8181519101206136636134b46060850185613340565b8281519101201415926134d2565b925061367f60068501611f7b565b8181519101206136956134b46040850185613340565b8281519101201415926134cb565b916136ae8180613340565b916136bc6020820182613340565b916136ca6040820182613340565b6136d76060840184613340565b93909460c082016136e89083613340565b97909860e084016136f890612661565b9a6137016118ba565b6001600160a01b03909d168d52369061371992611909565b60208c0152369061372992611909565b60408a0152608081013560608a015260a0013560808901524260a0890152369061375292611909565b60c0870152369061376292611909565b60e0850152369061377292611909565b6101008301526001600160a01b031661012082015260006101408201526137989161379b565b50565b6138af6102be92826000526000805160206140a5833981519152602052613895610140600960406000206137f46137d8865160018060a01b031690565b82546001600160a01b0319166001600160a01b03909116178255565b613805602086015160018301612975565b613816604086015160028301612975565b606085015160038201556080850151600482015560a0850151600582015561384560c086015160068301612975565b61385660e086015160078301612975565b61386861010086015160088301612975565b610120850151910180546001600160a01b0319166001600160a01b03909216919091178155920151151590565b815460ff60a01b191690151560a01b60ff60a01b16179055565b61280a565b156138bb57565b60405162461bcd60e51b815260206004820152601760248201527f4e6f20736574746c656d656e74732070726f76696465640000000000000000006044820152606490fd5b9061390a82611ea5565b6139176040519182611899565b8281528092613928601f1991611ea5565b0190602036910137565b919081101561229a5760051b8101359060be198136030182121561024d570190565b1561395b57565b60405162461bcd60e51b815260206004820152601d60248201527f546f6f206d616e7920736574746c656d656e747320696e2062617463680000006044820152606490fd5b602090939291936139b58160408101966108db565b0152565b6139cc6139c582612661565b33906120a6565b6139d53361266b565b6139e6610fd1600784015460ff1690565b8015613a9d575b8015613a88575b613a7b57600282015460808401351115613a6e5760090154613a2390610fd1906001600160a01b031684613e00565b613a6257600301546000916040013581811115613a5a57613a449250612254565b905b8115613a525760019190565b600091508190565b505090613a46565b50906040600592013590565b5050906040600492013590565b5050906040600392013590565b5060098101546001600160a01b0316156139f4565b506009810154613ab19060a01c60ff161590565b6139ed565b613ac26139c582612661565b91613acc3361266b565b613add610fd1600786015460ff1690565b8015613bd9575b8015613bc4575b613bb35760028401805491608085013580931015613ba05760090154613b1e90610fd1906001600160a01b031686613e00565b613b8e575560406003840154920135918083119081600014613b885780935b60009215613b8057613b4f9250612254565b925b8280613b70575b50508215613b67576001929190565b60009250829190565b613b7991613c04565b3882613b58565b505092613b51565b83613b3d565b50509091506040600592013590600090565b5050509091506040600492013590600090565b509091506040600392013590600090565b5060098101546001600160a01b031615613aeb565b506009810154613bed9060a01c60ff161590565b613ae4565b600160ff1b8114612240576000190190565b600391828201918254916004820192835490613c208282612254565b8311613d2d575b50509091929350613c39818554612254565b84557fdfd123095cdedb1cecbc229b30f7cf8745fb3d3951645ac4a8fa4c0895f8950254613c6f906001600160a01b0316610a15565b82549091906001600160a01b031690823b1561024d57604051631bb1482360e31b81526001600160a01b039290921660048301526024820152906000908290604490829084905af18015610c9957600080516020613fe583398151915292613d0f92613ce892613d14575b50546001600160a01b031690565b9354925460408051948552602085019190915233946001600160a01b031693918291820190565b0390a3565b80613d21613d2792611886565b80610252565b38613cda565b613d43613d3d83613d4a93612254565b84612254565b8092612254565b84556005830190613d5b8254612245565b905b600090818312613de057613d718385612e77565b50808a015460ff16613dd4576001018054828111613dc15750613d9692505490612254565b905b8115613dad57613da790613bf2565b90613d5d565b50505090919293505b908392913880613c27565b91613dcc9192612254565b905590613d98565b5091613da79150613bf2565b505050509091929350613db6565b60ff601b9116019060ff821161224057565b604190613e1060a0820182613340565b929092036128fb5760209181613e298460009401612661565b613e3282612661565b604080516060808601358983019081526080870135602082015294811b6bffffffffffffffffffffffff199081168685015293901b90921660548401529290920135606882015281608882010391613e92601f1993848101835282611899565b51902090613ee16040519182613ed58882019586603c917f19457468657265756d205369676e6564204d6573736167653a0a3332000000008252601c8201520190565b03908101835282611899565b519020906040810135831a90601b8210613f40575b6040805193845260ff9092166020840152803591830191909152830135606082015280608081015b838052039060015afa15610c99576000516001600160a01b0390811691161490565b90613f4d613f1e91613dee565b919050613ef6565b90600293613f6784613f799594612286565b6001600160a01b039091169052612286565b52565b92613f6783613f8a95612286565b60068210156108c55752565b92613f6783613f799561228656fedfd123095cdedb1cecbc229b30f7cf8745fb3d3951645ac4a8fa4c0895f89504dfd123095cdedb1cecbc229b30f7cf8745fb3d3951645ac4a8fa4c0895f89501526824944047da5b81071fb6349412005c5da81380b336103fbe5dd34556c776dfd123095cdedb1cecbc229b30f7cf8745fb3d3951645ac4a8fa4c0895f89505dfd123095cdedb1cecbc229b30f7cf8745fb3d3951645ac4a8fa4c0895f89500dfd123095cdedb1cecbc229b30f7cf8745fb3d3951645ac4a8fa4c0895f89508dfd123095cdedb1cecbc229b30f7cf8745fb3d3951645ac4a8fa4c0895f89503dfd123095cdedb1cecbc229b30f7cf8745fb3d3951645ac4a8fa4c0895f89509dfd123095cdedb1cecbc229b30f7cf8745fb3d3951645ac4a8fa4c0895f8950aa26469706673582212205e9638dc4f47f929fc045d50a840f46bdcf937d2bf636adcea0585fe79e5684564736f6c63430008140033",
  "devdoc": {
    "kind": "dev",
    "methods": {
      "owner()": {
        "details": "Returns the address of the current owner."
      },
      "renounceOwnership()": {
        "details": "Leaves the contract without owner. It will not be possible to call `onlyOwner` functions anymore. Can only be called by the current owner. NOTE: Renouncing ownership will leave the contract without an owner, thereby removing any functionality that is only available to the owner."
      },
      "supportsInterface(bytes4)": {
        "details": "See {IERC165-supportsInterface}."
      },
      "transferOwnership(address)": {
        "details": "Transfers ownership of the contract to a new account (`newOwner`). Can only be called by the current owner."
      }
    },
    "version": 1
  },
  "userdoc": {
    "kind": "user",
    "methods": {},
    "version": 1
  },
  "storageLayout": {
    "storage": [
      {
        "astId": 7,
        "contract": "contracts/inference/InferenceServing.sol:InferenceServing",
        "label": "_owner",
        "offset": 0,
        "slot": "0",
        "type": "t_address"
      },
      {
        "astId": 9243,
        "contract": "contracts/inference/InferenceServing.sol:InferenceServing",
        "label": "initialized",
        "offset": 20,
        "slot": "0",
        "type": "t_bool"
      },
      {
        "astId": 123,
        "contract": "contracts/inference/InferenceServing.sol:InferenceServing",
        "label": "_status",
        "offset": 0,
        "slot": "1",
        "type": "t_uint256"
      }
    ],
    "types": {
      "t_address": {
        "encoding": "inplace",
        "label": "address",
        "numberOfBytes": "20"
      },
      "t_bool": {
        "encoding": "inplace",
        "label": "bool",
        "numberOfBytes": "1"
      },
      "t_uint256": {
        "encoding": "inplace",
        "label": "uint256",
        "numberOfBytes": "32"
      }
    }
  }
}