{
  "address": "0x16574105A6d2B75646cDE15c1517ebaA00a1Ef06",
  "abi": [
    {
      "inputs": [],
      "stateMutability": "nonpayable",
      "type": "constructor"
    },
    {
      "inputs": [
        {
          "internalType": "uint256",
          "name": "length",
          "type": "uint256"
        },
        {
          "internalType": "uint256",
          "name": "max",
          "type": "uint256"
        }
      ],
      "name": "AdditionalInfoTooLong",
      "type": "error"
    },
    {
      "inputs": [],
      "name": "AlreadyInitialized",
      "type": "error"
    },
    {
      "inputs": [],
      "name": "CallFailed",
      "type": "error"
    },
    {
      "inputs": [
        {
          "internalType": "address",
          "name": "caller",
          "type": "address"
        }
      ],
      "name": "CallerNotRegisteredService",
      "type": "error"
    },
    {
      "inputs": [],
      "name": "DirectDepositsDisabled",
      "type": "error"
    },
    {
      "inputs": [
        {
          "internalType": "uint256",
          "name": "available",
          "type": "uint256"
        },
        {
          "internalType": "uint256",
          "name": "required",
          "type": "uint256"
        }
      ],
      "name": "InsufficientAvailableBalance",
      "type": "error"
    },
    {
      "inputs": [
        {
          "internalType": "address",
          "name": "user",
          "type": "address"
        }
      ],
      "name": "InsufficientBalance",
      "type": "error"
    },
    {
      "inputs": [
        {
          "internalType": "address",
          "name": "serviceAddress",
          "type": "address"
        }
      ],
      "name": "InvalidServiceAddress",
      "type": "error"
    },
    {
      "inputs": [
        {
          "internalType": "string",
          "name": "serviceType",
          "type": "string"
        }
      ],
      "name": "InvalidServiceType",
      "type": "error"
    },
    {
      "inputs": [
        {
          "internalType": "address",
          "name": "user",
          "type": "address"
        }
      ],
      "name": "LedgerExists",
      "type": "error"
    },
    {
      "inputs": [],
      "name": "LedgerLocked",
      "type": "error"
    },
    {
      "inputs": [
        {
          "internalType": "address",
          "name": "user",
          "type": "address"
        }
      ],
      "name": "LedgerNotExists",
      "type": "error"
    },
    {
      "inputs": [
        {
          "internalType": "uint256",
          "name": "provided",
          "type": "uint256"
        },
        {
          "internalType": "uint256",
          "name": "required",
          "type": "uint256"
        }
      ],
      "name": "MinimumDepositRequired",
      "type": "error"
    },
    {
      "inputs": [
        {
          "internalType": "uint256",
          "name": "remainingBalance",
          "type": "uint256"
        }
      ],
      "name": "MustWithdrawAllFundsFirst",
      "type": "error"
    },
    {
      "inputs": [
        {
          "internalType": "string",
          "name": "serviceType",
          "type": "string"
        }
      ],
      "name": "NoRecommendedService",
      "type": "error"
    },
    {
      "inputs": [],
      "name": "NoServicesRegistered",
      "type": "error"
    },
    {
      "inputs": [
        {
          "internalType": "uint256",
          "name": "newCount",
          "type": "uint256"
        },
        {
          "internalType": "uint256",
          "name": "expectedCount",
          "type": "uint256"
        }
      ],
      "name": "ProviderCountMismatchInMigration",
      "type": "error"
    },
    {
      "inputs": [
        {
          "internalType": "address",
          "name": "serviceAddress",
          "type": "address"
        }
      ],
      "name": "ServiceAlreadyRegistered",
      "type": "error"
    },
    {
      "inputs": [
        {
          "internalType": "address",
          "name": "serviceAddress",
          "type": "address"
        }
      ],
      "name": "ServiceMustImplementIServing",
      "type": "error"
    },
    {
      "inputs": [
        {
          "internalType": "string",
          "name": "serviceName",
          "type": "string"
        }
      ],
      "name": "ServiceNameExists",
      "type": "error"
    },
    {
      "inputs": [
        {
          "internalType": "address",
          "name": "serviceAddress",
          "type": "address"
        }
      ],
      "name": "ServiceNotFound",
      "type": "error"
    },
    {
      "inputs": [
        {
          "internalType": "address",
          "name": "serviceAddress",
          "type": "address"
        }
      ],
      "name": "ServiceNotRegistered",
      "type": "error"
    },
    {
      "inputs": [
        {
          "internalType": "uint256",
          "name": "limit",
          "type": "uint256"
        }
      ],
      "name": "ServiceRegistryLimitReached",
      "type": "error"
    },
    {
      "inputs": [],
      "name": "ServiceTypeRequired",
      "type": "error"
    },
    {
      "inputs": [
        {
          "internalType": "uint256",
          "name": "index",
          "type": "uint256"
        },
        {
          "internalType": "uint256",
          "name": "max",
          "type": "uint256"
        }
      ],
      "name": "StartUserIndexOutOfBounds",
      "type": "error"
    },
    {
      "inputs": [
        {
          "internalType": "uint256",
          "name": "requested",
          "type": "uint256"
        },
        {
          "internalType": "uint256",
          "name": "maximum",
          "type": "uint256"
        }
      ],
      "name": "TooManyProviders",
      "type": "error"
    },
    {
      "inputs": [
        {
          "internalType": "uint256",
          "name": "current",
          "type": "uint256"
        },
        {
          "internalType": "uint256",
          "name": "maximum",
          "type": "uint256"
        }
      ],
      "name": "TooManyProvidersForService",
      "type": "error"
    },
    {
      "inputs": [],
      "name": "TransferFailed",
      "type": "error"
    },
    {
      "inputs": [],
      "name": "VersionRequired",
      "type": "error"
    },
    {
      "inputs": [],
      "name": "ZeroAddressNotAllowed",
      "type": "error"
    },
    {
      "inputs": [],
      "name": "ZeroAmountNotAllowed",
      "type": "error"
    },
    {
      "anonymous": false,
      "inputs": [
        {
          "indexed": true,
          "internalType": "address",
          "name": "user",
          "type": "address"
        },
        {
          "indexed": true,
          "internalType": "address",
          "name": "service",
          "type": "address"
        },
        {
          "indexed": false,
          "internalType": "uint256",
          "name": "amount",
          "type": "uint256"
        }
      ],
      "name": "FundSpent",
      "type": "event"
    },
    {
      "anonymous": false,
      "inputs": [
        {
          "indexed": false,
          "internalType": "uint8",
          "name": "version",
          "type": "uint8"
        }
      ],
      "name": "Initialized",
      "type": "event"
    },
    {
      "anonymous": false,
      "inputs": [
        {
          "indexed": true,
          "internalType": "address",
          "name": "user",
          "type": "address"
        },
        {
          "indexed": false,
          "internalType": "string",
          "name": "additionalInfo",
          "type": "string"
        }
      ],
      "name": "LedgerInfoUpdated",
      "type": "event"
    },
    {
      "anonymous": false,
      "inputs": [
        {
          "indexed": true,
          "internalType": "address",
          "name": "previousOwner",
          "type": "address"
        },
        {
          "indexed": true,
          "internalType": "address",
          "name": "newOwner",
          "type": "address"
        }
      ],
      "name": "OwnershipTransferred",
      "type": "event"
    },
    {
      "anonymous": false,
      "inputs": [
        {
          "indexed": false,
          "internalType": "string",
          "name": "serviceType",
          "type": "string"
        },
        {
          "indexed": false,
          "internalType": "string",
          "name": "version",
          "type": "string"
        },
        {
          "indexed": false,
          "internalType": "address",
          "name": "serviceAddress",
          "type": "address"
        }
      ],
      "name": "RecommendedServiceUpdated",
      "type": "event"
    },
    {
      "anonymous": false,
      "inputs": [
        {
          "indexed": true,
          "internalType": "address",
          "name": "serviceAddress",
          "type": "address"
        },
        {
          "indexed": false,
          "internalType": "string",
          "name": "serviceName",
          "type": "string"
        }
      ],
      "name": "ServiceRegistered",
      "type": "event"
    },
    {
      "anonymous": false,
      "inputs": [
        {
          "indexed": true,
          "internalType": "address",
          "name": "user",
          "type": "address"
        },
        {
          "indexed": true,
          "internalType": "address",
          "name": "serviceAddress",
          "type": "address"
        },
        {
          "indexed": false,
          "internalType": "uint256",
          "name": "providerCount",
          "type": "uint256"
        }
      ],
      "name": "UserServiceProvidersMigrated",
      "type": "event"
    },
    {
      "inputs": [],
      "name": "MAX_ADDITIONAL_INFO_LENGTH",
      "outputs": [
        {
          "internalType": "uint256",
          "name": "",
          "type": "uint256"
        }
      ],
      "stateMutability": "view",
      "type": "function"
    },
    {
      "inputs": [],
      "name": "MAX_PROVIDERS_PER_BATCH",
      "outputs": [
        {
          "internalType": "uint256",
          "name": "",
          "type": "uint256"
        }
      ],
      "stateMutability": "view",
      "type": "function"
    },
    {
      "inputs": [],
      "name": "MAX_PROVIDERS_PER_USER_PER_SERVICE",
      "outputs": [
        {
          "internalType": "uint256",
          "name": "",
          "type": "uint256"
        }
      ],
      "stateMutability": "view",
      "type": "function"
    },
    {
      "inputs": [],
      "name": "MAX_SERVICES",
      "outputs": [
        {
          "internalType": "uint256",
          "name": "",
          "type": "uint256"
        }
      ],
      "stateMutability": "view",
      "type": "function"
    },
    {
      "inputs": [],
      "name": "MIN_ACCOUNT_BALANCE",
      "outputs": [
        {
          "internalType": "uint256",
          "name": "",
          "type": "uint256"
        }
      ],
      "stateMutability": "view",
      "type": "function"
    },
    {
      "inputs": [],
      "name": "MIN_TRANSFER_AMOUNT",
      "outputs": [
        {
          "internalType": "uint256",
          "name": "",
          "type": "uint256"
        }
      ],
      "stateMutability": "view",
      "type": "function"
    },
    {
      "inputs": [
        {
          "internalType": "string",
          "name": "additionalInfo",
          "type": "string"
        }
      ],
      "name": "addLedger",
      "outputs": [
        {
          "internalType": "uint256",
          "name": "",
          "type": "uint256"
        },
        {
          "internalType": "uint256",
          "name": "",
          "type": "uint256"
        }
      ],
      "stateMutability": "payable",
      "type": "function"
    },
    {
      "inputs": [],
      "name": "deleteLedger",
      "outputs": [],
      "stateMutability": "nonpayable",
      "type": "function"
    },
    {
      "inputs": [],
      "name": "depositFund",
      "outputs": [],
      "stateMutability": "payable",
      "type": "function"
    },
    {
      "inputs": [
        {
          "internalType": "address",
          "name": "recipient",
          "type": "address"
        }
      ],
      "name": "depositFundFor",
      "outputs": [],
      "stateMutability": "payable",
      "type": "function"
    },
    {
      "inputs": [],
      "name": "getAllActiveServices",
      "outputs": [
        {
          "components": [
            {
              "internalType": "address",
              "name": "serviceAddress",
              "type": "address"
            },
            {
              "internalType": "contract IServing",
              "name": "serviceContract",
              "type": "address"
            },
            {
              "internalType": "string",
              "name": "serviceType",
              "type": "string"
            },
            {
              "internalType": "string",
              "name": "version",
              "type": "string"
            },
            {
              "internalType": "string",
              "name": "fullName",
              "type": "string"
            },
            {
              "internalType": "string",
              "name": "description",
              "type": "string"
            },
            {
              "internalType": "bool",
              "name": "isRecommended",
              "type": "bool"
            },
            {
              "internalType": "uint256",
              "name": "registeredAt",
              "type": "uint256"
            }
          ],
          "internalType": "struct ServiceInfo[]",
          "name": "",
          "type": "tuple[]"
        }
      ],
      "stateMutability": "view",
      "type": "function"
    },
    {
      "inputs": [
        {
          "internalType": "uint256",
          "name": "offset",
          "type": "uint256"
        },
        {
          "internalType": "uint256",
          "name": "limit",
          "type": "uint256"
        }
      ],
      "name": "getAllLedgers",
      "outputs": [
        {
          "components": [
            {
              "internalType": "address",
              "name": "user",
              "type": "address"
            },
            {
              "internalType": "uint256",
              "name": "availableBalance",
              "type": "uint256"
            },
            {
              "internalType": "uint256",
              "name": "totalBalance",
              "type": "uint256"
            },
            {
              "internalType": "string",
              "name": "additionalInfo",
              "type": "string"
            }
          ],
          "internalType": "struct Ledger[]",
          "name": "ledgers",
          "type": "tuple[]"
        },
        {
          "internalType": "uint256",
          "name": "total",
          "type": "uint256"
        }
      ],
      "stateMutability": "view",
      "type": "function"
    },
    {
      "inputs": [
        {
          "internalType": "string",
          "name": "serviceType",
          "type": "string"
        }
      ],
      "name": "getAllVersions",
      "outputs": [
        {
          "internalType": "string[]",
          "name": "versions",
          "type": "string[]"
        },
        {
          "internalType": "address[]",
          "name": "addresses",
          "type": "address[]"
        },
        {
          "internalType": "bool[]",
          "name": "isRecommendedFlags",
          "type": "bool[]"
        }
      ],
      "stateMutability": "view",
      "type": "function"
    },
    {
      "inputs": [
        {
          "internalType": "address",
          "name": "user",
          "type": "address"
        }
      ],
      "name": "getLedger",
      "outputs": [
        {
          "components": [
            {
              "internalType": "address",
              "name": "user",
              "type": "address"
            },
            {
              "internalType": "uint256",
              "name": "availableBalance",
              "type": "uint256"
            },
            {
              "internalType": "uint256",
              "name": "totalBalance",
              "type": "uint256"
            },
            {
              "internalType": "string",
              "name": "additionalInfo",
              "type": "string"
            }
          ],
          "internalType": "struct Ledger",
          "name": "",
          "type": "tuple"
        }
      ],
      "stateMutability": "view",
      "type": "function"
    },
    {
      "inputs": [
        {
          "internalType": "address",
          "name": "user",
          "type": "address"
        },
        {
          "internalType": "string",
          "name": "serviceName",
          "type": "string"
        }
      ],
      "name": "getLedgerProviders",
      "outputs": [
        {
          "internalType": "address[]",
          "name": "",
          "type": "address[]"
        }
      ],
      "stateMutability": "view",
      "type": "function"
    },
    {
      "inputs": [
        {
          "internalType": "string",
          "name": "serviceType",
          "type": "string"
        }
      ],
      "name": "getRecommendedService",
      "outputs": [
        {
          "internalType": "string",
          "name": "version",
          "type": "string"
        },
        {
          "internalType": "address",
          "name": "serviceAddress",
          "type": "address"
        }
      ],
      "stateMutability": "view",
      "type": "function"
    },
    {
      "inputs": [
        {
          "internalType": "string",
          "name": "serviceName",
          "type": "string"
        }
      ],
      "name": "getServiceAddressByName",
      "outputs": [
        {
          "internalType": "address",
          "name": "",
          "type": "address"
        }
      ],
      "stateMutability": "view",
      "type": "function"
    },
    {
      "inputs": [
        {
          "internalType": "address",
          "name": "serviceAddress",
          "type": "address"
        }
      ],
      "name": "getServiceInfo",
      "outputs": [
        {
          "components": [
            {
              "internalType": "address",
              "name": "serviceAddress",
              "type": "address"
            },
            {
              "internalType": "contract IServing",
              "name": "serviceContract",
              "type": "address"
            },
            {
              "internalType": "string",
              "name": "serviceType",
              "type": "string"
            },
            {
              "internalType": "string",
              "name": "version",
              "type": "string"
            },
            {
              "internalType": "string",
              "name": "fullName",
              "type": "string"
            },
            {
              "internalType": "string",
              "name": "description",
              "type": "string"
            },
            {
              "internalType": "bool",
              "name": "isRecommended",
              "type": "bool"
            },
            {
              "internalType": "uint256",
              "name": "registeredAt",
              "type": "uint256"
            }
          ],
          "internalType": "struct ServiceInfo",
          "name": "",
          "type": "tuple"
        }
      ],
      "stateMutability": "view",
      "type": "function"
    },
    {
      "inputs": [
        {
          "internalType": "address",
          "name": "owner",
          "type": "address"
        }
      ],
      "name": "initialize",
      "outputs": [],
      "stateMutability": "nonpayable",
      "type": "function"
    },
    {
      "inputs": [],
      "name": "initialized",
      "outputs": [
        {
          "internalType": "bool",
          "name": "",
          "type": "bool"
        }
      ],
      "stateMutability": "view",
      "type": "function"
    },
    {
      "inputs": [
        {
          "internalType": "string",
          "name": "serviceType",
          "type": "string"
        },
        {
          "internalType": "string",
          "name": "version",
          "type": "string"
        }
      ],
      "name": "isRecommendedVersion",
      "outputs": [
        {
          "internalType": "bool",
          "name": "",
          "type": "bool"
        }
      ],
      "stateMutability": "view",
      "type": "function"
    },
    {
      "inputs": [
        {
          "internalType": "uint256",
          "name": "startUserIndex",
          "type": "uint256"
        },
        {
          "internalType": "uint256",
          "name": "batchSize",
          "type": "uint256"
        }
      ],
      "name": "migrateUserServiceProvidersMapping",
      "outputs": [
        {
          "internalType": "uint256",
          "name": "migratedCount",
          "type": "uint256"
        },
        {
          "internalType": "uint256",
          "name": "nextUserIndex",
          "type": "uint256"
        }
      ],
      "stateMutability": "nonpayable",
      "type": "function"
    },
    {
      "inputs": [],
      "name": "owner",
      "outputs": [
        {
          "internalType": "address",
          "name": "",
          "type": "address"
        }
      ],
      "stateMutability": "view",
      "type": "function"
    },
    {
      "inputs": [
        {
          "internalType": "uint256",
          "name": "amount",
          "type": "uint256"
        }
      ],
      "name": "refund",
      "outputs": [],
      "stateMutability": "nonpayable",
      "type": "function"
    },
    {
      "inputs": [
        {
          "internalType": "string",
          "name": "serviceType",
          "type": "string"
        },
        {
          "internalType": "string",
          "name": "version",
          "type": "string"
        },
        {
          "internalType": "address",
          "name": "serviceAddress",
          "type": "address"
        },
        {
          "internalType": "string",
          "name": "description",
          "type": "string"
        }
      ],
      "name": "registerService",
      "outputs": [],
      "stateMutability": "nonpayable",
      "type": "function"
    },
    {
      "inputs": [],
      "name": "renounceOwnership",
      "outputs": [],
      "stateMutability": "nonpayable",
      "type": "function"
    },
    {
      "inputs": [
        {
          "internalType": "address[]",
          "name": "providers",
          "type": "address[]"
        },
        {
          "internalType": "string",
          "name": "serviceName",
          "type": "string"
        }
      ],
      "name": "retrieveFund",
      "outputs": [],
      "stateMutability": "nonpayable",
      "type": "function"
    },
    {
      "inputs": [
        {
          "internalType": "string",
          "name": "serviceType",
          "type": "string"
        },
        {
          "internalType": "string",
          "name": "version",
          "type": "string"
        }
      ],
      "name": "setRecommendedService",
      "outputs": [],
      "stateMutability": "nonpayable",
      "type": "function"
    },
    {
      "inputs": [
        {
          "internalType": "address",
          "name": "user",
          "type": "address"
        },
        {
          "internalType": "uint256",
          "name": "amount",
          "type": "uint256"
        }
      ],
      "name": "spendFund",
      "outputs": [],
      "stateMutability": "nonpayable",
      "type": "function"
    },
    {
      "inputs": [
        {
          "internalType": "address",
          "name": "provider",
          "type": "address"
        },
        {
          "internalType": "string",
          "name": "serviceName",
          "type": "string"
        },
        {
          "internalType": "uint256",
          "name": "amount",
          "type": "uint256"
        }
      ],
      "name": "transferFund",
      "outputs": [],
      "stateMutability": "nonpayable",
      "type": "function"
    },
    {
      "inputs": [
        {
          "internalType": "address",
          "name": "newOwner",
          "type": "address"
        }
      ],
      "name": "transferOwnership",
      "outputs": [],
      "stateMutability": "nonpayable",
      "type": "function"
    },
    {
      "inputs": [
        {
          "internalType": "string",
          "name": "additionalInfo",
          "type": "string"
        }
      ],
      "name": "updateAdditionalInfo",
      "outputs": [],
      "stateMutability": "nonpayable",
      "type": "function"
    },
    {
      "stateMutability": "payable",
      "type": "receive"
    }
  ],
  "transactionHash": "0x746822361bac19c968b6a001db1c2a78a6d250be1a9c7ba9ec4948be825288f5",
  "args": [],
  "numDeployments": 5,
  "solcInputHash": "c13064465f128346eaa373f03ed4044a",
  "bytecode": "0x608080604052346100c15760008054336001600160a01b031982168117808455919260ff9291906001600160a01b038516907f8be0079c531659141344cd1fd0a4f28419497f9722a3daafe3b4186f6b6457e09080a36001805560a81c1615610073575b604051613c1f9081620000c78239f35b600161ff0160a01b0319163360ff60a81b191617600160a81b1760005560ff81527f7f26b83ff96e1f2b6a682f133852f6798a09c465da95921460cefb384740249890602090a13880610063565b600080fdfe60806040526004361015610023575b361561001957600080fd5b61002161305d565b005b60003560e01c806307940ea2146102235780630e8641741461021e578063158ef93e146102195780631ef4dc4414610214578063278ecde11461020f5780632ba43b821461020a57806331404a19146102055780633c3dbbc714610200578063410b3815146101fb5780634df74a3e146101f6578063715018a6146101f157806373ef900f146101ec5780638158c9e5146101e75780638d0d8cb6146101e25780638da5cb5b146101dd5780639449fe17146101d8578063987086f0146101d35780639ade3972146101ce578063a2610565146101c9578063ac30b622146101c4578063aef42173146101bf578063b8d5e581146101ba578063c4d66de8146101b5578063c5e53f7e146101b0578063d4dca96d146101ab578063dd8a4118146101a6578063e032f732146101a1578063e374248d1461019c578063f2fde38b14610197578063f585f3ea14610192578063f7cd6af91461018d5763ffc22b5f0361000e57611a24565b61199d565b611864565b6117d7565b6117ba565b6116d4565b611600565b611446565b61126a565b6111d5565b6111b0565b6110cf565b61105e565b61103b565b610f6e565b610df0565b610d9b565b610d72565b610c4c565b610a64565b610a05565b6109aa565b610971565b6108af565b61088d565b6107e3565b610723565b6105a4565b610526565b6104d6565b610414565b610238565b600091031261023357565b600080fd5b346102335760003660031901126102335760206040516101f48152f35b634e487b7160e01b600052604160045260246000fd5b608081019081106001600160401b0382111761028657604052565b610255565b6001600160401b03811161028657604052565b602081019081106001600160401b0382111761028657604052565b606081019081106001600160401b0382111761028657604052565b90601f801991011681019081106001600160401b0382111761028657604052565b6040519061010082018281106001600160401b0382111761028657604052565b6001600160401b03811161028657601f01601f191660200190565b81601f820112156102335780359061034782610315565b9261035560405194856102d4565b8284526020838301011161023357816000926020809301838601378301015290565b602060031982011261023357600435906001600160401b038211610233576103a191600401610330565b90565b60005b8381106103b75750506000910152565b81810151838201526020016103a7565b906020916103e0815180928185528580860191016103a4565b601f01601f1916010190565b906104046020919493946040845260408401906103c7565b6001600160a01b03909416910152565b346102335761042236610377565b604051602081019061044c602082855161043f8187858a016103a4565b81010380845201826102d4565b51902060009081527f0bb5d42557ea6926c17416c5b1c1c29c28d9006d6f713295a2d385f07156ed0460205260409020546001600160a01b03169081156104b557506104a2600361049c83611c32565b01611d62565b6104b1604051928392836103ec565b0390f35b6040516316fab7f360e21b81529081906104d29060048301611c21565b0390fd5b3461023357600036600319011261023357602060ff60005460a01c166040519015158152f35b600435906001600160a01b038216820361023357565b35906001600160a01b038216820361023357565b34610233576080366003190112610233576001600160401b0360043581811161023357610557903690600401610330565b6024358281116102335761056f903690600401610330565b604435906001600160a01b0382168203610233576064359384116102335761059e610021943690600401610330565b92611d7f565b34610233576020366003190112610233576004356105c1336131d1565b600091818352600080516020613b2a833981519152908160205260409160ff838620541661071257838552602052818420805460ff1916600117905561060633613206565b6001810180548381106106fb5761061d8482612230565b801515806106ea575b6106c3575083600288959486959461064087968796612230565b90550161064e828254612230565b80915515610692575b335af16106626122ac565b5015610682575061067561067f91611be7565b805460ff19169055565b80f35b516312171d8360e31b8152600490fd5b6106b56106b06106a1336131d1565b6106aa816138d6565b50611c04565b61223d565b6106be33613271565b610657565b85516315110fb160e21b8152600481019190915267016345785d8a00006024820152604490fd5b5067016345785d8a00008110610626565b845163112fed8b60e31b8152336004820152602490fd5b825163344f180560e11b8152600490fd5b346102335760603660031901126102335761073c6104fc565b6024356001600160401b0381116102335761075b903690600401610330565b90610765336131d1565b91600092808452600080516020613b2a8339815191528060205260ff6040862054166107ba5761067f93610675936107b59284885260205260408720600160ff1982541617905560443591612338565b611be7565b60405163344f180560e11b8152600490fd5b6001600160401b0381116102865760051b60200190565b34610233576040366003190112610233576001600160401b03600435818111610233573660238201121561023357806004013561081f816107cc565b9161082d60405193846102d4565b8183526020916024602085019160051b8301019136831161023357602401905b828210610876576024358587821161023357610870610021923690600401610330565b906125bb565b83809161088284610512565b81520191019061084d565b3461023357600036600319011261023357602060405166b1a2bc2ec500008152f35b346102335760008060031936011261096e576002600154146109295760026001556108d9336131d1565b808252600080516020613b2a8339815191528060205260ff6040842054166107ba5781835260205260408220805460ff1916600117905561092090610675906107b56128c9565b61067f60018055565b60405162461bcd60e51b815260206004820152601f60248201527f5265656e7472616e637947756172643a207265656e7472616e742063616c6c006044820152606490fd5b80fd5b346102335760403660031901126102335761098a613099565b610998602435600435612941565b60408051928352602083019190915290f35b346102335760008060031936011261096e576109c4613099565b80546001600160a01b03198116825581906001600160a01b03167f8be0079c531659141344cd1fd0a4f28419497f9722a3daafe3b4186f6b6457e08280a380f35b3461023357600036600319011261023357602060405160328152f35b906040600319830112610233576001600160401b036004358181116102335783610a4d91600401610330565b92602435918211610233576103a191600401610330565b3461023357610a7236610a21565b610a7a613099565b60405191610ad1610ac484610aab610aa5610a986020840187611bd0565b602d60f81b815260010190565b86611bd0565b0394610abf601f19968781018352826102d4565b611f97565b546001600160a01b031690565b926001600160a01b03808516918215610c2b5785610bb5610bfc947f22cc4700d5c4d3ff57ddfb4bb70d5a0e1bed5c060482e8eeeb8672d4471ad5e2989487610bd495610b366040519182610b2a602082018096611bd0565b039081018352826102d4565b51902091610b70610ac4846000527f0bb5d42557ea6926c17416c5b1c1c29c28d9006d6f713295a2d385f07156ed04602052604060002090565b918216908115159182610c20575b5050610c01575b506000527f0bb5d42557ea6926c17416c5b1c1c29c28d9006d6f713295a2d385f07156ed04602052604060002090565b80546001600160a01b0319166001600160a01b03909216919091179055565b610bf06006610be283611c32565b01805460ff19166001179055565b60405193849384612bcd565b0390a1005b6006610c0f610c1a92611c32565b01805460ff19169055565b38610b85565b141590503880610b7e565b60405163b536580760e01b81526001600160a01b0387166004820152602490fd5b60008060031936011261096e57610c62336131d1565b808252600080516020613b2a8339815191528060205260ff6040842054166107ba5781835260205260408220805460ff191660011790553415610d6057610ca8336131d1565b610cd3610ccf82600052600080516020613b4a833981519152602052604060002054151590565b1590565b15610d2a5767016345785d8a00003410610d045761067f916107b561067592610cfa612299565b90349033906134f5565b6040516315110fb160e21b815234600482015267016345785d8a00006024820152604490fd5b61067f916002610d3c61067593611c04565b60018101610d4b3482546128bc565b905501610d593482546128bc565b9055611be7565b6040516307a1cab560e11b8152600490fd5b34610233576000366003190112610233576000546040516001600160a01b039091168152602090f35b3461023357600036600319011261023357602060405160148152f35b90608060606103a19360018060a01b038151168452602081015160208501526040810151604085015201519181606082015201906103c7565b3461023357604036600319011261023357610e0f602435600435612cbf565b906040519060408201926040835281518094526060830160608560051b850101926020809101916000905b878210610e4e578680878760208301520390f35b909192948380610e6a600193605f198b82030186528951610db7565b970192019201909291610e3a565b80516001600160a01b031682529060e080610ef5610ee3610ed1610ebf6101006020898101516001600160a01b0316908901526040890151908060408a01528801906103c7565b606088015187820360608901526103c7565b608087015186820360808801526103c7565b60a086015185820360a08701526103c7565b60c08086015115159085015293015191015290565b6020808201906020835283518092526040830192602060408460051b8301019501936000915b848310610f405750505050505090565b9091929394958480610f5e600193603f198682030187528a51610e78565b9801930193019194939290610f30565b3461023357600036600319011261023357600080516020613b0a83398151915254610f98816107cc565b90610fa660405192836102d4565b808252601f19610fb5826107cc565b0160005b81811061102457505060005b818110610fda57604051806104b18582610f0a565b80611008611003610ffe610ff2610ff2600196613a3e565b6001600160a01b031690565b611c32565b612dbe565b6110128286612888565b5261101d8185612888565b5001610fc5565b60209061102f612d6d565b82828701015201610fb9565b3461023357602061105461104e36610a21565b90612e51565b6040519015158152f35b3461023357600036600319011261023357602060405167016345785d8a00008152f35b90815180825260208080930193019160005b8281106110a1575050505090565b83516001600160a01b031685529381019392810192600101611093565b9060206103a1928181520190611081565b34610233576040366003190112610233576110e86104fc565b6024356001600160401b038111610233576001600160a01b039061111490610abf903690600401610330565b541680156111985761112861113f92611c59565b9060018060a01b0316600052602052604060002090565b805461114a81612ed1565b9160005b82811061116357604051806104b186826110be565b80611192611179610ff2610ff260019587613aff565b6111838388612888565b6001600160a01b039091169052565b0161114e565b6024906040519063b536580760e01b82526004820152fd5b346102335760206001600160a01b036111cb610abf36610377565b5416604051908152f35b34610233576020366003190112610233576111ee6104fc565b6000549060ff8260a01c16801561125d575b61124c5760ff60a01b19909116600160a01b1760005561121f90613469565b7f7f26b83ff96e1f2b6a682f133852f6798a09c465da95921460cefb3847402498602060405160018152a1005b60405162dc149f60e41b8152600490fd5b5060ff8260a81c16611200565b61127336610377565b61127c336131d1565b80600052600080516020613b2a833981519152918260205260409260ff846000205416611385578260005260205282600020600160ff1982541617905567016345785d8a000034106113605780516110008082116113435750506112df336131d1565b9161130483600052600080516020613b4a833981519152602052604060002054151590565b61132c576107b56106759261131c94349033906134f5565b5134815260006020820152604090f35b835163cde58aa160e01b8152336004820152602490fd5b60449250845191631a78290b60e21b835260048301526024820152fd5b82516315110fb160e21b815234600482015267016345785d8a00006024820152604490fd5b835163344f180560e11b8152600490fd5b909160608201906060835283518092526080830160808360051b850101926020809601916000905b8282106114165750505050906113da9183820385850152611081565b90604081830391015281808451928381520193019160005b828110611400575050505090565b83511515855293810193928101926001016113f2565b909192948780611435600193607f9b9a9b198c820301865289516103c7565b9701920192019092919695966113be565b346102335761145436610377565b600080516020613b0a83398151915254600091825b828110611584575061147a83612f87565b9161148d61148785612ed1565b94612ed1565b91600090815b8381106114aa57604051806104b1878a8a84611396565b6114b9610ff2610ff283613a3e565b6114c281611c32565b908888604080516020611507818301836114df8260028c01612f03565b03936114f3601f19958681018352826102d4565b51902093519182019282610b2a858d611bd0565b5190201461151c575b50505050600101611493565b60068461155c8995611183876115759761155660019c9e61156499611546600361157a9f01611d62565b6115508383612888565b52612888565b50612888565b015460ff1690565b61156e838a612888565b9015159052565b612932565b9290388888611510565b6002611598610ffe610ff2610ff285613a3e565b016040908151906115db602091836115b38482018093612f03565b03936115c7601f19958681018352826102d4565b51902093519182019282610b2a8589611bd0565b519020146115ec575b600101611469565b926115f8600191612932565b9390506115e4565b34610233576040806003193601126102335761161a6104fc565b336000908152600080516020613b6a83398151915260205282812054909291906001600160a01b0316156116ac57611651816131d1565b91828452600080516020613b2a8339815191528060205260ff828620541661169b578385526020528320805460ff1916600117905561067f91610675916107b59060243590612fd1565b815163344f180560e11b8152600490fd5b8151631b8815cf60e01b8152336004820152602490fd5b9060206103a1928181520190610e78565b34610233576020366003190112610233576116ed6104fc565b6116f5612d6d565b506001600160a01b03166000908152600080516020613b6a833981519152602052604090206104b19060076117286102f5565b82546001600160a01b031681529160018101546001600160a01b0316602084015261175560028201611d62565b604084015261176660038201611d62565b606084015261177760048201611d62565b608084015261178860058201611d62565b60a08401526117a761179e600683015460ff1690565b151560c0850152565b015460e0820152604051918291826116c3565b346102335760003660031901126102335760206040516110008152f35b34610233576020366003190112610233576117f06104fc565b6117f8613099565b6001600160a01b038116156118105761002190613469565b60405162461bcd60e51b815260206004820152602660248201527f4f776e61626c653a206e6577206f776e657220697320746865207a65726f206160448201526564647265737360d01b6064820152608490fd5b6020366003190112610233576118786104fc565b611881816131d1565b600091818352600080516020613b2a8339815191528060205260409060ff828620541661169b57838552602052808420805460ff191660011790556001600160a01b0382161561197c57341561196c576118da826131d1565b90611902610ccf83600052600080516020613b4a833981519152602052604060002054151590565b156119575767016345785d8a000034106119335750916107b56106759261067f9461192b612299565b9134916134f5565b516315110fb160e21b815234600482015267016345785d8a00006024820152604490fd5b506106759150916002610d3c61067f94611c04565b516307a1cab560e11b8152600490fd5b516342bcdf7f60e11b8152600490fd5b9060206103a1928181520190610db7565b34610233576020366003190112610233576104b16119ca6119bc6104fc565b6119c4612bf7565b50613206565b6003611a13604051926119dc8461026b565b60018060a01b0381541684526001810154602085015260028101546040850152611a0c6040518094819301611ccc565b03826102d4565b60608201526040519182918261198c565b3461023357611a3236610377565b611a3b336131d1565b600091818352600080516020613b2a8339815191526020908060205260ff6040862054166107ba5783855260205260408420600190600160ff198254161790558251611000808211611bb25750506003611a9433613206565b01918351916001600160401b03831161028657611abb83611ab58654611c92565b86612037565b602091601f8411600114611b3b57505091611af582610675959361067f97958991611b30575b508160011b916000199060031b1c19161790565b90555b7f12d213c9bc59dc8d250f0d6aba2d21e4e500a72a76621a44600697a285833fb160405180611b28339482611c21565b0390a2611be7565b905084015138611ae1565b9190601f19841690611b5286600052602060002090565b9389915b838310611b9b575050509261067f96949260019282610675989610611b82575b5050811b019055611af8565b85015160001960f88460031b161c191690553880611b76565b888501518655948501949381019391810191611b56565b6044925060405191631a78290b60e21b835260048301526024820152fd5b90611be3602092828151948592016103a4565b0190565b600052600080516020613b2a833981519152602052604060002090565b600052600080516020613baa833981519152602052604060002090565b9060206103a19281815201906103c7565b6001600160a01b03166000908152600080516020613b6a8339815191526020526040902090565b6001600160a01b031660009081527f0bb5d42557ea6926c17416c5b1c1c29c28d9006d6f713295a2d385f07156ed0a6020526040902090565b90600182811c92168015611cc2575b6020831014611cac57565b634e487b7160e01b600052602260045260246000fd5b91607f1691611ca1565b805460009392611cdb82611c92565b91828252602093600191600181169081600014611d435750600114611d02575b5050505050565b90939495506000929192528360002092846000945b838610611d2f57505050500101903880808080611cfb565b805485870183015294019385908201611d17565b60ff19168685015250505090151560051b010191503880808080611cfb565b90611d7d611d769260405193848092611ccc565b03836102d4565b565b929091611d8a613099565b6001600160a01b038116938415611f7657805115611f6457835115611f5257611db8610ff2610ac484611c32565b611f3157604092835194611ded86611ddf611dd9610a986020840188611bd0565b84611bd0565b03601f1981018852876102d4565b611dfc610ff2610ac488611f97565b611f1757611e0c610ccf856130f1565b611ef757611e1c610ccf85613174565b611ef7576101f4600080516020613b0a833981519152541015611ede5792611ebc611ed99593611ec5937f4c76643f3c678c590db6e8ad9fe0bb6e75d36cb853c3bd06c487607ff35e6f719896611e716102f5565b6001600160a01b0386168152926001600160a01b038c16602085015287840152606083015286608083015260a0820152600060c08201524260e0820152611eb783611c32565b61214d565b610bb584611f97565b611ece856136c6565b505191829182611c21565b0390a2565b845163f1d44a5160e01b81526101f46004820152602490fd5b84516316219dbf60e11b81526001600160a01b0385166004820152602490fd5b845163057f36eb60e21b8152806104d28860048301611c21565b6040516353752f3960e11b81526001600160a01b0383166004820152602490fd5b604051630e84c45560e31b8152600490fd5b604051638dfa0f6f60e01b8152600490fd5b6040516364db873d60e11b81526001600160a01b0383166004820152602490fd5b6020611fb09181604051938285809451938492016103a4565b81017f0bb5d42557ea6926c17416c5b1c1c29c28d9006d6f713295a2d385f07156ed0181520301902090565b602090611ff69282604051948386809551938492016103a4565b82019081520301902090565b9161201c9183549060031b91821b91600019901b19161790565b9055565b81811061202b575050565b60008155600101612020565b9190601f811161204657505050565b611d7d926000526020600020906020601f840160051c83019310612072575b601f0160051c0190612020565b9091508190612065565b91909182516001600160401b038111610286576120a38161209d8454611c92565b84612037565b602080601f83116001146120e25750819061201c9394956000926120d7575b50508160011b916000199060031b1c19161790565b0151905038806120c2565b90601f198316956120f885600052602060002090565b926000905b8882106121355750508360019596971061211c575b505050811b019055565b015160001960f88460031b161c19169055388080612112565b806001859682949686015181550195019301906120fd565b815181546001600160a01b0319166001600160a01b039091161781559060079060e09060208101516001850180546001600160a01b0319166001600160a01b039092169190911790556121a760408201516002860161207c565b6121b860608201516003860161207c565b6121c960808201516004860161207c565b6121da60a08201516005860161207c565b6121ff6121ea60c0830151151590565b600686019060ff801983541691151516179055565b0151910155565b634e487b7160e01b600052601160045260246000fd5b60001981019190821161222b57565b612206565b9190820391821161222b57565b60036000918281558260018201558260028201550161225c8154611c92565b8061226657505050565b82601f821160011461227757505055565b9091808252612295601f60208420940160051c840160018501612020565b5555565b604051906122a68261029e565b60008252565b3d156122d7573d906122bd82610315565b916122cb60405193846102d4565b82523d6000602084013e565b606090565b90816020910312610233575180151581036102335790565b6040513d6000823e3d90fd5b6001600160a01b039182168152911660208201526060604082018190526103a192910190611ccc565b90816020910312610233575190565b9161234e610ac461234833613206565b93611f97565b926001600160a01b038085161561259a5761236885611c32565b80546001909101546040805163147500e360e01b81523360048201526001600160a01b038681166024830152919893821696602095909316909116929082908581604481885afa9081156124f55760009161256d575b50156124fa5750508651631320b9eb60e11b81523360048201526001600160a01b0385166024820152918390839060449082905afa9182156124f55761241d612416600194612460936000916124c8575b5084613444565b8093612230565b885163745e87f760e01b868201523360248201526001600160a01b039096166044870152606486019290925290939081608481015b03601f1981018352826102d4565b945b0180548381106124a85791839161247e60009795889795612230565b905583519301915af161248f6122ac565b50156124985750565b51633204506f60e01b8152600490fd5b865163adb9e04360e01b8152600481019190915260248101849052604490fd5b6124e89150873d89116124ee575b6124e081836102d4565b810190612329565b3861240f565b503d6124d6565b6122f4565b94919096925066b1a2bc2ec5000081106125475750865163e50688f960e01b84820152600192916125429161253b8161245260038701853360248501612300565b97336133bd565b612462565b87516315110fb160e21b8152600481019190915266b1a2bc2ec500006024820152604490fd5b61258d9150863d8811612593575b61258581836102d4565b8101906122dc565b386123be565b503d61257b565b60405163b536580760e01b81526001600160a01b0386166004820152602490fd5b91906125c6336131d1565b90600090828252600080516020613b2a8339815191529060208260205260409260ff84862054166113855785855260205282842091600192600160ff198254161790558751601481116128525750610ac461262091611f97565b6001600160a01b039490858116156128305761265260016126448693959495611c32565b01546001600160a01b031690565b9861265c33613206565b998497859116925b612688575b505050505050509061067591610d596001611d7d9596019182546128bc565b815181101561282b576126ab61269e8284612888565b516001600160a01b031690565b875163147500e360e01b8152336004808301919091526001600160a01b039290921660248201528581604481885afa9081156124f557879161280e575b506126f7575b50850185612664565b9761270561269e8385612888565b885163271e279160e11b8152338b82019081526001600160a01b039092166020830152606092909183908390819060400103818b8a5af19182156124f5576127559389936127dd575b50506128bc565b9761276361269e8385612888565b90843b156127d9578851636c79158d60e01b8152339181019182526001600160a01b03909216602082015290959493929190859087908190604001038183875af19081156124f557879687926127c0575b509192939495506126ee565b806127cd6127d39261028b565b80610228565b386127b4565b8680fd5b6127fd929350803d10612807575b6127f581836102d4565b8101906128a1565b505090388061274e565b503d6127eb565b6128259150863d88116125935761258581836102d4565b386126e8565b612669565b845163b536580760e01b81526001600160a01b03919091166004820152602490fd5b845163414f261960e11b8152600481019190915260146024820152604490fd5b634e487b7160e01b600052603260045260246000fd5b805182101561289c5760209160051b010190565b612872565b90816060910312610233578051916040602083015192015190565b9190820180921161222b57565b60026128d433613206565b01548061291a57506128e533613271565b6128ee336131d1565b6128f7816138d6565b50600052600080516020613baa833981519152602052611d7d604060002061223d565b6024906040519063f6ba0ebf60e01b82526004820152fd5b600019811461222b5760010190565b9190600080516020613b0a8339815191525415612bbb57612966610ff2610ff2613a7f565b90612975600261049c84611c32565b90600080516020613b8a83398151915254908115612bad5781861015612b845780158015612b72575b15612b60575091905b600094916001600160a01b03908181165b8585106129c757505050505090565b90919293966129e0610ac46129db8a613abd565b611c04565b6001600160a01b03811660009081527f0bb5d42557ea6926c17416c5b1c1c29c28d9006d6f713295a2d385f07156ed0960205260409020612a219087611fdc565b908154918215612b5457612a388661112884611c59565b60005b848110612b01575054838103612ae05750849291879160005b848110612ab2575050917f7512efdfec478fc8dfe48e38898da79514e44b21c7d93a9972e4ebefc1afab42612aa6949260019694612a9e6040519283921694829190602083019252565b0390a3612932565b975b01939291906129b8565b909250600191939450612ad3612acd610ff2610ff286613aec565b84613456565b5001918791869493612a54565b6040516333b17cbb60e01b8152600481019190915260248101849052604490fd5b80612b1a610ff2610ff2610ff2610ff260019689613aff565b612b37610ccf828660019160005201602052604060002054151590565b612b43575b5001612a3b565b612b4d90846137dd565b5038612b3c565b50505096600190612aa8565b612b6b9150856128bc565b91906129a7565b50612b7d8683612230565b811161299e565b85612b8e8361221c565b60405163a549fe5f60e01b815260048101929092526024820152604490fd5b505050509050600090600090565b6040516355dcae9160e11b8152600490fd5b9161040490612be96040939695966060865260608601906103c7565b9084820360208601526103c7565b60405190612c048261026b565b606080836000815260006020820152600060408201520152565b90612c28826107cc565b612c3560405191826102d4565b8281528092612c46601f19916107cc565b019060005b828110612c5757505050565b602090612c62612bf7565b82828501015201612c4b565b9060036060604051612c7f8161026b565b612cbb819560018060a01b0381541683526001810154602084015260028101546040840152612cb46040518096819301611ccc565b03846102d4565b0152565b600080516020613b8a83398151915254929183821015612d575780612d52575060325b810180821161222b5781612cf985612cfe93613444565b612230565b612d0781612c1e565b9160005b828110612d19575050509190565b80612d36612d31612d2c600194866128bc565b6134b0565b612c6e565b612d408287612888565b52612d4b8186612888565b5001612d0b565b612ce2565b5050604051612d658161029e565b600081529190565b6040519061010082018281106001600160401b0382111761028657604052600060e0838281528260208201526060604082015260608082015260606080820152606060a08201528260c08201520152565b906007612dc96102f5565b83546001600160a01b031681529260018101546001600160a01b03166020850152612df660028201611d62565b6040850152612e0760038201611d62565b6060850152612e1860048201611d62565b6080850152612e2960058201611d62565b60a0850152612e48612e3f600683015460ff1690565b151560c0860152565b015460e0830152565b6021612e9e916040519381612e708693518092602080870191016103a4565b8201602d60f81b6020820152612e8f82518093602087850191016103a4565b010360018101845201826102d4565b6001600160a01b0390612eb090611f97565b54168015612ecb576006612ec560ff92611c32565b01541690565b50600090565b90612edb826107cc565b612ee860405191826102d4565b8281528092612ef9601f19916107cc565b0190602036910137565b600092918154612f1281611c92565b92600191808316908115612f6c5750600114612f2f575b50505050565b9091929394506000526020906020600020906000915b858310612f5b5750505050019038808080612f29565b805485840152918301918101612f45565b60ff1916845250505081151590910201915038808080612f29565b90612f91826107cc565b612f9e60405191826102d4565b8281528092612faf601f19916107cc565b019060005b828110612fc057505050565b806060602080938501015201612fb4565b90612fdb82613206565b6002810160018154920154820382811161222b5783811061303c575082820391821161222b575560405190815233916001600160a01b0316907f6f81b9cf4ed9328799879be7651da4420ab1bc260b34ea71f72e9659aa548e6890602090a3565b60405163adb9e04360e01b8152600481019190915260248101849052604490fd5b336000908152600080516020613b6a83398151915260205260409020546001600160a01b0316611d7d57604051630799a15f60e11b8152600490fd5b6000546001600160a01b031633036130ad57565b606460405162461bcd60e51b815260206004820152602060248201527f4f776e61626c653a2063616c6c6572206973206e6f7420746865206f776e65726044820152fd5b6130fa81613624565b9081613162575b8161310a575090565b60209150600090604051838101906301ffc9a760e01b808352602482015260248152613135816102b9565b5191617530fa6000513d82613156575b508161314f575090565b9050151590565b60201115915038613145565b905061316d8161364d565b1590613101565b61317d81613624565b90816131bf575b8161318d575090565b60209150600090604051838101906301ffc9a760e01b825263160841b160e01b602482015260248152613135816102b9565b90506131ca8161364d565b1590613184565b604051602081019160018060a01b0316825260208152604081018181106001600160401b038211176102865760405251902090565b61320f816131d1565b9081600052600080516020613b4a8339815191526020526040600020541561324f5750600052600080516020613baa833981519152602052604060002090565b604051637d2d536b60e01b81526001600160a01b039091166004820152602490fd5b600080516020613b0a8339815191525460005b81811061329057505050565b61329f610ff2610ff283613a3e565b6132b56132ab82611c32565b9161112886611c59565b8054906132c182612ed1565b9160005b8181106133a157505081519160006001809501905b8481106132ef57505050505050600101613284565b8154613303906001600160a01b0316610ff2565b9061331161269e8286612888565b823b1561023357604051639721672560e01b81526001600160a01b038c8116600483015291909116602482015287926000908290604490829084905af1908161338e575b506133785761337061336a61269e8387612888565b86613456565b505b016132da565b61338861336a61269e8387612888565b50613372565b806127cd61339b9261028b565b38613355565b806133b7611179610ff2610ff260019588613aff565b016132c5565b6001600160a01b0390811660009081527f0bb5d42557ea6926c17416c5b1c1c29c28d9006d6f713295a2d385f07156ed0a602090815260408083209484168352939052919091209192919081549360328510156134245761342193945016906137dd565b50565b60405163e949933760e01b81526004810186905260326024820152604490fd5b9080821015613451575090565b905090565b6103a1916001600160a01b031690613995565b600080546001600160a01b039283166001600160a01b03198216811783559216907f8be0079c531659141344cd1fd0a4f28419497f9722a3daafe3b4186f6b6457e09080a3565b600080516020613b8a8339815191525481101561289c57600080516020613bca8339815191520154600052600080516020613baa833981519152602052604060002090565b9190939293826000526003602091600080516020613baa83398151915260205261354e6040600020916001958060018501556002840155829060018060a01b03166bffffffffffffffffffffffff60a01b825416179055565b01918551916001600160401b0383116102865761356f83611ab58654611c92565b602091601f84116001146135ad57505090806135a69261342196976000926120d75750508160011b916000199060031b1c19161790565b9055613767565b96601f929192198416976135c686600052602060002090565b936000915b8a831061360d57505050908392916001946134219899106135f4575b505050811b019055613767565b015160001960f88460031b161c191690553880806135e7565b8385015186559485019493810193918101916135cb565b6000602091604051838101906301ffc9a760e01b808352602482015260248152613135816102b9565b6000602091604051838101906301ffc9a760e01b825263ffffffff60e01b602482015260248152613135816102b9565b600080516020613b8a833981519152805482101561289c57600052600080516020613bca8339815191520190600090565b805482101561289c5760005260206000200190600090565b806000527f0bb5d42557ea6926c17416c5b1c1c29c28d9006d6f713295a2d385f07156ed03806020526040600020541560001461376057600080516020613b0a8339815191528054600160401b811015610286576001810180835581101561289c5783907f10f78b23dc0eb204a6d6fa9709ff7d389ae78db91903b42d2351233e11ab5ab801555491600052602052604060002055600190565b5050600090565b80600052600080516020613b4a833981519152806020526040600020541560001461376057600080516020613b8a8339815191528054600160401b811015610286576001810180835581101561289c578390600080516020613bca83398151915201555491600052602052604060002055600190565b600082815260018201602052604090205461376057805490600160401b821015610286578261382d6138168460018096018555846136ae565b819391549060031b91821b91600019901b19161790565b905580549260005201602052604060002055600190565b600080516020613b8a8339815191528054908115613896576000198201918083101561289c577fb41db55c7d24928028896a7eb7f5b05917c002e0088f26af95b1bfac47132b52600091838352015555565b634e487b7160e01b600052603160045260246000fd5b805490811561389657600019918201916138c683836136ae565b909182549160031b1b1916905555565b6000818152600080516020613b4a8339815191526020526040902054801561376057600019918183019180831161222b57600080516020613b8a8339815191525493840193841161222b578383613958946000960361395e575b50505061393b613844565b600052600080516020613b4a833981519152602052604060002090565b55600190565b61393b6139869161397e61397461398c9561367d565b90549060031b1c90565b92839161367d565b90612002565b55388080613930565b6001810191806000528260205260406000205492831515600014613a3557600019928484019085821161222b57805494850194851161222b5760009585836139e99461395898036139f8575b5050506138ac565b90600052602052604060002090565b613a1c61398691613a0c613a2c94876136ae565b90549060031b1c928391876136ae565b8590600052602052604060002090565b553880806139e1565b50505050600090565b600080516020613b0a833981519152805482101561289c576000527f10f78b23dc0eb204a6d6fa9709ff7d389ae78db91903b42d2351233e11ab5ab8015490565b600080516020613b0a83398151915280541561289c576000527f10f78b23dc0eb204a6d6fa9709ff7d389ae78db91903b42d2351233e11ab5ab85490565b600080516020613b8a833981519152805482101561289c57600052600080516020613bca833981519152015490565b80541561289c5760005260206000205490565b90613974916136ae56fe0bb5d42557ea6926c17416c5b1c1c29c28d9006d6f713295a2d385f07156ed020bb5d42557ea6926c17416c5b1c1c29c28d9006d6f713295a2d385f07156ed080bb5d42557ea6926c17416c5b1c1c29c28d9006d6f713295a2d385f07156ed060bb5d42557ea6926c17416c5b1c1c29c28d9006d6f713295a2d385f07156ed000bb5d42557ea6926c17416c5b1c1c29c28d9006d6f713295a2d385f07156ed050bb5d42557ea6926c17416c5b1c1c29c28d9006d6f713295a2d385f07156ed07b41db55c7d24928028896a7eb7f5b05917c002e0088f26af95b1bfac47132b53a2646970667358221220262ced05d2361dc392300c91034add3f6a9dedba3d0cfc410e54ae3425334cd764736f6c63430008160033",
  "devdoc": {
    "errors": {
      "AlreadyInitialized()": [
        {
          "details": "Emitted when attempting to initialize an already initialized or locked contract."
        }
      ]
    },
    "events": {
      "Initialized(uint8)": {
        "details": "Triggered when the contract has been initialized or reinitialized."
      }
    },
    "kind": "dev",
    "methods": {
      "constructor": {
        "custom:oz-upgrades-unsafe-allow": "constructor"
      },
      "migrateUserServiceProvidersMapping(uint256,uint256)": {
        "details": "Migrates userServiceProviders (serviceType-based) to userServiceProvidersByAddress (serviceAddress-based)Supports batch processing to prevent gas limit issues with large user basesCan be called by owner after contract upgrade to migrate existing dataSafe to call multiple times - will only migrate data that hasn't been migrated yet",
        "params": {
          "batchSize": "Maximum number of users to process (use 0 for all remaining users)",
          "startUserIndex": "Index of user to start migration from (0-based, use 0 to start from beginning)"
        },
        "returns": {
          "migratedCount": "Number of users that had data migrated",
          "nextUserIndex": "Index to continue from in next batch (equals total users when complete)"
        }
      },
      "owner()": {
        "details": "Returns the address of the current owner."
      },
      "renounceOwnership()": {
        "details": "Leaves the contract without owner. It will not be possible to call `onlyOwner` functions anymore. Can only be called by the current owner. NOTE: Renouncing ownership will leave the contract without an owner, thereby removing any functionality that is only available to the owner."
      },
      "transferOwnership(address)": {
        "details": "Transfers ownership of the contract to a new account (`newOwner`). Can only be called by the current owner."
      },
      "updateAdditionalInfo(string)": {
        "params": {
          "additionalInfo": "New additional info (max 4KB)"
        }
      }
    },
    "version": 1
  },
  "userdoc": {
    "kind": "user",
    "methods": {
      "migrateUserServiceProvidersMapping(uint256,uint256)": {
        "notice": "One-time migration function to move data from old mapping to new mapping"
      },
      "updateAdditionalInfo(string)": {
        "notice": "Update additional info for an existing ledger"
      }
    },
    "version": 1
  },
  "storageLayout": {
    "storage": [
      {
        "astId": 7,
        "contract": "contracts/ledger/LedgerManager.sol:LedgerManager",
        "label": "_owner",
        "offset": 0,
        "slot": "0",
        "type": "t_address"
      },
      {
        "astId": 15905,
        "contract": "contracts/ledger/LedgerManager.sol:LedgerManager",
        "label": "initialized",
        "offset": 20,
        "slot": "0",
        "type": "t_bool"
      },
      {
        "astId": 15908,
        "contract": "contracts/ledger/LedgerManager.sol:LedgerManager",
        "label": "_initializationLocked",
        "offset": 21,
        "slot": "0",
        "type": "t_bool"
      },
      {
        "astId": 123,
        "contract": "contracts/ledger/LedgerManager.sol:LedgerManager",
        "label": "_status",
        "offset": 0,
        "slot": "1",
        "type": "t_uint256"
      }
    ],
    "types": {
      "t_address": {
        "encoding": "inplace",
        "label": "address",
        "numberOfBytes": "20"
      },
      "t_bool": {
        "encoding": "inplace",
        "label": "bool",
        "numberOfBytes": "1"
      },
      "t_uint256": {
        "encoding": "inplace",
        "label": "uint256",
        "numberOfBytes": "32"
      }
    }
  }
}