{
  "address": "0x363Aab3300c75888Fc87aDBf37d653677163B308",
  "abi": [
    {
      "inputs": [
        {
          "internalType": "address",
          "name": "user",
          "type": "address"
        }
      ],
      "name": "InsufficientBalance",
      "type": "error"
    },
    {
      "inputs": [
        {
          "internalType": "address",
          "name": "serviceAddress",
          "type": "address"
        }
      ],
      "name": "InvalidServiceAddress",
      "type": "error"
    },
    {
      "inputs": [
        {
          "internalType": "string",
          "name": "serviceType",
          "type": "string"
        }
      ],
      "name": "InvalidServiceType",
      "type": "error"
    },
    {
      "inputs": [
        {
          "internalType": "address",
          "name": "user",
          "type": "address"
        }
      ],
      "name": "LedgerExists",
      "type": "error"
    },
    {
      "inputs": [
        {
          "internalType": "address",
          "name": "user",
          "type": "address"
        }
      ],
      "name": "LedgerNotExists",
      "type": "error"
    },
    {
      "inputs": [
        {
          "internalType": "string",
          "name": "serviceName",
          "type": "string"
        }
      ],
      "name": "ServiceNameExists",
      "type": "error"
    },
    {
      "inputs": [
        {
          "internalType": "address",
          "name": "serviceAddress",
          "type": "address"
        }
      ],
      "name": "ServiceNotRegistered",
      "type": "error"
    },
    {
      "inputs": [
        {
          "internalType": "uint256",
          "name": "requested",
          "type": "uint256"
        },
        {
          "internalType": "uint256",
          "name": "maximum",
          "type": "uint256"
        }
      ],
      "name": "TooManyProviders",
      "type": "error"
    },
    {
      "anonymous": false,
      "inputs": [
        {
          "indexed": true,
          "internalType": "address",
          "name": "previousOwner",
          "type": "address"
        },
        {
          "indexed": true,
          "internalType": "address",
          "name": "newOwner",
          "type": "address"
        }
      ],
      "name": "OwnershipTransferred",
      "type": "event"
    },
    {
      "anonymous": false,
      "inputs": [
        {
          "indexed": true,
          "internalType": "string",
          "name": "serviceType",
          "type": "string"
        },
        {
          "indexed": false,
          "internalType": "string",
          "name": "version",
          "type": "string"
        },
        {
          "indexed": false,
          "internalType": "address",
          "name": "serviceAddress",
          "type": "address"
        }
      ],
      "name": "RecommendedServiceUpdated",
      "type": "event"
    },
    {
      "anonymous": false,
      "inputs": [
        {
          "indexed": true,
          "internalType": "address",
          "name": "serviceAddress",
          "type": "address"
        },
        {
          "indexed": false,
          "internalType": "string",
          "name": "serviceName",
          "type": "string"
        }
      ],
      "name": "ServiceRegistered",
      "type": "event"
    },
    {
      "inputs": [],
      "name": "MAX_ADDITIONAL_INFO_LENGTH",
      "outputs": [
        {
          "internalType": "uint256",
          "name": "",
          "type": "uint256"
        }
      ],
      "stateMutability": "view",
      "type": "function"
    },
    {
      "inputs": [],
      "name": "MAX_PROVIDERS_PER_BATCH",
      "outputs": [
        {
          "internalType": "uint256",
          "name": "",
          "type": "uint256"
        }
      ],
      "stateMutability": "view",
      "type": "function"
    },
    {
      "inputs": [],
      "name": "MAX_SERVICES",
      "outputs": [
        {
          "internalType": "uint256",
          "name": "",
          "type": "uint256"
        }
      ],
      "stateMutability": "view",
      "type": "function"
    },
    {
      "inputs": [],
      "name": "MIN_ACCOUNT_BALANCE",
      "outputs": [
        {
          "internalType": "uint256",
          "name": "",
          "type": "uint256"
        }
      ],
      "stateMutability": "view",
      "type": "function"
    },
    {
      "inputs": [],
      "name": "MIN_TRANSFER_AMOUNT",
      "outputs": [
        {
          "internalType": "uint256",
          "name": "",
          "type": "uint256"
        }
      ],
      "stateMutability": "view",
      "type": "function"
    },
    {
      "inputs": [
        {
          "internalType": "string",
          "name": "additionalInfo",
          "type": "string"
        }
      ],
      "name": "addLedger",
      "outputs": [
        {
          "internalType": "uint256",
          "name": "",
          "type": "uint256"
        },
        {
          "internalType": "uint256",
          "name": "",
          "type": "uint256"
        }
      ],
      "stateMutability": "payable",
      "type": "function"
    },
    {
      "inputs": [],
      "name": "deleteLedger",
      "outputs": [],
      "stateMutability": "nonpayable",
      "type": "function"
    },
    {
      "inputs": [],
      "name": "depositFund",
      "outputs": [],
      "stateMutability": "payable",
      "type": "function"
    },
    {
      "inputs": [
        {
          "internalType": "address",
          "name": "recipient",
          "type": "address"
        }
      ],
      "name": "depositFundFor",
      "outputs": [],
      "stateMutability": "payable",
      "type": "function"
    },
    {
      "inputs": [],
      "name": "getAllActiveServices",
      "outputs": [
        {
          "components": [
            {
              "internalType": "address",
              "name": "serviceAddress",
              "type": "address"
            },
            {
              "internalType": "contract IServing",
              "name": "serviceContract",
              "type": "address"
            },
            {
              "internalType": "string",
              "name": "serviceType",
              "type": "string"
            },
            {
              "internalType": "string",
              "name": "version",
              "type": "string"
            },
            {
              "internalType": "string",
              "name": "fullName",
              "type": "string"
            },
            {
              "internalType": "string",
              "name": "description",
              "type": "string"
            },
            {
              "internalType": "bool",
              "name": "isRecommended",
              "type": "bool"
            },
            {
              "internalType": "uint256",
              "name": "registeredAt",
              "type": "uint256"
            }
          ],
          "internalType": "struct ServiceInfo[]",
          "name": "",
          "type": "tuple[]"
        }
      ],
      "stateMutability": "view",
      "type": "function"
    },
    {
      "inputs": [
        {
          "internalType": "uint256",
          "name": "offset",
          "type": "uint256"
        },
        {
          "internalType": "uint256",
          "name": "limit",
          "type": "uint256"
        }
      ],
      "name": "getAllLedgers",
      "outputs": [
        {
          "components": [
            {
              "internalType": "address",
              "name": "user",
              "type": "address"
            },
            {
              "internalType": "uint256",
              "name": "availableBalance",
              "type": "uint256"
            },
            {
              "internalType": "uint256",
              "name": "totalBalance",
              "type": "uint256"
            },
            {
              "internalType": "string",
              "name": "additionalInfo",
              "type": "string"
            }
          ],
          "internalType": "struct Ledger[]",
          "name": "ledgers",
          "type": "tuple[]"
        },
        {
          "internalType": "uint256",
          "name": "total",
          "type": "uint256"
        }
      ],
      "stateMutability": "view",
      "type": "function"
    },
    {
      "inputs": [
        {
          "internalType": "string",
          "name": "serviceType",
          "type": "string"
        }
      ],
      "name": "getAllVersions",
      "outputs": [
        {
          "internalType": "string[]",
          "name": "versions",
          "type": "string[]"
        },
        {
          "internalType": "address[]",
          "name": "addresses",
          "type": "address[]"
        },
        {
          "internalType": "bool[]",
          "name": "isRecommendedFlags",
          "type": "bool[]"
        }
      ],
      "stateMutability": "view",
      "type": "function"
    },
    {
      "inputs": [
        {
          "internalType": "address",
          "name": "user",
          "type": "address"
        }
      ],
      "name": "getLedger",
      "outputs": [
        {
          "components": [
            {
              "internalType": "address",
              "name": "user",
              "type": "address"
            },
            {
              "internalType": "uint256",
              "name": "availableBalance",
              "type": "uint256"
            },
            {
              "internalType": "uint256",
              "name": "totalBalance",
              "type": "uint256"
            },
            {
              "internalType": "string",
              "name": "additionalInfo",
              "type": "string"
            }
          ],
          "internalType": "struct Ledger",
          "name": "",
          "type": "tuple"
        }
      ],
      "stateMutability": "view",
      "type": "function"
    },
    {
      "inputs": [
        {
          "internalType": "address",
          "name": "user",
          "type": "address"
        },
        {
          "internalType": "string",
          "name": "serviceName",
          "type": "string"
        }
      ],
      "name": "getLedgerProviders",
      "outputs": [
        {
          "internalType": "address[]",
          "name": "",
          "type": "address[]"
        }
      ],
      "stateMutability": "view",
      "type": "function"
    },
    {
      "inputs": [
        {
          "internalType": "string",
          "name": "serviceType",
          "type": "string"
        }
      ],
      "name": "getRecommendedService",
      "outputs": [
        {
          "internalType": "string",
          "name": "version",
          "type": "string"
        },
        {
          "internalType": "address",
          "name": "serviceAddress",
          "type": "address"
        }
      ],
      "stateMutability": "view",
      "type": "function"
    },
    {
      "inputs": [
        {
          "internalType": "string",
          "name": "serviceName",
          "type": "string"
        }
      ],
      "name": "getServiceAddressByName",
      "outputs": [
        {
          "internalType": "address",
          "name": "",
          "type": "address"
        }
      ],
      "stateMutability": "view",
      "type": "function"
    },
    {
      "inputs": [
        {
          "internalType": "address",
          "name": "serviceAddress",
          "type": "address"
        }
      ],
      "name": "getServiceInfo",
      "outputs": [
        {
          "components": [
            {
              "internalType": "address",
              "name": "serviceAddress",
              "type": "address"
            },
            {
              "internalType": "contract IServing",
              "name": "serviceContract",
              "type": "address"
            },
            {
              "internalType": "string",
              "name": "serviceType",
              "type": "string"
            },
            {
              "internalType": "string",
              "name": "version",
              "type": "string"
            },
            {
              "internalType": "string",
              "name": "fullName",
              "type": "string"
            },
            {
              "internalType": "string",
              "name": "description",
              "type": "string"
            },
            {
              "internalType": "bool",
              "name": "isRecommended",
              "type": "bool"
            },
            {
              "internalType": "uint256",
              "name": "registeredAt",
              "type": "uint256"
            }
          ],
          "internalType": "struct ServiceInfo",
          "name": "",
          "type": "tuple"
        }
      ],
      "stateMutability": "view",
      "type": "function"
    },
    {
      "inputs": [
        {
          "internalType": "address",
          "name": "owner",
          "type": "address"
        }
      ],
      "name": "initialize",
      "outputs": [],
      "stateMutability": "nonpayable",
      "type": "function"
    },
    {
      "inputs": [],
      "name": "initialized",
      "outputs": [
        {
          "internalType": "bool",
          "name": "",
          "type": "bool"
        }
      ],
      "stateMutability": "view",
      "type": "function"
    },
    {
      "inputs": [
        {
          "internalType": "string",
          "name": "serviceType",
          "type": "string"
        },
        {
          "internalType": "string",
          "name": "version",
          "type": "string"
        }
      ],
      "name": "isRecommendedVersion",
      "outputs": [
        {
          "internalType": "bool",
          "name": "",
          "type": "bool"
        }
      ],
      "stateMutability": "view",
      "type": "function"
    },
    {
      "inputs": [],
      "name": "owner",
      "outputs": [
        {
          "internalType": "address",
          "name": "",
          "type": "address"
        }
      ],
      "stateMutability": "view",
      "type": "function"
    },
    {
      "inputs": [
        {
          "internalType": "uint256",
          "name": "amount",
          "type": "uint256"
        }
      ],
      "name": "refund",
      "outputs": [],
      "stateMutability": "nonpayable",
      "type": "function"
    },
    {
      "inputs": [
        {
          "internalType": "string",
          "name": "serviceType",
          "type": "string"
        },
        {
          "internalType": "string",
          "name": "version",
          "type": "string"
        },
        {
          "internalType": "address",
          "name": "serviceAddress",
          "type": "address"
        },
        {
          "internalType": "string",
          "name": "description",
          "type": "string"
        }
      ],
      "name": "registerService",
      "outputs": [],
      "stateMutability": "nonpayable",
      "type": "function"
    },
    {
      "inputs": [],
      "name": "renounceOwnership",
      "outputs": [],
      "stateMutability": "nonpayable",
      "type": "function"
    },
    {
      "inputs": [
        {
          "internalType": "address[]",
          "name": "providers",
          "type": "address[]"
        },
        {
          "internalType": "string",
          "name": "serviceName",
          "type": "string"
        }
      ],
      "name": "retrieveFund",
      "outputs": [],
      "stateMutability": "nonpayable",
      "type": "function"
    },
    {
      "inputs": [
        {
          "internalType": "string",
          "name": "serviceType",
          "type": "string"
        },
        {
          "internalType": "string",
          "name": "version",
          "type": "string"
        }
      ],
      "name": "setRecommendedService",
      "outputs": [],
      "stateMutability": "nonpayable",
      "type": "function"
    },
    {
      "inputs": [
        {
          "internalType": "address",
          "name": "user",
          "type": "address"
        },
        {
          "internalType": "uint256",
          "name": "amount",
          "type": "uint256"
        }
      ],
      "name": "spendFund",
      "outputs": [],
      "stateMutability": "nonpayable",
      "type": "function"
    },
    {
      "inputs": [
        {
          "internalType": "address",
          "name": "provider",
          "type": "address"
        },
        {
          "internalType": "string",
          "name": "serviceName",
          "type": "string"
        },
        {
          "internalType": "uint256",
          "name": "amount",
          "type": "uint256"
        }
      ],
      "name": "transferFund",
      "outputs": [],
      "stateMutability": "nonpayable",
      "type": "function"
    },
    {
      "inputs": [
        {
          "internalType": "address",
          "name": "newOwner",
          "type": "address"
        }
      ],
      "name": "transferOwnership",
      "outputs": [],
      "stateMutability": "nonpayable",
      "type": "function"
    },
    {
      "stateMutability": "payable",
      "type": "receive"
    }
  ],
  "transactionHash": "0x366dbcb7a208ec705f8b65d52cffe7aeccb3303736a9a166ef88229d84a5afb2",
  "args": [],
  "numDeployments": 3,
  "solcInputHash": "1eaf7d79a67858cac6d227c105c5c674",
  "bytecode": "0x6080806040523461005f5760008054336001600160a01b0319821681178355916001600160a01b03909116907f8be0079c531659141344cd1fd0a4f28419497f9722a3daafe3b4186f6b6457e09080a360018055613b6b90816100658239f35b600080fdfe60806040526004361015610023575b361561001957600080fd5b6100216139ea565b005b60003560e01c806307940ea2146101f35780630e864174146101ee578063158ef93e146101e95780631ef4dc44146101e4578063278ecde1146101df5780632ba43b82146101da57806331404a19146101d55780633c3dbbc7146101d0578063410b3815146101cb578063715018a6146101c65780638158c9e5146101c15780638d0d8cb6146101bc5780638da5cb5b146101b75780639449fe17146101b2578063987086f0146101ad5780639ade3972146101a8578063a2610565146101a3578063ac30b6221461019e578063aef4217314610199578063b8d5e58114610194578063c4d66de81461018f578063c5e53f7e1461018a578063d4dca96d14610185578063dd8a411814610180578063e032f7321461017b578063e374248d14610176578063f2fde38b14610171578063f585f3ea1461016c5763f7cd6af90361000e57611b6e565b611a5e565b6119d1565b6119b4565b6118ce565b61181c565b611659565b611486565b6113f3565b6113ce565b6112b0565b61123f565b61121c565b61114f565b610fd5565b610f80565b610f57565b610e55565b610c90565b610bf2565b610aa2565b610a80565b6109d7565b610706565b6105a9565b61052b565b6104db565b6103e4565b610208565b600091031261020357565b600080fd5b346102035760003660031901126102035760206040516101f48152f35b634e487b7160e01b600052604160045260246000fd5b608081019081106001600160401b0382111761025657604052565b610225565b6001600160401b03811161025657604052565b602081019081106001600160401b0382111761025657604052565b606081019081106001600160401b0382111761025657604052565b90601f801991011681019081106001600160401b0382111761025657604052565b6040519061010082018281106001600160401b0382111761025657604052565b6001600160401b03811161025657601f01601f191660200190565b81601f8201121561020357803590610317826102e5565b9261032560405194856102a4565b8284526020838301011161020357816000926020809301838601378301015290565b602060031982011261020357600435906001600160401b0382116102035761037191600401610300565b90565b60005b8381106103875750506000910152565b8181015183820152602001610377565b906020916103b081518092818552858086019101610374565b601f01601f1916010190565b906103d4602091949394604084526040840190610397565b6001600160a01b03909416910152565b34610203576103f236610347565b60405161041c6020828161040f8183019687815193849201610374565b81010380845201826102a4565b51902060009081527f0bb5d42557ea6926c17416c5b1c1c29c28d9006d6f713295a2d385f07156ed0460205260409020546001600160a01b0316801561048357610470600361046a83612044565b01611d8b565b61047f604051928392836103bc565b0390f35b60405162461bcd60e51b815260206004820152602a60248201527f4e6f207265636f6d6d656e646564207365727669636520666f756e6420666f726044820152692074686973207479706560b01b6064820152608490fd5b3461020357600036600319011261020357602060ff60005460a01c166040519015158152f35b600435906001600160a01b038216820361020357565b35906001600160a01b038216820361020357565b34610203576080366003190112610203576001600160401b036004358181116102035761055c903690600401610300565b60243582811161020357610574903690600401610300565b604435906001600160a01b038216820361020357606435938411610203576105a3610021943690600401610300565b92612c80565b34610203576020366003190112610203576004356105c6336139b5565b90600091808352600080516020613a96833981519152806020526105f160ff6040862054161561216a565b81845260205260408320805460ff1916600117905561060f3361381e565b9060018201928354928184106106ee5785808080600261067a9561068f9a610658898c6106536106436106859f8490611e7f565b80159081156106db575b506122d0565b611e7f565b90550195610667818854611e7f565b8755335af1610674612342565b50612372565b54156106925761214d565b805460ff19169055565b80f35b61069b33612ae5565b6106d66106d16106aa336139b5565b6106b3816124d6565b50600052600080516020613b16833981519152602052604060002090565b6123e8565b61214d565b67016345785d8a0000915010153861064d565b60405163112fed8b60e31b8152336004820152602490fd5b346102035760603660031901126102035761071f610501565b6024356001600160401b0381116102035761073e903690600401610300565b906044359161074c336139b5565b600093818552600080516020613a9683398151915260209481865260409161077a60ff848a2054161561216a565b8488528652818720805460ff191660011790556107af6107a261079c3361381e565b96611f99565b546001600160a01b031690565b6001600160a01b0395906107cf906107ca8882161515612004565b612044565b80546001820154855163147500e360e01b81523360048201526001600160a01b03868116602483015291909916811698911691868a836044818d5afa8015610929578c938491610993575b501561092e5750508451631320b9eb60e11b81523360048201526001600160a01b038516602482015297899150889060449082905afa9384156109295761068f9860016106d6976108d08d98976108c261088c6108856106859f9b8d9c8d916108fc575b5086611f70565b8095611e7f565b965163745e87f760e01b878201523360248201526001600160a01b03909216604483015260648201939093529182906084820190565b03601f1981018352826102a4565b945b016108e5838254610653828210156126f5565b905583519301915af16108f6612342565b50612738565b61091c9150893d8b11610922575b61091481836102a4565b8101906126e6565b3861087e565b503d61090a565b612653565b9195610685995061068f9a919461098e8897610988600260019561095e66b1a2bc2ec500006106d69f101561265f565b5163e50688f960e01b88820152610981816108c2600389018733602485016126bd565b9901611d8b565b336136e4565b6108d2565b6109b391508c8d3d106109b9575b6109ab81836102a4565b81019061263b565b3861081a565b503d6109a1565b6001600160401b0381116102565760051b60200190565b34610203576040366003190112610203576001600160401b036004358181116102035736602382011215610203578060040135610a13816109c0565b91610a2160405193846102a4565b81835260209160248385019160051b8301019136831161020357602401905b828210610a69576024358587821161020357610a63610021923690600401610300565b90612784565b838091610a7584610517565b815201910190610a40565b3461020357600036600319011261020357602060405166b1a2bc2ec500008152f35b3461020357600080600319360112610bef57600260015414610baa576002600155610acc336139b5565b808252600080516020613a9683398151915280602052610af360ff6040852054161561216a565b81835260205260408220805460ff191660011790556002610b133361381e565b0154610b6557610685610b5c91610b2933612ae5565b610b32336139b5565b610b3b816124d6565b508452600080516020613b168339815191526020526106d6604085206123e8565b61068f60018055565b60405162461bcd60e51b815260206004820152601d60248201527f4d75737420776974686472617720616c6c2066756e64732066697273740000006044820152606490fd5b60405162461bcd60e51b815260206004820152601f60248201527f5265656e7472616e637947756172643a207265656e7472616e742063616c6c006044820152606490fd5b80fd5b3461020357600080600319360112610bef57610c0c611bf5565b80546001600160a01b03198116825581906001600160a01b03167f8be0079c531659141344cd1fd0a4f28419497f9722a3daafe3b4186f6b6457e08280a380f35b906040600319830112610203576001600160401b036004358181116102035783610c7991600401610300565b926024359182116102035761037191600401610300565b3461020357610e167f22cc4700d5c4d3ff57ddfb4bb70d5a0e1bed5c060482e8eeeb8672d4471ad5e2610dd6610cc536610c4d565b9390610ccf611bf5565b610df5604051610d1b6107a282610d02610cfc610cef6020840189611f82565b602d60f81b815260010190565b8b611f82565b0392610d16601f19948581018352826102a4565b611f99565b9485916001600160a01b0380841691610d35831515612004565b604051610d57602082019282610d4b858c611f82565b039081018352826102a4565b51902091610d916107a2846000527f0bb5d42557ea6926c17416c5b1c1c29c28d9006d6f713295a2d385f07156ed04602052604060002090565b918216908115159182610e4a575b5050610e2b575b506000527f0bb5d42557ea6926c17416c5b1c1c29c28d9006d6f713295a2d385f07156ed04602052604060002090565b80546001600160a01b0319166001600160a01b03909216919091179055565b610e116006610e0385612044565b01805460ff19166001179055565b613516565b92610e26604051928392836103bc565b0390a2005b6006610e39610e4492612044565b01805460ff19169055565b38610da6565b141590503880610d9f565b600080600319360112610bef57610e6b336139b5565b808252600080516020613a9683398151915280602052610e9260ff6040852054161561216a565b81835260205260408220805460ff19166001179055610eb0336139b5565b610ed481600052600080516020613ab6833981519152602052604060002054151590565b610f095761068f916106d661068592610ef767016345785d8a000034101561220c565b610eff612271565b9034903390613889565b8252600080516020613b168339815191526020526040822060018101908154348101809111610f52576002925501805491348301809311610f525761068f92610685925561214d565b611e5c565b34610203576000366003190112610203576000546040516001600160a01b039091168152602090f35b3461020357600036600319011261020357602060405160148152f35b90608060606103719360018060a01b03815116845260208101516020850152604081015160408501520151918160608201520190610397565b3461020357604036600319011261020357610ff4602435600435611eca565b90604051906040820192604083528151809452606083019160608560051b850101926020809201906000905b878210611034575050508380955001520390f35b909194838061104f600193605f198b82030186528951610f9c565b9701920192019091611020565b80516001600160a01b03168252906020828101516001600160a01b03169082015260e0806110d86110c66110b46110a260408801516101008060408a0152880190610397565b60608801518782036060890152610397565b60808701518682036080880152610397565b60a086015185820360a0870152610397565b60c08086015115159085015293015191015290565b602080820190808352835180925260408301928160408460051b8301019501936000915b8483106111215750505050505090565b909192939495848061113f600193603f198682030187528a5161105c565b9801930193019194939290611111565b3461020357600036600319011261020357600080516020613a7683398151915254611179816109c0565b9061118760405192836102a4565b808252601f19611196826109c0565b0160005b81811061120557505060005b8181106111bb576040518061047f85826110ed565b806111e56111e06107ca6111d46111d4611200966120f8565b6001600160a01b031690565b613587565b6111ef8286611eb1565b526111fa8185611eb1565b50611e8c565b6111a6565b602090611210613536565b8282870101520161119a565b3461020357602061123561122f36610c4d565b90613664565b6040519015158152f35b3461020357600036600319011261020357602060405167016345785d8a00008152f35b90815180825260208080930193019160005b828110611282575050505090565b83516001600160a01b031685529381019392810192600101611274565b906020610371928181520190611262565b34610203576040366003190112610203576112c9610501565b602435906001600160401b03821161020357611370916001600160a01b03906112fa90610d16903690600401610300565b5416611307811515612004565b600052600080516020613ad683398151915260205261136a61132f6002604060002001611d8b565b6001600160a01b0390921660009081527f0bb5d42557ea6926c17416c5b1c1c29c28d9006d6f713295a2d385f07156ed096020526040902090565b90611fde565b805461137b8161206b565b9160005b828110611394576040518061047f868261129f565b806113c46113ab6111d46111d46113c99587612139565b6113b58388611eb1565b6001600160a01b039091169052565b611e8c565b61137f565b346102035760206001600160a01b036113e9610d1636610347565b5416604051908152f35b346102035760203660031901126102035761140c610501565b6000549060ff8260a01c166114365760ff60a01b19909116600160a01b1760005561002190611c4d565b60405162461bcd60e51b815260206004820152602260248201527f496e697469616c697a61626c653a20616c726561647920696e697469616c697a604482015261195960f21b6064820152608490fd5b61148f36610347565b611498336139b5565b9081600052600080516020613a96833981519152806020526114c260ff604060002054161561216a565b826000526020526040600020600160ff1982541617905567016345785d8a00003410611565576114f7611000825111156121b6565b611500336139b5565b9161152583600052600080516020613ab6833981519152602052604060002054151590565b61154d576106d66106859261153d9434903390613889565b6040805134815260006020820152f35b60405163cde58aa160e01b8152336004820152602490fd5b606460405162461bcd60e51b815260206004820152602060248201527f4d696e696d756d206465706f736974206f6620332030472072657175697265646044820152fd5b909160608201906060835283518092526080830160808360051b850101926020809601916000905b8282106116295750505050906115ed9183820385850152611262565b90604081830391015281808451928381520193019160005b828110611613575050505090565b8351151585529381019392810192600101611605565b909192948780611648600193607f9b9a9b198c82030186528951610397565b9701920192019092919695966115d1565b346102035761166736610347565b600080516020613a7683398151915254600091825b828110611799575061168d8361361a565b916116a061169a8561206b565b9461206b565b91600090815b8381106116bd576040518061047f878a8a846115a9565b6116cc6111d46111d4836120f8565b6116d581612044565b90888860408051602061171a818301836116f28260028c01612a46565b0393611706601f19958681018352826102a4565b51902093519182019282610d4b858d611f82565b51902014611735575b5050505061173090611e8c565b6116a6565b60068461177689956113b5876113c4976117706117309c9e61177e99611760600361178f9f01611d8b565b61176a8383611eb1565b52611eb1565b50611eb1565b015460ff1690565b611788838a611eb1565b9015159052565b9290388888611723565b60026117ad6107ca6111d46111d4856120f8565b016040908151906117f0602091836117c88482018093612a46565b03936117dc601f19958681018352826102a4565b51902093519182019282610d4b8589611f82565b51902014611807575b61180290611e8c565b61167c565b9261181461180291611e8c565b9390506117f9565b3461020357604036600319011261020357611835610501565b336000908152600080516020613ad683398151915260205260409020546001600160a01b03161561186d576100219060243590613736565b60405162461bcd60e51b815260206004820152602260248201527f43616c6c6572206973206e6f7420612072656769737465726564207365727669604482015261636560f01b6064820152608490fd5b90602061037192818152019061105c565b34610203576020366003190112610203576118e7610501565b6118ef613536565b506001600160a01b03166000908152600080516020613ad68339815191526020526040902061047f9060076119226102c5565b82546001600160a01b031681529160018101546001600160a01b0316602084015261194f60028201611d8b565b604084015261196060038201611d8b565b606084015261197160048201611d8b565b608084015261198260058201611d8b565b60a08401526119a1611998600683015460ff1690565b151560c0850152565b015460e0820152604051918291826118bd565b346102035760003660031901126102035760206040516110008152f35b34610203576020366003190112610203576119ea610501565b6119f2611bf5565b6001600160a01b03811615611a0a5761002190611c4d565b60405162461bcd60e51b815260206004820152602660248201527f4f776e61626c653a206e6577206f776e657220697320746865207a65726f206160448201526564647265737360d01b6064820152608490fd5b602036600319011261020357611a72610501565b611a7b816139b5565b600091818352600080516020613a9683398151915280602052611aa560ff6040862054161561216a565b82845260205260408320805460ff19166001179055611ac3816139b5565b611ae781600052600080516020613ab6833981519152602052604060002054151590565b611b1257916106d66106859261068f94611b02341515612284565b611b0a612271565b913491613889565b90508252600080516020613b168339815191526020526040822060018101908154348101809111610f52576002925501805491348301809311610f525761068f92610685925561214d565b906020610371928181520190610f9c565b346102035760203660031901126102035761047f611b9b611b8d610501565b611b95611c94565b5061381e565b6003611be460405192611bad8461023b565b60018060a01b0381541684526001810154602085015260028101546040850152611bdd6040518094819301611cf5565b03826102a4565b606082015260405191829182611b5d565b6000546001600160a01b03163303611c0957565b606460405162461bcd60e51b815260206004820152602060248201527f4f776e61626c653a2063616c6c6572206973206e6f7420746865206f776e65726044820152fd5b600080546001600160a01b039283166001600160a01b03198216811783559216907f8be0079c531659141344cd1fd0a4f28419497f9722a3daafe3b4186f6b6457e09080a3565b60405190611ca18261023b565b606080836000815260006020820152600060408201520152565b90600182811c92168015611ceb575b6020831014611cd557565b634e487b7160e01b600052602260045260246000fd5b91607f1691611cca565b9060009291805491611d0683611cbb565b918282526001938481169081600014611d685750600114611d28575b50505050565b90919394506000526020928360002092846000945b838610611d54575050505001019038808080611d22565b805485870183015294019385908201611d3d565b9294505050602093945060ff191683830152151560051b01019038808080611d22565b90611da6611d9f9260405193848092611cf5565b03836102a4565b565b9060036060604051611db98161023b565b611df5819560018060a01b0381541683526001810154602084015260028101546040840152611dee6040518096819301611cf5565b03846102a4565b0152565b604051611e058161026e565b6000815290565b90611e16826109c0565b611e2360405191826102a4565b8281528092611e34601f19916109c0565b019060005b828110611e4557505050565b602090611e50611c94565b82828501015201611e39565b634e487b7160e01b600052601160045260246000fd5b91908201809211610f5257565b91908203918211610f5257565b6000198114610f525760010190565b634e487b7160e01b600052603260045260246000fd5b8051821015611ec55760209160051b010190565b611e9b565b600080516020613af683398151915254929183821015611f625780611f5d575060325b8101808211610f525783611f0091611f70565b818103908111610f5257611f1381611e0c565b9160005b828110611f25575050509190565b80611f43611f3e611f39611f589486611e72565b6137c7565b611da8565b611f4d8287611eb1565b526111fa8186611eb1565b611f17565b611eed565b5050611f6c611df9565b9190565b9080821015611f7d575090565b905090565b90611f9560209282815194859201610374565b0190565b6020611fb2918160405193828580945193849201610374565b81017f0bb5d42557ea6926c17416c5b1c1c29c28d9006d6f713295a2d385f07156ed0181520301902090565b602090611ff8928260405194838680955193849201610374565b82019081520301902090565b1561200b57565b60405162461bcd60e51b815260206004820152601160248201527014d95c9d9a58d9481b9bdd08199bdd5b99607a1b6044820152606490fd5b6001600160a01b03166000908152600080516020613ad68339815191526020526040902090565b90612075826109c0565b61208260405191826102a4565b8281528092612093601f19916109c0565b0190602036910137565b600080516020613af68339815191528054821015611ec5576000527fb41db55c7d24928028896a7eb7f5b05917c002e0088f26af95b1bfac47132b530190600090565b8054821015611ec55760005260206000200190600090565b600080516020613a768339815191528054821015611ec5576000527f10f78b23dc0eb204a6d6fa9709ff7d389ae78db91903b42d2351233e11ab5ab8015490565b90612143916120e0565b90549060031b1c90565b600052600080516020613a96833981519152602052604060002090565b1561217157565b60405162461bcd60e51b815260206004820152601b60248201527f4c6564676572206c6f636b656420666f72206f7065726174696f6e00000000006044820152606490fd5b156121bd57565b60405162461bcd60e51b815260206004820152602160248201527f4164646974696f6e616c20696e666f206578636565647320344b42206c696d696044820152601d60fa1b6064820152608490fd5b1561221357565b60405162461bcd60e51b815260206004820152603060248201527f4d696e696d756d206465706f736974206f66203320304720726571756972656460448201526f08199bdc881b995dc81858d8dbdd5b9d60821b6064820152608490fd5b6040519061227e8261026e565b60008252565b1561228b57565b60405162461bcd60e51b815260206004820152601f60248201527f5a65726f2d76616c7565206372656174696f6e206e6f7420616c6c6f776564006044820152606490fd5b156122d757565b60405162461bcd60e51b815260206004820152603b60248201527f4d757374206d61696e7461696e206d696e696d756d2062616c616e6365206f6660448201527f2033203047206f7220776974686472617720616c6c2066756e647300000000006064820152608490fd5b3d1561236d573d90612353826102e5565b9161236160405193846102a4565b82523d6000602084013e565b606090565b1561237957565b60405162461bcd60e51b81526020600482015260126024820152710c11c81d1c985b9cd9995c8819985a5b195960721b6044820152606490fd5b916123cd9183549060031b91821b91600019901b19161790565b9055565b8181106123dc575050565b600081556001016123d1565b6003600091828155826001820155826002820155016124078154611cbb565b8061241157505050565b82601f821160011461242257505055565b9091808252612440601f60208420940160051c8401600185016123d1565b5555565b600080516020613af683398151915280549081156124965760001982019180831015611ec5577fb41db55c7d24928028896a7eb7f5b05917c002e0088f26af95b1bfac47132b52600091838352015555565b634e487b7160e01b600052603160045260246000fd5b805490811561249657600019918201916124c683836120e0565b909182549160031b1b1916905555565b6000818152600080516020613ab68339815191526020526040902054801561258b576000199181830191808311610f5257600080516020613af683398151915254938401938411610f52578383612558946000960361255e575b50505061253b612444565b600052600080516020613ab6833981519152602052604060002090565b55600190565b61253b61257c916125746121436125829561209d565b92839161209d565b906123b3565b55388080612530565b5050600090565b6001810191806000528260205260406000205492831515600014612632576000199284840190858211610f52578054948501948511610f525760009585836125e69461255898036125f5575b5050506124ac565b90600052602052604060002090565b61261961257c9161260961262994876120e0565b90549060031b1c928391876120e0565b8590600052602052604060002090565b553880806125de565b50505050600090565b90816020910312610203575180151581036102035790565b6040513d6000823e3d90fd5b1561266657565b60405162461bcd60e51b815260206004820152602960248201527f4d696e696d756d203120304720726571756972656420666f72206e657720737560448201526818881858d8dbdd5b9d60ba1b6064820152608490fd5b6001600160a01b0391821681529116602082015260606040820181905261037192910190611cf5565b90816020910312610203575190565b156126fc57565b60405162461bcd60e51b8152602060048201526014602482015273496e73756666696369656e742062616c616e636560601b6044820152606490fd5b1561273f57565b60405162461bcd60e51b815260206004820152601d60248201527f43616c6c20746f206368696c6420636f6e7472616374206661696c65640000006044820152606490fd5b61278d336139b5565b91600091838352600080516020613a9683398151915260208181526040916127bb60ff84882054161561216a565b8686528152818520936001948560ff19825416179055835160148111612a0b57506107a26127eb91969296611f99565b94846128178161280960018060a01b03996107ca8b82161515612004565b01546001600160a01b031690565b946128213361381e565b958498859116925b612851575b5050505050509161284a611da694926106859401918254611e72565b905561214d565b8151811015612a06576128746128678284611eb1565b516001600160a01b031690565b865163147500e360e01b8152336004808301919091526001600160a01b039290921660248201528581604481885afa9081156109295787916129e9575b506128d0575b50906128c68895949392611e8c565b9091929394612829565b986128de6128678385611eb1565b875163271e279160e11b8152338c82019081526001600160a01b039092166020830152606092909183908390819060400103818b8a5af19182156109295761292e9389936129b8575b5050611e72565b9861293c6128678385611eb1565b90843b156129b4578751636c79158d60e01b8152339181019182526001600160a01b03909216602082015290959493929190859087908190604001038183875af19081156109295789966128c69261299b575b509192939495506128b7565b806129a86129ae9261025b565b806101f8565b3861298f565b8680fd5b6129d8929350803d106129e2575b6129d081836102a4565b810190612a2b565b5050903880612927565b503d6129c6565b612a009150863d88116109b9576109ab81836102a4565b386128b1565b61282e565b835163414f261960e11b8152600481019190915260146024820152604490fd5b90816060910312610203578051916040602083015192015190565b600092918154612a5581611cbb565b92600191808316908115612aad5750600114612a715750505050565b90919293945060005260209081600020906000915b858310612a9c5750505050019038808080611d22565b805485840152918301918101612a86565b60ff1916845250505081151590910201915038808080611d22565b602090612adb9260405193848093612a46565b9081520301902090565b600080516020613a768339815191525460005b818110612b0457505050565b612b166107ca6111d46111d4846120f8565b6001600160a01b03841660009081527f0bb5d42557ea6926c17416c5b1c1c29c28d9006d6f713295a2d385f07156ed0960205260409020612b5a9060028301612ac8565b805490612b668261206b565b9160005b818110612c515750600193840190506000845b612b95575b5050505050612b9090611e8c565b612af8565b8351811015612c4c578154612bb2906001600160a01b03166111d4565b612bbf6128678387611eb1565b91813b1561020357604051639721672560e01b81526001600160a01b038b811660048301529390931660248401528692612c23926000908290604490829084905af19081612c39575b50612c29576111fa612c1d6128678389611eb1565b86612c6d565b90612b7d565b6111fa612c1d6128678389611eb1565b806129a8612c469261025b565b38612c08565b612b82565b806113c46113ab6111d46111d4612c689588612139565b612b6a565b610371916001600160a01b031690612592565b90612ddd7f4c76643f3c678c590db6e8ad9fe0bb6e75d36cb853c3bd06c487607ff35e6f7193612dd4612df394612cb5611bf5565b6001600160a01b03831697612ccb891515612df8565b612cd782511515612e44565b612ce386511515612e88565b612cfb612cf56111d46107a287612044565b15612ec7565b60405195612d2a87612d1c612d16610cef6020840188611f82565b84611f82565b03601f1981018952886102a4565b612d42612d3c6111d46107a28a611f99565b15612f13565b612d53612d4e8661324a565b612f5f565b612d64612d5f866132cd565b612fc3565b612d806101f4600080516020613a768339815191525410613021565b612d886102c5565b6001600160a01b0386168152926001600160a01b038b1660208501526040840152606083015285608083015260a0820152600060c08201524260e0820152612dcf83612044565b613180565b610dd683611f99565b612de684613383565b5060405191829182613239565b0390a2565b15612dff57565b60405162461bcd60e51b815260206004820152601760248201527f496e76616c6964207365727669636520616464726573730000000000000000006044820152606490fd5b15612e4b57565b60405162461bcd60e51b815260206004820152601560248201527414d95c9d9a58d9481d1e5c19481c995c5d5a5c9959605a1b6044820152606490fd5b15612e8f57565b60405162461bcd60e51b815260206004820152601060248201526f15995c9cda5bdb881c995c5d5a5c995960821b6044820152606490fd5b15612ece57565b60405162461bcd60e51b815260206004820152601a60248201527f5365727669636520616c726561647920726567697374657265640000000000006044820152606490fd5b15612f1a57565b60405162461bcd60e51b815260206004820152601b60248201527f53657276696365206e616d6520616c72656164792065786973747300000000006044820152606490fd5b15612f6657565b60405162461bcd60e51b815260206004820152602f60248201527f53657276696365206d75737420737570706f72742045524331363520696e746560448201526e393330b1b2903232ba32b1ba34b7b760891b6064820152608490fd5b15612fca57565b60405162461bcd60e51b815260206004820152602960248201527f53657276696365206d75737420696d706c656d656e74204953657276696e6720604482015268696e7465726661636560b81b6064820152608490fd5b1561302857565b60405162461bcd60e51b815260206004820152601e60248201527f53657276696365207265676973747279206c696d6974207265616368656400006044820152606490fd5b9190601f811161307c57505050565b611da6926000526020600020906020601f840160051c830193106130a8575b601f0160051c01906123d1565b909150819061309b565b91909182516001600160401b038111610256576130d9816130d38454611cbb565b8461306d565b602080601f831160011461311557508192939460009261310a575b50508160011b916000199060031b1c1916179055565b0151905038806130f4565b90601f1983169561312b85600052602060002090565b926000905b8882106131685750508360019596971061314f575b505050811b019055565b015160001960f88460031b161c19169055388080613145565b80600185968294968601518155019501930190613130565b815181546001600160a01b0319166001600160a01b039091161781559060079060e09060208101516001850180546001600160a01b0319166001600160a01b039092169190911790556131da6040820151600286016130b2565b6131eb6060820151600386016130b2565b6131fc6080820151600486016130b2565b61320d60a0820151600586016130b2565b61323261321d60c0830151151590565b600686019060ff801983541691151516179055565b0151910155565b906020610371928181520190610397565b6132538161332a565b90816132bb575b81613263575090565b60209150600090604051838101906301ffc9a760e01b80835260248201526024815261328e81610289565b5191617530fa6000513d826132af575b50816132a8575090565b9050151590565b6020111591503861329e565b90506132c681613353565b159061325a565b6132d68161332a565b9081613318575b816132e6575090565b60209150600090604051838101906301ffc9a760e01b825263160841b160e01b60248201526024815261328e81610289565b905061332381613353565b15906132dd565b6000602091604051838101906301ffc9a760e01b80835260248201526024815261328e81610289565b6000602091604051838101906301ffc9a760e01b825263ffffffff60e01b60248201526024815261328e81610289565b806000527f0bb5d42557ea6926c17416c5b1c1c29c28d9006d6f713295a2d385f07156ed03806020526040600020541560001461258b57600080516020613a768339815191528054600160401b8110156102565760018101808355811015611ec55783907f10f78b23dc0eb204a6d6fa9709ff7d389ae78db91903b42d2351233e11ab5ab801555491600052602052604060002055600190565b80600052600080516020613ab6833981519152806020526040600020541560001461258b57600080516020613af68339815191528054600160401b8110156102565760018101808355811015611ec55783907fb41db55c7d24928028896a7eb7f5b05917c002e0088f26af95b1bfac47132b5301555491600052602052604060002055600190565b600181019082600052816020526040600020541560001461350e578054600160401b811015610256576134f96134e28260018794018555846120e0565b819391549060031b91821b91600019901b19161790565b90555491600052602052604060002055600190565b505050600090565b61352e90602060405192828480945193849201610374565b810103902090565b6040519061010082018281106001600160401b0382111761025657604052600060e0838281528260208201526060604082015260608082015260606080820152606060a08201528260c08201520152565b9060076135926102c5565b83546001600160a01b031681529260018101546001600160a01b031660208501526135bf60028201611d8b565b60408501526135d060038201611d8b565b60608501526135e160048201611d8b565b60808501526135f260058201611d8b565b60a0850152613611613608600683015460ff1690565b151560c0860152565b015460e0830152565b90613624826109c0565b61363160405191826102a4565b8281528092613642601f19916109c0565b019060005b82811061365357505050565b806060602080938501015201613647565b60216136b1916040519381613683869351809260208087019101610374565b8201602d60f81b60208201526136a28251809360208785019101610374565b010360018101845201826102a4565b6001600160a01b03906136c390611f99565b541680156136de5760066136d860ff92612044565b01541690565b50600090565b6001600160a01b0390811660009081527f0bb5d42557ea6926c17416c5b1c1c29c28d9006d6f713295a2d385f07156ed0960205260409020613733939261372b9190611fde565b9116906134a5565b50565b90613740826139b5565b80600052600080516020613a968339815191528060205261376960ff604060002054161561216a565b8160005260205261378b60406000209360ff199460018682541617905561381e565b6002810192600184549201548203828111610f5257816137ac9110156126f5565b8103908111610f52576137bf925561214d565b908154169055565b600080516020613af683398151915254811015611ec5577fb41db55c7d24928028896a7eb7f5b05917c002e0088f26af95b1bfac47132b530154600052600080516020613b16833981519152602052604060002090565b613827816139b5565b9081600052600080516020613ab6833981519152602052604060002054156138675750600052600080516020613b16833981519152602052604060002090565b604051637d2d536b60e01b81526001600160a01b039091166004820152602490fd5b91939293826000526003602092600080516020613b1683398151915284526138df60406000209160019480868501556002840155829060018060a01b03166bffffffffffffffffffffffff60a01b825416179055565b01918551956001600160401b03871161025657613906876139008654611cbb565b8661306d565b81601f881160011461394657509580928192613733979860009461393b575b50501b916000199060031b1c191617905561341d565b015192503880613925565b909691601f1983169761395e86600052602060002090565b926000905b8a821061399e57505083613733989910613985575b505050811b01905561341d565b015160001960f88460031b161c19169055388080613978565b808785968294968601518155019501930190613963565b604051602081019160018060a01b0316825260208152604081018181106001600160401b038211176102565760405251902090565b336000908152600080516020613ad683398151915260205260409020546001600160a01b0316611da65760405162461bcd60e51b815260206004820152603360248201527f446972656374206465706f736974732064697361626c65643b207573652064656044820152721c1bdcda5d119d5b990a0a481a5b9cdd195859606a1b6064820152608490fdfe0bb5d42557ea6926c17416c5b1c1c29c28d9006d6f713295a2d385f07156ed020bb5d42557ea6926c17416c5b1c1c29c28d9006d6f713295a2d385f07156ed080bb5d42557ea6926c17416c5b1c1c29c28d9006d6f713295a2d385f07156ed060bb5d42557ea6926c17416c5b1c1c29c28d9006d6f713295a2d385f07156ed000bb5d42557ea6926c17416c5b1c1c29c28d9006d6f713295a2d385f07156ed050bb5d42557ea6926c17416c5b1c1c29c28d9006d6f713295a2d385f07156ed07a26469706673582212201e12b4678736c202cfcf178a6e8a4960f51c9fe9bbdf01439c7c386926aa3bac64736f6c63430008140033",
  "devdoc": {
    "kind": "dev",
    "methods": {
      "owner()": {
        "details": "Returns the address of the current owner."
      },
      "renounceOwnership()": {
        "details": "Leaves the contract without owner. It will not be possible to call `onlyOwner` functions anymore. Can only be called by the current owner. NOTE: Renouncing ownership will leave the contract without an owner, thereby removing any functionality that is only available to the owner."
      },
      "transferOwnership(address)": {
        "details": "Transfers ownership of the contract to a new account (`newOwner`). Can only be called by the current owner."
      }
    },
    "version": 1
  },
  "userdoc": {
    "kind": "user",
    "methods": {},
    "version": 1
  },
  "storageLayout": {
    "storage": [
      {
        "astId": 7,
        "contract": "contracts/ledger/LedgerManager.sol:LedgerManager",
        "label": "_owner",
        "offset": 0,
        "slot": "0",
        "type": "t_address"
      },
      {
        "astId": 15115,
        "contract": "contracts/ledger/LedgerManager.sol:LedgerManager",
        "label": "initialized",
        "offset": 20,
        "slot": "0",
        "type": "t_bool"
      },
      {
        "astId": 661,
        "contract": "contracts/ledger/LedgerManager.sol:LedgerManager",
        "label": "_status",
        "offset": 0,
        "slot": "1",
        "type": "t_uint256"
      }
    ],
    "types": {
      "t_address": {
        "encoding": "inplace",
        "label": "address",
        "numberOfBytes": "20"
      },
      "t_bool": {
        "encoding": "inplace",
        "label": "bool",
        "numberOfBytes": "1"
      },
      "t_uint256": {
        "encoding": "inplace",
        "label": "uint256",
        "numberOfBytes": "32"
      }
    }
  }
}