{
  "address": "0xd40A73946DD2D3c1b2CB7dcB9B721c12e04458d6",
  "abi": [
    {
      "inputs": [
        {
          "internalType": "address",
          "name": "user",
          "type": "address"
        }
      ],
      "name": "InsufficientBalance",
      "type": "error"
    },
    {
      "inputs": [
        {
          "internalType": "address",
          "name": "serviceAddress",
          "type": "address"
        }
      ],
      "name": "InvalidServiceAddress",
      "type": "error"
    },
    {
      "inputs": [
        {
          "internalType": "string",
          "name": "serviceType",
          "type": "string"
        }
      ],
      "name": "InvalidServiceType",
      "type": "error"
    },
    {
      "inputs": [
        {
          "internalType": "address",
          "name": "user",
          "type": "address"
        }
      ],
      "name": "LedgerExists",
      "type": "error"
    },
    {
      "inputs": [
        {
          "internalType": "address",
          "name": "user",
          "type": "address"
        }
      ],
      "name": "LedgerNotExists",
      "type": "error"
    },
    {
      "inputs": [
        {
          "internalType": "string",
          "name": "serviceName",
          "type": "string"
        }
      ],
      "name": "ServiceNameExists",
      "type": "error"
    },
    {
      "inputs": [
        {
          "internalType": "address",
          "name": "serviceAddress",
          "type": "address"
        }
      ],
      "name": "ServiceNotRegistered",
      "type": "error"
    },
    {
      "inputs": [
        {
          "internalType": "uint256",
          "name": "requested",
          "type": "uint256"
        },
        {
          "internalType": "uint256",
          "name": "maximum",
          "type": "uint256"
        }
      ],
      "name": "TooManyProviders",
      "type": "error"
    },
    {
      "anonymous": false,
      "inputs": [
        {
          "indexed": true,
          "internalType": "address",
          "name": "previousOwner",
          "type": "address"
        },
        {
          "indexed": true,
          "internalType": "address",
          "name": "newOwner",
          "type": "address"
        }
      ],
      "name": "OwnershipTransferred",
      "type": "event"
    },
    {
      "anonymous": false,
      "inputs": [
        {
          "indexed": true,
          "internalType": "string",
          "name": "serviceType",
          "type": "string"
        },
        {
          "indexed": false,
          "internalType": "string",
          "name": "version",
          "type": "string"
        },
        {
          "indexed": false,
          "internalType": "address",
          "name": "serviceAddress",
          "type": "address"
        }
      ],
      "name": "RecommendedServiceUpdated",
      "type": "event"
    },
    {
      "anonymous": false,
      "inputs": [
        {
          "indexed": true,
          "internalType": "address",
          "name": "serviceAddress",
          "type": "address"
        },
        {
          "indexed": false,
          "internalType": "string",
          "name": "serviceName",
          "type": "string"
        }
      ],
      "name": "ServiceRegistered",
      "type": "event"
    },
    {
      "inputs": [],
      "name": "MAX_PROVIDERS_PER_BATCH",
      "outputs": [
        {
          "internalType": "uint256",
          "name": "",
          "type": "uint256"
        }
      ],
      "stateMutability": "view",
      "type": "function"
    },
    {
      "inputs": [
        {
          "internalType": "string",
          "name": "additionalInfo",
          "type": "string"
        }
      ],
      "name": "addLedger",
      "outputs": [
        {
          "internalType": "uint256",
          "name": "",
          "type": "uint256"
        },
        {
          "internalType": "uint256",
          "name": "",
          "type": "uint256"
        }
      ],
      "stateMutability": "payable",
      "type": "function"
    },
    {
      "inputs": [],
      "name": "deleteLedger",
      "outputs": [],
      "stateMutability": "nonpayable",
      "type": "function"
    },
    {
      "inputs": [],
      "name": "depositFund",
      "outputs": [],
      "stateMutability": "payable",
      "type": "function"
    },
    {
      "inputs": [
        {
          "internalType": "address",
          "name": "recipient",
          "type": "address"
        }
      ],
      "name": "depositFundFor",
      "outputs": [],
      "stateMutability": "payable",
      "type": "function"
    },
    {
      "inputs": [],
      "name": "getAllActiveServices",
      "outputs": [
        {
          "components": [
            {
              "internalType": "address",
              "name": "serviceAddress",
              "type": "address"
            },
            {
              "internalType": "contract IServing",
              "name": "serviceContract",
              "type": "address"
            },
            {
              "internalType": "string",
              "name": "serviceType",
              "type": "string"
            },
            {
              "internalType": "string",
              "name": "version",
              "type": "string"
            },
            {
              "internalType": "string",
              "name": "fullName",
              "type": "string"
            },
            {
              "internalType": "string",
              "name": "description",
              "type": "string"
            },
            {
              "internalType": "bool",
              "name": "isRecommended",
              "type": "bool"
            },
            {
              "internalType": "uint256",
              "name": "registeredAt",
              "type": "uint256"
            }
          ],
          "internalType": "struct ServiceInfo[]",
          "name": "",
          "type": "tuple[]"
        }
      ],
      "stateMutability": "view",
      "type": "function"
    },
    {
      "inputs": [
        {
          "internalType": "uint256",
          "name": "offset",
          "type": "uint256"
        },
        {
          "internalType": "uint256",
          "name": "limit",
          "type": "uint256"
        }
      ],
      "name": "getAllLedgers",
      "outputs": [
        {
          "components": [
            {
              "internalType": "address",
              "name": "user",
              "type": "address"
            },
            {
              "internalType": "uint256",
              "name": "availableBalance",
              "type": "uint256"
            },
            {
              "internalType": "uint256",
              "name": "totalBalance",
              "type": "uint256"
            },
            {
              "internalType": "string",
              "name": "additionalInfo",
              "type": "string"
            }
          ],
          "internalType": "struct Ledger[]",
          "name": "ledgers",
          "type": "tuple[]"
        },
        {
          "internalType": "uint256",
          "name": "total",
          "type": "uint256"
        }
      ],
      "stateMutability": "view",
      "type": "function"
    },
    {
      "inputs": [
        {
          "internalType": "string",
          "name": "serviceType",
          "type": "string"
        }
      ],
      "name": "getAllVersions",
      "outputs": [
        {
          "internalType": "string[]",
          "name": "versions",
          "type": "string[]"
        },
        {
          "internalType": "address[]",
          "name": "addresses",
          "type": "address[]"
        },
        {
          "internalType": "bool[]",
          "name": "isRecommendedFlags",
          "type": "bool[]"
        }
      ],
      "stateMutability": "view",
      "type": "function"
    },
    {
      "inputs": [
        {
          "internalType": "address",
          "name": "user",
          "type": "address"
        }
      ],
      "name": "getLedger",
      "outputs": [
        {
          "components": [
            {
              "internalType": "address",
              "name": "user",
              "type": "address"
            },
            {
              "internalType": "uint256",
              "name": "availableBalance",
              "type": "uint256"
            },
            {
              "internalType": "uint256",
              "name": "totalBalance",
              "type": "uint256"
            },
            {
              "internalType": "string",
              "name": "additionalInfo",
              "type": "string"
            }
          ],
          "internalType": "struct Ledger",
          "name": "",
          "type": "tuple"
        }
      ],
      "stateMutability": "view",
      "type": "function"
    },
    {
      "inputs": [
        {
          "internalType": "address",
          "name": "user",
          "type": "address"
        },
        {
          "internalType": "string",
          "name": "serviceName",
          "type": "string"
        }
      ],
      "name": "getLedgerProviders",
      "outputs": [
        {
          "internalType": "address[]",
          "name": "",
          "type": "address[]"
        }
      ],
      "stateMutability": "view",
      "type": "function"
    },
    {
      "inputs": [
        {
          "internalType": "string",
          "name": "serviceType",
          "type": "string"
        }
      ],
      "name": "getRecommendedService",
      "outputs": [
        {
          "internalType": "string",
          "name": "version",
          "type": "string"
        },
        {
          "internalType": "address",
          "name": "serviceAddress",
          "type": "address"
        }
      ],
      "stateMutability": "view",
      "type": "function"
    },
    {
      "inputs": [
        {
          "internalType": "string",
          "name": "serviceName",
          "type": "string"
        }
      ],
      "name": "getServiceAddressByName",
      "outputs": [
        {
          "internalType": "address",
          "name": "",
          "type": "address"
        }
      ],
      "stateMutability": "view",
      "type": "function"
    },
    {
      "inputs": [
        {
          "internalType": "address",
          "name": "serviceAddress",
          "type": "address"
        }
      ],
      "name": "getServiceInfo",
      "outputs": [
        {
          "components": [
            {
              "internalType": "address",
              "name": "serviceAddress",
              "type": "address"
            },
            {
              "internalType": "contract IServing",
              "name": "serviceContract",
              "type": "address"
            },
            {
              "internalType": "string",
              "name": "serviceType",
              "type": "string"
            },
            {
              "internalType": "string",
              "name": "version",
              "type": "string"
            },
            {
              "internalType": "string",
              "name": "fullName",
              "type": "string"
            },
            {
              "internalType": "string",
              "name": "description",
              "type": "string"
            },
            {
              "internalType": "bool",
              "name": "isRecommended",
              "type": "bool"
            },
            {
              "internalType": "uint256",
              "name": "registeredAt",
              "type": "uint256"
            }
          ],
          "internalType": "struct ServiceInfo",
          "name": "",
          "type": "tuple"
        }
      ],
      "stateMutability": "view",
      "type": "function"
    },
    {
      "inputs": [
        {
          "internalType": "address",
          "name": "owner",
          "type": "address"
        }
      ],
      "name": "initialize",
      "outputs": [],
      "stateMutability": "nonpayable",
      "type": "function"
    },
    {
      "inputs": [],
      "name": "initialized",
      "outputs": [
        {
          "internalType": "bool",
          "name": "",
          "type": "bool"
        }
      ],
      "stateMutability": "view",
      "type": "function"
    },
    {
      "inputs": [
        {
          "internalType": "string",
          "name": "serviceType",
          "type": "string"
        },
        {
          "internalType": "string",
          "name": "version",
          "type": "string"
        }
      ],
      "name": "isRecommendedVersion",
      "outputs": [
        {
          "internalType": "bool",
          "name": "",
          "type": "bool"
        }
      ],
      "stateMutability": "view",
      "type": "function"
    },
    {
      "inputs": [],
      "name": "owner",
      "outputs": [
        {
          "internalType": "address",
          "name": "",
          "type": "address"
        }
      ],
      "stateMutability": "view",
      "type": "function"
    },
    {
      "inputs": [
        {
          "internalType": "uint256",
          "name": "amount",
          "type": "uint256"
        }
      ],
      "name": "refund",
      "outputs": [],
      "stateMutability": "nonpayable",
      "type": "function"
    },
    {
      "inputs": [
        {
          "internalType": "string",
          "name": "serviceType",
          "type": "string"
        },
        {
          "internalType": "string",
          "name": "version",
          "type": "string"
        },
        {
          "internalType": "address",
          "name": "serviceAddress",
          "type": "address"
        },
        {
          "internalType": "string",
          "name": "description",
          "type": "string"
        }
      ],
      "name": "registerService",
      "outputs": [],
      "stateMutability": "nonpayable",
      "type": "function"
    },
    {
      "inputs": [],
      "name": "renounceOwnership",
      "outputs": [],
      "stateMutability": "nonpayable",
      "type": "function"
    },
    {
      "inputs": [
        {
          "internalType": "address[]",
          "name": "providers",
          "type": "address[]"
        },
        {
          "internalType": "string",
          "name": "serviceType",
          "type": "string"
        }
      ],
      "name": "retrieveFund",
      "outputs": [],
      "stateMutability": "nonpayable",
      "type": "function"
    },
    {
      "inputs": [
        {
          "internalType": "string",
          "name": "serviceType",
          "type": "string"
        },
        {
          "internalType": "string",
          "name": "version",
          "type": "string"
        }
      ],
      "name": "setRecommendedService",
      "outputs": [],
      "stateMutability": "nonpayable",
      "type": "function"
    },
    {
      "inputs": [
        {
          "internalType": "address",
          "name": "user",
          "type": "address"
        },
        {
          "internalType": "uint256",
          "name": "amount",
          "type": "uint256"
        }
      ],
      "name": "spendFund",
      "outputs": [],
      "stateMutability": "nonpayable",
      "type": "function"
    },
    {
      "inputs": [
        {
          "internalType": "address",
          "name": "provider",
          "type": "address"
        },
        {
          "internalType": "string",
          "name": "serviceName",
          "type": "string"
        },
        {
          "internalType": "uint256",
          "name": "amount",
          "type": "uint256"
        }
      ],
      "name": "transferFund",
      "outputs": [],
      "stateMutability": "nonpayable",
      "type": "function"
    },
    {
      "inputs": [
        {
          "internalType": "address",
          "name": "newOwner",
          "type": "address"
        }
      ],
      "name": "transferOwnership",
      "outputs": [],
      "stateMutability": "nonpayable",
      "type": "function"
    },
    {
      "stateMutability": "payable",
      "type": "receive"
    }
  ],
  "transactionHash": "0x76cdf842bf6ef179f39e4b45578a0dc2fe3683c70e82367273c2b13b9d9f7aa2",
  "args": [],
  "numDeployments": 2,
  "solcInputHash": "18d874c7eb716dcff2046715034ef0f0",
  "bytecode": "0x6080806040523461005f5760008054336001600160a01b0319821681178355916001600160a01b03909116907f8be0079c531659141344cd1fd0a4f28419497f9722a3daafe3b4186f6b6457e09080a3600180556136a890816100658239f35b600080fdfe60806040526004361015610023575b361561001957600080fd5b610021613531565b005b60003560e01c80630e864174146101b3578063158ef93e146101ae5780631ef4dc44146101a9578063278ecde1146101a45780632ba43b821461019f57806331404a191461019a578063410b381514610195578063715018a6146101905780638158c9e51461018b5780638d0d8cb6146101865780638da5cb5b146101815780639449fe171461017c578063987086f0146101775780639ade397214610172578063a26105651461016d578063aef4217314610168578063b8d5e58114610163578063c4d66de81461015e578063c5e53f7e14610159578063d4dca96d14610154578063dd8a41181461014f578063e032f7321461014a578063f2fde38b14610145578063f585f3ea146101405763f7cd6af90361000e576118ed565b6117e8565b61175b565b611675565b6115c3565b6113f4565b61127c565b6111e9565b6111c4565b6110c4565b611053565b610f98565b610e1e565b610dc9565b610da0565b610d2e565b610c48565b610baa565b6108d9565b610830565b61056b565b61047f565b610401565b6103b1565b61037c565b634e487b7160e01b600052604160045260246000fd5b6001600160401b0381116101e157604052565b6101b8565b608081019081106001600160401b038211176101e157604052565b602081019081106001600160401b038211176101e157604052565b606081019081106001600160401b038211176101e157604052565b90601f801991011681019081106001600160401b038211176101e157604052565b6040519061010082018281106001600160401b038211176101e157604052565b6001600160401b0381116101e157601f01601f191660200190565b81601f820112156102da578035906102aa82610278565b926102b86040519485610237565b828452602083830101116102da57816000926020809301838601378301015290565b600080fd5b60206003198201126102da57600435906001600160401b0382116102da5761030991600401610293565b90565b60005b83811061031f5750506000910152565b818101518382015260200161030f565b906020916103488151809281855285808601910161030c565b601f01601f1916010190565b9061036c60209194939460408452604084019061032f565b6001600160a01b03909416910152565b346102da5761039261038d366102df565b613087565b906103a260405192839283610354565b0390f35b60009103126102da57565b346102da5760003660031901126102da57602060ff60005460a01c166040519015158152f35b600435906001600160a01b03821682036102da57565b35906001600160a01b03821682036102da57565b346102da5760803660031901126102da576001600160401b036004358181116102da57610432903690600401610293565b6024358281116102da5761044a903690600401610293565b604435906001600160a01b03821682036102da576064359384116102da57610479610021943690600401610293565b9261268e565b346102da5760203660031901126102da5760043561049c336134fc565b600091818352600080516020613653833981519152806020526104c660ff60408620541615611edd565b82845260205260408320805460ff191660011790556104e433613365565b600181019081548381106105535783810390811161054e578593600285949385949385945501610515828254611beb565b9055818115610545575b3390f1156105405761053361053d91611ec0565b805460ff19169055565b80f35b611fc9565b506108fc61051f565b611bc8565b60405163112fed8b60e31b8152336004820152602490fd5b346102da5760603660031901126102da576105846103d7565b6024356001600160401b0381116102da576105a3903690600401610293565b90604435916105b1336134fc565b6000938185526000805160206136538339815191526020948186526040916105df60ff848a20541615611edd565b8488528652818720805460ff1916600117905561061461060761060133613365565b96611d0c565b546001600160a01b031690565b6001600160a01b0395906106349061062f8882161515611d77565b611db7565b80546001820154855163147500e360e01b81523360048201526001600160a01b03868116602483015291909916811698911691868a836044818d5afa8015610540578c9384916107ec575b50156107985750508451631320b9eb60e11b81523360048201526001600160a01b038516602482015297899150889060449082905afa9384156105405761053d986001610766976107358d98976107276106f16106ea6105339f9b8d9c8d9161076b575b5086611ce3565b8095611beb565b965163745e87f760e01b878201523360248201526001600160a01b03909216604483015260648201939093529182906084820190565b03601f198101835282610237565b945b0161074f83825461074a82821015612025565b611beb565b905583519301915af1610760612068565b50612098565b611ec0565b61078b9150893d8b11610791575b6107838183610237565b810190612016565b386106e3565b503d610779565b91956105339950610766975061053d9a91946107e788976107e160026001955163e50688f960e01b888201526107da8161072760038901873360248501611fed565b9901611b0a565b3361322b565b610737565b61080c91508c8d3d10610812575b6108048183610237565b810190611fd5565b3861067f565b503d6107fa565b6001600160401b0381116101e15760051b60200190565b346102da5760403660031901126102da576001600160401b036004358181116102da57366023820112156102da57806004013561086c81610819565b9161087a6040519384610237565b81835260209160248385019160051b830101913683116102da57602401905b8282106108c257602435858782116102da576108bc610021923690600401610293565b906120e4565b8380916108ce846103ed565b815201910190610899565b346102da57600080600319360112610b1c57600260019080825414610b6557808255610904336134fc565b91828452600080516020613653833981519152918260205260409261092f60ff858820541615611edd565b848652602052828520805460ff1916831790556109578161094f33613365565b015415612308565b610960336134fc565b926000805160206135b38339815191525492865b8481106109bf57876109b6610533896107666109b18b61099381612516565b506000526000805160206135f3833981519152602052604060002090565b612428565b61053d60018055565b6109dd61062f6109d16109d184611e6b565b6001600160a01b031690565b3360009081527f0bb5d42557ea6926c17416c5b1c1c29c28d9006d6f713295a2d385f07156ed0860205260409020610a17908683016123d6565b9083825491610a2583611dde565b928c5b818110610b24575050818c9101915b610a4e575b50505050610a4990611bf8565b610974565b8251811015610b1f578154610a6b906001600160a01b03166109d1565b90610a86610a798286611c1d565b516001600160a01b031690565b908d833b15610b1c578951639721672560e01b81523360048201526001600160a01b039390931660248401528893610aed9391908290604490829084905af19081610b03575b50610af357610ae7610ae1610a798388611c1d565b8761267b565b50611bf8565b90610a37565b610ae7610ae1610a798388611c1d565b80610b10610b16926101ce565b806103a6565b38610acc565b80fd5b610a3c565b610b5c91929350610b57610b3e6109d16109d1848a611eac565b610b488388611c1d565b6001600160a01b039091169052565b611bf8565b90869291610a28565b60405162461bcd60e51b815260206004820152601f60248201527f5265656e7472616e637947756172643a207265656e7472616e742063616c6c006044820152606490fd5b346102da57600080600319360112610b1c57610bc4611974565b80546001600160a01b03198116825581906001600160a01b03167f8be0079c531659141344cd1fd0a4f28419497f9722a3daafe3b4186f6b6457e08280a380f35b9060406003198301126102da576001600160401b036004358181116102da5783610c3191600401610293565b926024359182116102da5761030991600401610293565b346102da577f22cc4700d5c4d3ff57ddfb4bb70d5a0e1bed5c060482e8eeeb8672d4471ad5e2610c7736610c05565b9190610c81611974565b610d19610cda610607604051610cd56021828751610ca6816020840160208c0161030c565b8101602d60f81b60208201528a5190610cc6828d6020878501910161030c565b01036001810184520182610237565b611d0c565b91610cef6001600160a01b0384161515611d77565b610cf881612f08565b610d146006610d0685611db7565b01805460ff19166001179055565b612ee8565b92610d2960405192839283610354565b0390a2005b600080600319360112610b1c57610d44336134fc565b80825260008051602061365383398151915280602052610d6b60ff60408520541615611edd565b81835280602052604083209160ff1992600184825416179055610d8e3433611f3c565b83526020526040822090815416905580f35b346102da5760003660031901126102da576000546040516001600160a01b039091168152602090f35b346102da5760003660031901126102da57602060405160148152f35b90608060606103099360018060a01b0381511684526020810151602085015260408101516040850152015191816060820152019061032f565b346102da5760403660031901126102da57610e3d602435600435611c36565b90604051906040820192604083528151809452606083019160608560051b850101926020809201906000905b878210610e7d575050508380955001520390f35b9091948380610e98600193605f198b82030186528951610de5565b9701920192019091610e69565b80516001600160a01b03168252906020828101516001600160a01b03169082015260e080610f21610f0f610efd610eeb60408801516101008060408a015288019061032f565b6060880151878203606089015261032f565b6080870151868203608088015261032f565b60a086015185820360a087015261032f565b60c08086015115159085015293015191015290565b602080820190808352835180925260408301928160408460051b8301019501936000915b848310610f6a5750505050505090565b9091929394958480610f88600193603f198682030187528a51610ea5565b9801930193019194939290610f5a565b346102da5760003660031901126102da576000805160206135b383398151915254610fc281610819565b90610fd06040519283610237565b808252601f19610fdf82610819565b0160005b81811061103c57505060005b81811061100457604051806103a28582610f36565b8061102261101d61062f6109d16109d161103796611e6b565b612ff4565b61102c8286611c1d565b52610ae78185611c1d565b610fef565b602090611047612fa3565b82828701015201610fe3565b346102da57602061106c61106636610c05565b906131ba565b6040519015158152f35b90815180825260208080930193019160005b828110611096575050505090565b83516001600160a01b031685529381019392810192600101611088565b906020610309928181520190611076565b346102da5760403660031901126102da576110dd6103d7565b602435906001600160401b0382116102da57611184916001600160a01b039061110e90610cd5903690600401610293565b541661111b811515611d77565b60005260008051602061361383398151915260205261117e6111436002604060002001611b0a565b6001600160a01b0390921660009081527f0bb5d42557ea6926c17416c5b1c1c29c28d9006d6f713295a2d385f07156ed086020526040902090565b90611d51565b805461118f81611dde565b9160005b8281106111a857604051806103a286826110b3565b80610b57610b3e6109d16109d16111bf9587611eac565b611193565b346102da5760206001600160a01b036111df610cd5366102df565b5416604051908152f35b346102da5760203660031901126102da576112026103d7565b6000549060ff8260a01c1661122c5760ff60a01b19909116600160a01b17600055610021906119cc565b60405162461bcd60e51b815260206004820152602260248201527f496e697469616c697a61626c653a20616c726561647920696e697469616c697a604482015261195960f21b6064820152608490fd5b611285366102df565b61128e336134fc565b9081600052600080516020613653833981519152806020526112b860ff6040600020541615611edd565b8260005260205260406000209160ff19926001848254161790556112db336134fc565b6112ff81600052600080516020613633833981519152602052604060002054151590565b61132c576113149261076691349033906133d0565b80549190911690556040805134815260006020820152f35b60405163cde58aa160e01b8152336004820152602490fd5b909160608201906060835283518092526080830160808360051b850101926020809601916000905b8282106113c45750505050906113889183820385850152611076565b90604081830391015281808451928381520193019160005b8281106113ae575050505090565b83511515855293810193928101926001016113a0565b9091929487806113e3600193607f9b9a9b198c8203018652895161032f565b97019201920190929196959661136c565b346102da57611402366102df565b6000805160206135b383398151915254600091825b828110611540575061142883613170565b9161143b61143585611dde565b94611dde565b91600090815b83811061145857604051806103a2878a8a84611344565b6114676109d16109d183611e6b565b61147081611db7565b9088886040805160206114c18183018361148d8260028c01612354565b03936114a1601f1995868101835282610237565b519020935191820192826114b5858d611cf5565b03908101835282610237565b519020146114dc575b505050506114d790611bf8565b611441565b60068461151d8995610b4887610b57976115176114d79c9e6115259961150760036115369f01611b0a565b6115118383611c1d565b52611c1d565b50611c1d565b015460ff1690565b61152f838a611c1d565b9015159052565b92903888886114ca565b600261155461062f6109d16109d185611e6b565b016040908151906115976020918361156f8482018093612354565b0393611583601f1995868101835282610237565b519020935191820192826114b58589611cf5565b519020146115ae575b6115a990611bf8565b611417565b926115bb6115a991611bf8565b9390506115a0565b346102da5760403660031901126102da576115dc6103d7565b33600090815260008051602061361383398151915260205260409020546001600160a01b03161561161457610021906024359061327d565b60405162461bcd60e51b815260206004820152602260248201527f43616c6c6572206973206e6f7420612072656769737465726564207365727669604482015261636560f01b6064820152608490fd5b906020610309928181520190610ea5565b346102da5760203660031901126102da5761168e6103d7565b611696612fa3565b506001600160a01b03166000908152600080516020613613833981519152602052604090206103a29060076116c9610258565b82546001600160a01b031681529160018101546001600160a01b031660208401526116f660028201611b0a565b604084015261170760038201611b0a565b606084015261171860048201611b0a565b608084015261172960058201611b0a565b60a084015261174861173f600683015460ff1690565b151560c0850152565b015460e082015260405191829182611664565b346102da5760203660031901126102da576117746103d7565b61177c611974565b6001600160a01b0381161561179457610021906119cc565b60405162461bcd60e51b815260206004820152602660248201527f4f776e61626c653a206e6577206f776e657220697320746865207a65726f206160448201526564647265737360d01b6064820152608490fd5b60203660031901126102da576117fc6103d7565b611805816134fc565b6000918183526000805160206136538339815191528060205261182f60ff60408620541615611edd565b82845260205260408320805460ff1916600117905561184d816134fc565b61187181600052600080516020613633833981519152602052604060002054151590565b61189157916107666105339261053d94611889611f29565b9134916133d0565b905082526000805160206135f3833981519152602052604082206001810190815434810180911161054e57600292550180549134830180931161054e5761053d926105339255611ec0565b906020610309928181520190610de5565b346102da5760203660031901126102da576103a261191a61190c6103d7565b611914611a13565b50613365565b60036119636040519261192c846101e6565b60018060a01b038154168452600181015460208501526002810154604085015261195c6040518094819301611a74565b0382610237565b6060820152604051918291826118dc565b6000546001600160a01b0316330361198857565b606460405162461bcd60e51b815260206004820152602060248201527f4f776e61626c653a2063616c6c6572206973206e6f7420746865206f776e65726044820152fd5b600080546001600160a01b039283166001600160a01b03198216811783559216907f8be0079c531659141344cd1fd0a4f28419497f9722a3daafe3b4186f6b6457e09080a3565b60405190611a20826101e6565b606080836000815260006020820152600060408201520152565b90600182811c92168015611a6a575b6020831014611a5457565b634e487b7160e01b600052602260045260246000fd5b91607f1691611a49565b9060009291805491611a8583611a3a565b918282526001938481169081600014611ae75750600114611aa7575b50505050565b90919394506000526020928360002092846000945b838610611ad3575050505001019038808080611aa1565b805485870183015294019385908201611abc565b9294505050602093945060ff191683830152151560051b01019038808080611aa1565b90611b25611b1e9260405193848092611a74565b0383610237565b565b9060036060604051611b38816101e6565b611b74819560018060a01b0381541683526001810154602084015260028101546040840152611b6d6040518096819301611a74565b0384610237565b0152565b90611b8282610819565b611b8f6040519182610237565b8281528092611ba0601f1991610819565b019060005b828110611bb157505050565b602090611bbc611a13565b82828501015201611ba5565b634e487b7160e01b600052601160045260246000fd5b9190820180921161054e57565b9190820391821161054e57565b600019811461054e5760010190565b634e487b7160e01b600052603260045260246000fd5b8051821015611c315760209160051b010190565b611c07565b6000805160206135d383398151915254929183821015611ccd5780611cb55750825b81810390811161054e57611c6b81611b78565b9160005b828110611c7d575050509190565b80611c9b611c96611c91611cb09486611bde565b61330e565b611b27565b611ca58287611c1d565b52610ae78186611c1d565b611c6f565b810180821161054e5783611cc891611ce3565b611c58565b5050604051611cdb81610201565b600081529190565b9080821015611cf0575090565b905090565b90611d086020928281519485920161030c565b0190565b6020611d2591816040519382858094519384920161030c565b81017f0bb5d42557ea6926c17416c5b1c1c29c28d9006d6f713295a2d385f07156ed0181520301902090565b602090611d6b92826040519483868095519384920161030c565b82019081520301902090565b15611d7e57565b60405162461bcd60e51b815260206004820152601160248201527014d95c9d9a58d9481b9bdd08199bdd5b99607a1b6044820152606490fd5b6001600160a01b031660009081526000805160206136138339815191526020526040902090565b90611de882610819565b611df56040519182610237565b8281528092611e06601f1991610819565b0190602036910137565b6000805160206135d38339815191528054821015611c31576000527f21302f50b88ada34e91c29b444cb23b8bdb1cb81a8967b81f9f41f1744929c3f0190600090565b8054821015611c315760005260206000200190600090565b6000805160206135b38339815191528054821015611c31576000527f10f78b23dc0eb204a6d6fa9709ff7d389ae78db91903b42d2351233e11ab5ab8015490565b90611eb691611e53565b90549060031b1c90565b600052600080516020613653833981519152602052604060002090565b15611ee457565b60405162461bcd60e51b815260206004820152601b60248201527f4c6564676572206c6f636b656420666f72206f7065726174696f6e00000000006044820152606490fd5b60405190611f3682610201565b60008252565b611f45816134fc565b90611f6a82600052600080516020613633833981519152602052604060002054151590565b611f895791611b259260405192611f8084610201565b600084526133d0565b506000526000805160206135f383398151915260205260406000206001810190815483810180911161054e576002925501805491820180921161054e5755565b6040513d6000823e3d90fd5b908160209103126102da575180151581036102da5790565b6001600160a01b0391821681529116602082015260606040820181905261030992910190611a74565b908160209103126102da575190565b1561202c57565b60405162461bcd60e51b8152602060048201526014602482015273496e73756666696369656e742062616c616e636560601b6044820152606490fd5b3d15612093573d9061207982610278565b916120876040519384610237565b82523d6000602084013e565b606090565b1561209f57565b60405162461bcd60e51b815260206004820152601d60248201527f43616c6c20746f206368696c6420636f6e7472616374206661696c65640000006044820152606490fd5b6120ed336134fc565b916000918383526000805160206136538339815191528060205260409061211a60ff838720541615611edd565b858552602052808420926001938460ff198254161790558251601481116122cd575061060761214891611d0c565b93836121748161216660018060a01b039861062f8a82161515611d77565b01546001600160a01b031690565b9361217e33613365565b948397849116925b6121ad575b5050505050916121a6611b2594926105339401918254611bde565b9055611ec0565b81518110156122c8576121c3610a798284611c1d565b855163271e279160e11b8152336004808301919091526001600160a01b0392909216602482015290986060919082826044818a8a5af191821561054057612212938893612297575b5050611bde565b97612220610a798385611c1d565b90843b15612293578651636c79158d60e01b8152339181019182526001600160a01b039092166020820152909493929190849086908190604001038183875af1908115610540578895612277926122805750611bf8565b90919293612186565b80610b1061228d926101ce565b38610ae7565b8580fd5b6122b7929350803d106122c1575b6122af8183610237565b8101906122ed565b505090388061220b565b503d6122a5565b61218b565b825163414f261960e11b8152600481019190915260146024820152604490fd5b908160609103126102da578051916040602083015192015190565b1561230f57565b60405162461bcd60e51b815260206004820152601d60248201527f4d75737420776974686472617720616c6c2066756e64732066697273740000006044820152606490fd5b60009291815461236381611a3a565b926001918083169081156123bb575060011461237f5750505050565b90919293945060005260209081600020906000915b8583106123aa5750505050019038808080611aa1565b805485840152918301918101612394565b60ff1916845250505081151590910201915038808080611aa1565b6020906123e99260405193848093612354565b9081520301902090565b9161240d9183549060031b91821b91600019901b19161790565b9055565b81811061241c575050565b60008155600101612411565b6003600091828155826001820155826002820155016124478154611a3a565b8061245157505050565b82601f821160011461246257505055565b9091808252612480601f60208420940160051c840160018501612411565b5555565b6000805160206135d383398151915280549081156124d65760001982019180831015611c31577f21302f50b88ada34e91c29b444cb23b8bdb1cb81a8967b81f9f41f1744929c3e600091838352015555565b634e487b7160e01b600052603160045260246000fd5b80549081156124d657600019918201916125068383611e53565b909182549160031b1b1916905555565b6000818152600080516020613633833981519152602052604090205480156125cb57600019918183019180831161054e576000805160206135d38339815191525493840193841161054e578383612598946000960361259e575b50505061257b612484565b600052600080516020613633833981519152602052604060002090565b55600190565b61257b6125bc916125b4611eb66125c295611e10565b928391611e10565b906123f3565b55388080612570565b5050600090565b600181019180600052826020526040600020549283151560001461267257600019928484019085821161054e57805494850194851161054e576000958583612626946125989803612635575b5050506124ec565b90600052602052604060002090565b6126596125bc916126496126699487611e53565b90549060031b1c92839187611e53565b8590600052602052604060002090565b5538808061261e565b50505050600090565b610309916001600160a01b0316906125d2565b906127fb7f4c76643f3c678c590db6e8ad9fe0bb6e75d36cb853c3bd06c487607ff35e6f71936127d3612811946126c3611974565b6001600160a01b038316976126d9891515612816565b6126e582511515612862565b6126f1865115156128a6565b6127096127036109d161060787611db7565b156128e5565b60405195612745876127376127316127246020840188611cf5565b602d60f81b815260010190565b84611cf5565b03601f198101895288610237565b61275d6127576109d16106078a611d0c565b15612931565b61276e61276986612c1c565b61297d565b61277f61277a86612c9f565b6129e1565b612787610258565b6001600160a01b0386168152926001600160a01b038b1660208501526040840152606083015285608083015260a0820152600060c08201524260e08201526127ce83611db7565b612b52565b6127dc83611d0c565b80546001600160a01b0319166001600160a01b03909216919091179055565b61280484612d55565b5060405191829182612c0b565b0390a2565b1561281d57565b60405162461bcd60e51b815260206004820152601760248201527f496e76616c6964207365727669636520616464726573730000000000000000006044820152606490fd5b1561286957565b60405162461bcd60e51b815260206004820152601560248201527414d95c9d9a58d9481d1e5c19481c995c5d5a5c9959605a1b6044820152606490fd5b156128ad57565b60405162461bcd60e51b815260206004820152601060248201526f15995c9cda5bdb881c995c5d5a5c995960821b6044820152606490fd5b156128ec57565b60405162461bcd60e51b815260206004820152601a60248201527f5365727669636520616c726561647920726567697374657265640000000000006044820152606490fd5b1561293857565b60405162461bcd60e51b815260206004820152601b60248201527f53657276696365206e616d6520616c72656164792065786973747300000000006044820152606490fd5b1561298457565b60405162461bcd60e51b815260206004820152602f60248201527f53657276696365206d75737420737570706f72742045524331363520696e746560448201526e393330b1b2903232ba32b1ba34b7b760891b6064820152608490fd5b156129e857565b60405162461bcd60e51b815260206004820152602960248201527f53657276696365206d75737420696d706c656d656e74204953657276696e6720604482015268696e7465726661636560b81b6064820152608490fd5b9190601f8111612a4e57505050565b611b25926000526020600020906020601f840160051c83019310612a7a575b601f0160051c0190612411565b9091508190612a6d565b91909182516001600160401b0381116101e157612aab81612aa58454611a3a565b84612a3f565b602080601f8311600114612ae7575081929394600092612adc575b50508160011b916000199060031b1c1916179055565b015190503880612ac6565b90601f19831695612afd85600052602060002090565b926000905b888210612b3a57505083600195969710612b21575b505050811b019055565b015160001960f88460031b161c19169055388080612b17565b80600185968294968601518155019501930190612b02565b815181546001600160a01b0319166001600160a01b039091161781559060079060e09060208101516001850180546001600160a01b0319166001600160a01b03909216919091179055612bac604082015160028601612a84565b612bbd606082015160038601612a84565b612bce608082015160048601612a84565b612bdf60a082015160058601612a84565b612c04612bef60c0830151151590565b600686019060ff801983541691151516179055565b0151910155565b90602061030992818152019061032f565b612c2581612cfc565b9081612c8d575b81612c35575090565b60209150600090604051838101906301ffc9a760e01b808352602482015260248152612c608161021c565b5191617530fa6000513d82612c81575b5081612c7a575090565b9050151590565b60201115915038612c70565b9050612c9881612d25565b1590612c2c565b612ca881612cfc565b9081612cea575b81612cb8575090565b60209150600090604051838101906301ffc9a760e01b825263160841b160e01b602482015260248152612c608161021c565b9050612cf581612d25565b1590612caf565b6000602091604051838101906301ffc9a760e01b808352602482015260248152612c608161021c565b6000602091604051838101906301ffc9a760e01b825263ffffffff60e01b602482015260248152612c608161021c565b806000527f0bb5d42557ea6926c17416c5b1c1c29c28d9006d6f713295a2d385f07156ed0380602052604060002054156000146125cb576000805160206135b38339815191528054600160401b8110156101e15760018101808355811015611c315783907f10f78b23dc0eb204a6d6fa9709ff7d389ae78db91903b42d2351233e11ab5ab801555491600052602052604060002055600190565b8060005260008051602061363383398151915280602052604060002054156000146125cb576000805160206135d38339815191528054600160401b8110156101e15760018101808355811015611c315783907f21302f50b88ada34e91c29b444cb23b8bdb1cb81a8967b81f9f41f1744929c3f01555491600052602052604060002055600190565b6001810190826000528160205260406000205415600014612ee0578054600160401b8110156101e157612ecb612eb4826001879401855584611e53565b819391549060031b91821b91600019901b19161790565b90555491600052602052604060002055600190565b505050600090565b612f009060206040519282848094519384920161030c565b810103902090565b6000805160206135b3833981519152549060005b828110612f2857505050565b80612f3e61062f6109d16109d1612f8e95611e6b565b604080516020612f8081830183612f588260028901612354565b0393612f6c601f1995868101835282610237565b519020935191820192826114b5858b611cf5565b51902014612f935750611bf8565b612f1c565b600601805460ff1916905561228d565b6040519061010082018281106001600160401b038211176101e157604052600060e0838281528260208201526060604082015260608082015260606080820152606060a08201528260c08201520152565b906007612fff610258565b83546001600160a01b031681529260018101546001600160a01b0316602085015261302c60028201611b0a565b604085015261303d60038201611b0a565b606085015261304e60048201611b0a565b608085015261305f60058201611b0a565b60a085015261307e613075600683015460ff1690565b151560c0860152565b015460e0830152565b906000805160206135b3833981519152549060005b8281106130fb5760405162461bcd60e51b815260206004820152602a60248201527f4e6f207265636f6d6d656e646564207365727669636520666f756e6420666f726044820152692074686973207479706560b01b6064820152608490fd5b61310a6109d16109d183611e6b565b61311381611db7565b60408051602061312d8183018361148d8260028901612354565b5190201480613162575b61314b57505061314690611bf8565b61309c565b90945061315e9293506003915001611b0a565b9190565b50600681015460ff16613137565b9061317a82610819565b6131876040519182610237565b8281528092613198601f1991610819565b019060005b8281106131a957505050565b80606060208093850101520161319d565b60216131f89160405193816131d986935180926020808701910161030c565b8201602d60f81b6020820152610cc6825180936020878501910161030c565b6001600160a01b039061320a90611d0c565b5416801561322557600661321f60ff92611db7565b01541690565b50600090565b6001600160a01b0390811660009081527f0bb5d42557ea6926c17416c5b1c1c29c28d9006d6f713295a2d385f07156ed086020526040902061327a93926132729190611d51565b911690612e77565b50565b90613287826134fc565b80600052600080516020613653833981519152806020526132b060ff6040600020541615611edd565b816000526020526132d260406000209360ff1994600186825416179055613365565b600281019260018454920154820382811161054e57816132f3911015612025565b810390811161054e576133069255611ec0565b908154169055565b6000805160206135d383398151915254811015611c31577f21302f50b88ada34e91c29b444cb23b8bdb1cb81a8967b81f9f41f1744929c3f01546000526000805160206135f3833981519152602052604060002090565b61336e816134fc565b9081600052600080516020613633833981519152602052604060002054156133ae57506000526000805160206135f3833981519152602052604060002090565b604051637d2d536b60e01b81526001600160a01b039091166004820152602490fd5b919392938260005260036020926000805160206135f3833981519152845261342660406000209160019480868501556002840155829060018060a01b03166bffffffffffffffffffffffff60a01b825416179055565b01918551956001600160401b0387116101e15761344d876134478654611a3a565b86612a3f565b81601f881160011461348d5750958092819261327a9798600094613482575b50501b916000199060031b1c1916179055612def565b01519250388061346c565b909691601f198316976134a586600052602060002090565b926000905b8a82106134e55750508361327a9899106134cc575b505050811b019055612def565b015160001960f88460031b161c191690553880806134bf565b8087859682949686015181550195019301906134aa565b604051602081019160018060a01b0316825260208152604081018181106001600160401b038211176101e15760405251902090565b33600090815260008051602061361383398151915260205260409020546001600160a01b0316611b2557610533613567326134fc565b8060005260008051602061365383398151915260205261358f60ff6040600020541615611edd565b6135a861359b82611ec0565b805460ff19166001179055565b6107663432611f3c56fe0bb5d42557ea6926c17416c5b1c1c29c28d9006d6f713295a2d385f07156ed020bb5d42557ea6926c17416c5b1c1c29c28d9006d6f713295a2d385f07156ed040bb5d42557ea6926c17416c5b1c1c29c28d9006d6f713295a2d385f07156ed060bb5d42557ea6926c17416c5b1c1c29c28d9006d6f713295a2d385f07156ed000bb5d42557ea6926c17416c5b1c1c29c28d9006d6f713295a2d385f07156ed050bb5d42557ea6926c17416c5b1c1c29c28d9006d6f713295a2d385f07156ed07a2646970667358221220cf9e86ee8078c1332da8d276f37830f047bce5a8c274ce375651452f65d926ba64736f6c63430008140033",
  "devdoc": {
    "kind": "dev",
    "methods": {
      "owner()": {
        "details": "Returns the address of the current owner."
      },
      "renounceOwnership()": {
        "details": "Leaves the contract without owner. It will not be possible to call `onlyOwner` functions anymore. Can only be called by the current owner. NOTE: Renouncing ownership will leave the contract without an owner, thereby removing any functionality that is only available to the owner."
      },
      "transferOwnership(address)": {
        "details": "Transfers ownership of the contract to a new account (`newOwner`). Can only be called by the current owner."
      }
    },
    "version": 1
  },
  "userdoc": {
    "kind": "user",
    "methods": {},
    "version": 1
  },
  "storageLayout": {
    "storage": [
      {
        "astId": 7,
        "contract": "contracts/ledger/LedgerManager.sol:LedgerManager",
        "label": "_owner",
        "offset": 0,
        "slot": "0",
        "type": "t_address"
      },
      {
        "astId": 13479,
        "contract": "contracts/ledger/LedgerManager.sol:LedgerManager",
        "label": "initialized",
        "offset": 20,
        "slot": "0",
        "type": "t_bool"
      },
      {
        "astId": 123,
        "contract": "contracts/ledger/LedgerManager.sol:LedgerManager",
        "label": "_status",
        "offset": 0,
        "slot": "1",
        "type": "t_uint256"
      }
    ],
    "types": {
      "t_address": {
        "encoding": "inplace",
        "label": "address",
        "numberOfBytes": "20"
      },
      "t_bool": {
        "encoding": "inplace",
        "label": "bool",
        "numberOfBytes": "1"
      },
      "t_uint256": {
        "encoding": "inplace",
        "label": "uint256",
        "numberOfBytes": "32"
      }
    }
  }
}