{
  "address": "0x955C75341971D083b7bC133e6B379DfC3F6c972A",
  "abi": [
    {
      "inputs": [
        {
          "internalType": "address",
          "name": "user",
          "type": "address"
        },
        {
          "internalType": "address",
          "name": "provider",
          "type": "address"
        }
      ],
      "name": "AccountExists",
      "type": "error"
    },
    {
      "inputs": [
        {
          "internalType": "address",
          "name": "user",
          "type": "address"
        },
        {
          "internalType": "address",
          "name": "provider",
          "type": "address"
        }
      ],
      "name": "AccountNotExists",
      "type": "error"
    },
    {
      "inputs": [],
      "name": "AdditionalInfoTooLong",
      "type": "error"
    },
    {
      "inputs": [],
      "name": "CannotAddStakeWhenUpdating",
      "type": "error"
    },
    {
      "inputs": [
        {
          "internalType": "address",
          "name": "user",
          "type": "address"
        },
        {
          "internalType": "address",
          "name": "provider",
          "type": "address"
        },
        {
          "internalType": "uint256",
          "name": "balance",
          "type": "uint256"
        }
      ],
      "name": "CannotRevokeWithNonZeroBalance",
      "type": "error"
    },
    {
      "inputs": [
        {
          "internalType": "string",
          "name": "id",
          "type": "string"
        }
      ],
      "name": "DeliverableAlreadyExists",
      "type": "error"
    },
    {
      "inputs": [
        {
          "internalType": "uint256",
          "name": "length",
          "type": "uint256"
        }
      ],
      "name": "DeliverableIdInvalidLength",
      "type": "error"
    },
    {
      "inputs": [
        {
          "internalType": "uint256",
          "name": "length",
          "type": "uint256"
        }
      ],
      "name": "DeliverableIdTooLong",
      "type": "error"
    },
    {
      "inputs": [
        {
          "internalType": "string",
          "name": "id",
          "type": "string"
        }
      ],
      "name": "DeliverableNotExists",
      "type": "error"
    },
    {
      "inputs": [],
      "name": "DirectDepositsDisabled",
      "type": "error"
    },
    {
      "inputs": [],
      "name": "ETHTransferFailed",
      "type": "error"
    },
    {
      "inputs": [
        {
          "internalType": "uint256",
          "name": "provided",
          "type": "uint256"
        },
        {
          "internalType": "uint256",
          "name": "required",
          "type": "uint256"
        }
      ],
      "name": "InsufficientStake",
      "type": "error"
    },
    {
      "inputs": [],
      "name": "InvalidLedgerAddress",
      "type": "error"
    },
    {
      "inputs": [
        {
          "internalType": "string",
          "name": "reason",
          "type": "string"
        }
      ],
      "name": "InvalidVerifierInput",
      "type": "error"
    },
    {
      "inputs": [
        {
          "internalType": "uint256",
          "name": "limit",
          "type": "uint256"
        }
      ],
      "name": "LimitTooLarge",
      "type": "error"
    },
    {
      "inputs": [
        {
          "internalType": "uint256",
          "name": "lockTime",
          "type": "uint256"
        }
      ],
      "name": "LockTimeOutOfRange",
      "type": "error"
    },
    {
      "inputs": [
        {
          "internalType": "uint256",
          "name": "percentage",
          "type": "uint256"
        }
      ],
      "name": "PenaltyPercentageTooHigh",
      "type": "error"
    },
    {
      "inputs": [
        {
          "internalType": "string",
          "name": "id",
          "type": "string"
        }
      ],
      "name": "PreviousDeliverableNotAcknowledged",
      "type": "error"
    },
    {
      "inputs": [],
      "name": "SecretShouldBeEmpty",
      "type": "error"
    },
    {
      "inputs": [],
      "name": "SecretShouldNotBeEmpty",
      "type": "error"
    },
    {
      "inputs": [
        {
          "internalType": "address",
          "name": "provider",
          "type": "address"
        }
      ],
      "name": "ServiceNotExist",
      "type": "error"
    },
    {
      "inputs": [
        {
          "internalType": "address",
          "name": "user",
          "type": "address"
        },
        {
          "internalType": "address",
          "name": "provider",
          "type": "address"
        }
      ],
      "name": "TooManyRefunds",
      "type": "error"
    },
    {
      "inputs": [],
      "name": "TransferToLedgerFailed",
      "type": "error"
    },
    {
      "anonymous": false,
      "inputs": [
        {
          "indexed": true,
          "internalType": "address",
          "name": "user",
          "type": "address"
        },
        {
          "indexed": true,
          "internalType": "address",
          "name": "provider",
          "type": "address"
        },
        {
          "indexed": false,
          "internalType": "uint256",
          "name": "refundedAmount",
          "type": "uint256"
        }
      ],
      "name": "AccountDeleted",
      "type": "event"
    },
    {
      "anonymous": false,
      "inputs": [
        {
          "indexed": true,
          "internalType": "address",
          "name": "user",
          "type": "address"
        },
        {
          "indexed": true,
          "internalType": "address",
          "name": "provider",
          "type": "address"
        },
        {
          "indexed": false,
          "internalType": "uint256",
          "name": "amount",
          "type": "uint256"
        },
        {
          "indexed": false,
          "internalType": "uint256",
          "name": "pendingRefund",
          "type": "uint256"
        }
      ],
      "name": "BalanceUpdated",
      "type": "event"
    },
    {
      "anonymous": false,
      "inputs": [
        {
          "indexed": false,
          "internalType": "uint8",
          "name": "version",
          "type": "uint8"
        }
      ],
      "name": "Initialized",
      "type": "event"
    },
    {
      "anonymous": false,
      "inputs": [
        {
          "indexed": false,
          "internalType": "uint256",
          "name": "oldLockTime",
          "type": "uint256"
        },
        {
          "indexed": false,
          "internalType": "uint256",
          "name": "newLockTime",
          "type": "uint256"
        }
      ],
      "name": "LockTimeUpdated",
      "type": "event"
    },
    {
      "anonymous": false,
      "inputs": [
        {
          "indexed": true,
          "internalType": "address",
          "name": "previousOwner",
          "type": "address"
        },
        {
          "indexed": true,
          "internalType": "address",
          "name": "newOwner",
          "type": "address"
        }
      ],
      "name": "OwnershipTransferred",
      "type": "event"
    },
    {
      "anonymous": false,
      "inputs": [
        {
          "indexed": true,
          "internalType": "address",
          "name": "provider",
          "type": "address"
        },
        {
          "indexed": false,
          "internalType": "uint256",
          "name": "amount",
          "type": "uint256"
        }
      ],
      "name": "ProviderStakeReturned",
      "type": "event"
    },
    {
      "anonymous": false,
      "inputs": [
        {
          "indexed": true,
          "internalType": "address",
          "name": "provider",
          "type": "address"
        },
        {
          "indexed": false,
          "internalType": "uint256",
          "name": "amount",
          "type": "uint256"
        }
      ],
      "name": "ProviderStaked",
      "type": "event"
    },
    {
      "anonymous": false,
      "inputs": [
        {
          "indexed": true,
          "internalType": "address",
          "name": "provider",
          "type": "address"
        },
        {
          "indexed": true,
          "internalType": "address",
          "name": "teeSignerAddress",
          "type": "address"
        },
        {
          "indexed": false,
          "internalType": "bool",
          "name": "acknowledged",
          "type": "bool"
        }
      ],
      "name": "ProviderTEESignerAcknowledged",
      "type": "event"
    },
    {
      "anonymous": false,
      "inputs": [
        {
          "indexed": true,
          "internalType": "address",
          "name": "user",
          "type": "address"
        },
        {
          "indexed": true,
          "internalType": "address",
          "name": "provider",
          "type": "address"
        },
        {
          "indexed": true,
          "internalType": "uint256",
          "name": "index",
          "type": "uint256"
        },
        {
          "indexed": false,
          "internalType": "uint256",
          "name": "timestamp",
          "type": "uint256"
        }
      ],
      "name": "RefundRequested",
      "type": "event"
    },
    {
      "anonymous": false,
      "inputs": [
        {
          "indexed": true,
          "internalType": "address",
          "name": "user",
          "type": "address"
        }
      ],
      "name": "ServiceRemoved",
      "type": "event"
    },
    {
      "anonymous": false,
      "inputs": [
        {
          "indexed": true,
          "internalType": "address",
          "name": "user",
          "type": "address"
        },
        {
          "indexed": false,
          "internalType": "string",
          "name": "url",
          "type": "string"
        },
        {
          "components": [
            {
              "internalType": "uint256",
              "name": "cpuCount",
              "type": "uint256"
            },
            {
              "internalType": "uint256",
              "name": "nodeMemory",
              "type": "uint256"
            },
            {
              "internalType": "uint256",
              "name": "gpuCount",
              "type": "uint256"
            },
            {
              "internalType": "uint256",
              "name": "nodeStorage",
              "type": "uint256"
            },
            {
              "internalType": "string",
              "name": "gpuType",
              "type": "string"
            }
          ],
          "indexed": false,
          "internalType": "struct Quota",
          "name": "quota",
          "type": "tuple"
        },
        {
          "indexed": false,
          "internalType": "uint256",
          "name": "pricePerToken",
          "type": "uint256"
        },
        {
          "indexed": false,
          "internalType": "address",
          "name": "teeSignerAddress",
          "type": "address"
        },
        {
          "indexed": false,
          "internalType": "bool",
          "name": "occupied",
          "type": "bool"
        }
      ],
      "name": "ServiceUpdated",
      "type": "event"
    },
    {
      "inputs": [],
      "name": "MAX_LOCKTIME",
      "outputs": [
        {
          "internalType": "uint256",
          "name": "",
          "type": "uint256"
        }
      ],
      "stateMutability": "view",
      "type": "function"
    },
    {
      "inputs": [],
      "name": "MIN_LOCKTIME",
      "outputs": [
        {
          "internalType": "uint256",
          "name": "",
          "type": "uint256"
        }
      ],
      "stateMutability": "view",
      "type": "function"
    },
    {
      "inputs": [],
      "name": "MIN_PROVIDER_STAKE",
      "outputs": [
        {
          "internalType": "uint256",
          "name": "",
          "type": "uint256"
        }
      ],
      "stateMutability": "view",
      "type": "function"
    },
    {
      "inputs": [
        {
          "internalType": "address",
          "name": "user",
          "type": "address"
        },
        {
          "internalType": "address",
          "name": "provider",
          "type": "address"
        }
      ],
      "name": "accountExists",
      "outputs": [
        {
          "internalType": "bool",
          "name": "",
          "type": "bool"
        }
      ],
      "stateMutability": "view",
      "type": "function"
    },
    {
      "inputs": [
        {
          "internalType": "address",
          "name": "provider",
          "type": "address"
        },
        {
          "internalType": "string",
          "name": "id",
          "type": "string"
        }
      ],
      "name": "acknowledgeDeliverable",
      "outputs": [],
      "stateMutability": "nonpayable",
      "type": "function"
    },
    {
      "inputs": [
        {
          "internalType": "address",
          "name": "provider",
          "type": "address"
        },
        {
          "internalType": "bool",
          "name": "acknowledged",
          "type": "bool"
        }
      ],
      "name": "acknowledgeTEESigner",
      "outputs": [],
      "stateMutability": "nonpayable",
      "type": "function"
    },
    {
      "inputs": [
        {
          "internalType": "address",
          "name": "provider",
          "type": "address"
        }
      ],
      "name": "acknowledgeTEESignerByOwner",
      "outputs": [],
      "stateMutability": "nonpayable",
      "type": "function"
    },
    {
      "inputs": [
        {
          "internalType": "address",
          "name": "user",
          "type": "address"
        },
        {
          "internalType": "address",
          "name": "provider",
          "type": "address"
        },
        {
          "internalType": "string",
          "name": "additionalInfo",
          "type": "string"
        }
      ],
      "name": "addAccount",
      "outputs": [],
      "stateMutability": "payable",
      "type": "function"
    },
    {
      "inputs": [
        {
          "internalType": "address",
          "name": "user",
          "type": "address"
        },
        {
          "internalType": "string",
          "name": "id",
          "type": "string"
        },
        {
          "internalType": "bytes",
          "name": "modelRootHash",
          "type": "bytes"
        }
      ],
      "name": "addDeliverable",
      "outputs": [],
      "stateMutability": "nonpayable",
      "type": "function"
    },
    {
      "inputs": [
        {
          "internalType": "string",
          "name": "url",
          "type": "string"
        },
        {
          "components": [
            {
              "internalType": "uint256",
              "name": "cpuCount",
              "type": "uint256"
            },
            {
              "internalType": "uint256",
              "name": "nodeMemory",
              "type": "uint256"
            },
            {
              "internalType": "uint256",
              "name": "gpuCount",
              "type": "uint256"
            },
            {
              "internalType": "uint256",
              "name": "nodeStorage",
              "type": "uint256"
            },
            {
              "internalType": "string",
              "name": "gpuType",
              "type": "string"
            }
          ],
          "internalType": "struct Quota",
          "name": "quota",
          "type": "tuple"
        },
        {
          "internalType": "uint256",
          "name": "pricePerToken",
          "type": "uint256"
        },
        {
          "internalType": "bool",
          "name": "occupied",
          "type": "bool"
        },
        {
          "internalType": "string[]",
          "name": "models",
          "type": "string[]"
        },
        {
          "internalType": "address",
          "name": "teeSignerAddress",
          "type": "address"
        }
      ],
      "name": "addOrUpdateService",
      "outputs": [],
      "stateMutability": "payable",
      "type": "function"
    },
    {
      "inputs": [
        {
          "internalType": "address",
          "name": "user",
          "type": "address"
        },
        {
          "internalType": "address",
          "name": "provider",
          "type": "address"
        }
      ],
      "name": "deleteAccount",
      "outputs": [],
      "stateMutability": "nonpayable",
      "type": "function"
    },
    {
      "inputs": [
        {
          "internalType": "address",
          "name": "user",
          "type": "address"
        },
        {
          "internalType": "address",
          "name": "provider",
          "type": "address"
        },
        {
          "internalType": "uint256",
          "name": "cancelRetrievingAmount",
          "type": "uint256"
        }
      ],
      "name": "depositFund",
      "outputs": [],
      "stateMutability": "payable",
      "type": "function"
    },
    {
      "inputs": [
        {
          "internalType": "address",
          "name": "user",
          "type": "address"
        },
        {
          "internalType": "address",
          "name": "provider",
          "type": "address"
        }
      ],
      "name": "getAccount",
      "outputs": [
        {
          "components": [
            {
              "internalType": "address",
              "name": "user",
              "type": "address"
            },
            {
              "internalType": "address",
              "name": "provider",
              "type": "address"
            },
            {
              "internalType": "uint256",
              "name": "nonce",
              "type": "uint256"
            },
            {
              "internalType": "uint256",
              "name": "balance",
              "type": "uint256"
            },
            {
              "internalType": "uint256",
              "name": "pendingRefund",
              "type": "uint256"
            },
            {
              "components": [
                {
                  "internalType": "uint256",
                  "name": "index",
                  "type": "uint256"
                },
                {
                  "internalType": "uint256",
                  "name": "amount",
                  "type": "uint256"
                },
                {
                  "internalType": "uint256",
                  "name": "createdAt",
                  "type": "uint256"
                },
                {
                  "internalType": "bool",
                  "name": "processed",
                  "type": "bool"
                }
              ],
              "internalType": "struct Refund[]",
              "name": "refunds",
              "type": "tuple[]"
            },
            {
              "internalType": "string",
              "name": "additionalInfo",
              "type": "string"
            },
            {
              "components": [
                {
                  "internalType": "string",
                  "name": "id",
                  "type": "string"
                },
                {
                  "internalType": "bytes",
                  "name": "modelRootHash",
                  "type": "bytes"
                },
                {
                  "internalType": "bytes",
                  "name": "encryptedSecret",
                  "type": "bytes"
                },
                {
                  "internalType": "bool",
                  "name": "acknowledged",
                  "type": "bool"
                },
                {
                  "internalType": "uint248",
                  "name": "timestamp",
                  "type": "uint248"
                }
              ],
              "internalType": "struct Deliverable[]",
              "name": "deliverables",
              "type": "tuple[]"
            },
            {
              "internalType": "uint256",
              "name": "validRefundsLength",
              "type": "uint256"
            },
            {
              "internalType": "uint256",
              "name": "deliverablesHead",
              "type": "uint256"
            },
            {
              "internalType": "uint256",
              "name": "deliverablesCount",
              "type": "uint256"
            },
            {
              "internalType": "bool",
              "name": "acknowledged",
              "type": "bool"
            }
          ],
          "internalType": "struct AccountDetails",
          "name": "",
          "type": "tuple"
        }
      ],
      "stateMutability": "view",
      "type": "function"
    },
    {
      "inputs": [
        {
          "internalType": "address",
          "name": "provider",
          "type": "address"
        },
        {
          "internalType": "uint256",
          "name": "offset",
          "type": "uint256"
        },
        {
          "internalType": "uint256",
          "name": "limit",
          "type": "uint256"
        }
      ],
      "name": "getAccountsByProvider",
      "outputs": [
        {
          "components": [
            {
              "internalType": "address",
              "name": "user",
              "type": "address"
            },
            {
              "internalType": "address",
              "name": "provider",
              "type": "address"
            },
            {
              "internalType": "uint256",
              "name": "nonce",
              "type": "uint256"
            },
            {
              "internalType": "uint256",
              "name": "balance",
              "type": "uint256"
            },
            {
              "internalType": "uint256",
              "name": "pendingRefund",
              "type": "uint256"
            },
            {
              "internalType": "string",
              "name": "additionalInfo",
              "type": "string"
            },
            {
              "internalType": "uint256",
              "name": "validRefundsLength",
              "type": "uint256"
            },
            {
              "internalType": "uint256",
              "name": "deliverablesCount",
              "type": "uint256"
            },
            {
              "internalType": "bool",
              "name": "acknowledged",
              "type": "bool"
            }
          ],
          "internalType": "struct AccountSummary[]",
          "name": "accounts",
          "type": "tuple[]"
        },
        {
          "internalType": "uint256",
          "name": "total",
          "type": "uint256"
        }
      ],
      "stateMutability": "view",
      "type": "function"
    },
    {
      "inputs": [
        {
          "internalType": "address",
          "name": "user",
          "type": "address"
        },
        {
          "internalType": "uint256",
          "name": "offset",
          "type": "uint256"
        },
        {
          "internalType": "uint256",
          "name": "limit",
          "type": "uint256"
        }
      ],
      "name": "getAccountsByUser",
      "outputs": [
        {
          "components": [
            {
              "internalType": "address",
              "name": "user",
              "type": "address"
            },
            {
              "internalType": "address",
              "name": "provider",
              "type": "address"
            },
            {
              "internalType": "uint256",
              "name": "nonce",
              "type": "uint256"
            },
            {
              "internalType": "uint256",
              "name": "balance",
              "type": "uint256"
            },
            {
              "internalType": "uint256",
              "name": "pendingRefund",
              "type": "uint256"
            },
            {
              "internalType": "string",
              "name": "additionalInfo",
              "type": "string"
            },
            {
              "internalType": "uint256",
              "name": "validRefundsLength",
              "type": "uint256"
            },
            {
              "internalType": "uint256",
              "name": "deliverablesCount",
              "type": "uint256"
            },
            {
              "internalType": "bool",
              "name": "acknowledged",
              "type": "bool"
            }
          ],
          "internalType": "struct AccountSummary[]",
          "name": "accounts",
          "type": "tuple[]"
        },
        {
          "internalType": "uint256",
          "name": "total",
          "type": "uint256"
        }
      ],
      "stateMutability": "view",
      "type": "function"
    },
    {
      "inputs": [
        {
          "internalType": "uint256",
          "name": "offset",
          "type": "uint256"
        },
        {
          "internalType": "uint256",
          "name": "limit",
          "type": "uint256"
        }
      ],
      "name": "getAllAccounts",
      "outputs": [
        {
          "components": [
            {
              "internalType": "address",
              "name": "user",
              "type": "address"
            },
            {
              "internalType": "address",
              "name": "provider",
              "type": "address"
            },
            {
              "internalType": "uint256",
              "name": "nonce",
              "type": "uint256"
            },
            {
              "internalType": "uint256",
              "name": "balance",
              "type": "uint256"
            },
            {
              "internalType": "uint256",
              "name": "pendingRefund",
              "type": "uint256"
            },
            {
              "internalType": "string",
              "name": "additionalInfo",
              "type": "string"
            },
            {
              "internalType": "uint256",
              "name": "validRefundsLength",
              "type": "uint256"
            },
            {
              "internalType": "uint256",
              "name": "deliverablesCount",
              "type": "uint256"
            },
            {
              "internalType": "bool",
              "name": "acknowledged",
              "type": "bool"
            }
          ],
          "internalType": "struct AccountSummary[]",
          "name": "accounts",
          "type": "tuple[]"
        },
        {
          "internalType": "uint256",
          "name": "total",
          "type": "uint256"
        }
      ],
      "stateMutability": "view",
      "type": "function"
    },
    {
      "inputs": [],
      "name": "getAllServices",
      "outputs": [
        {
          "components": [
            {
              "internalType": "address",
              "name": "provider",
              "type": "address"
            },
            {
              "internalType": "string",
              "name": "url",
              "type": "string"
            },
            {
              "components": [
                {
                  "internalType": "uint256",
                  "name": "cpuCount",
                  "type": "uint256"
                },
                {
                  "internalType": "uint256",
                  "name": "nodeMemory",
                  "type": "uint256"
                },
                {
                  "internalType": "uint256",
                  "name": "gpuCount",
                  "type": "uint256"
                },
                {
                  "internalType": "uint256",
                  "name": "nodeStorage",
                  "type": "uint256"
                },
                {
                  "internalType": "string",
                  "name": "gpuType",
                  "type": "string"
                }
              ],
              "internalType": "struct Quota",
              "name": "quota",
              "type": "tuple"
            },
            {
              "internalType": "uint256",
              "name": "pricePerToken",
              "type": "uint256"
            },
            {
              "internalType": "bool",
              "name": "occupied",
              "type": "bool"
            },
            {
              "internalType": "string[]",
              "name": "models",
              "type": "string[]"
            },
            {
              "internalType": "address",
              "name": "teeSignerAddress",
              "type": "address"
            },
            {
              "internalType": "bool",
              "name": "teeSignerAcknowledged",
              "type": "bool"
            }
          ],
          "internalType": "struct Service[]",
          "name": "services",
          "type": "tuple[]"
        }
      ],
      "stateMutability": "view",
      "type": "function"
    },
    {
      "inputs": [
        {
          "internalType": "address[]",
          "name": "users",
          "type": "address[]"
        }
      ],
      "name": "getBatchAccountsByUsers",
      "outputs": [
        {
          "components": [
            {
              "internalType": "address",
              "name": "user",
              "type": "address"
            },
            {
              "internalType": "address",
              "name": "provider",
              "type": "address"
            },
            {
              "internalType": "uint256",
              "name": "nonce",
              "type": "uint256"
            },
            {
              "internalType": "uint256",
              "name": "balance",
              "type": "uint256"
            },
            {
              "internalType": "uint256",
              "name": "pendingRefund",
              "type": "uint256"
            },
            {
              "internalType": "string",
              "name": "additionalInfo",
              "type": "string"
            },
            {
              "internalType": "uint256",
              "name": "validRefundsLength",
              "type": "uint256"
            },
            {
              "internalType": "uint256",
              "name": "deliverablesCount",
              "type": "uint256"
            },
            {
              "internalType": "bool",
              "name": "acknowledged",
              "type": "bool"
            }
          ],
          "internalType": "struct AccountSummary[]",
          "name": "accounts",
          "type": "tuple[]"
        }
      ],
      "stateMutability": "view",
      "type": "function"
    },
    {
      "inputs": [
        {
          "internalType": "address",
          "name": "user",
          "type": "address"
        },
        {
          "internalType": "address",
          "name": "provider",
          "type": "address"
        },
        {
          "internalType": "string",
          "name": "id",
          "type": "string"
        }
      ],
      "name": "getDeliverable",
      "outputs": [
        {
          "components": [
            {
              "internalType": "string",
              "name": "id",
              "type": "string"
            },
            {
              "internalType": "bytes",
              "name": "modelRootHash",
              "type": "bytes"
            },
            {
              "internalType": "bytes",
              "name": "encryptedSecret",
              "type": "bytes"
            },
            {
              "internalType": "bool",
              "name": "acknowledged",
              "type": "bool"
            },
            {
              "internalType": "uint248",
              "name": "timestamp",
              "type": "uint248"
            }
          ],
          "internalType": "struct Deliverable",
          "name": "",
          "type": "tuple"
        }
      ],
      "stateMutability": "view",
      "type": "function"
    },
    {
      "inputs": [
        {
          "internalType": "address",
          "name": "user",
          "type": "address"
        },
        {
          "internalType": "address",
          "name": "provider",
          "type": "address"
        }
      ],
      "name": "getDeliverables",
      "outputs": [
        {
          "components": [
            {
              "internalType": "string",
              "name": "id",
              "type": "string"
            },
            {
              "internalType": "bytes",
              "name": "modelRootHash",
              "type": "bytes"
            },
            {
              "internalType": "bytes",
              "name": "encryptedSecret",
              "type": "bytes"
            },
            {
              "internalType": "bool",
              "name": "acknowledged",
              "type": "bool"
            },
            {
              "internalType": "uint248",
              "name": "timestamp",
              "type": "uint248"
            }
          ],
          "internalType": "struct Deliverable[]",
          "name": "",
          "type": "tuple[]"
        }
      ],
      "stateMutability": "view",
      "type": "function"
    },
    {
      "inputs": [
        {
          "internalType": "address",
          "name": "user",
          "type": "address"
        },
        {
          "internalType": "address",
          "name": "provider",
          "type": "address"
        }
      ],
      "name": "getPendingRefund",
      "outputs": [
        {
          "internalType": "uint256",
          "name": "",
          "type": "uint256"
        }
      ],
      "stateMutability": "view",
      "type": "function"
    },
    {
      "inputs": [
        {
          "internalType": "address",
          "name": "provider",
          "type": "address"
        }
      ],
      "name": "getService",
      "outputs": [
        {
          "components": [
            {
              "internalType": "address",
              "name": "provider",
              "type": "address"
            },
            {
              "internalType": "string",
              "name": "url",
              "type": "string"
            },
            {
              "components": [
                {
                  "internalType": "uint256",
                  "name": "cpuCount",
                  "type": "uint256"
                },
                {
                  "internalType": "uint256",
                  "name": "nodeMemory",
                  "type": "uint256"
                },
                {
                  "internalType": "uint256",
                  "name": "gpuCount",
                  "type": "uint256"
                },
                {
                  "internalType": "uint256",
                  "name": "nodeStorage",
                  "type": "uint256"
                },
                {
                  "internalType": "string",
                  "name": "gpuType",
                  "type": "string"
                }
              ],
              "internalType": "struct Quota",
              "name": "quota",
              "type": "tuple"
            },
            {
              "internalType": "uint256",
              "name": "pricePerToken",
              "type": "uint256"
            },
            {
              "internalType": "bool",
              "name": "occupied",
              "type": "bool"
            },
            {
              "internalType": "string[]",
              "name": "models",
              "type": "string[]"
            },
            {
              "internalType": "address",
              "name": "teeSignerAddress",
              "type": "address"
            },
            {
              "internalType": "bool",
              "name": "teeSignerAcknowledged",
              "type": "bool"
            }
          ],
          "internalType": "struct Service",
          "name": "service",
          "type": "tuple"
        }
      ],
      "stateMutability": "view",
      "type": "function"
    },
    {
      "inputs": [
        {
          "internalType": "uint256",
          "name": "_locktime",
          "type": "uint256"
        },
        {
          "internalType": "address",
          "name": "_ledgerAddress",
          "type": "address"
        },
        {
          "internalType": "address",
          "name": "owner",
          "type": "address"
        },
        {
          "internalType": "uint256",
          "name": "_penaltyPercentage",
          "type": "uint256"
        }
      ],
      "name": "initialize",
      "outputs": [],
      "stateMutability": "nonpayable",
      "type": "function"
    },
    {
      "inputs": [],
      "name": "initialized",
      "outputs": [
        {
          "internalType": "bool",
          "name": "",
          "type": "bool"
        }
      ],
      "stateMutability": "view",
      "type": "function"
    },
    {
      "inputs": [],
      "name": "ledgerAddress",
      "outputs": [
        {
          "internalType": "address",
          "name": "",
          "type": "address"
        }
      ],
      "stateMutability": "view",
      "type": "function"
    },
    {
      "inputs": [],
      "name": "lockTime",
      "outputs": [
        {
          "internalType": "uint256",
          "name": "",
          "type": "uint256"
        }
      ],
      "stateMutability": "view",
      "type": "function"
    },
    {
      "inputs": [],
      "name": "owner",
      "outputs": [
        {
          "internalType": "address",
          "name": "",
          "type": "address"
        }
      ],
      "stateMutability": "view",
      "type": "function"
    },
    {
      "inputs": [],
      "name": "penaltyPercentage",
      "outputs": [
        {
          "internalType": "uint256",
          "name": "",
          "type": "uint256"
        }
      ],
      "stateMutability": "view",
      "type": "function"
    },
    {
      "inputs": [
        {
          "internalType": "address",
          "name": "user",
          "type": "address"
        },
        {
          "internalType": "address",
          "name": "provider",
          "type": "address"
        }
      ],
      "name": "processRefund",
      "outputs": [
        {
          "internalType": "uint256",
          "name": "totalAmount",
          "type": "uint256"
        },
        {
          "internalType": "uint256",
          "name": "balance",
          "type": "uint256"
        },
        {
          "internalType": "uint256",
          "name": "pendingRefund",
          "type": "uint256"
        }
      ],
      "stateMutability": "nonpayable",
      "type": "function"
    },
    {
      "inputs": [],
      "name": "removeService",
      "outputs": [],
      "stateMutability": "nonpayable",
      "type": "function"
    },
    {
      "inputs": [],
      "name": "renounceOwnership",
      "outputs": [],
      "stateMutability": "nonpayable",
      "type": "function"
    },
    {
      "inputs": [
        {
          "internalType": "address",
          "name": "user",
          "type": "address"
        },
        {
          "internalType": "address",
          "name": "provider",
          "type": "address"
        }
      ],
      "name": "requestRefundAll",
      "outputs": [],
      "stateMutability": "nonpayable",
      "type": "function"
    },
    {
      "inputs": [
        {
          "internalType": "address",
          "name": "provider",
          "type": "address"
        }
      ],
      "name": "revokeTEESignerAcknowledgement",
      "outputs": [],
      "stateMutability": "nonpayable",
      "type": "function"
    },
    {
      "inputs": [
        {
          "components": [
            {
              "internalType": "string",
              "name": "id",
              "type": "string"
            },
            {
              "internalType": "bytes",
              "name": "encryptedSecret",
              "type": "bytes"
            },
            {
              "internalType": "bytes",
              "name": "modelRootHash",
              "type": "bytes"
            },
            {
              "internalType": "uint256",
              "name": "nonce",
              "type": "uint256"
            },
            {
              "internalType": "bytes",
              "name": "signature",
              "type": "bytes"
            },
            {
              "internalType": "uint256",
              "name": "taskFee",
              "type": "uint256"
            },
            {
              "internalType": "address",
              "name": "user",
              "type": "address"
            }
          ],
          "internalType": "struct VerifierInput",
          "name": "verifierInput",
          "type": "tuple"
        }
      ],
      "name": "settleFees",
      "outputs": [],
      "stateMutability": "nonpayable",
      "type": "function"
    },
    {
      "inputs": [
        {
          "internalType": "bytes4",
          "name": "interfaceId",
          "type": "bytes4"
        }
      ],
      "name": "supportsInterface",
      "outputs": [
        {
          "internalType": "bool",
          "name": "",
          "type": "bool"
        }
      ],
      "stateMutability": "view",
      "type": "function"
    },
    {
      "inputs": [
        {
          "internalType": "address",
          "name": "newOwner",
          "type": "address"
        }
      ],
      "name": "transferOwnership",
      "outputs": [],
      "stateMutability": "nonpayable",
      "type": "function"
    },
    {
      "inputs": [
        {
          "internalType": "uint256",
          "name": "_locktime",
          "type": "uint256"
        }
      ],
      "name": "updateLockTime",
      "outputs": [],
      "stateMutability": "nonpayable",
      "type": "function"
    },
    {
      "inputs": [
        {
          "internalType": "uint256",
          "name": "_penaltyPercentage",
          "type": "uint256"
        }
      ],
      "name": "updatePenaltyPercentage",
      "outputs": [],
      "stateMutability": "nonpayable",
      "type": "function"
    },
    {
      "stateMutability": "payable",
      "type": "receive"
    }
  ],
  "transactionHash": "0x9ec6024bd6401cc0b4a9d59bcc23adbde998085e44324ec8719440b42afc4ebc",
  "args": [],
  "numDeployments": 1,
  "solcInputHash": "a46003d43d0473ab719e4d180d776b3d",
  "bytecode": "0x6080806040523461005f5760008054336001600160a01b0319821681178355916001600160a01b03909116907f8be0079c531659141344cd1fd0a4f28419497f9722a3daafe3b4186f6b6457e09080a3600180556155fd90816100658239f35b600080fdfe608080604052600436101561002d575b50361561001b57600080fd5b604051630799a15f60e11b8152600490fd5b600090813560e01c90816301ffc9a714612dfc575080630d66808714612dd1578063147500e314612d97578063158ef93e14612d7257806315908d5114612d4757806315a5230214612bf25780631d73b9f514612baa57806321fe0f3014612930578063264173d6146128f75780633d60456a14611f2e5780633ea527cb14611f1057806343d96bb314611c485780634e3c4f2214611be65780634fe63f4d14611b855780635bd7ace214611afb578063650190e714611ad75780636c79158d14611a8a5780636dc7513d14611518578063715018a6146114be578063745e87f7146113195780637ff6fc1c146112775780638da5cb5b146112505780639622e9341461120e578063972167251461118c578063a134f9e114611088578063a296bf4f14610fa5578063ad6dca3f14610f88578063b2394d0914610efb578063ba16a75014610d43578063bbee42d914610b60578063d1d2005614610b2a578063ddf96abd14610aa4578063e37259e9146108db578063e50688f9146105ff578063eb961693146105a1578063f2fde38b14610510578063fbfa4e111461046a5763fd5908470361000f5734610467576040366003190112610467576101f1612e51565b61021e6101fc612e67565b6102046136b7565b5061020d6136b7565b506102188184614d49565b926149cf565b60018060a01b038254169160018060a01b0360018201541691600282015491600381015491600482015491601c81015492601d82015494601e8301549660ff601f85015416986040519a6102718c613159565b8b5260208b015260408a015260608901526080880152600581015461029581613254565b906102a360405192836131c6565b80825260208201600584018b5260208b208b915b83831061042157505050506006916102e59160a08a01526102de60405180948193016133c8565b03826131c6565b60c087015260e08601526101008501526101208401526101408301521515610160820152604051906020825260018060a01b03815116602083015260018060a01b0360208201511660408301526040810151606083015260608101516080830152608081015160a083015260a08101519261018060c08401528351806101a085015260206101c085019501915b8181106103e7575050506101606103b683946103a060c085015191601f1992838883030160e0890152612ea0565b9060e085015190868303016101008701526132ca565b9161010081015161012085015261012081015161014085015261014081015182850152015115156101808301520390f35b9091946020608060019260608951805183528481015185840152604081015160408401520151151560608201520196019101919091610372565b6004602060019260405161043481613175565b8554815284860154838201526002860154604082015260ff600387015416151560608201528152019201920191906102b7565b80fd5b5034610467576020366003190112610467576004356104876148bd565b610e1081108015610504575b6104ec576000805160206154c883398151915280548281036104b3578380f35b827f5707a70527b6cbb892bfe5d8739a8f0643d3212d9b1139bc31c742e731c65270936040935582519182526020820152a13880808380f35b60249060405190631285b07b60e01b82526004820152fd5b5062093a808111610493565b50346104675760203660031901126104675761052a612e51565b6105326148bd565b6001600160a01b0381161561054d5761054a90614915565b80f35b60405162461bcd60e51b815260206004820152602660248201527f4f776e61626c653a206e6577206f776e657220697320746865207a65726f206160448201526564647265737360d01b6064820152608490fd5b5034610467576020366003190112610467576004356105be6148bd565b606481116105e857600080516020615568833981519152818154036105e1578280f35b5538808280f35b60249060405190621193a760e61b82526004820152fd5b50606036600319011261046757610614612e51565b61061c612e67565b6001600160401b036044358181116108d75761063c903690600401613239565b600080516020615548833981519152546001600160a01b039291906106649084163314613575565b6110008151116108c5576106788486614cd3565b9161068283615467565b610898578287526000805160206154e883398151915260205260408720913460038401556001600160601b0360a01b90858816828554161784556001916001850190878916908254161790558051928311610884579082916106f685946106ed60068d98015461338e565b600687016134f5565b602091601f84116001146107f657506107cb9361074284604098958895601e956000805160206154a88339815191529c9a926107eb575b50508160011b916000199060031b1c19161790565b60068201555b82601c82015582601d820155015561075f81615338565b508286166000527f5dcaaa00d1d3fae8cd5d66aceca789aec54970049ac35cb62a7adefca50a6806602052610797818560002061541d565b508287166000527f5dcaaa00d1d3fae8cd5d66aceca789aec54970049ac35cb62a7adefca50a68076020528360002061541d565b506107d6848661495c565b8082519434865287602087015216941692a380f35b01519050388061072d565b9190600685018652602086209286905b601f1986168210610868575050936001846000805160206154a8833981519152999794601e946107cb9860409b98601f1981161061084f575b505050811b016006820155610748565b015160001960f88460031b161c1916905538808061083f565b8383015185558c97509384019360209384019390910190610806565b634e487b7160e01b89526041600452602489fd5b604051632cf0675960e21b81526001600160a01b03878116600483015286166024820152604490fd5b0390fd5b60405163ef54fd9d60e01b8152600490fd5b8480fd5b5034610467576080366003190112610467576004356108f8612e67565b6001600160a01b03916044358381168103610a9f5760643593855460ff8160a01c161580610a91575b15610a415760ff60a01b1916600160a01b1786558316928315908115610a37575b50610a255760648411610a0d5761095890614915565b610e1081108015610a01575b6104ec576000805160206154c8833981519152556001600160601b0360a01b9060008051602061554883398151915281838254161790557f5dcaaa00d1d3fae8cd5d66aceca789aec54970049ac35cb62a7adefca50a680291825416179055600080516020615568833981519152557f7f26b83ff96e1f2b6a682f133852f6798a09c465da95921460cefb3847402498602060405160018152a180f35b5062093a808111610964565b604051621193a760e61b815260048101859052602490fd5b60405163031cd59b60e21b8152600490fd5b90503b1538610942565b60405162461bcd60e51b815260206004820152602260248201527f496e697469616c697a61626c653a20616c726561647920696e697469616c697a604482015261195960f21b6064820152608490fd5b5060ff8160a81c1615610921565b600080fd5b503461046757602036600319011261046757600a610ac0612e51565b610ac86148bd565b7f4909107c46469d21135443e891c6ecae55b5baa31b338d50f391935308b08f896020610af483614d04565b84610afe85614d04565b01805460ff60a01b19169055909301546040518581526001600160a01b0391821694939091169290a380f35b5034610467578060031936011261046757600080516020615548833981519152546040516001600160a01b039091168152602090f35b5034610467578060031936011261046757610b79613982565b610b8233614df2565b8060005260008051602061550883398151915260205260406000205415610d2b5780825260008051602061558883398151915260205281604081208181556001610bce60018301613a01565b60006002830155600060038301556000600483015560006005830155610bf660068301613a01565b60006007830155826008830155600982018054906000815581610ced575b505050600a0155610c24906150c9565b5080610c2f3361353c565b548015610cc1578180809281610c443361353c565b556040518181527f17f7db034d4b59fadec3e44a684cb4396ca10fd036c4e4f718bf06e99371588260203392a2337f29d546abb6e94f4f04d5bdccb6682316f597d43776078f47e273f000e77b2a918380a2335af1610ca16135cb565b5015610caf575b6001805580f35b60405163b12d13eb60e01b8152600490fd5b5050337f29d546abb6e94f4f04d5bdccb6682316f597d43776078f47e273f000e77b2a918280a2610ca8565b60009594939291955260206000209485015b808610610d10578293949550610c14565b919394819350610d1f81613a01565b01939290918592610cff565b6040516304c76d3f60e11b8152336004820152602490fd5b503461046757602080600319360112610ef757600435916001600160401b0390818411610467573660238501121561046757836004013591821161046757600560243684831b8701820111610ef3576101f48411610eae57610da484613714565b95835b858110610dc55760405187815280610dc1818a018b613000565b0390f35b600190610de033610ddb8684891b87010161345e565b614cd3565b610de981615467565b610df5575b5001610da7565b86526000805160206154e883398151915288526040862088838060a01b039182815416928582015416906006610e7b6002830154926003810154600482015490601c83015495601e8401549760ff601f86015416996040519b610e578d61313d565b8c528b015260408a0152606089015260808801526102de60405180948193016133c8565b60a085015260c084015260e08301521515610100820152610e9c828b6137d5565b52610ea7818a6137d5565b5038610dee565b60405162461bcd60e51b815260048101869052601e60248201527f42617463682073697a6520746f6f206c6172676520286d6178203530302900006044820152606490fd5b8280fd5b5080fd5b503461046757602036600319011261046757600a610f17612e51565b610f1f6148bd565b7f4909107c46469d21135443e891c6ecae55b5baa31b338d50f391935308b08f896020610f4b83614d04565b84610f5585614d04565b01805460ff60a01b1916600160a01b17905590930154604051600181526001600160a01b0391821694939091169290a380f35b50346104675780600319360112610467576020604051610e108152f35b503461046757604036600319011261046757610fbf612e51565b6024356001600160401b038111610ef357610fde9036906004016130c3565b9091610ff2610fed8233614cd3565b615467565b1561105f5761100360079133614d49565b01916110196110138484846134a4565b5461338e565b1561103a579161102b916003936134a4565b01805460ff1916600117905580f35b604051635e835ecb60e11b8152602060048201529182916108c19160248401916134bd565b60405163023280eb60e21b81523360048201526001600160a01b03919091166024820152604490fd5b5034610467576060366003190112610467576110a2612e51565b906110ab612e67565b90604435906001600160401b03821161046757506110ec6110d260079236906004016130c3565b9390946110dd613689565b506110e6613689565b50614d49565b01916110fc6110138484846134a4565b1561103a579161110f91610dc1936134a4565b60036040519161111e83613122565b60405161112f816102de81856133c8565b8352604051611145816102de81600186016133c8565b602084015260405161115e816102de81600286016133c8565b6040840152015460ff81161515606083015260081c608082015260405191829160208352602083019061326b565b5034610467576040366003190112610467576111a6612e51565b6111ae612e67565b7f342d961f860d5b1c27877a790eff2b213c020d1955a4903d6a9bf3ed590b7cd7602060018060a01b036111f48160008051602061554883398151915254163314613575565b806111ff8587614ae9565b9460405195865216941692a380f35b503461046757604036600319011261046757610dc161123c61122e612e51565b611236612e67565b906149cf565b6040519182916020835260208301906132ca565b5034610467578060031936011261046757546040516001600160a01b039091168152602090f35b503461046757604036600319011261046757611291612e51565b90602435801580158203610a9f576112a98433614d49565b601f81019160ff8354169081611311575b506112d7575b509061054a919060ff801983541691151516179055565b600301549384156112c05760405163faa2387760e01b81523360048201526001600160a01b03909116602482015260448101859052606490fd5b9050386112ba565b5060603660031901126104675761132e612e51565b611336612e67565b60008051602061554883398151915254604435916001600160a01b03916113609083163314613575565b61136a8185614d49565b92801515806114b1575b6113dd575b50816000805160206154a883398151915292604092600460038701966113a03489546137a5565b809855015460ff601f6113b3848b614d49565b015416156113ce575b8451968752602087015216941692a380f35b6113d8828961495c565b6113bc565b601c8401805491969095909485946005820194845b801515806114a8575b1561146f576000190194600161141187896139d8565b500180549098908c811161144e5750908961143b611442936114358c5480926137a5565b9e6137c8565b99556139f4565b985b98949996996113f2565b9b61146081611466939d9b949d6137a5565b9c6137c8565b90558796611444565b50919698509260409450946000805160206154a8833981519152958493985561149d600488019182546137c8565b905592509250611379565b508a15156113fb565b50601c8401541515611374565b50346104675780600319360112610467576114d76148bd565b600080546001600160a01b0319811682556001600160a01b03167f8be0079c531659141344cd1fd0a4f28419497f9722a3daafe3b4186f6b6457e08280a380f35b503461046757606036600319011261046757611532612e51565b6001600160401b03602480358281116108d7576115539036906004016130c3565b92604435818111611a865761156c903690600401613239565b9484158015611a7b575b611a6357611587610fed3383614cd3565b15611a3a57611597903390614d49565b9360078501936115ab6110138684876134a4565b611a1757601e8601968754968761195c575b604051966115ca88613122565b6115d5368689613202565b8852602094858901938452604051976115ed896131ab565b8c895260408a0198895260608a018d8152426001600160f81b031660808c01908152909c909b601411156118df5761163883836116326116499860088654910161479d565b906147fd565b6116428154614223565b90556134a4565b95518051908582116118cc57611669826116638a5461338e565b8a6134f5565b8490601f83116001146118695761169792918c91836107eb5750508160011b916000199060031b1c19161790565b86555b60019081870190518051868111611856576116bf816116b9855461338e565b856134f5565b858c601f83116001146117f957906116eb93836107eb5750508160011b916000199060031b1c19161790565b90555b6002860194519182519485116117e757506117138461170d875461338e565b876134f5565b82601f851160011461177a5750508261176495936003959361174a938b926107eb5750508160011b916000199060031b1c19161790565b90555b0192511515839060ff801983541691151516179055565b51815460ff1660089190911b60ff191617905580f35b91601f94939194198416868b52838b20938b905b8282106117d05750509161176497959391856003989694106117b8575b505050811b01905561174d565b015160001983881b60f8161c191690553880806117ab565b80888697829497870151815501960194019061178e565b634e487b7160e01b8a52604160045289fd5b908593601f198416868452898420935b8a8282106118405750508411611827575b505050811b0190556116ee565b015160001960f88460031b161c1916905538808061181a565b8385015186558997909501949384019301611809565b634e487b7160e01b8c526041600452848cfd5b888c52858c209190601f1984168d5b888282106118b657505090846001959493921061189d575b505050811b01865561169a565b015160001960f88460031b161c19169055388080611890565b6001859682939686015181550195019301611878565b634e487b7160e01b8b526041600452838bfd5b5090919261192b8383611632601d6008860195019461192361191e8a6102de61191961190c8b548761479d565b50604051928380926133c8565b6147ad565b6147d3565b85549061479d565b805460018101809111611949576014900690556116499291906134a4565b634e487b7160e01b8e526011600452868efd5b601488036119fc57601d81015460148101908181116119e9576013019081116119d65761199661190c60146102de93065b6008850161479d565b60ff60036119a48a846147ad565b015416156119b257506115bd565b60405163351b903960e11b8152602060048201529081906108c19082870190612ea0565b634e487b7160e01b8b526011600452838bfd5b634e487b7160e01b8c526011600452848cfd5b60001988018881116119d65761199661190c6102de9261198d565b6108c184604051938493630d947bad60e21b8552602060048601528401916134bd565b60405163023280eb60e21b81526001600160a01b03919091166004820152336024820152604490fd5b604051631ab63c8f60e21b8152600481018690528490fd5b506101008511611576565b8680fd5b50346104675760403660031901126104675761054a611aa7612e51565b611aaf612e67565b90611ad260018060a01b0360008051602061554883398151915254163314613575565b61468f565b5034610467578060031936011261046757602060405168056bc75e2d631000008152f35b50346104675760403660031901126104675760243590811590811580611b7b575b611b62575015611b565750611b4c611b3860325b6004356144e4565b604051928392604084526040840190613000565b9060208301520390f35b611b38611b4c91611b30565b604051635d6b903560e11b815260048101849052602490fd5b5060328311611b1c565b503461046757611b9436612fd6565b92831590811580611bdc575b611bc35750611b4c93611b3893929115611bbd57506032916143a0565b916143a0565b604051635d6b903560e11b815260048101869052602490fd5b5060328511611ba0565b5034610467576040366003190112610467576060611c35611c05612e51565b611c0d612e67565b90611c3060018060a01b0360008051602061554883398151915254163314613575565b6135fb565b9060405192835260208301526040820152f35b5060031960c036820112610ef7576004356001600160401b038111610ef357611c759036906004016130c3565b60248035936001600160401b038511611f0c5760a09085360301126108d757604051611ca081613122565b84600401358152602094828101358683015260448101356040830152606481013560608301526084810135906001600160401b038211611f08576004611ce99236920101613239565b608082015260443594606435151560643503610a9f576001600160401b0360843511611a8657366023608435011215611a86576084356004013591611d2d83613254565b92611d3b60405194856131c6565b80845282840136868360051b608435010111611f04578560843501905b868360051b60843501018210611ecd5750505060a4356001600160a01b03811694858203610a9f57611d893361353c565b5415611e28575034611e16577f9657518f02d23efc8a15c042c006a06464dd791f65394ff87310a287c694946296611dd9611deb92611df8965b6064358c87611dd3368e89613202565b33613a93565b6040519660a0885260a08801916134bd565b9185830390860152612ec5565b9360408301526060820152606435151560808201528033930390a280f35b6040516396ab6ec560e01b8152600490fd5b68056bc75e2d63100000979395969794919294803410611eb05750507f9657518f02d23efc8a15c042c006a06464dd791f65394ff87310a287c694946296959492611dd9611df89593611deb9334611e7f3361353c565b556040513481527fcd6dbb0e62eeb71e114bae8b2e2547921dd19209bebf32b595be3e7d247dbbb4883392a2611dc3565b6040516322df051360e11b81523460048201529182015260449150fd5b8135906001600160401b038211611f0057858091611ef38a948536916084350101613239565b8152019201919050611d58565b8b80fd5b8980fd5b8780fd5b8580fd5b5034610467578060031936011261046757602060405162093a808152f35b503461046757600319602036820112610ef7576001600160401b0360043511610ef75760e0906004353603011261046757611f67613982565b611f7f611f7860c46004350161345e565b3390614d49565b90611f8933614d04565b9160ff601f820154161580156128e5575b80156128d0575b61288a57600281015460646004350135111561283157600381015460a46004350135116127f45760078101611fe761101382611fe1600480350180613472565b906134a4565b156127c257611ffe90611fe1600480350180613472565b92604051612013816102de81600189016133c8565b60208151910120612038612031604460043501600435600401613472565b3691613202565b602081519101200361277c57604051908160e08101106001600160401b0360e0840111176127685760e08201604052600435600401356001600160401b0381116108d75761208d906004369181350101613239565b82526001600160401b036024600435013511612515576120b7366004803560248101350101613239565b6020830152604460043501356001600160401b0381116108d7576120e2906004369181350101613239565b604083015260043560648101356060840152608401356001600160401b0381116108d757612117906004369181350101613239565b608083015260043560a481013560a084015260c401356001600160a01b03811690036125155760c4600435013560c0830152600a01548151516001600160a01b039091169190610100811161275057507530472046696e652d54756e696e672053657276696e6760501b602060405161218f81613190565b601681520152603160f81b60206040516121a881613190565b6001815201526040517f8b73c3c69bb8fe3d512ecc4cf759cc79239f7b179b0ffacaa9a75d522b39400f60208201527fee2d3041cec28b9a0a957f2f0163e12e53119960d5a7d160e2a52db3594161e760408201527fc89efdaa54c0f20c7adf612882df0950f5a951637e0307cdcb4c672f298b8bc660608201524660808201523060a082015260a081528060c08101106001600160401b0360c08301111761264a579060808260c06123329401604052805160208201209060c084516020815191012091602086015160208151910120604087015160208151910120606088015160a08901519160018060a01b03868b0151169360e08601977f62159bda4585d49f24b8da323cfc70b1fbad40f51efbf45e18fe3bdfb409945e89526101008701526101208601526101408501526101608401526101808301526101a082015260e0828201526122fa8282016130f0565b0151902060405190602082019261190160f01b8452602283015260428201526042815261232681613175565b51902091015190614dba565b600581939293101561273c57159182612729575b5050156126e45760a460043501359260ff60038201541660001461267057612378602460043501600435600401613472565b90501561265e57612393602460043501600435600401613472565b906001600160401b03821161264a576123bc826123b3600286015461338e565b600286016134f5565b8490601f83116001146125dd5791806123ed9260029488926125d25750508160011b916000199060031b1c19161790565b9101555b606460043501356002820155600381015460048201549061241282826137c8565b8511612519575b50506124298360038301546137c8565b60038201557f5dcaaa00d1d3fae8cd5d66aceca789aec54970049ac35cb62a7adefca50a68025481546001600160a01b039182169116813b15612515578391604483926040519485938492631bb1482360e31b845260048401528960248401525af1801561250a576124db575b5081808094819360018060a01b038154166004600383015492015460405192835260208301526000805160206154a883398151915260403393a3335af1610ca16135cb565b6001600160401b0381939293116124f6576040529038612496565b634e487b7160e01b82526041600452602482fd5b6040513d85823e3d90fd5b8380fd5b61252f91612529919594956137c8565b836137c8565b908192601c82015490815b801515806125c9575b156125a457600019019186600161255d85600588016139d8565b5001805490969081811161258d57509061257d61258493928854906137c8565b96556139f4565b945b949161253a565b61259b9250979692976137c8565b90558593612586565b509493906125bd929350601c84015560048301546137c8565b60048201553880612419565b50841515612543565b01359050388061072d565b6002840186526020862091865b601f19851681106126325750918391600193600295601f19811610612618575b505050811b019101556123f1565b0135600019600384901b60f8161c1916905538808061260a565b909260206001819286860135815501940191016125ea565b634e487b7160e01b85526041600452602485fd5b604051633c5f0bd160e11b8152600490fd5b509150612687602460043501600435600401613472565b90506126d2576000805160206155688339815191525460043560a401358082029181159183041417156126be5760649004916123f1565b634e487b7160e01b82526011600452602482fd5b604051630db0b8ed60e21b8152600490fd5b606460405163de83c54360e01b815260206004820152602060248201527f54454520736574746c656d656e742076616c69646174696f6e206661696c65646044820152fd5b6001600160a01b03161490503880612346565b634e487b7160e01b85526021600452602485fd5b60249060405190638351b24f60e01b82526004820152fd5b634e487b7160e01b84526041600452602484fd5b60405163de83c54360e01b815260206004820152601860248201527f6d6f64656c20726f6f742068617368206d69736d6174636800000000000000006044820152606490fd5b6127d0600480350180613472565b6108c1604051928392635e835ecb60e11b84526020600485015260248401916134bd565b60405163de83c54360e01b8152602060048201526014602482015273696e73756666696369656e742062616c616e636560601b6044820152606490fd5b60405163de83c54360e01b815260206004820152602a60248201527f6e6f6e63652073686f756c64206c6172676572207468616e207468652063757260448201526972656e74206e6f6e636560b01b6064820152608490fd5b60405163de83c54360e01b815260206004820152601b60248201527f544545207369676e6572206e6f742061636b6e6f776c656467656400000000006044820152606490fd5b50600a8301546001600160a01b031615611fa1565b5060ff600a84015460a01c1615611f9a565b50346104675760403660031901126104675760206004612926612918612e51565b612920612e67565b90614d49565b0154604051908152f35b50346104675780600319360112610467576000805160206155a8833981519152549061295b82613254565b9161296960405193846131c6565b80835261297581613254565b601f1901825b818110612b8d57505081905b8082106129f55750506040519182916020830160208452825180915260408401602060408360051b870101940192905b8282106129c657505050500390f35b919360019193955060206129e58192603f198a82030186528851612f03565b96019201920185949391926129b7565b817f77917d6bf58cf8a823bfa7d4ec2e8e69c671d0dfb7928e32bdccd572fc9606e9949294015483526000805160206155888339815191526020526040832093604051612a41816130f0565b85546001600160a01b03168152604051612a62816102de8160018b016133c8565b6020820152604051612a7381613122565b60028701548152600387015460208201526004870154604082015260058701546060908183015260405191612ab683612aaf8160068d016133c8565b03846131c6565b60809283820152604084015260078801549083015260ff6008880154161515908201526009860195865490612aea82613254565b91612af860405193846131c6565b80835260208301988852602088209888905b828210612b665750505060a083810192909252600a01546001600160a01b03811660c0840152901c60ff16151560e082015293945091929091600191612b5082866137d5565b52612b5b81856137d5565b500190929192612987565b6001602081926102de612b7f8f604051928380926133c8565b8152019b0191019099612b0a565b602090612b9b959495613327565b8282870101520193929361297b565b503461046757612bb936612fd6565b92831590811580612be8575b611bc35750611b4c93611b3893929115612be257506032916137ff565b916137ff565b5060328511612bc5565b503461046757602080600319360112610ef757612c1e612c10612e51565b612c18613327565b50614d04565b9160405192612c2c846130f0565b60018060a01b03918282541685526001604051612c50816102de81600188016133c8565b85870152604051612c6081613122565b600284015481526003840154868201526004840154604082015260058401546060820152604051612c98816102de81600689016133c8565b608082015260408701526007830154606087015260ff6008840154161515608087015260098301805490612ccb82613254565b93612cd960405195866131c6565b828552908152868120878086015b848410612d225760a0808c01889052600a890154808b1660c08e0152901c60ff16151560e08c015260405182815280610dc18185018e612f03565b85918291604051612d37816102de81896133c8565b8152019201920191908890612ce7565b5034610467578060031936011261046757602060008051602061556883398151915254604051908152f35b503461046757806003193601126104675760ff6020915460a01c166040519015158152f35b5034610467576040366003190112610467576020612dc7610fed612db9612e51565b612dc1612e67565b90614cd3565b6040519015158152f35b503461046757806003193601126104675760206000805160206154c883398151915254604051908152f35b905034610ef7576020366003190112610ef75760043563ffffffff60e01b8116809103610ef3576020925063160841b160e01b8114908115612e40575b5015158152f35b6301ffc9a760e01b14905038612e39565b600435906001600160a01b0382168203610a9f57565b602435906001600160a01b0382168203610a9f57565b60005b838110612e905750506000910152565b8181015183820152602001612e80565b90602091612eb981518092818552858086019101612e7d565b601f01601f1916010190565b9060a06080612f0093805184526020810151602085015260408101516040850152606081015160608501520151918160808201520190612ea0565b90565b906101009160018060a01b03808251168352612f42612f3060209586850151908088880152860190612ea0565b60408401518582036040870152612ec5565b6060830151606085015260808301511515608085015260a08301519484820360a08601528551908183528083019281808460051b8301019801936000915b848310612fa8575050505050508160e0929160c0849301511660c08501520151151591015290565b9091929394988480612fc6600193601f198682030187528d51612ea0565b9b01930193019194939290612f80565b6060906003190112610a9f576004356001600160a01b0381168103610a9f57906024359060443590565b908082519081815260208091019281808460051b8301019501936000915b84831061302e5750505050505090565b9091929394958480600192601f19858203018652895190613092610120868060a01b0380855116845285850151168584015260408085015190840152606080850151908401526080808501519084015260a090808286015192850152830190612ea0565b9160c0808201519083015260e08082015190830152610100809101511515910152980193019301919493929061301e565b9181601f84011215610a9f578235916001600160401b038311610a9f5760208381860195010111610a9f57565b61010081019081106001600160401b0382111761310c57604052565b634e487b7160e01b600052604160045260246000fd5b60a081019081106001600160401b0382111761310c57604052565b61012081019081106001600160401b0382111761310c57604052565b61018081019081106001600160401b0382111761310c57604052565b608081019081106001600160401b0382111761310c57604052565b604081019081106001600160401b0382111761310c57604052565b602081019081106001600160401b0382111761310c57604052565b90601f801991011681019081106001600160401b0382111761310c57604052565b6001600160401b03811161310c57601f01601f191660200190565b92919261320e826131e7565b9161321c60405193846131c6565b829481845281830111610a9f578281602093846000960137010152565b9080601f83011215610a9f57816020612f0093359101613202565b6001600160401b03811161310c5760051b60200190565b9060806132ab613299613287855160a0865260a0860190612ea0565b60208601518582036020870152612ea0565b60408501518482036040860152612ea0565b606080850151151590840152928101516001600160f81b031691015290565b90808251908181526020809101926020808460051b8301019501936000915b8483106132f95750505050505090565b9091929394958480613317600193601f198682030187528a5161326b565b98019301930191949392906132e9565b60405190613334826130f0565b8160e06000918281526060602082015260405161335081613122565b838152836020820152836040820152836060820152606060808201526040820152826060820152826080820152606060a08201528260c08201520152565b90600182811c921680156133be575b60208310146133a857565b634e487b7160e01b600052602260045260246000fd5b91607f169161339d565b8054600093926133d78261338e565b9182825260209360019160018116908160001461343f57506001146133fe575b5050505050565b90939495506000929192528360002092846000945b83861061342b575050505001019038808080806133f7565b805485870183015294019385908201613413565b60ff19168685015250505090151560051b0101915038808080806133f7565b356001600160a01b0381168103610a9f5790565b903590601e1981360301821215610a9f57018035906001600160401b038211610a9f57602001918136038313610a9f57565b6020919283604051948593843782019081520301902090565b908060209392818452848401376000828201840152601f01601f1916010190565b8181106134e9575050565b600081556001016134de565b9190601f811161350457505050565b613530926000526020600020906020601f840160051c83019310613532575b601f0160051c01906134de565b565b9091508190613523565b6001600160a01b031660009081527f5dcaaa00d1d3fae8cd5d66aceca789aec54970049ac35cb62a7adefca50a680c6020526040902090565b1561357c57565b60405162461bcd60e51b815260206004820152602160248201527f43616c6c6572206973206e6f7420746865206c656467657220636f6e747261636044820152601d60fa1b6064820152608490fd5b3d156135f6573d906135dc826131e7565b916135ea60405193846131c6565b82523d6000602084013e565b606090565b91906136176000805160206154c8833981519152548285614232565b9194909391928484871561367c5750506000805160206154a8833981519152604060018060a01b038082519489865288602087015216941692a3600080808087335af16136626135cb565b501561366a57565b6040516315e98f9160e01b8152600490fd5b6000975090955093505050565b6040519061369682613122565b60006080836060815260606020820152606060408201528260608201520152565b604051906136c482613159565b81610160600091828152826020820152826040820152826060820152826080820152606060a0820152606060c0820152606060e08201528261010082015282610120820152826101408201520152565b9061371e82613254565b60409061372e60405191826131c6565b838152809361373f601f1991613254565b019160005b8381106137515750505050565b602090825161375f8161313d565b600081528260008183015260008583015260606000818401526000608084015260a0830152600060c0830152600060e08301526000610100830152828601015201613744565b919082018092116137b257565b634e487b7160e01b600052601160045260246000fd5b919082039182116137b257565b80518210156137e95760209160051b010190565b634e487b7160e01b600052603260045260246000fd5b6001600160a01b0390811660009081527f5dcaaa00d1d3fae8cd5d66aceca789aec54970049ac35cb62a7adefca50a6806602090815260408083208054979690939291908887101561396a578061395b5750875b86898211613953575b613865916137c8565b9361386f85613714565b96845b8681106138855750505050505050509190565b806138ff61389d6138978b94866137a5565b86615022565b9054600391821b1c89526000805160206154e8833981519152885287878a2091600661392087855416948b6001998a830154169460028301549083015490600484015492601c85015497601e8601549960ff601f880154169b83519d8e61313d565b8d528c01528a0152606089015260808801526102de8c5180948193016133c8565b60a085015260c084015260e08301521515610100820152613941828c6137d5565b5261394c818b6137d5565b5001613872565b89915061385c565b61396590876137a5565b613853565b50935050925050519061397c826131ab565b81529190565b600260015414613993576002600155565b60405162461bcd60e51b815260206004820152601f60248201527f5265656e7472616e637947756172643a207265656e7472616e742063616c6c006044820152606490fd5b80548210156137e95760005260206000209060021b0190600090565b80156137b2576000190190565b613a0b815461338e565b9081613a15575050565b81601f60009311600114613a27575055565b908083918252613a46601f60208420940160051c8401600185016134de565b5555565b90600160401b811161310c57815491818155828210613a6857505050565b600052602060002091820191015b818110613a81575050565b80613a8d600192613a01565b01613a76565b90929593949194613aa382614df2565b9182600052600080516020615508833981519152928360205260406000205415613e525750613ad181614df2565b60005260008051602061558883398151915260205260406000209260205260406000205415613e305750600a82019660018060a01b038089541696169685516001600160401b039687821161310c57613b3a82613b31600189015461338e565b600189016134f5565b602090601f8311600114613dbd579180613b6e92608095946000926107eb5750508160011b916000199060031b1c19161790565b60018601555b80516002860155602081015160038601556040810151600486015560608101516005860155015180519086821161310c57613bbf82613bb6600688015461338e565b600688016134f5565b602090601f8311600114613d4557826009969593613c189593613bf8936000926107eb5750508160011b916000199060031b1c19161790565b60068501555b6007840155600883019060ff801983541691151516179055565b016020825192613c288484613a4a565b019060005260206000206000915b838310613c7057505050505081835491816001600160601b0360a01b841617855503613c6157505050565b6001600160a81b031916179055565b805180519086821161310c57613c9082613c8a865461338e565b866134f5565b602090601f8311600114613cd75792613cc8836001959460209487966000926107eb5750508160011b916000199060031b1c19161790565b85555b01920192019190613c36565b90601f198316918560005260206000209260005b818110613d2d5750936020936001969387969383889510613d14575b505050811b018555613ccb565b015160001960f88460031b161c19169055388080613d07565b92936020600181928786015181550195019301613ceb565b906006860160005260206000209160005b601f1985168110613da5575092613c189492600192600998979583601f19811610613d8c575b505050811b016006850155613bfe565b015160001960f88460031b161c19169055388080613d7c565b91926020600181928685015181550194019201613d56565b906001870160005260206000209160005b601f1985168110613e18575091839160019360809695601f19811610613dff575b505050811b016001860155613b74565b015160001960f88460031b161c19169055388080613def565b91926020600181928685015181550194019201613dce565b6040516304c76d3f60e11b81526001600160a01b039091166004820152602490fd5b96909594989791925060405195613e68876130f0565b60018060a01b0316865260208601988952604086015260608501521515608084015260a083015260018060a01b031660c0820152600060e08201528160005260008051602061558883398151915260205260406000209360018060a01b038251166001600160601b0360a01b865416178555518051906001600160401b03821161310c57613efd82613b31600189015461338e565b602090601f83116001146141b157613f2d9291600091836107eb5750508160011b916000199060031b1c19161790565b60018501555b608060408201518051600287015560208101516003870155604081015160048701556060810151600587015501518051906001600160401b03821161310c57613f8c82613f83600689015461338e565b600689016134f5565b602090601f831160011461413f57613fbc9291600091836107eb5750508160011b916000199060031b1c19161790565b60068501555b60608101516007850155613feb60808201511515600886019060ff801983541691151516179055565b6009840160a082015160208151916140038385613a4a565b01916000526020600020916000905b8282106140635750505050600a6140609394019060018060a01b0360c08201511682549160e060ff60a01b910151151560a01b16916affffffffffffffffffffff60a81b16171790556153bf565b50565b80518051906001600160401b03821161310c5761408a82614084885461338e565b886134f5565b602090601f83116001146140d157926140c2836001959460209487966000926107eb5750508160011b916000199060031b1c19161790565b87555b01940191019092614012565b90601f198316918760005260206000209260005b818110614127575093602093600196938796938388951061410e575b505050811b0187556140c5565b015160001960f88460031b161c19169055388080614101565b929360206001819287860151815501950193016140e5565b9190600687016000526020600020906000935b601f1984168510614196576001945083601f1981161061417d575b505050811b016006850155613fc2565b015160001960f88460031b161c1916905538808061416d565b81810151835560209485019460019093019290910190614152565b9190600187016000526020600020906000935b601f1984168510614208576001945083601f198116106141ef575b505050811b016001850155613f33565b015160001960f88460031b161c191690553880806141df565b818101518355602094850194600190930192909101906141c4565b60001981146137b25760010190565b9061423c91614d49565b90601c82019283541561438d5760009392936000808093819760058101945b88548a10156143675761426e8a876139d8565b506002808201906142808b83546137a5565b42106142a157505060019182614298920154906137a5565b995b019861425b565b90969160019c99939c916142ba838301948554906137a5565b98858c036142d9575b50505050506142d3600191614223565b9661429a565b6142e3868c6139d8565b9490946143535791839185936142d39795600199970361431a575b5050505050508061430f818a6139d8565b5055913880806142c3565b61434895845486555490850155549083015560ff6003809201541691019060ff801983541691151516179055565b3880808080806142fe565b634e487b7160e01b8a5260048a905260248afd5b985094935095919450505581600460038301926143858785546137c8565b809455015591565b6003830154600490930154600094509150565b6001600160a01b0390811660009081527f5dcaaa00d1d3fae8cd5d66aceca789aec54970049ac35cb62a7adefca50a6807602090815260408083208054979690939291908887101561396a57806144d55750875b868982116144cd575b614406916137c8565b9361441085613714565b96845b8681106144265750505050505050509190565b806138ff6144386138978b94866137a5565b9054600391821b1c89526000805160206154e8833981519152885287878a2091600661449a87855416948b6001998a830154169460028301549083015490600484015492601c85015497601e8601549960ff601f880154169b83519d8e61313d565b60a085015260c084015260e083015215156101008201526144bb828c6137d5565b526144c6818b6137d5565b5001614413565b8991506143fd565b6144df90876137a5565b6143f4565b91600080516020615528833981519152549182841015614625578361450982826137a5565b9115801561461c575b614614575b614520916137c8565b9261452a84613714565b9360009160005b82811061453e5750505050565b61455061454b82846137a5565b614f9c565b919054600392831b1c855260206000805160206154e883398151915281526040908187209160018060a01b039460066145e187865416956102de6001998a8301541695600283015495830154600484015490601c85015497601e8601549960ff601f880154169b85519d8e6145c48161313d565b528d0152838c015260608b015260808a01525180948193016133c8565b60a085015260c084015260e08301521515610100820152614602828a6137d5565b5261460d81896137d5565b5001614531565b839150614517565b50838211614512565b50909150604051614635816131ab565b600081529190565b906146795760036060836135309451845560208101516001850155604081015160028501550151151591019060ff801983541691151516179055565b634e487b7160e01b600052600060045260246000fd5b6146998282614d49565b6003810154926146af60048301948554906137c8565b9182156133f757601c810191825494600586101561477457505060050192835480911060001461472b57506147146147279361470e8354604051926146f384613175565b818452866020850152426040850152600060608501526139d8565b9061463d565b61471e8154614223565b905582546137a5565b9055565b60405161473781613175565b81815283602082015242604082015260006060820152600160401b82101561310c5761470e8261472796600161476f950181556139d8565b614714565b604051639edd285f60e01b81526001600160a01b03918216600482015291166024820152604490fd5b60148210156137e9570190600090565b6020906147c7928260405194838680955193849201612e7d565b82019081520301902090565b60036000916147e181613a01565b6147ed60018201613a01565b6147f960028201613a01565b0155565b91939290614679576001600160401b03811161310c5761482781614821845461338e565b846134f5565b6000601f82116001146148585781906147279394956000926125d25750508160011b916000199060031b1c19161790565b601f19821694838252602091602081209281905b8882106148a55750508360019596971061488b575b505050811b019055565b0135600019600384901b60f8161c19169055388080614881565b8060018496829495870135815501950192019061486c565b6000546001600160a01b031633036148d157565b606460405162461bcd60e51b815260206004820152602060248201527f4f776e61626c653a2063616c6c6572206973206e6f7420746865206f776e65726044820152fd5b600080546001600160a01b039283166001600160a01b03198216811783559216907f8be0079c531659141344cd1fd0a4f28419497f9722a3daafe3b4186f6b6457e09080a3565b906149678183614d49565b90601f82019283549260ff8416806149c7575b61498d575b50505060ff19166001179055565b6003015490811561497f5760405163faa2387760e01b81526001600160a01b03918216600482015292166024830152604482015260649150fd5b50600061497a565b9190916149dc8382614e14565b8051936149e885613254565b926040956149f8875195866131c6565b808552614a07601f1991613254565b0160005b818110614acc57505090614a1e91614d49565b6007019060005b8151811015614ac457614a4283614a3c83856137d5565b516147ad565b908651614a4e81613122565b8751614a5e816102de81876133c8565b815260036001938951614a77816102de818986016133c8565b60208401528951614a8f816102de81600286016133c8565b8a840152015460ff81161515606083015260081c6080820152614ab282876137d5565b52614abd81866137d5565b5001614a25565b509193505050565b602090614ada979597613689565b82828901015201959395614a0b565b90614af48183614cd3565b600091818352600080516020615488833981519152602052604092604081205415614ccb576000805160206154e88339815191526020969596526040812094600393600387019280845494556004948160048a0155601f890160ff19815416905581601c8a01558199601e8a0199601d8101976008820199600783019d5b8d54811015614bba57808f61191e8f918f8f614bb494614ba86102de936014614ba160019b61191996546137a5565b069061479d565b509051928380926133c8565b01614b72565b50949950949950949990959a50878092975555600583019081549187815582614c6e575b505050508493614c68936140609693614bfb600660409501613a01565b6001600160a01b0391821683527f5dcaaa00d1d3fae8cd5d66aceca789aec54970049ac35cb62a7adefca50a6806602052838320614c3a90869061528d565b501681527f5dcaaa00d1d3fae8cd5d66aceca789aec54970049ac35cb62a7adefca50a68076020522061528d565b506151e6565b6002906001600160fe1b0384168403614cb7578852602088209260021b8301925b838110614c9c5750614bde565b80898692558960018201558983820155898482015501614c8f565b634e487b7160e01b89526011600452602489fd5b935050505090565b604080516001600160a01b039283166020820190815293909216828201528152614cfe6060826131c6565b51902090565b614d0d81614df2565b60005260008051602061558883398151915260205260406000209060008051602061550883398151915260205260406000205415613e30575090565b90614d548183614cd3565b6000526000805160206154e883398151915260205260406000209160008051602061548883398151915260205260406000205415614d9157505090565b60405163023280eb60e21b81526001600160a01b03918216600482015291166024820152604490fd5b906041815114600014614de857614de4916020820151906060604084015193015160001a9061503a565b9091565b5050600090600290565b6040516001600160a01b039091166020808301918252825290614cfe81613190565b614e1e8282614cd3565b9060008281526020936000805160206154e8833981519152602052604092614e4884842095615467565b15614f74575050601e830154908115614f5f57614e6482613254565b94614e71845196876131c6565b828652601f19614e8084613254565b01825b818110614f505750505060149060148310600014614eed5791936008019190505b838110614eb2575050505090565b806102de614ed1614ec56001948661479d565b508651928380926133c8565b614edb82886137d5565b52614ee681876137d5565b5001614ea4565b601d850154929460080192905b858110614f0a5750505050505090565b806102de614f34614f2886614f21600196886137a5565b068861479d565b508851928380926133c8565b614f3e828a6137d5565b52614f4981896137d5565b5001614efa565b60608882018401528201614e83565b93505090505190614f6f826131ab565b815290565b835163023280eb60e21b81526001600160a01b03918216600482015291166024820152604490fd5b60008051602061552883398151915280548210156137e9576000527f4cbb24c014227899980bdc7cfd4fffebe1e9fc3b6d3a9169eb5c47467634f41d0190600090565b6000805160206155a883398151915280548210156137e9576000527f77917d6bf58cf8a823bfa7d4ec2e8e69c671d0dfb7928e32bdccd572fc9606e90190600090565b80548210156137e95760005260206000200190600090565b9291907f7fffffffffffffffffffffffffffffff5d576e7357a4501ddfe92f46681b20a083116150bd5791608094939160ff602094604051948552168484015260408301526060820152600093849182805260015afa156150b05781516001600160a01b038116156150aa579190565b50600190565b50604051903d90823e3d90fd5b50505050600090600390565b600090808252600080516020615508833981519152908160205260408320548015156000146151e05760001990808201908082116151cc576000805160206155a8833981519152918254908482019182116151b85780820361516e575b5050508054801561515a5782019161513d83614fdf565b909182549160031b1b191690555582526020526040812055600190565b634e487b7160e01b86526031600452602486fd5b6151a361517d61518c93614fdf565b90549060031b1c928392614fdf565b819391549060031b91821b91600019901b19161790565b90558652846020526040862055388080615126565b634e487b7160e01b88526011600452602488fd5b634e487b7160e01b86526011600452602486fd5b50505090565b600090808252600080516020615488833981519152908160205260408320548015156000146151e05760001990808201908082116151cc57600080516020615528833981519152918254908482019182116151b85780820361525a575b5050508054801561515a5782019161513d83614f9c565b61527861526961518c93614f9c565b90549060031b1c928392614f9c565b90558652846020526040862055388080615243565b90600182019060009281845282602052604084205490811515600014615331576000199180830181811161531d578254908482019182116151b8578082036152e8575b5050508054801561515a5782019161513d8383615022565b6153086152f861518c9386615022565b90549060031b1c92839286615022565b905586528460205260408620553880806152d0565b634e487b7160e01b87526011600452602487fd5b5050505090565b9060009180835260008051602061548883398151915292836020526040812054156000146153ba5760008051602061552883398151915293845494600160401b8610156153a6578361539661518c886001604098999a018555614f9c565b9055549382526020522055600190565b634e487b7160e01b83526041600452602483fd5b925050565b9060009180835260008051602061550883398151915292836020526040812054156000146153ba576000805160206155a883398151915293845494600160401b8610156153a6578361539661518c886001604098999a018555614fdf565b9190600183016000908282528060205260408220541560001461546157845494600160401b8610156153a6578361539661518c886001604098999a01855584615022565b50925050565b60005260008051602061548883398151915260205260406000205415159056fe5dcaaa00d1d3fae8cd5d66aceca789aec54970049ac35cb62a7adefca50a6804526824944047da5b81071fb6349412005c5da81380b336103fbe5dd34556c7765dcaaa00d1d3fae8cd5d66aceca789aec54970049ac35cb62a7adefca50a68005dcaaa00d1d3fae8cd5d66aceca789aec54970049ac35cb62a7adefca50a68055dcaaa00d1d3fae8cd5d66aceca789aec54970049ac35cb62a7adefca50a68095dcaaa00d1d3fae8cd5d66aceca789aec54970049ac35cb62a7adefca50a68035dcaaa00d1d3fae8cd5d66aceca789aec54970049ac35cb62a7adefca50a68015dcaaa00d1d3fae8cd5d66aceca789aec54970049ac35cb62a7adefca50a680b5dcaaa00d1d3fae8cd5d66aceca789aec54970049ac35cb62a7adefca50a680a5dcaaa00d1d3fae8cd5d66aceca789aec54970049ac35cb62a7adefca50a6808a2646970667358221220879fbcff4a224cf4c91fcf2b1ce6742c9d596b37253c1889675a92784526e63b64736f6c63430008160033",
  "devdoc": {
    "events": {
      "Initialized(uint8)": {
        "details": "Triggered when the contract has been initialized or reinitialized."
      }
    },
    "kind": "dev",
    "methods": {
      "initialize(uint256,address,address,uint256)": {
        "params": {
          "_ledgerAddress": "The address of the ledger contract",
          "_locktime": "The time period for refund locks",
          "_penaltyPercentage": "The penalty percentage for unacknowledged deliverables",
          "owner": "The owner address"
        }
      },
      "owner()": {
        "details": "Returns the address of the current owner."
      },
      "renounceOwnership()": {
        "details": "Leaves the contract without owner. It will not be possible to call `onlyOwner` functions anymore. Can only be called by the current owner. NOTE: Renouncing ownership will leave the contract without an owner, thereby removing any functionality that is only available to the owner."
      },
      "settleFees((string,bytes,bytes,uint256,bytes,uint256,address))": {
        "details": "CRIT-4 FIX: Added nonReentrant modifier to prevent reentrancy attacksGAS-2: Cache storage variables to save ~100 gas",
        "params": {
          "verifierInput": "The verifier input containing signature and deliverable data"
        }
      },
      "supportsInterface(bytes4)": {
        "details": "See {IERC165-supportsInterface}."
      },
      "transferOwnership(address)": {
        "details": "Transfers ownership of the contract to a new account (`newOwner`). Can only be called by the current owner."
      },
      "updateLockTime(uint256)": {
        "details": "MED-5: This change applies immediately to ALL pending refundsThe new lockTime will be used when processing any refund, regardless of when it was createdOwner should exercise caution as this affects users' expectations for refund timingGAS-8: Skip storage write if value unchanged (~2900 gas saved)",
        "params": {
          "_locktime": "The new lock time (must be between MIN_LOCKTIME and MAX_LOCKTIME)"
        }
      },
      "updatePenaltyPercentage(uint256)": {
        "details": "GAS-8: Skip storage write if value unchanged (~2900 gas saved)",
        "params": {
          "_penaltyPercentage": "The new penalty percentage (0-100)"
        }
      }
    },
    "version": 1
  },
  "userdoc": {
    "kind": "user",
    "methods": {
      "initialize(uint256,address,address,uint256)": {
        "notice": "Initializes the contract with locktime and ledger address"
      },
      "settleFees((string,bytes,bytes,uint256,bytes,uint256,address))": {
        "notice": "Settles fees for a completed deliverable with TEE signature verification"
      },
      "updateLockTime(uint256)": {
        "notice": "Updates the lock time for refunds"
      },
      "updatePenaltyPercentage(uint256)": {
        "notice": "Updates the penalty percentage for unacknowledged deliverables"
      }
    },
    "version": 1
  },
  "storageLayout": {
    "storage": [
      {
        "astId": 7,
        "contract": "contracts/fine-tuning/FineTuningServing.sol:FineTuningServing",
        "label": "_owner",
        "offset": 0,
        "slot": "0",
        "type": "t_address"
      },
      {
        "astId": 11147,
        "contract": "contracts/fine-tuning/FineTuningServing.sol:FineTuningServing",
        "label": "initialized",
        "offset": 20,
        "slot": "0",
        "type": "t_bool"
      },
      {
        "astId": 11150,
        "contract": "contracts/fine-tuning/FineTuningServing.sol:FineTuningServing",
        "label": "_initializationLocked",
        "offset": 21,
        "slot": "0",
        "type": "t_bool"
      },
      {
        "astId": 123,
        "contract": "contracts/fine-tuning/FineTuningServing.sol:FineTuningServing",
        "label": "_status",
        "offset": 0,
        "slot": "1",
        "type": "t_uint256"
      }
    ],
    "types": {
      "t_address": {
        "encoding": "inplace",
        "label": "address",
        "numberOfBytes": "20"
      },
      "t_bool": {
        "encoding": "inplace",
        "label": "bool",
        "numberOfBytes": "1"
      },
      "t_uint256": {
        "encoding": "inplace",
        "label": "uint256",
        "numberOfBytes": "32"
      }
    }
  }
}