{
  "address": "0xdCc5858207DAcca0C836bde5AEcb0e930f639468",
  "abi": [
    {
      "inputs": [],
      "stateMutability": "nonpayable",
      "type": "constructor"
    },
    {
      "inputs": [
        {
          "internalType": "address",
          "name": "user",
          "type": "address"
        },
        {
          "internalType": "address",
          "name": "provider",
          "type": "address"
        }
      ],
      "name": "AccountExists",
      "type": "error"
    },
    {
      "inputs": [
        {
          "internalType": "address",
          "name": "user",
          "type": "address"
        },
        {
          "internalType": "address",
          "name": "provider",
          "type": "address"
        }
      ],
      "name": "AccountNotExists",
      "type": "error"
    },
    {
      "inputs": [],
      "name": "AdditionalInfoTooLong",
      "type": "error"
    },
    {
      "inputs": [
        {
          "internalType": "uint256",
          "name": "size",
          "type": "uint256"
        },
        {
          "internalType": "uint256",
          "name": "max",
          "type": "uint256"
        }
      ],
      "name": "BatchSizeTooLarge",
      "type": "error"
    },
    {
      "inputs": [
        {
          "internalType": "address",
          "name": "caller",
          "type": "address"
        }
      ],
      "name": "CallerNotLedger",
      "type": "error"
    },
    {
      "inputs": [],
      "name": "CannotAddStakeWhenUpdating",
      "type": "error"
    },
    {
      "inputs": [
        {
          "internalType": "address",
          "name": "user",
          "type": "address"
        },
        {
          "internalType": "address",
          "name": "provider",
          "type": "address"
        },
        {
          "internalType": "uint256",
          "name": "balance",
          "type": "uint256"
        }
      ],
      "name": "CannotRevokeWithNonZeroBalance",
      "type": "error"
    },
    {
      "inputs": [
        {
          "internalType": "uint256",
          "name": "provided",
          "type": "uint256"
        },
        {
          "internalType": "uint256",
          "name": "required",
          "type": "uint256"
        }
      ],
      "name": "InsufficientStake",
      "type": "error"
    },
    {
      "inputs": [
        {
          "internalType": "address",
          "name": "addr",
          "type": "address"
        }
      ],
      "name": "InvalidAddress",
      "type": "error"
    },
    {
      "inputs": [
        {
          "internalType": "string",
          "name": "reason",
          "type": "string"
        }
      ],
      "name": "InvalidTEESignature",
      "type": "error"
    },
    {
      "inputs": [
        {
          "internalType": "uint256",
          "name": "limit",
          "type": "uint256"
        },
        {
          "internalType": "uint256",
          "name": "max",
          "type": "uint256"
        }
      ],
      "name": "LimitTooLarge",
      "type": "error"
    },
    {
      "inputs": [
        {
          "internalType": "uint256",
          "name": "lockTime",
          "type": "uint256"
        },
        {
          "internalType": "uint256",
          "name": "min",
          "type": "uint256"
        },
        {
          "internalType": "uint256",
          "name": "max",
          "type": "uint256"
        }
      ],
      "name": "LockTimeOutOfRange",
      "type": "error"
    },
    {
      "inputs": [],
      "name": "NoSettlementsProvided",
      "type": "error"
    },
    {
      "inputs": [
        {
          "internalType": "address",
          "name": "provider",
          "type": "address"
        }
      ],
      "name": "ServiceNotExist",
      "type": "error"
    },
    {
      "inputs": [
        {
          "internalType": "address",
          "name": "user",
          "type": "address"
        },
        {
          "internalType": "address",
          "name": "provider",
          "type": "address"
        }
      ],
      "name": "TooManyRefunds",
      "type": "error"
    },
    {
      "inputs": [
        {
          "internalType": "uint256",
          "name": "count",
          "type": "uint256"
        },
        {
          "internalType": "uint256",
          "name": "max",
          "type": "uint256"
        }
      ],
      "name": "TooManySettlements",
      "type": "error"
    },
    {
      "inputs": [],
      "name": "TransferFailed",
      "type": "error"
    },
    {
      "anonymous": false,
      "inputs": [
        {
          "indexed": true,
          "internalType": "address",
          "name": "user",
          "type": "address"
        },
        {
          "indexed": true,
          "internalType": "address",
          "name": "provider",
          "type": "address"
        },
        {
          "indexed": false,
          "internalType": "uint256",
          "name": "newGeneration",
          "type": "uint256"
        }
      ],
      "name": "AllTokensRevoked",
      "type": "event"
    },
    {
      "anonymous": false,
      "inputs": [
        {
          "indexed": true,
          "internalType": "address",
          "name": "user",
          "type": "address"
        },
        {
          "indexed": true,
          "internalType": "address",
          "name": "provider",
          "type": "address"
        },
        {
          "indexed": false,
          "internalType": "uint256",
          "name": "amount",
          "type": "uint256"
        },
        {
          "indexed": false,
          "internalType": "uint256",
          "name": "pendingRefund",
          "type": "uint256"
        }
      ],
      "name": "BalanceUpdated",
      "type": "event"
    },
    {
      "anonymous": false,
      "inputs": [
        {
          "indexed": false,
          "internalType": "address[]",
          "name": "users",
          "type": "address[]"
        },
        {
          "indexed": false,
          "internalType": "uint256[]",
          "name": "balances",
          "type": "uint256[]"
        },
        {
          "indexed": false,
          "internalType": "uint256[]",
          "name": "pendingRefunds",
          "type": "uint256[]"
        }
      ],
      "name": "BatchBalanceUpdated",
      "type": "event"
    },
    {
      "anonymous": false,
      "inputs": [
        {
          "indexed": true,
          "internalType": "address",
          "name": "owner",
          "type": "address"
        },
        {
          "indexed": false,
          "internalType": "uint256",
          "name": "lockTime",
          "type": "uint256"
        },
        {
          "indexed": false,
          "internalType": "address",
          "name": "ledgerAddress",
          "type": "address"
        }
      ],
      "name": "ContractInitialized",
      "type": "event"
    },
    {
      "anonymous": false,
      "inputs": [
        {
          "indexed": false,
          "internalType": "uint8",
          "name": "version",
          "type": "uint8"
        }
      ],
      "name": "Initialized",
      "type": "event"
    },
    {
      "anonymous": false,
      "inputs": [
        {
          "indexed": false,
          "internalType": "uint256",
          "name": "oldLockTime",
          "type": "uint256"
        },
        {
          "indexed": false,
          "internalType": "uint256",
          "name": "newLockTime",
          "type": "uint256"
        }
      ],
      "name": "LockTimeUpdated",
      "type": "event"
    },
    {
      "anonymous": false,
      "inputs": [
        {
          "indexed": true,
          "internalType": "address",
          "name": "previousOwner",
          "type": "address"
        },
        {
          "indexed": true,
          "internalType": "address",
          "name": "newOwner",
          "type": "address"
        }
      ],
      "name": "OwnershipTransferred",
      "type": "event"
    },
    {
      "anonymous": false,
      "inputs": [
        {
          "indexed": true,
          "internalType": "address",
          "name": "provider",
          "type": "address"
        },
        {
          "indexed": false,
          "internalType": "uint256",
          "name": "amount",
          "type": "uint256"
        }
      ],
      "name": "ProviderStakeReturned",
      "type": "event"
    },
    {
      "anonymous": false,
      "inputs": [
        {
          "indexed": true,
          "internalType": "address",
          "name": "provider",
          "type": "address"
        },
        {
          "indexed": false,
          "internalType": "uint256",
          "name": "amount",
          "type": "uint256"
        }
      ],
      "name": "ProviderStaked",
      "type": "event"
    },
    {
      "anonymous": false,
      "inputs": [
        {
          "indexed": true,
          "internalType": "address",
          "name": "provider",
          "type": "address"
        },
        {
          "indexed": true,
          "internalType": "address",
          "name": "teeSignerAddress",
          "type": "address"
        },
        {
          "indexed": false,
          "internalType": "bool",
          "name": "acknowledged",
          "type": "bool"
        }
      ],
      "name": "ProviderTEESignerAcknowledged",
      "type": "event"
    },
    {
      "anonymous": false,
      "inputs": [
        {
          "indexed": true,
          "internalType": "address",
          "name": "user",
          "type": "address"
        },
        {
          "indexed": true,
          "internalType": "address",
          "name": "provider",
          "type": "address"
        },
        {
          "indexed": true,
          "internalType": "uint256",
          "name": "index",
          "type": "uint256"
        },
        {
          "indexed": false,
          "internalType": "uint256",
          "name": "timestamp",
          "type": "uint256"
        }
      ],
      "name": "RefundRequested",
      "type": "event"
    },
    {
      "anonymous": false,
      "inputs": [
        {
          "indexed": true,
          "internalType": "address",
          "name": "service",
          "type": "address"
        }
      ],
      "name": "ServiceRemoved",
      "type": "event"
    },
    {
      "anonymous": false,
      "inputs": [
        {
          "indexed": true,
          "internalType": "address",
          "name": "service",
          "type": "address"
        },
        {
          "indexed": false,
          "internalType": "string",
          "name": "serviceType",
          "type": "string"
        },
        {
          "indexed": false,
          "internalType": "string",
          "name": "url",
          "type": "string"
        },
        {
          "indexed": false,
          "internalType": "uint256",
          "name": "inputPrice",
          "type": "uint256"
        },
        {
          "indexed": false,
          "internalType": "uint256",
          "name": "outputPrice",
          "type": "uint256"
        },
        {
          "indexed": false,
          "internalType": "uint256",
          "name": "updatedAt",
          "type": "uint256"
        },
        {
          "indexed": false,
          "internalType": "string",
          "name": "model",
          "type": "string"
        },
        {
          "indexed": false,
          "internalType": "string",
          "name": "verifiability",
          "type": "string"
        }
      ],
      "name": "ServiceUpdated",
      "type": "event"
    },
    {
      "anonymous": false,
      "inputs": [
        {
          "indexed": true,
          "internalType": "address",
          "name": "user",
          "type": "address"
        },
        {
          "indexed": false,
          "internalType": "enum SettlementStatus",
          "name": "status",
          "type": "uint8"
        },
        {
          "indexed": false,
          "internalType": "uint256",
          "name": "unsettledAmount",
          "type": "uint256"
        }
      ],
      "name": "TEESettlementResult",
      "type": "event"
    },
    {
      "anonymous": false,
      "inputs": [
        {
          "indexed": true,
          "internalType": "address",
          "name": "user",
          "type": "address"
        },
        {
          "indexed": true,
          "internalType": "address",
          "name": "provider",
          "type": "address"
        },
        {
          "indexed": false,
          "internalType": "uint8",
          "name": "tokenId",
          "type": "uint8"
        }
      ],
      "name": "TokenRevoked",
      "type": "event"
    },
    {
      "anonymous": false,
      "inputs": [
        {
          "indexed": true,
          "internalType": "address",
          "name": "user",
          "type": "address"
        },
        {
          "indexed": true,
          "internalType": "address",
          "name": "provider",
          "type": "address"
        },
        {
          "indexed": false,
          "internalType": "uint8[]",
          "name": "tokenIds",
          "type": "uint8[]"
        }
      ],
      "name": "TokensRevoked",
      "type": "event"
    },
    {
      "inputs": [],
      "name": "MAX_LOCKTIME",
      "outputs": [
        {
          "internalType": "uint256",
          "name": "",
          "type": "uint256"
        }
      ],
      "stateMutability": "view",
      "type": "function"
    },
    {
      "inputs": [],
      "name": "MIN_LOCKTIME",
      "outputs": [
        {
          "internalType": "uint256",
          "name": "",
          "type": "uint256"
        }
      ],
      "stateMutability": "view",
      "type": "function"
    },
    {
      "inputs": [],
      "name": "MIN_PROVIDER_STAKE",
      "outputs": [
        {
          "internalType": "uint256",
          "name": "",
          "type": "uint256"
        }
      ],
      "stateMutability": "view",
      "type": "function"
    },
    {
      "inputs": [
        {
          "internalType": "address",
          "name": "user",
          "type": "address"
        },
        {
          "internalType": "address",
          "name": "provider",
          "type": "address"
        }
      ],
      "name": "accountExists",
      "outputs": [
        {
          "internalType": "bool",
          "name": "",
          "type": "bool"
        }
      ],
      "stateMutability": "view",
      "type": "function"
    },
    {
      "inputs": [
        {
          "internalType": "address",
          "name": "provider",
          "type": "address"
        },
        {
          "internalType": "bool",
          "name": "acknowledged",
          "type": "bool"
        }
      ],
      "name": "acknowledgeTEESigner",
      "outputs": [],
      "stateMutability": "nonpayable",
      "type": "function"
    },
    {
      "inputs": [
        {
          "internalType": "address",
          "name": "provider",
          "type": "address"
        }
      ],
      "name": "acknowledgeTEESignerByOwner",
      "outputs": [],
      "stateMutability": "nonpayable",
      "type": "function"
    },
    {
      "inputs": [
        {
          "internalType": "address",
          "name": "user",
          "type": "address"
        },
        {
          "internalType": "address",
          "name": "provider",
          "type": "address"
        },
        {
          "internalType": "string",
          "name": "additionalInfo",
          "type": "string"
        }
      ],
      "name": "addAccount",
      "outputs": [],
      "stateMutability": "payable",
      "type": "function"
    },
    {
      "inputs": [
        {
          "components": [
            {
              "internalType": "string",
              "name": "serviceType",
              "type": "string"
            },
            {
              "internalType": "string",
              "name": "url",
              "type": "string"
            },
            {
              "internalType": "string",
              "name": "model",
              "type": "string"
            },
            {
              "internalType": "string",
              "name": "verifiability",
              "type": "string"
            },
            {
              "internalType": "uint256",
              "name": "inputPrice",
              "type": "uint256"
            },
            {
              "internalType": "uint256",
              "name": "outputPrice",
              "type": "uint256"
            },
            {
              "internalType": "string",
              "name": "additionalInfo",
              "type": "string"
            },
            {
              "internalType": "address",
              "name": "teeSignerAddress",
              "type": "address"
            }
          ],
          "internalType": "struct ServiceParams",
          "name": "params",
          "type": "tuple"
        }
      ],
      "name": "addOrUpdateService",
      "outputs": [],
      "stateMutability": "payable",
      "type": "function"
    },
    {
      "inputs": [
        {
          "internalType": "address",
          "name": "user",
          "type": "address"
        },
        {
          "internalType": "address",
          "name": "provider",
          "type": "address"
        }
      ],
      "name": "deleteAccount",
      "outputs": [],
      "stateMutability": "nonpayable",
      "type": "function"
    },
    {
      "inputs": [
        {
          "internalType": "address",
          "name": "user",
          "type": "address"
        },
        {
          "internalType": "address",
          "name": "provider",
          "type": "address"
        },
        {
          "internalType": "uint256",
          "name": "cancelRetrievingAmount",
          "type": "uint256"
        }
      ],
      "name": "depositFund",
      "outputs": [],
      "stateMutability": "payable",
      "type": "function"
    },
    {
      "inputs": [
        {
          "internalType": "address",
          "name": "user",
          "type": "address"
        },
        {
          "internalType": "address",
          "name": "provider",
          "type": "address"
        }
      ],
      "name": "getAccount",
      "outputs": [
        {
          "components": [
            {
              "internalType": "address",
              "name": "user",
              "type": "address"
            },
            {
              "internalType": "address",
              "name": "provider",
              "type": "address"
            },
            {
              "internalType": "uint256",
              "name": "nonce",
              "type": "uint256"
            },
            {
              "internalType": "uint256",
              "name": "balance",
              "type": "uint256"
            },
            {
              "internalType": "uint256",
              "name": "pendingRefund",
              "type": "uint256"
            },
            {
              "components": [
                {
                  "internalType": "uint256",
                  "name": "index",
                  "type": "uint256"
                },
                {
                  "internalType": "uint256",
                  "name": "amount",
                  "type": "uint256"
                },
                {
                  "internalType": "uint256",
                  "name": "createdAt",
                  "type": "uint256"
                },
                {
                  "internalType": "bool",
                  "name": "processed",
                  "type": "bool"
                }
              ],
              "internalType": "struct Refund[]",
              "name": "refunds",
              "type": "tuple[]"
            },
            {
              "internalType": "string",
              "name": "additionalInfo",
              "type": "string"
            },
            {
              "internalType": "bool",
              "name": "acknowledged",
              "type": "bool"
            },
            {
              "internalType": "uint256",
              "name": "validRefundsLength",
              "type": "uint256"
            },
            {
              "internalType": "uint256",
              "name": "generation",
              "type": "uint256"
            },
            {
              "internalType": "uint256",
              "name": "revokedBitmap",
              "type": "uint256"
            }
          ],
          "internalType": "struct Account",
          "name": "",
          "type": "tuple"
        }
      ],
      "stateMutability": "view",
      "type": "function"
    },
    {
      "inputs": [
        {
          "internalType": "address",
          "name": "provider",
          "type": "address"
        },
        {
          "internalType": "uint256",
          "name": "offset",
          "type": "uint256"
        },
        {
          "internalType": "uint256",
          "name": "limit",
          "type": "uint256"
        }
      ],
      "name": "getAccountsByProvider",
      "outputs": [
        {
          "components": [
            {
              "internalType": "address",
              "name": "user",
              "type": "address"
            },
            {
              "internalType": "address",
              "name": "provider",
              "type": "address"
            },
            {
              "internalType": "uint256",
              "name": "nonce",
              "type": "uint256"
            },
            {
              "internalType": "uint256",
              "name": "balance",
              "type": "uint256"
            },
            {
              "internalType": "uint256",
              "name": "pendingRefund",
              "type": "uint256"
            },
            {
              "components": [
                {
                  "internalType": "uint256",
                  "name": "index",
                  "type": "uint256"
                },
                {
                  "internalType": "uint256",
                  "name": "amount",
                  "type": "uint256"
                },
                {
                  "internalType": "uint256",
                  "name": "createdAt",
                  "type": "uint256"
                },
                {
                  "internalType": "bool",
                  "name": "processed",
                  "type": "bool"
                }
              ],
              "internalType": "struct Refund[]",
              "name": "refunds",
              "type": "tuple[]"
            },
            {
              "internalType": "string",
              "name": "additionalInfo",
              "type": "string"
            },
            {
              "internalType": "bool",
              "name": "acknowledged",
              "type": "bool"
            },
            {
              "internalType": "uint256",
              "name": "validRefundsLength",
              "type": "uint256"
            },
            {
              "internalType": "uint256",
              "name": "generation",
              "type": "uint256"
            },
            {
              "internalType": "uint256",
              "name": "revokedBitmap",
              "type": "uint256"
            }
          ],
          "internalType": "struct Account[]",
          "name": "accounts",
          "type": "tuple[]"
        },
        {
          "internalType": "uint256",
          "name": "total",
          "type": "uint256"
        }
      ],
      "stateMutability": "view",
      "type": "function"
    },
    {
      "inputs": [
        {
          "internalType": "address",
          "name": "user",
          "type": "address"
        },
        {
          "internalType": "uint256",
          "name": "offset",
          "type": "uint256"
        },
        {
          "internalType": "uint256",
          "name": "limit",
          "type": "uint256"
        }
      ],
      "name": "getAccountsByUser",
      "outputs": [
        {
          "components": [
            {
              "internalType": "address",
              "name": "user",
              "type": "address"
            },
            {
              "internalType": "address",
              "name": "provider",
              "type": "address"
            },
            {
              "internalType": "uint256",
              "name": "nonce",
              "type": "uint256"
            },
            {
              "internalType": "uint256",
              "name": "balance",
              "type": "uint256"
            },
            {
              "internalType": "uint256",
              "name": "pendingRefund",
              "type": "uint256"
            },
            {
              "components": [
                {
                  "internalType": "uint256",
                  "name": "index",
                  "type": "uint256"
                },
                {
                  "internalType": "uint256",
                  "name": "amount",
                  "type": "uint256"
                },
                {
                  "internalType": "uint256",
                  "name": "createdAt",
                  "type": "uint256"
                },
                {
                  "internalType": "bool",
                  "name": "processed",
                  "type": "bool"
                }
              ],
              "internalType": "struct Refund[]",
              "name": "refunds",
              "type": "tuple[]"
            },
            {
              "internalType": "string",
              "name": "additionalInfo",
              "type": "string"
            },
            {
              "internalType": "bool",
              "name": "acknowledged",
              "type": "bool"
            },
            {
              "internalType": "uint256",
              "name": "validRefundsLength",
              "type": "uint256"
            },
            {
              "internalType": "uint256",
              "name": "generation",
              "type": "uint256"
            },
            {
              "internalType": "uint256",
              "name": "revokedBitmap",
              "type": "uint256"
            }
          ],
          "internalType": "struct Account[]",
          "name": "accounts",
          "type": "tuple[]"
        },
        {
          "internalType": "uint256",
          "name": "total",
          "type": "uint256"
        }
      ],
      "stateMutability": "view",
      "type": "function"
    },
    {
      "inputs": [
        {
          "internalType": "uint256",
          "name": "offset",
          "type": "uint256"
        },
        {
          "internalType": "uint256",
          "name": "limit",
          "type": "uint256"
        }
      ],
      "name": "getAllAccounts",
      "outputs": [
        {
          "components": [
            {
              "internalType": "address",
              "name": "user",
              "type": "address"
            },
            {
              "internalType": "address",
              "name": "provider",
              "type": "address"
            },
            {
              "internalType": "uint256",
              "name": "nonce",
              "type": "uint256"
            },
            {
              "internalType": "uint256",
              "name": "balance",
              "type": "uint256"
            },
            {
              "internalType": "uint256",
              "name": "pendingRefund",
              "type": "uint256"
            },
            {
              "components": [
                {
                  "internalType": "uint256",
                  "name": "index",
                  "type": "uint256"
                },
                {
                  "internalType": "uint256",
                  "name": "amount",
                  "type": "uint256"
                },
                {
                  "internalType": "uint256",
                  "name": "createdAt",
                  "type": "uint256"
                },
                {
                  "internalType": "bool",
                  "name": "processed",
                  "type": "bool"
                }
              ],
              "internalType": "struct Refund[]",
              "name": "refunds",
              "type": "tuple[]"
            },
            {
              "internalType": "string",
              "name": "additionalInfo",
              "type": "string"
            },
            {
              "internalType": "bool",
              "name": "acknowledged",
              "type": "bool"
            },
            {
              "internalType": "uint256",
              "name": "validRefundsLength",
              "type": "uint256"
            },
            {
              "internalType": "uint256",
              "name": "generation",
              "type": "uint256"
            },
            {
              "internalType": "uint256",
              "name": "revokedBitmap",
              "type": "uint256"
            }
          ],
          "internalType": "struct Account[]",
          "name": "accounts",
          "type": "tuple[]"
        },
        {
          "internalType": "uint256",
          "name": "total",
          "type": "uint256"
        }
      ],
      "stateMutability": "view",
      "type": "function"
    },
    {
      "inputs": [
        {
          "internalType": "uint256",
          "name": "offset",
          "type": "uint256"
        },
        {
          "internalType": "uint256",
          "name": "limit",
          "type": "uint256"
        }
      ],
      "name": "getAllServices",
      "outputs": [
        {
          "components": [
            {
              "internalType": "address",
              "name": "provider",
              "type": "address"
            },
            {
              "internalType": "string",
              "name": "serviceType",
              "type": "string"
            },
            {
              "internalType": "string",
              "name": "url",
              "type": "string"
            },
            {
              "internalType": "uint256",
              "name": "inputPrice",
              "type": "uint256"
            },
            {
              "internalType": "uint256",
              "name": "outputPrice",
              "type": "uint256"
            },
            {
              "internalType": "uint256",
              "name": "updatedAt",
              "type": "uint256"
            },
            {
              "internalType": "string",
              "name": "model",
              "type": "string"
            },
            {
              "internalType": "string",
              "name": "verifiability",
              "type": "string"
            },
            {
              "internalType": "string",
              "name": "additionalInfo",
              "type": "string"
            },
            {
              "internalType": "address",
              "name": "teeSignerAddress",
              "type": "address"
            },
            {
              "internalType": "bool",
              "name": "teeSignerAcknowledged",
              "type": "bool"
            }
          ],
          "internalType": "struct Service[]",
          "name": "services",
          "type": "tuple[]"
        },
        {
          "internalType": "uint256",
          "name": "total",
          "type": "uint256"
        }
      ],
      "stateMutability": "view",
      "type": "function"
    },
    {
      "inputs": [
        {
          "internalType": "address[]",
          "name": "users",
          "type": "address[]"
        }
      ],
      "name": "getBatchAccountsByUsers",
      "outputs": [
        {
          "components": [
            {
              "internalType": "address",
              "name": "user",
              "type": "address"
            },
            {
              "internalType": "address",
              "name": "provider",
              "type": "address"
            },
            {
              "internalType": "uint256",
              "name": "nonce",
              "type": "uint256"
            },
            {
              "internalType": "uint256",
              "name": "balance",
              "type": "uint256"
            },
            {
              "internalType": "uint256",
              "name": "pendingRefund",
              "type": "uint256"
            },
            {
              "components": [
                {
                  "internalType": "uint256",
                  "name": "index",
                  "type": "uint256"
                },
                {
                  "internalType": "uint256",
                  "name": "amount",
                  "type": "uint256"
                },
                {
                  "internalType": "uint256",
                  "name": "createdAt",
                  "type": "uint256"
                },
                {
                  "internalType": "bool",
                  "name": "processed",
                  "type": "bool"
                }
              ],
              "internalType": "struct Refund[]",
              "name": "refunds",
              "type": "tuple[]"
            },
            {
              "internalType": "string",
              "name": "additionalInfo",
              "type": "string"
            },
            {
              "internalType": "bool",
              "name": "acknowledged",
              "type": "bool"
            },
            {
              "internalType": "uint256",
              "name": "validRefundsLength",
              "type": "uint256"
            },
            {
              "internalType": "uint256",
              "name": "generation",
              "type": "uint256"
            },
            {
              "internalType": "uint256",
              "name": "revokedBitmap",
              "type": "uint256"
            }
          ],
          "internalType": "struct Account[]",
          "name": "accounts",
          "type": "tuple[]"
        }
      ],
      "stateMutability": "view",
      "type": "function"
    },
    {
      "inputs": [
        {
          "internalType": "address",
          "name": "user",
          "type": "address"
        },
        {
          "internalType": "address",
          "name": "provider",
          "type": "address"
        }
      ],
      "name": "getPendingRefund",
      "outputs": [
        {
          "internalType": "uint256",
          "name": "",
          "type": "uint256"
        }
      ],
      "stateMutability": "view",
      "type": "function"
    },
    {
      "inputs": [
        {
          "internalType": "address",
          "name": "provider",
          "type": "address"
        }
      ],
      "name": "getService",
      "outputs": [
        {
          "components": [
            {
              "internalType": "address",
              "name": "provider",
              "type": "address"
            },
            {
              "internalType": "string",
              "name": "serviceType",
              "type": "string"
            },
            {
              "internalType": "string",
              "name": "url",
              "type": "string"
            },
            {
              "internalType": "uint256",
              "name": "inputPrice",
              "type": "uint256"
            },
            {
              "internalType": "uint256",
              "name": "outputPrice",
              "type": "uint256"
            },
            {
              "internalType": "uint256",
              "name": "updatedAt",
              "type": "uint256"
            },
            {
              "internalType": "string",
              "name": "model",
              "type": "string"
            },
            {
              "internalType": "string",
              "name": "verifiability",
              "type": "string"
            },
            {
              "internalType": "string",
              "name": "additionalInfo",
              "type": "string"
            },
            {
              "internalType": "address",
              "name": "teeSignerAddress",
              "type": "address"
            },
            {
              "internalType": "bool",
              "name": "teeSignerAcknowledged",
              "type": "bool"
            }
          ],
          "internalType": "struct Service",
          "name": "service",
          "type": "tuple"
        }
      ],
      "stateMutability": "view",
      "type": "function"
    },
    {
      "inputs": [
        {
          "internalType": "uint256",
          "name": "_locktime",
          "type": "uint256"
        },
        {
          "internalType": "address",
          "name": "_ledgerAddress",
          "type": "address"
        },
        {
          "internalType": "address",
          "name": "owner",
          "type": "address"
        }
      ],
      "name": "initialize",
      "outputs": [],
      "stateMutability": "nonpayable",
      "type": "function"
    },
    {
      "inputs": [],
      "name": "initialized",
      "outputs": [
        {
          "internalType": "bool",
          "name": "",
          "type": "bool"
        }
      ],
      "stateMutability": "view",
      "type": "function"
    },
    {
      "inputs": [
        {
          "internalType": "address",
          "name": "user",
          "type": "address"
        },
        {
          "internalType": "address",
          "name": "provider",
          "type": "address"
        },
        {
          "internalType": "uint8",
          "name": "tokenId",
          "type": "uint8"
        }
      ],
      "name": "isTokenRevoked",
      "outputs": [
        {
          "internalType": "bool",
          "name": "",
          "type": "bool"
        }
      ],
      "stateMutability": "view",
      "type": "function"
    },
    {
      "inputs": [],
      "name": "ledgerAddress",
      "outputs": [
        {
          "internalType": "address",
          "name": "",
          "type": "address"
        }
      ],
      "stateMutability": "view",
      "type": "function"
    },
    {
      "inputs": [],
      "name": "lockTime",
      "outputs": [
        {
          "internalType": "uint256",
          "name": "",
          "type": "uint256"
        }
      ],
      "stateMutability": "view",
      "type": "function"
    },
    {
      "inputs": [
        {
          "internalType": "address",
          "name": "provider",
          "type": "address"
        }
      ],
      "name": "migrateRefunds",
      "outputs": [
        {
          "internalType": "uint256",
          "name": "cleanedCount",
          "type": "uint256"
        }
      ],
      "stateMutability": "nonpayable",
      "type": "function"
    },
    {
      "inputs": [],
      "name": "owner",
      "outputs": [
        {
          "internalType": "address",
          "name": "",
          "type": "address"
        }
      ],
      "stateMutability": "view",
      "type": "function"
    },
    {
      "inputs": [
        {
          "components": [
            {
              "internalType": "address",
              "name": "user",
              "type": "address"
            },
            {
              "internalType": "address",
              "name": "provider",
              "type": "address"
            },
            {
              "internalType": "uint256",
              "name": "totalFee",
              "type": "uint256"
            },
            {
              "internalType": "bytes32",
              "name": "requestsHash",
              "type": "bytes32"
            },
            {
              "internalType": "uint256",
              "name": "nonce",
              "type": "uint256"
            },
            {
              "internalType": "bytes",
              "name": "signature",
              "type": "bytes"
            }
          ],
          "internalType": "struct TEESettlementData[]",
          "name": "settlements",
          "type": "tuple[]"
        }
      ],
      "name": "previewSettlementResults",
      "outputs": [
        {
          "internalType": "address[]",
          "name": "failedUsers",
          "type": "address[]"
        },
        {
          "internalType": "enum SettlementStatus[]",
          "name": "failureReasons",
          "type": "uint8[]"
        },
        {
          "internalType": "address[]",
          "name": "partialUsers",
          "type": "address[]"
        },
        {
          "internalType": "uint256[]",
          "name": "partialAmounts",
          "type": "uint256[]"
        }
      ],
      "stateMutability": "view",
      "type": "function"
    },
    {
      "inputs": [
        {
          "internalType": "address",
          "name": "user",
          "type": "address"
        },
        {
          "internalType": "address",
          "name": "provider",
          "type": "address"
        }
      ],
      "name": "processRefund",
      "outputs": [
        {
          "internalType": "uint256",
          "name": "totalAmount",
          "type": "uint256"
        },
        {
          "internalType": "uint256",
          "name": "balance",
          "type": "uint256"
        },
        {
          "internalType": "uint256",
          "name": "pendingRefund",
          "type": "uint256"
        }
      ],
      "stateMutability": "nonpayable",
      "type": "function"
    },
    {
      "inputs": [],
      "name": "removeService",
      "outputs": [],
      "stateMutability": "nonpayable",
      "type": "function"
    },
    {
      "inputs": [],
      "name": "renounceOwnership",
      "outputs": [],
      "stateMutability": "nonpayable",
      "type": "function"
    },
    {
      "inputs": [
        {
          "internalType": "address",
          "name": "user",
          "type": "address"
        },
        {
          "internalType": "address",
          "name": "provider",
          "type": "address"
        }
      ],
      "name": "requestRefundAll",
      "outputs": [],
      "stateMutability": "nonpayable",
      "type": "function"
    },
    {
      "inputs": [
        {
          "internalType": "address",
          "name": "provider",
          "type": "address"
        }
      ],
      "name": "revokeAllTokens",
      "outputs": [],
      "stateMutability": "nonpayable",
      "type": "function"
    },
    {
      "inputs": [
        {
          "internalType": "address",
          "name": "provider",
          "type": "address"
        }
      ],
      "name": "revokeTEESignerAcknowledgement",
      "outputs": [],
      "stateMutability": "nonpayable",
      "type": "function"
    },
    {
      "inputs": [
        {
          "internalType": "address",
          "name": "provider",
          "type": "address"
        },
        {
          "internalType": "uint8",
          "name": "tokenId",
          "type": "uint8"
        }
      ],
      "name": "revokeToken",
      "outputs": [],
      "stateMutability": "nonpayable",
      "type": "function"
    },
    {
      "inputs": [
        {
          "internalType": "address",
          "name": "provider",
          "type": "address"
        },
        {
          "internalType": "uint8[]",
          "name": "tokenIds",
          "type": "uint8[]"
        }
      ],
      "name": "revokeTokens",
      "outputs": [],
      "stateMutability": "nonpayable",
      "type": "function"
    },
    {
      "inputs": [
        {
          "internalType": "address",
          "name": "provider",
          "type": "address"
        }
      ],
      "name": "serviceExists",
      "outputs": [
        {
          "internalType": "bool",
          "name": "",
          "type": "bool"
        }
      ],
      "stateMutability": "view",
      "type": "function"
    },
    {
      "inputs": [
        {
          "components": [
            {
              "internalType": "address",
              "name": "user",
              "type": "address"
            },
            {
              "internalType": "address",
              "name": "provider",
              "type": "address"
            },
            {
              "internalType": "uint256",
              "name": "totalFee",
              "type": "uint256"
            },
            {
              "internalType": "bytes32",
              "name": "requestsHash",
              "type": "bytes32"
            },
            {
              "internalType": "uint256",
              "name": "nonce",
              "type": "uint256"
            },
            {
              "internalType": "bytes",
              "name": "signature",
              "type": "bytes"
            }
          ],
          "internalType": "struct TEESettlementData[]",
          "name": "settlements",
          "type": "tuple[]"
        }
      ],
      "name": "settleFeesWithTEE",
      "outputs": [
        {
          "internalType": "uint8[]",
          "name": "statuses",
          "type": "uint8[]"
        }
      ],
      "stateMutability": "nonpayable",
      "type": "function"
    },
    {
      "inputs": [
        {
          "internalType": "bytes4",
          "name": "interfaceId",
          "type": "bytes4"
        }
      ],
      "name": "supportsInterface",
      "outputs": [
        {
          "internalType": "bool",
          "name": "",
          "type": "bool"
        }
      ],
      "stateMutability": "view",
      "type": "function"
    },
    {
      "inputs": [
        {
          "internalType": "address",
          "name": "newOwner",
          "type": "address"
        }
      ],
      "name": "transferOwnership",
      "outputs": [],
      "stateMutability": "nonpayable",
      "type": "function"
    },
    {
      "inputs": [
        {
          "internalType": "uint256",
          "name": "_locktime",
          "type": "uint256"
        }
      ],
      "name": "updateLockTime",
      "outputs": [],
      "stateMutability": "nonpayable",
      "type": "function"
    },
    {
      "stateMutability": "payable",
      "type": "receive"
    }
  ],
  "transactionHash": "0x3395f7df330ea9d0fa1bd232f23d957d66d19ed96f7f602f369110d81f927601",
  "args": [],
  "numDeployments": 6,
  "solcInputHash": "38f7e198a79b8d2e310f23b93b6cd780",
  "bytecode": "0x60808060405234620000c45760008054336001600160a01b031982168117808455919260ff9291906001600160a01b038516907f8be0079c531659141344cd1fd0a4f28419497f9722a3daafe3b4186f6b6457e09080a36001805560a81c161562000075575b604051614c6c9081620000ca8239f35b600161ff0160a01b0319163360ff60a81b191617600160a81b1760005560ff81527f7f26b83ff96e1f2b6a682f133852f6798a09c465da95921460cefb384740249890602090a1388062000065565b600080fdfe6080604052600436101561001e575b361561001957600080fd5b612802565b60003560e01c806301ffc9a71461028e57806308fecb97146102895780630a2a8f88146102845780630d6680871461027f578063147500e31461027a578063158ef93e1461027557806315a523021461027057806317c30a031461026b5780631d07cb97146102665780631d73b9f514610261578063264173d61461025c57806328b6047614610257578063398c8e4e146102525780633ea527cb1461024d578063405a85e8146102485780634e3c4f22146102435780634fe63f4d1461023e5780635bd7ace214610239578063650190e7146102345780636c79158d1461022f578063715018a61461022a578063745e87f7146102255780637ff6fc1c146102205780638be741191461021b5780638da5cb5b146102165780639721672514610211578063a09cfca91461020c578063ad6dca3f14610207578063b2394d0914610202578063b4988fd0146101fd578063ba16a750146101f8578063bbee42d9146101f3578063cab33d8f146101ee578063d1d20056146101e9578063ddf96abd146101e4578063e50688f9146101df578063f2fde38b146101da578063fbfa4e11146101d55763fd5908470361000e57612040565b611f80565b611eef565b611de7565b611c34565b611bfe565b611b83565b611aa3565b6119b7565b6118b3565b611824565b611807565b611755565b61171f565b6116f6565b61156b565b61148c565b611381565b611323565b6111ea565b6111c6565b61115d565b61111c565b611032565b610fdd565b610fbf565b610e47565b610cce565b610b64565b610af3565b6108e7565b6107e5565b6106c7565b61058d565b610551565b6104fe565b61049f565b6102fa565b346102e45760203660031901126102e45760043563ffffffff60e01b81168091036102e45760209063160841b160e01b81149081156102d3575b506040519015158152f35b6301ffc9a760e01b149050386102c8565b600080fd5b6001600160a01b038116036102e457565b346102e45760203660031901126102e45760048035610318816102e9565b61032061285b565b61032b6000916123ae565b80549260005b84811061034757604051848152602090f35b0390f35b61037161035482856144e6565b600052600080516020614b77833981519152602052604060002090565b906008820194855415610490576000949385968660058601975b8254821015610410576103b36103af60036103a6858d6128b3565b50015460ff1690565b1590565b15610404576103ca8160019284036103d35761239a565b915b019061038b565b6103f28b6103ec836103e588846128b3565b50926128b3565b906128e5565b806103fd818d6128b3565b505561239a565b909850600180996103cc565b94959399989050969196610433575b505050506001905b01939293919091610331565b83905592969260009286929184915b80831061046457505050015560019061045a9061239a565b949038808061041f565b91948193945061048490600161047b8882956128b3565b500154906126b0565b94019091879392610442565b95945060019150929192610427565b346102e45760203660031901126102e45760206104e96104c96004356104c4816102e9565b613ce8565b600052600080516020614bf7833981519152602052604060002054151590565b6040519015158152f35b60009103126102e457565b346102e45760003660031901126102e4576020600080516020614b9783398151915254604051908152f35b60409060031901126102e457600435610541816102e9565b9060243561054e816102e9565b90565b346102e45760206104e961056d61056736610529565b90613d10565b600052600080516020614b17833981519152602052604060002054151590565b346102e45760003660031901126102e457602060ff60005460a01c166040519015158152f35b919082519283825260005b8481106105df575050826000602080949584010152601f8019910116010190565b6020818301810151848301820152016105be565b80516001600160a01b031682529061054e9061069361067f61066d61063d61062b6101606020890151908060208901528701906105b3565b604088015186820360408801526105b3565b606087015160608601526080870151608086015260a087015160a086015260c087015185820360c08701526105b3565b60e086015184820360e08601526105b3565b6101008086015190848303908501526105b3565b610120808501516001600160a01b03169083015292610140908101511515910152565b90602061054e9281815201906105f3565b346102e45760203660031901126102e4576103436106f86004356106ea816102e9565b6106f2612112565b50613d3b565b6107a960ff6009610707611d79565b84546001600160a01b03168152936107216001820161219f565b60208601526107326002820161219f565b60408601526003810154606086015260048101546080860152600581015460a08601526107616006820161219f565b60c08601526107726007820161219f565b60e08601526107836008820161219f565b61010086015201546001600160a01b03811661012085015260a01c161515610140830152565b604051918291826106b6565b9181601f840112156102e4578235916001600160401b0383116102e4576020808501948460051b0101116102e457565b346102e45760403660031901126102e457600435610802816102e9565b6024356001600160401b0381116102e4576108219036906004016107b5565b9161082c8133613d80565b600a0160005b8481106108b4575050604051926020908060208601602087525260408501939160005b82811061088f576001600160a01b038516337f70147140547b3e1660123a6725577c5574b4d40747abe6ff7c458f449e18b84f8989038aa3005b90919294828060019260ff89356108a5816108dc565b16815201960193929101610855565b80600160ff6108c582948989612931565b356108cf816108dc565b161b835417835501610832565b60ff8116036102e457565b346102e45760403660031901126102e457600435610904816102e9565b60243590610911826108dc565b600a60ff61091f8333613d80565b931692016001831b815417905560405191825260018060a01b0316907fcf558f061a5a4e28657b8e5c662b95b8258d880896e7a859299457be036ed4a460203392a3005b60609060031901126102e45760043561097b816102e9565b906024359060443590565b90815180825260208080930193019160005b8281106109a6575050505090565b83518051865280830151868401526040808201519087015260609081015115159086015260809094019392810192600101610998565b80516001600160a01b0316825290610a4a610a386101606020858101516001600160a01b03169085015260408501516040850152606085015160608501526080850151608085015260a0850151908060a0860152840190610986565b60c084015183820360c08501526105b3565b60e08084015115159083015291610100808201519083015261012080820151908301526101408091015191015290565b90808251908181526020809101926020808460051b8301019501936000915b848310610aa95750505050505090565b9091929394958480610ac7600193601f198682030187528a516109dc565b9801930193019194939290610a99565b929190610aee602091604086526040860190610a7a565b930152565b346102e457610b0136610963565b91908215801580610b5a575b610b3a57610b24939015610b3457506032916129a4565b9061034360405192839283610ad7565b916129a4565b60405163062ba4db60e01b81526004810185905260326024820152604490fd5b5060328411610b0d565b346102e45760206004610b7f610b7936610529565b90613d80565b0154604051908152f35b60206003198201126102e457600435906001600160401b0382116102e457610bb3916004016107b5565b9091565b90815180825260208080930193019160005b828110610bd7575050505090565b83516001600160a01b031685529381019392810192600101610bc9565b634e487b7160e01b600052602160045260246000fd5b60061115610c1457565b610bf4565b906006821015610c145752565b9190610c3a90608084526080840190610bb7565b926020938381038585015284808451928381520193019060005b818110610caa5750505090610c70918382036040850152610bb7565b90606081830391015281808451928381520193019160005b828110610c96575050505090565b835185529381019392810192600101610c88565b909193868082610cc0600194899b9a9b51610c19565b979897019501929101610c54565b346102e457610cdc36610b89565b8015610e355760328111610e1457610cf38161230b565b610cfc8261230b565b91610d068161230b565b610d0f8261230b565b9160008091815b818110610d3a57505080855285528082528252604051945084936103439385610c26565b610d4581838b612353565b9233610d62610d566020870161237a565b6001600160a01b031690565b03610df257610d7084612a99565b610d7b829392610c0a565b8215610de657610d8a83610c0a565b60018314610dbb575060019291610db591610dad610da78261239a565b9761237a565b908c8c612a7f565b01610d16565b600193925086610dd9610dd3610de19498999261239a565b9861237a565b908a8a612bd9565b610db5565b50935050600190610db5565b90610de182610e0c610e066001959261239a565b9661237a565b908b8b612a58565b60405163f1c82a5760e01b8152600481019190915260326024820152604490fd5b60405163192912c960e01b8152600490fd5b6003196020368201126102e4576004356001600160401b0381116102e457610100816004019282360301126102e457610e7f336123e7565b5415610f285734610f16577f30ecc203691b2d18e17ee75d47caf34a3fb9f86e855f7e0414d3cec26d0c424b905b610eb78333612d2b565b610ef3610f11610ec78580612459565b9093610ed66024820188612459565b949097610ee66044840182612459565b9290916064850190612459565b949093604051988998339c4294608460a4860135950135938c6124ac565b0390a2005b6040516396ab6ec560e01b8152600490fd5b68056bc75e2d631000003410610f98577f30ecc203691b2d18e17ee75d47caf34a3fb9f86e855f7e0414d3cec26d0c424b9034610f64336123e7565b5560405134815233907fcd6dbb0e62eeb71e114bae8b2e2547921dd19209bebf32b595be3e7d247dbbb490602090a2610ead565b6040516322df051360e11b815234600482015268056bc75e2d631000006024820152604490fd5b346102e45760003660031901126102e457602060405162093a808152f35b346102e45760603660031901126102e4576020600435610ffc816102e9565b600a61101f60243561100d816102e9565b6044359361101a856108dc565b613d80565b0154600160ff60405193161b1615158152f35b346102e45761104036610529565b600080516020614b37833981519152546001600160a01b039290831633036111045761107c600080516020614b978339815191525483836130a9565b9291939094846110ab575b50505061034390604051938493846040919493926060820195825260208201520152565b60408051878152602081018690529282169390911691600080516020614b578339815191529190a3600080808085335af16110e461250a565b50156110f257388080611087565b6040516312171d8360e31b8152600490fd5b6040516352446b8760e01b8152336004820152602490fd5b346102e45761112a36610963565b91908215801580611153575b610b3a57610b2493901561114d5750603291613195565b91613195565b5060328411611136565b346102e45760403660031901126102e45760243580158015806111bc575b61119c57156111935750610b2460325b60043561322c565b610b249061118b565b60405163062ba4db60e01b81526004810183905260326024820152604490fd5b506032821161117b565b346102e45760003660031901126102e457602060405168056bc75e2d631000008152f35b346102e4576111f836610529565b600080516020614b37833981519152546001600160a01b0392919083163303611104576112258183613338565b61122f8183613d80565b611237611d79565b81546001600160a01b0316815260018201546001600160a01b031660208201526002820154604082015260038201546060820152600482015460808201526112816005830161253a565b60a08201526112926006830161219f565b60c08201526112b16112a8600784015460ff1690565b151560e0830152565b610140600a6008840154938461010085015260098101546101208501520154910152806112da57005b6113047f54377dfdebf06f6df53fbda737d2dcd7e141f95bbfb0c1223437e856b9de3ac391612667565b938060405193169316918061131e42829190602083019252565b0390a4005b346102e45760008060031936011261137e5761133d61285b565b80546001600160a01b03198116825581906001600160a01b03167f8be0079c531659141344cd1fd0a4f28419497f9722a3daafe3b4186f6b6457e08280a380f35b80fd5b60603660031901126102e457600435611399816102e9565b602435906113a6826102e9565b600080516020614b37833981519152546001600160a01b039190821633036111045781811691821561146b5783169283156114485790600080516020614b57833981519152916113fa34604435838561346d565b9290916114176103af600761140f8486613d80565b015460ff1690565b611438575b505060408051918252602082019290925290819081015b0390a3005b61144191613593565b388061141c565b604051634726455360e11b81526001600160a01b03919091166004820152602490fd5b604051634726455360e11b81526001600160a01b0383166004820152602490fd5b346102e45760403660031901126102e4576004356114a9816102e9565b6024358015801582036102e4576114c08333613d80565b600781019160ff8354169081611524575b506114ea575b815460ff191660ff84151516178255005b005b600301549283156114d75760405163faa2387760e01b81523360048201526001600160a01b03909116602482015260448101849052606490fd5b9050386114d1565b602090602060408183019282815285518094520193019160005b828110611554575050505090565b835160ff1685529381019392810192600101611546565b346102e45761157936610b89565b611581613606565b8015610e355760328111610e14576115988161230b565b9160009160005b8181106115e557505050806115c8575b610343826115bc60018055565b6040519182918261152c565b600080808093335af16115d961250a565b50156110f257386115af565b846115f1828486612353565b9433611602610d566020890161237a565b03611686577f1f69e5b87fd0ce34b3760ba6e5d8aa95a36e316c3ba44e1e65a9d0eb9e96d0bf839261166c610d56611666600197611659966116616116468e61365c565b94829b919961165484610c0a565b612683565b9060ff169052565b6126b0565b9961237a565b9261167c60405192839283612697565b0390a25b0161159f565b9461169d6116978460019594612683565b60029052565b7f1f69e5b87fd0ce34b3760ba6e5d8aa95a36e316c3ba44e1e65a9d0eb9e96d0bf6116c78261237a565b6040906116ee8251928392888060a01b031695013582919060206040840193600281520152565b0390a2611680565b346102e45760003660031901126102e4576000546040516001600160a01b039091168152602090f35b346102e45761172d36610529565b600080516020614b37833981519152546001600160a01b03163303611104576114e891613883565b346102e45760403660031901126102e45760243580158015806117fd575b61119c57156117f4575061178b60325b600435613980565b906040519060408201926040835281518094526060830160608560051b850101926020809101916000905b8782106117ca578680878760208301520390f35b9091929483806117e6600193605f198b820301865289516105f3565b9701920192019092916117b6565b61178b90611783565b5060328211611773565b346102e45760003660031901126102e4576020604051610e108152f35b346102e45760203660031901126102e4576009600435611843816102e9565b61184b61285b565b7f4909107c46469d21135443e891c6ecae55b5baa31b338d50f391935308b08f89602061187783613d3b565b8461188185613d3b565b01805460ff60a01b1916600160a01b17905590930154604051600181526001600160a01b0391821694939091169290a3005b346102e45760603660031901126102e4576024356118d0816102e9565b6044356118dc816102e9565b60005460ff8160a01c16159081611997575b5015611947576000805460ff60a01b1916600160a01b179055611913916004356126bd565b604051600181527f7f26b83ff96e1f2b6a682f133852f6798a09c465da95921460cefb38474024989080602081015b0390a1005b60405162461bcd60e51b815260206004820152602260248201527f496e697469616c697a61626c653a20616c726561647920696e697469616c697a604482015261195960f21b6064820152608490fd5b60ff915060a81c1615386118ee565b90602061054e928181520190610a7a565b346102e4576119c536610b89565b6101f4808211611a8657506119d981612954565b9160005b8281106119f2576040518061034386826119a6565b600190611a1133611a0c611a07848888612931565b61237a565b613d10565b611a3581600052600080516020614b17833981519152602052604060002054151590565b611a41575b50016119dd565b611a65611a6a91600052600080516020614b77833981519152602052604060002090565b6125c1565b611a748287612683565b52611a7f8186612683565b5038611a3a565b604492506040519162ef8cfb60e11b835260048301526024820152fd5b346102e45760008060031936011261137e57611abd613606565b611ac633613a23565b80611ad0336123e7565b548015611b57578180809281611ae5336123e7565b5560405181815233907f17f7db034d4b59fadec3e44a684cb4396ca10fd036c4e4f718bf06e99371588290602090a2337f29d546abb6e94f4f04d5bdccb6682316f597d43776078f47e273f000e77b2a918380a2335af1611b4461250a565b50156110f2575b611b5460018055565b80f35b5050337f29d546abb6e94f4f04d5bdccb6682316f597d43776078f47e273f000e77b2a918280a2611b4b565b346102e45760203660031901126102e457600435611ba0816102e9565b611baa8133613d80565b906000600a6009840193611bbe855461239a565b9485905501556040519182526001600160a01b03169033907f989726e0ba0fa7747d8a6618329b929bfcc4f3ac46de5930a368310944f7554790602090a3005b346102e45760003660031901126102e457600080516020614b37833981519152546040516001600160a01b039091168152602090f35b346102e45760203660031901126102e4576009600435611c53816102e9565b611c5b61285b565b7f4909107c46469d21135443e891c6ecae55b5baa31b338d50f391935308b08f896020611c8783613d3b565b84611c9185613d3b565b01805460ff60a01b1916905590930154604051600081526001600160a01b0391821694939091169290a3005b634e487b7160e01b600052604160045260246000fd5b61016081019081106001600160401b03821117611cef57604052565b611cbd565b608081019081106001600160401b03821117611cef57604052565b6001600160401b038111611cef57604052565b602081019081106001600160401b03821117611cef57604052565b604081019081106001600160401b03821117611cef57604052565b90601f801991011681019081106001600160401b03821117611cef57604052565b60405190611d8682611cd3565b565b60405190611d8682611cf4565b6001600160401b038111611cef57601f01601f191660200190565b929192611dbc82611d95565b91611dca6040519384611d58565b8294818452818301116102e4578281602093846000960137010152565b60603660031901126102e457600435611dff816102e9565b60243590611e0c826102e9565b6044356001600160401b0381116102e457366023820112156102e457611e3c903690602481600401359101611db0565b600080516020614b378339815191525490926001600160a01b039290918316330361110457828116928315611ed6578216938415611eb55790611e9c611e94600080516020614b578339815191529493348585613af2565b939092613593565b6040805191825260208201929092529081908101611433565b604051634726455360e11b81526001600160a01b0384166004820152602490fd5b604051634726455360e11b815260048101859052602490fd5b346102e45760203660031901126102e457600435611f0c816102e9565b611f1461285b565b6001600160a01b03811615611f2c576114e890613426565b60405162461bcd60e51b815260206004820152602660248201527f4f776e61626c653a206e6577206f776e657220697320746865207a65726f206160448201526564647265737360d01b6064820152608490fd5b346102e45760203660031901126102e457600435611f9c61285b565b610e10908181108015612023575b611ffd57600080516020614b978339815191528054908290556040805191825260208201929092527f5707a70527b6cbb892bfe5d8739a8f0643d3212d9b1139bc31c742e731c652709181908101611942565b606491604051916329cc3d9d60e21b83526004830152602482015262093a806044820152fd5b5062093a808111611faa565b90602061054e9281815201906109dc565b346102e45761034361206361205436610529565b9061205d6127ad565b50613d80565b600a61206d611d79565b82546001600160a01b031681529160018101546001600160a01b031660208401526002810154604084015260038101546060840152600481015460808401526120b86005820161253a565b60a08401526120c96006820161219f565b60c08401526120e86120df600783015460ff1690565b151560e0850152565b6008810154610100840152600981015461012084015201546101408201526040519182918261202f565b6040519061211f82611cd3565b81610140600091828152606080602083015280604083015283818301528360808301528360a08301528060c08301528060e0830152610100820152826101208201520152565b90600182811c92168015612195575b602083101461217f57565b634e487b7160e01b600052602260045260246000fd5b91607f1691612174565b906040519182600082546121b281612165565b9081845260209460019160018116908160001461222057506001146121e1575b505050611d8692500383611d58565b600090815285812095935091905b818310612208575050611d8693508201013880806121d2565b855488840185015294850194879450918301916121ef565b92505050611d8694925060ff191682840152151560051b8201013880806121d2565b90611d8660ff6009612252611d79565b85546001600160a01b031681529461226c6001820161219f565b602087015261227d6002820161219f565b60408701526003810154606087015260048101546080870152600581015460a08701526122ac6006820161219f565b60c08701526122bd6007820161219f565b60e08701526122ce6008820161219f565b61010087015201546001600160a01b03811661012086015260a01c161515610140840152565b6001600160401b038111611cef5760051b60200190565b90612315826122f4565b6123226040519182611d58565b8281528092612333601f19916122f4565b0190602036910137565b634e487b7160e01b600052603260045260246000fd5b91908110156123755760051b8101359060be19813603018212156102e4570190565b61233d565b3561054e816102e9565b634e487b7160e01b600052601160045260246000fd5b60001981146123a95760010190565b612384565b6001600160a01b031660009081527fdfd123095cdedb1cecbc229b30f7cf8745fb3d3951645ac4a8fa4c0895f895066020526040902090565b6001600160a01b031660009081527fdfd123095cdedb1cecbc229b30f7cf8745fb3d3951645ac4a8fa4c0895f8950b6020526040902090565b6001600160a01b031660009081527fdfd123095cdedb1cecbc229b30f7cf8745fb3d3951645ac4a8fa4c0895f895076020526040902090565b903590601e19813603018212156102e457018035906001600160401b0382116102e4576020019181360383136102e457565b908060209392818452848401376000828201840152601f01601f1916010190565b999793926124fc97936124d16124df9361054e9e9c98999560e08f818152019161248b565b8c810360208e01529161248b565b9460408a01526060890152608088015286830360a088015261248b565b9260c081850391015261248b565b3d15612535573d9061251b82611d95565b916125296040519384611d58565b82523d6000602084013e565b606090565b908154612546816122f4565b926040936125576040519182611d58565b82815280946020809201926000526020600020906000935b85851061257e57505050505050565b600484600192845161258f81611cf4565b86548152848701548382015260028701548682015260ff6003880154161515606082015281520193019401939161256f565b90600a6125cc611d79565b83546001600160a01b031681529260018101546001600160a01b031660208501526002810154604085015260038101546060850152600481015460808501526126176005820161253a565b60a08501526126286006820161219f565b60c085015261264761263e600783015460ff1690565b151560e0860152565b600881015461010085015260098101546101208501520154610140830152565b6000198101919082116123a957565b919082039182116123a957565b80518210156123755760209160051b010190565b602090939291936126ac816040810196610c19565b0152565b919082018092116123a957565b916126c781613426565b610e1080841080156127a1575b61277a5750600080516020614b97833981519152839055600080516020614b3783398151915280546001600160a01b039384166001600160a01b031991821681179092557fdfd123095cdedb1cecbc229b30f7cf8745fb3d3951645ac4a8fa4c0895f895028054909116821790556040805194855260208501919091529116917f9e1c480deaf2caaa9170098a3275b53d208beaeb277601363025975cf8274eb69190a2565b83606491604051916329cc3d9d60e21b83526004830152602482015262093a806044820152fd5b5062093a8084116126d4565b604051906127ba82611cd3565b81610140600091828152826020820152826040820152826060820152826080820152606060a0820152606060c08201528260e082015282610100820152826101208201520152565b60405162461bcd60e51b815260206004820152602b60248201527f446972656374206465706f736974732064697361626c65643b20757365204c6560448201526a3233b2b926b0b730b3b2b960a91b6064820152608490fd5b6000546001600160a01b0316330361286f57565b606460405162461bcd60e51b815260206004820152602060248201527f4f776e61626c653a2063616c6c6572206973206e6f7420746865206f776e65726044820152fd5b80548210156123755760005260206000209060021b0190600090565b634e487b7160e01b600052600060045260246000fd5b9061292c578181036128f5575050565b600360ff8184611d8695548555600181015460018601556002810154600286015501541691019060ff801983541691151516179055565b6128cf565b91908110156123755760051b0190565b60405161294d81611d22565b6000815290565b9061295e826122f4565b61296b6040519182611d58565b828152809261297c601f19916122f4565b019060005b82811061298d57505050565b6020906129986127ad565b82828501015201612981565b6129b0909392936123ae565b80549384831015612a415780612a325750835b82858211612a2a575b6129d591612676565b906129df82612954565b9260005b8381106129f257505050509190565b80612a0e611a65610354612a08600195876126b0565b876144e6565b612a188288612683565b52612a238187612683565b50016129e3565b8591506129cc565b8201808311156129c357612384565b505050604051612a5081611d22565b600081529190565b90600293612a6a84612a7c9594612683565b6001600160a01b039091169052612683565b52565b92612a6a83612a8d95612683565b6006821015610c145752565b612ab26103af61056d612aab8461237a565b3390613d10565b612bce57612ac56103af6104c933613ce8565b612bc357612ad63361101a8361237a565b612adf33613d3b565b612af06103af600784015460ff1690565b8015612baa575b8015612b95575b612b8857600282015460808401351115612b7b5760090154612b2d906103af906001600160a01b031684613dff565b612b6f576003604091015491013590808211600014612b6557612b4f91612676565b905b8115612b5d5760019190565b600091508190565b5050600090612b51565b50906040600592013590565b5050906040600492013590565b5050906040600392013590565b5060098101546001600160a01b031615612afe565b506009810154612bbe9060a01c60ff161590565b612af7565b906040600292013590565b906040600592013590565b92612a6a83612a7c95612683565b91612c019183549060031b91821b91600019901b19161790565b9055565b818110612c10575050565b60008155600101612c05565b9190601f8111612c2b57505050565b611d86926000526020600020906020601f840160051c83019310612c57575b601f0160051c0190612c05565b9091508190612c4a565b9092916001600160401b038111611cef57612c8681612c808454612165565b84612c1c565b6000601f8211600114612cc3578190612c01939495600092612cb8575b50508160011b916000199060031b1c19161790565b013590503880612ca3565b601f19821694612cd884600052602060002090565b91805b878110612d13575083600195969710612cf9575b505050811b019055565b0135600019600384901b60f8161c19169055388080612cef565b90926020600181928686013581550194019101612cdb565b60c0820190611000612d3d8385612459565b90501161309757612d4d81613ce8565b612d746103af82600052600080516020614bf7833981519152602052604060002054151590565b612f9d5750612d8290613d3b565b916001830191612d918361219f565b8051602080920120612dad612da68580612459565b3691611db0565b8281519101201493841594612f6b575b8415612f39575b8415612f06575b858515612eac575b5083612e71612e67600995612e27612e1d612e7797612e0160e098612dfb89612e989e612459565b91612c61565b608087013560038e015560a087013560048e0155860186612459565b9060028d01612c61565b4260058b0155612e47612e3d6040860186612459565b9060068d01612c61565b612e61612e576060860186612459565b9060078d01612c61565b83612459565b9060088a01612c61565b0161237a565b930180546001600160a01b0319166001600160a01b03909416939093178355565b612e9f5750565b805460ff60a01b19169055565b60e091955093612e71612e67600995612e27612e1d612e7797612e01612ed76008612e989d0161219f565b828151910120612eea612da6878b612459565b83815191012014159c9850509750505095505050935085612dd3565b60098601549094506001600160a01b0316612f26610d5660e0860161237a565b6001600160a01b03909116141593612dcb565b9350612f476007860161219f565b818151910120612f5d612da66060860186612459565b828151910120141593612dc4565b9350612f796006860161219f565b818151910120612f8f612da66040860186612459565b828151910120141593612dbd565b929091612faa8280612459565b929091612fba6020830183612459565b92612fc86040820182612459565b9091612fd76060820182612459565b949095612fe49083612459565b97909860e08401612ff49061237a565b9a612ffd611d79565b6001600160a01b03909d168d52369061301592611db0565b60208c0152369061302592611db0565b60408a0152608081013560608a015260a0013560808901524260a0890152369061304e92611db0565b60c0870152369061305e92611db0565b60e0850152369061306e92611db0565b6101008301526001600160a01b0316610120820152600061014082015261309491613fe2565b50565b60405163ef54fd9d60e01b8152600490fd5b906130b391613d80565b906008820192835415613182576000939284918291600581019190835b875486101561315e576130e386856128b3565b506130f28860028301546126b0565b42106131115760019182613108920154906126b0565b955b01946130d0565b98600191969561312861313792848d0154906126b0565b9a81880361313d575b5061239a565b9461310a565b61314b906103ec83896128b3565b8061315681886128b3565b505538613131565b979550935094905055816004600383019261317a878554612676565b809455015591565b6003830154600490930154600094509150565b6131a190939293612420565b80549384831015612a41578061321d5750835b82858211613215575b6131c691612676565b906131d082612954565b9260005b8381106131e357505050509190565b806131f9611a65610354612a08600195876126b0565b6132038288612683565b5261320e8187612683565b50016131d4565b8591506131bd565b8201808311156131b457612384565b91600080516020614bd78339815191525491828410156132c357806132b45750815b8281116132ad575b8381039081116123a95761326981612954565b9360005b82811061327957505050565b80613291611a6561328c600194866126b0565b6140fb565b61329b8289612683565b526132a68188612683565b500161326d565b5081613256565b83018084111561324e57612384565b509091506132cf612941565b9190565b9061292c576003606083611d869451845560208101516001850155604081015160028501550151151591019060ff801983541691151516179055565b90815491600160401b831015611cef5782613332916001611d86950181556128b3565b906132d3565b91906133448184613d80565b9260038401549161335b6004860193845490612676565b91821561341e57600886019182549160058310156133f55750506005612c019495960181815411156000146133c557906133b291613397611d88565b9182528460208301524260408301526000606083015261330f565b6133bc815461239a565b905582546126b0565b6133326133f0926133d4611d88565b92818452866020850152426040850152600060608501526128b3565b6133b2565b604051639edd285f60e01b81526001600160a01b03918216600482015291166024820152604490fd5b505050509050565b600080546001600160a01b039283166001600160a01b03198216811783559216907f8be0079c531659141344cd1fd0a4f28419497f9722a3daafe3b4186f6b6457e09080a3565b9061347b9194929394613d80565b9180151580613586575b6134a6575b50908061349e6003600493019485546126b0565b809455015490565b60048301928354916000938492600881019660058201935b8854861015613573576134d186866128b3565b50600181018054909190831061350457506001916134f46134fa92548092612676565b98612676565b955b0194956134be565b9698969790821561355c578261353d928261352560019661352c9554612676565b9055612676565b96600098818b03613543575061239a565b976134fc565b613551906103ec838a6128b3565b8061315681896128b3565b5095806001929861353d928b03613543575061239a565b509590965592909355509050600461348a565b5060088301541515613485565b9061359e8183613d80565b90600782019283549260ff8416806135fe575b6135c4575b50505060ff19166001179055565b600301549081156135b65760405163faa2387760e01b81526001600160a01b03918216600482015292166024830152604482015260649150fd5b5060006135b1565b600260015414613617576002600155565b60405162461bcd60e51b815260206004820152601f60248201527f5265656e7472616e637947756172643a207265656e7472616e742063616c6c006044820152606490fd5b61366e6103af61056d612aab8461237a565b6137ce576136816103af6104c933613ce8565b6137c0576136923361101a8361237a565b9161369c33613d3b565b6136ad6103af600786015460ff1690565b80156137a7575b8015613792575b613781576002840180549160808501358093101561376e57600901546136ee906103af906001600160a01b031686613dff565b61375c57556040600384015492013582811192836000146137555780935b1561374b5761371a91612676565b925b828061373b575b50508215613732576001929190565b60009250829190565b613744916141d9565b3882613723565b505060009261371c565b819361370c565b50509091506040600592013590600090565b5050509091506040600492013590600090565b509091506040600392013590600090565b5060098101546001600160a01b0316156136bb565b5060098101546137bb9060a01c60ff161590565b6136b4565b906040600292013590600090565b906040600592013590600090565b805490600090818155826137ef57505050565b6002906001600160fe1b03841684036123a9578252602082209260021b8301925b83811061381d5750505050565b808360049255836001820155838382015583600382015501613810565b6138448154612165565b908161384e575050565b81601f60009311600114613860575055565b90808391825261387f601f60208420940160051c840160018501612c05565b5555565b61388d8282613d10565b906000828152600080516020614b1783398151915260205260408120541561392a576139196139249261391e856139196130949861391460068498600080516020614b7783398151915260205260408120908060038301558060048301556007820160ff198154169055806008830155600a82015561390e600582016137dc565b0161383a565b6123ae565b61486a565b50612420565b506146fd565b50505050565b9061393a826122f4565b6139476040519182611d58565b8281528092613958601f19916122f4565b019060005b82811061396957505050565b602090613974612112565b8282850101520161395d565b91600080516020614bb78339815191525491828410156132c3578084018085116123a957901583828215613a19575b5050613a12575b8381039081116123a9576139c981613930565b9360005b8281106139d957505050565b806139f66139f16139ec600194866126b0565b614152565b612242565b613a008289612683565b52613a0b8188612683565b50016139cd565b50816139b6565b11905083386139af565b613a2c81613ce8565b90613a5182600052600080516020614bf7833981519152602052604060002054151590565b15613ad05750613094906000818152600080516020614c17833981519152602052600960408220828155613a876001820161383a565b613a936002820161383a565b826003820155826004820155826005820155613ab16006820161383a565b613abd6007820161383a565b613ac96008820161383a565b01556147bd565b6040516304c76d3f60e11b81526001600160a01b039091166004820152602490fd5b939293613aff8282613d10565b91613b2483600052600080516020614b17833981519152602052604060002054151590565b613cbf576000838152600080516020614b778339815191526020908152604082206003810187905580546001600160a01b0319166001600160a01b03861617815591979190600182810180546001600160a01b0319166001600160a01b0387161790559260068301918151916001600160401b038311611cef578b95613bb484613bae8754612165565b87612c1c565b602092601f8511600114613c2557505094600861391e958a999795613bfc86613c1097613c109c97613c159f9a8892613c1a5750508160011b916000199060031b1c19161790565b90555b0155613c0a83614913565b506123ae565b614a23565b509190565b015190503880612ca3565b929190601f19851690613c3d87600052602060002090565b9489915b838310613c9557505050958a99979295600186613c109b96613c159e99600896613c109a61391e9d10613c7c575b505050811b019055613bff565b015160001960f88460031b161c19169055388080613c6f565b9195859798999a5082829495969183928801518155019701950190918f9998979695949392613c41565b604051632cf0675960e21b81526001600160a01b03928316600482015291166024820152604490fd5b6040516001600160a01b039091166020808301918252825290613d0a81611d3d565b51902090565b604080516001600160a01b039283166020820190815293909216828201528152613d0a606082611d58565b613d4481613ce8565b600052600080516020614c17833981519152602052604060002090600080516020614bf783398151915260205260406000205415613ad0575090565b90613d8b8183613d10565b9182600052600080516020614b1783398151915260205260406000205415613dcc575050600052600080516020614b77833981519152602052604060002090565b60405163023280eb60e21b81526001600160a01b03918216600482015291166024820152604490fd5b60051115610c1457565b613efc90613ef6612da6613e94613edc613ee8613e1e6020870161237a565b613e278761237a565b604080517f6e525043a6c7323bdf60ce222f35127cdd9d8e867ec6350c83fcc254ed18b756602082019081526060808c0135838501526080808d0135918401919091526001600160a01b03958616908301529390921660a083015288013560c082015293849060e0820190565b0393613ea8601f1995868101835282611d58565b51902092613eb46144fa565b93604051938491602083019687909160429261190160f01b8352600283015260228201520190565b03908101835282611d58565b5190209260a0810190612459565b906145e5565b613f0581613df5565b159182613f1157505090565b6001600160a01b03918216911614919050565b91909182516001600160401b038111611cef57613f4581612c808454612165565b602080601f8311600114613f7857508190612c01939495600092613c1a5750508160011b916000199060031b1c19161790565b90601f19831695613f8e85600052602060002090565b926000905b888210613fca57505083600195969710613fb157505050811b019055565b015160001960f88460031b161c19169055388080612cef565b80600185968294968601518155019501930190613f93565b6140f661054e9282600052600080516020614c178339815191526020526140dc6101406009604060002061403b61401f865160018060a01b031690565b82546001600160a01b0319166001600160a01b03909116178255565b61404c602086015160018301613f24565b61405d604086015160028301613f24565b606085015160038201556080850151600482015560a0850151600582015561408c60c086015160068301613f24565b61409d60e086015160078301613f24565b6140af61010086015160088301613f24565b610120850151910180546001600160a01b0319166001600160a01b03909216919091178155920151151590565b815460ff60a01b191690151560a01b60ff60a01b16179055565b61499b565b600080516020614bd783398151915254811015612375577fa543db6724dca3e06c9a739e16672b6894bb866e0b44759e50bc403282ce06270154600052600080516020614b77833981519152602052604060002090565b600080516020614bb783398151915254811015612375577f94ce1cc9f419dbfb0d7a61a6415af9981ee3d1c02ba0de79a3c180abfae2b4010154600052600080516020614c17833981519152602052604060002090565b9060001982019182136001166123a957565b600160ff1b81146123a9576000190190565b6040513d6000823e3d90fd5b90600382019182549160048201928354906141f48282612676565b8311614301575b5050614208818554612676565b84557fdfd123095cdedb1cecbc229b30f7cf8745fb3d3951645ac4a8fa4c0895f895025461423e906001600160a01b0316610d56565b82549091906001600160a01b031690823b156102e457604051631bb1482360e31b81526001600160a01b039290921660048301526024820152906000908290604490829084905af180156142fc57600080516020614b57833981519152926142de926142b7926142e3575b50546001600160a01b031690565b9354925460408051948552602085019190915233946001600160a01b031693918291820190565b0390a3565b806142f06142f692611d0f565b806104f3565b386142a9565b6141cd565b61431f61431983614326939997999894969598612676565b87612676565b8094612676565b8655600093600883019182549761434561433f8a61230b565b996141a9565b955b878712158061443f575b156143b857600161436588600589016128b3565b500180549091908181116143a257506143839061439c925490612676565b96614397614391828d612683565b60019052565b6141bb565b95614347565b906143ac91612676565b905561439c87966141bb565b5091939594509195845b875481101561442f576143e16103af6143db838c612683565b51151590565b6143ee575b6001016143c2565b946144018160019288036144095761239a565b9590506143e6565b806103fd8160058c0161442a61441f8d836128b3565b506103ec84846128b3565b6128b3565b50929650939290945538806141fb565b50801515614351565b600080516020614bd78339815191528054821015612375576000527fa543db6724dca3e06c9a739e16672b6894bb866e0b44759e50bc403282ce06270190600090565b600080516020614bb78339815191528054821015612375576000527f94ce1cc9f419dbfb0d7a61a6415af9981ee3d1c02ba0de79a3c180abfae2b4010190600090565b80548210156123755760005260206000200190600090565b906144f0916144ce565b90549060031b1c90565b73304720496e666572656e63652053657276696e6760601b602060405161452081611d3d565b601481520152603160f81b602060405161453981611d3d565b60018152015260405160208101907f8b73c3c69bb8fe3d512ecc4cf759cc79239f7b179b0ffacaa9a75d522b39400f82527f2f4ba393a20b900f9f0a8fdd993b162f640c29a02a710d04f515521a29be839b60408201527fc89efdaa54c0f20c7adf612882df0950f5a951637e0307cdcb4c672f298b8bc660608201524660808201523060a082015260a0815260c081018181106001600160401b03821117611cef5760405251902090565b90604181511460001461460f57610bb3916020820151906060604084015193015160001a90614a94565b5050600090600290565b600080516020614bd7833981519152805490811561466b5760001982019180831015612375577fa543db6724dca3e06c9a739e16672b6894bb866e0b44759e50bc403282ce0626600091838352015555565b634e487b7160e01b600052603160045260246000fd5b600080516020614bb7833981519152805490811561466b5760001982019180831015612375577f94ce1cc9f419dbfb0d7a61a6415af9981ee3d1c02ba0de79a3c180abfae2b400600091838352015555565b805490811561466b57600019918201916146ed83836144ce565b909182549160031b1b1916905555565b6000818152600080516020614b17833981519152602052604090205480156147b65760001991818301918083116123a957600080516020614bd7833981519152549384019384116123a957838361477f9460009603614785575b505050614762614619565b600052600080516020614b17833981519152602052604060002090565b55600190565b6147626147a7916147986147ad94614448565b90549060031b1c928391614448565b90612be7565b55388080614757565b5050600090565b6000818152600080516020614bf7833981519152602052604090205480156147b65760001991818301918083116123a957600080516020614bb7833981519152549384019384116123a957838361477f946000960361483f575b505050614822614681565b600052600080516020614bf7833981519152602052604060002090565b6148226147a7916148526148619461448b565b90549060031b1c92839161448b565b55388080614817565b600181019180600052826020526040600020549283151560001461490a5760001992848401908582116123a95780549485019485116123a95760009585836148be9461477f98036148cd575b5050506146d3565b90600052602052604060002090565b6148f16147a7916148e161490194876144ce565b90549060031b1c928391876144ce565b8590600052602052604060002090565b553880806148b6565b50505050600090565b80600052600080516020614b1783398151915280602052604060002054156000146147b657600080516020614bd78339815191528054600160401b811015611cef57600181018083558110156123755783907fa543db6724dca3e06c9a739e16672b6894bb866e0b44759e50bc403282ce062701555491600052602052604060002055600190565b80600052600080516020614bf783398151915280602052604060002054156000146147b657600080516020614bb78339815191528054600160401b811015611cef57600181018083558110156123755783907f94ce1cc9f419dbfb0d7a61a6415af9981ee3d1c02ba0de79a3c180abfae2b40101555491600052602052604060002055600190565b6001810190826000528160205260406000205415600014614a8c578054600160401b811015611cef57614a77614a608260018794018555846144ce565b819391549060031b91821b91600019901b19161790565b90555491600052602052604060002055600190565b505050600090565b9291907f7fffffffffffffffffffffffffffffff5d576e7357a4501ddfe92f46681b20a08311614b0a5791608094939160ff602094604051948552168484015260408301526060820152600093849182805260015afa156142fc5781516001600160a01b03811615614b04579190565b50600190565b5050505060009060039056fedfd123095cdedb1cecbc229b30f7cf8745fb3d3951645ac4a8fa4c0895f89504dfd123095cdedb1cecbc229b30f7cf8745fb3d3951645ac4a8fa4c0895f89501526824944047da5b81071fb6349412005c5da81380b336103fbe5dd34556c776dfd123095cdedb1cecbc229b30f7cf8745fb3d3951645ac4a8fa4c0895f89505dfd123095cdedb1cecbc229b30f7cf8745fb3d3951645ac4a8fa4c0895f89500dfd123095cdedb1cecbc229b30f7cf8745fb3d3951645ac4a8fa4c0895f89508dfd123095cdedb1cecbc229b30f7cf8745fb3d3951645ac4a8fa4c0895f89503dfd123095cdedb1cecbc229b30f7cf8745fb3d3951645ac4a8fa4c0895f89509dfd123095cdedb1cecbc229b30f7cf8745fb3d3951645ac4a8fa4c0895f8950aa2646970667358221220126b5b1f06501b3e497e581e0547923ba17bf145a79349f921f53dd91e8b066264736f6c63430008180033",
  "devdoc": {
    "events": {
      "Initialized(uint8)": {
        "details": "Triggered when the contract has been initialized or reinitialized."
      }
    },
    "kind": "dev",
    "methods": {
      "constructor": {
        "custom:oz-upgrades-unsafe-allow": "constructor"
      },
      "migrateRefunds(address)": {
        "params": {
          "provider": "Provider address - will migrate all users associated with this provider"
        },
        "returns": {
          "cleanedCount": "Number of accounts that had dirty data cleaned"
        }
      },
      "owner()": {
        "details": "Returns the address of the current owner."
      },
      "previewSettlementResults((address,address,uint256,bytes32,uint256,bytes)[])": {
        "details": "WARNING: If the same user appears multiple times in the batch,      only the first occurrence will show accurate preview results.      Subsequent occurrences will use stale balance/nonce values since      this is a view function that cannot simulate state changes.      For accurate preview of batches with duplicate users, call this      function separately for each unique user.",
        "params": {
          "settlements": "Array of settlement data to preview"
        },
        "returns": {
          "failedUsers": "Array of user addresses that failed validation",
          "failureReasons": "Array of failure reasons corresponding to failedUsers",
          "partialAmounts": "Array of unsettled amounts corresponding to partialUsers",
          "partialUsers": "Array of user addresses with insufficient balance"
        }
      },
      "renounceOwnership()": {
        "details": "Leaves the contract without owner. It will not be possible to call `onlyOwner` functions anymore. Can only be called by the current owner. NOTE: Renouncing ownership will leave the contract without an owner, thereby removing any functionality that is only available to the owner."
      },
      "settleFeesWithTEE((address,address,uint256,bytes32,uint256,bytes)[])": {
        "details": "Status codes: 0=SUCCESS, 1=PARTIAL_SETTLEMENT, 2=PROVIDER_MISMATCH, 3=NO_TEE_SIGNER, 4=INVALID_NONCE, 5=INVALID_SIGNATUREStatuses array has same length as input, with statuses[i] corresponding to settlements[i]All settlement details are emitted via TEESettlementResult events",
        "params": {
          "settlements": "Array of settlement data to process"
        },
        "returns": {
          "statuses": "Array of settlement statuses (uint8), preserving one-to-one correspondence with input"
        }
      },
      "supportsInterface(bytes4)": {
        "details": "See {IERC165-supportsInterface}."
      },
      "transferOwnership(address)": {
        "details": "Transfers ownership of the contract to a new account (`newOwner`). Can only be called by the current owner."
      }
    },
    "version": 1
  },
  "userdoc": {
    "kind": "user",
    "methods": {
      "migrateRefunds(address)": {
        "notice": "Migration function to clean up old processed refunds (one-time use after upgrade)"
      },
      "previewSettlementResults((address,address,uint256,bytes32,uint256,bytes)[])": {
        "notice": "Preview settlement results for a batch of settlements without state changes"
      },
      "settleFeesWithTEE((address,address,uint256,bytes32,uint256,bytes)[])": {
        "notice": "Settle fees with TEE-signed settlement data"
      }
    },
    "version": 1
  },
  "storageLayout": {
    "storage": [
      {
        "astId": 7,
        "contract": "contracts/inference/InferenceServing.sol:InferenceServing",
        "label": "_owner",
        "offset": 0,
        "slot": "0",
        "type": "t_address"
      },
      {
        "astId": 11438,
        "contract": "contracts/inference/InferenceServing.sol:InferenceServing",
        "label": "initialized",
        "offset": 20,
        "slot": "0",
        "type": "t_bool"
      },
      {
        "astId": 11441,
        "contract": "contracts/inference/InferenceServing.sol:InferenceServing",
        "label": "_initializationLocked",
        "offset": 21,
        "slot": "0",
        "type": "t_bool"
      },
      {
        "astId": 123,
        "contract": "contracts/inference/InferenceServing.sol:InferenceServing",
        "label": "_status",
        "offset": 0,
        "slot": "1",
        "type": "t_uint256"
      }
    ],
    "types": {
      "t_address": {
        "encoding": "inplace",
        "label": "address",
        "numberOfBytes": "20"
      },
      "t_bool": {
        "encoding": "inplace",
        "label": "bool",
        "numberOfBytes": "1"
      },
      "t_uint256": {
        "encoding": "inplace",
        "label": "uint256",
        "numberOfBytes": "32"
      }
    }
  }
}