{
  "address": "0xF4a2aec3f4224f2c14ea12734F4d0c6131C04923",
  "abi": [
    {
      "inputs": [],
      "stateMutability": "nonpayable",
      "type": "constructor"
    },
    {
      "inputs": [
        {
          "internalType": "uint256",
          "name": "length",
          "type": "uint256"
        },
        {
          "internalType": "uint256",
          "name": "max",
          "type": "uint256"
        }
      ],
      "name": "AdditionalInfoTooLong",
      "type": "error"
    },
    {
      "inputs": [],
      "name": "CallFailed",
      "type": "error"
    },
    {
      "inputs": [
        {
          "internalType": "address",
          "name": "caller",
          "type": "address"
        }
      ],
      "name": "CallerNotRegisteredService",
      "type": "error"
    },
    {
      "inputs": [
        {
          "internalType": "uint256",
          "name": "available",
          "type": "uint256"
        },
        {
          "internalType": "uint256",
          "name": "required",
          "type": "uint256"
        }
      ],
      "name": "InsufficientAvailableBalance",
      "type": "error"
    },
    {
      "inputs": [
        {
          "internalType": "address",
          "name": "user",
          "type": "address"
        }
      ],
      "name": "InsufficientBalance",
      "type": "error"
    },
    {
      "inputs": [
        {
          "internalType": "address",
          "name": "serviceAddress",
          "type": "address"
        }
      ],
      "name": "InvalidServiceAddress",
      "type": "error"
    },
    {
      "inputs": [
        {
          "internalType": "string",
          "name": "serviceType",
          "type": "string"
        }
      ],
      "name": "InvalidServiceType",
      "type": "error"
    },
    {
      "inputs": [
        {
          "internalType": "address",
          "name": "user",
          "type": "address"
        }
      ],
      "name": "LedgerExists",
      "type": "error"
    },
    {
      "inputs": [],
      "name": "LedgerLocked",
      "type": "error"
    },
    {
      "inputs": [
        {
          "internalType": "address",
          "name": "user",
          "type": "address"
        }
      ],
      "name": "LedgerNotExists",
      "type": "error"
    },
    {
      "inputs": [
        {
          "internalType": "uint256",
          "name": "provided",
          "type": "uint256"
        },
        {
          "internalType": "uint256",
          "name": "required",
          "type": "uint256"
        }
      ],
      "name": "MinimumDepositRequired",
      "type": "error"
    },
    {
      "inputs": [
        {
          "internalType": "uint256",
          "name": "remainingBalance",
          "type": "uint256"
        }
      ],
      "name": "MustWithdrawAllFundsFirst",
      "type": "error"
    },
    {
      "inputs": [
        {
          "internalType": "string",
          "name": "serviceType",
          "type": "string"
        }
      ],
      "name": "NoRecommendedService",
      "type": "error"
    },
    {
      "inputs": [],
      "name": "NoServicesRegistered",
      "type": "error"
    },
    {
      "inputs": [
        {
          "internalType": "address",
          "name": "serviceAddress",
          "type": "address"
        }
      ],
      "name": "ServiceAlreadyRegistered",
      "type": "error"
    },
    {
      "inputs": [
        {
          "internalType": "address",
          "name": "serviceAddress",
          "type": "address"
        }
      ],
      "name": "ServiceMustImplementIServing",
      "type": "error"
    },
    {
      "inputs": [
        {
          "internalType": "string",
          "name": "serviceName",
          "type": "string"
        }
      ],
      "name": "ServiceNameExists",
      "type": "error"
    },
    {
      "inputs": [
        {
          "internalType": "address",
          "name": "serviceAddress",
          "type": "address"
        }
      ],
      "name": "ServiceNotFound",
      "type": "error"
    },
    {
      "inputs": [
        {
          "internalType": "address",
          "name": "serviceAddress",
          "type": "address"
        }
      ],
      "name": "ServiceNotRegistered",
      "type": "error"
    },
    {
      "inputs": [
        {
          "internalType": "uint256",
          "name": "limit",
          "type": "uint256"
        }
      ],
      "name": "ServiceRegistryLimitReached",
      "type": "error"
    },
    {
      "inputs": [],
      "name": "ServiceTypeRequired",
      "type": "error"
    },
    {
      "inputs": [
        {
          "internalType": "uint256",
          "name": "requested",
          "type": "uint256"
        },
        {
          "internalType": "uint256",
          "name": "maximum",
          "type": "uint256"
        }
      ],
      "name": "TooManyProviders",
      "type": "error"
    },
    {
      "inputs": [
        {
          "internalType": "uint256",
          "name": "current",
          "type": "uint256"
        },
        {
          "internalType": "uint256",
          "name": "maximum",
          "type": "uint256"
        }
      ],
      "name": "TooManyProvidersForService",
      "type": "error"
    },
    {
      "inputs": [],
      "name": "TransferFailed",
      "type": "error"
    },
    {
      "inputs": [],
      "name": "VersionRequired",
      "type": "error"
    },
    {
      "inputs": [],
      "name": "ZeroAddressNotAllowed",
      "type": "error"
    },
    {
      "inputs": [],
      "name": "ZeroAmountNotAllowed",
      "type": "error"
    },
    {
      "anonymous": false,
      "inputs": [
        {
          "indexed": true,
          "internalType": "address",
          "name": "user",
          "type": "address"
        },
        {
          "indexed": true,
          "internalType": "address",
          "name": "service",
          "type": "address"
        },
        {
          "indexed": false,
          "internalType": "uint256",
          "name": "amount",
          "type": "uint256"
        }
      ],
      "name": "FundSpent",
      "type": "event"
    },
    {
      "anonymous": false,
      "inputs": [
        {
          "indexed": false,
          "internalType": "uint8",
          "name": "version",
          "type": "uint8"
        }
      ],
      "name": "Initialized",
      "type": "event"
    },
    {
      "anonymous": false,
      "inputs": [
        {
          "indexed": true,
          "internalType": "address",
          "name": "user",
          "type": "address"
        },
        {
          "indexed": false,
          "internalType": "string",
          "name": "additionalInfo",
          "type": "string"
        }
      ],
      "name": "LedgerInfoUpdated",
      "type": "event"
    },
    {
      "anonymous": false,
      "inputs": [
        {
          "indexed": true,
          "internalType": "address",
          "name": "previousOwner",
          "type": "address"
        },
        {
          "indexed": true,
          "internalType": "address",
          "name": "newOwner",
          "type": "address"
        }
      ],
      "name": "OwnershipTransferred",
      "type": "event"
    },
    {
      "anonymous": false,
      "inputs": [
        {
          "indexed": false,
          "internalType": "string",
          "name": "serviceType",
          "type": "string"
        },
        {
          "indexed": false,
          "internalType": "string",
          "name": "version",
          "type": "string"
        },
        {
          "indexed": false,
          "internalType": "address",
          "name": "serviceAddress",
          "type": "address"
        }
      ],
      "name": "RecommendedServiceUpdated",
      "type": "event"
    },
    {
      "anonymous": false,
      "inputs": [
        {
          "indexed": true,
          "internalType": "address",
          "name": "serviceAddress",
          "type": "address"
        },
        {
          "indexed": false,
          "internalType": "string",
          "name": "serviceName",
          "type": "string"
        }
      ],
      "name": "ServiceRegistered",
      "type": "event"
    },
    {
      "inputs": [],
      "name": "MAX_ADDITIONAL_INFO_LENGTH",
      "outputs": [
        {
          "internalType": "uint256",
          "name": "",
          "type": "uint256"
        }
      ],
      "stateMutability": "view",
      "type": "function"
    },
    {
      "inputs": [],
      "name": "MAX_PROVIDERS_PER_BATCH",
      "outputs": [
        {
          "internalType": "uint256",
          "name": "",
          "type": "uint256"
        }
      ],
      "stateMutability": "view",
      "type": "function"
    },
    {
      "inputs": [],
      "name": "MAX_PROVIDERS_PER_USER_PER_SERVICE",
      "outputs": [
        {
          "internalType": "uint256",
          "name": "",
          "type": "uint256"
        }
      ],
      "stateMutability": "view",
      "type": "function"
    },
    {
      "inputs": [],
      "name": "MAX_SERVICES",
      "outputs": [
        {
          "internalType": "uint256",
          "name": "",
          "type": "uint256"
        }
      ],
      "stateMutability": "view",
      "type": "function"
    },
    {
      "inputs": [],
      "name": "MIN_ACCOUNT_BALANCE",
      "outputs": [
        {
          "internalType": "uint256",
          "name": "",
          "type": "uint256"
        }
      ],
      "stateMutability": "view",
      "type": "function"
    },
    {
      "inputs": [],
      "name": "MIN_TRANSFER_AMOUNT",
      "outputs": [
        {
          "internalType": "uint256",
          "name": "",
          "type": "uint256"
        }
      ],
      "stateMutability": "view",
      "type": "function"
    },
    {
      "inputs": [
        {
          "internalType": "string",
          "name": "additionalInfo",
          "type": "string"
        }
      ],
      "name": "addLedger",
      "outputs": [
        {
          "internalType": "uint256",
          "name": "",
          "type": "uint256"
        },
        {
          "internalType": "uint256",
          "name": "",
          "type": "uint256"
        }
      ],
      "stateMutability": "payable",
      "type": "function"
    },
    {
      "inputs": [],
      "name": "deleteLedger",
      "outputs": [],
      "stateMutability": "nonpayable",
      "type": "function"
    },
    {
      "inputs": [],
      "name": "depositFund",
      "outputs": [],
      "stateMutability": "payable",
      "type": "function"
    },
    {
      "inputs": [
        {
          "internalType": "address",
          "name": "recipient",
          "type": "address"
        }
      ],
      "name": "depositFundFor",
      "outputs": [],
      "stateMutability": "payable",
      "type": "function"
    },
    {
      "inputs": [],
      "name": "getAllActiveServices",
      "outputs": [
        {
          "components": [
            {
              "internalType": "address",
              "name": "serviceAddress",
              "type": "address"
            },
            {
              "internalType": "contract IServing",
              "name": "serviceContract",
              "type": "address"
            },
            {
              "internalType": "string",
              "name": "serviceType",
              "type": "string"
            },
            {
              "internalType": "string",
              "name": "version",
              "type": "string"
            },
            {
              "internalType": "string",
              "name": "fullName",
              "type": "string"
            },
            {
              "internalType": "string",
              "name": "description",
              "type": "string"
            },
            {
              "internalType": "bool",
              "name": "isRecommended",
              "type": "bool"
            },
            {
              "internalType": "uint256",
              "name": "registeredAt",
              "type": "uint256"
            }
          ],
          "internalType": "struct ServiceInfo[]",
          "name": "",
          "type": "tuple[]"
        }
      ],
      "stateMutability": "view",
      "type": "function"
    },
    {
      "inputs": [
        {
          "internalType": "uint256",
          "name": "offset",
          "type": "uint256"
        },
        {
          "internalType": "uint256",
          "name": "limit",
          "type": "uint256"
        }
      ],
      "name": "getAllLedgers",
      "outputs": [
        {
          "components": [
            {
              "internalType": "address",
              "name": "user",
              "type": "address"
            },
            {
              "internalType": "uint256",
              "name": "availableBalance",
              "type": "uint256"
            },
            {
              "internalType": "uint256",
              "name": "totalBalance",
              "type": "uint256"
            },
            {
              "internalType": "string",
              "name": "additionalInfo",
              "type": "string"
            }
          ],
          "internalType": "struct Ledger[]",
          "name": "ledgers",
          "type": "tuple[]"
        },
        {
          "internalType": "uint256",
          "name": "total",
          "type": "uint256"
        }
      ],
      "stateMutability": "view",
      "type": "function"
    },
    {
      "inputs": [
        {
          "internalType": "string",
          "name": "serviceType",
          "type": "string"
        }
      ],
      "name": "getAllVersions",
      "outputs": [
        {
          "internalType": "string[]",
          "name": "versions",
          "type": "string[]"
        },
        {
          "internalType": "address[]",
          "name": "addresses",
          "type": "address[]"
        },
        {
          "internalType": "bool[]",
          "name": "isRecommendedFlags",
          "type": "bool[]"
        }
      ],
      "stateMutability": "view",
      "type": "function"
    },
    {
      "inputs": [
        {
          "internalType": "address",
          "name": "user",
          "type": "address"
        }
      ],
      "name": "getLedger",
      "outputs": [
        {
          "components": [
            {
              "internalType": "address",
              "name": "user",
              "type": "address"
            },
            {
              "internalType": "uint256",
              "name": "availableBalance",
              "type": "uint256"
            },
            {
              "internalType": "uint256",
              "name": "totalBalance",
              "type": "uint256"
            },
            {
              "internalType": "string",
              "name": "additionalInfo",
              "type": "string"
            }
          ],
          "internalType": "struct Ledger",
          "name": "",
          "type": "tuple"
        }
      ],
      "stateMutability": "view",
      "type": "function"
    },
    {
      "inputs": [
        {
          "internalType": "address",
          "name": "user",
          "type": "address"
        },
        {
          "internalType": "string",
          "name": "serviceName",
          "type": "string"
        }
      ],
      "name": "getLedgerProviders",
      "outputs": [
        {
          "internalType": "address[]",
          "name": "",
          "type": "address[]"
        }
      ],
      "stateMutability": "view",
      "type": "function"
    },
    {
      "inputs": [
        {
          "internalType": "string",
          "name": "serviceType",
          "type": "string"
        }
      ],
      "name": "getRecommendedService",
      "outputs": [
        {
          "internalType": "string",
          "name": "version",
          "type": "string"
        },
        {
          "internalType": "address",
          "name": "serviceAddress",
          "type": "address"
        }
      ],
      "stateMutability": "view",
      "type": "function"
    },
    {
      "inputs": [
        {
          "internalType": "string",
          "name": "serviceName",
          "type": "string"
        }
      ],
      "name": "getServiceAddressByName",
      "outputs": [
        {
          "internalType": "address",
          "name": "",
          "type": "address"
        }
      ],
      "stateMutability": "view",
      "type": "function"
    },
    {
      "inputs": [
        {
          "internalType": "address",
          "name": "serviceAddress",
          "type": "address"
        }
      ],
      "name": "getServiceInfo",
      "outputs": [
        {
          "components": [
            {
              "internalType": "address",
              "name": "serviceAddress",
              "type": "address"
            },
            {
              "internalType": "contract IServing",
              "name": "serviceContract",
              "type": "address"
            },
            {
              "internalType": "string",
              "name": "serviceType",
              "type": "string"
            },
            {
              "internalType": "string",
              "name": "version",
              "type": "string"
            },
            {
              "internalType": "string",
              "name": "fullName",
              "type": "string"
            },
            {
              "internalType": "string",
              "name": "description",
              "type": "string"
            },
            {
              "internalType": "bool",
              "name": "isRecommended",
              "type": "bool"
            },
            {
              "internalType": "uint256",
              "name": "registeredAt",
              "type": "uint256"
            }
          ],
          "internalType": "struct ServiceInfo",
          "name": "",
          "type": "tuple"
        }
      ],
      "stateMutability": "view",
      "type": "function"
    },
    {
      "inputs": [
        {
          "internalType": "address",
          "name": "owner",
          "type": "address"
        }
      ],
      "name": "initialize",
      "outputs": [],
      "stateMutability": "nonpayable",
      "type": "function"
    },
    {
      "inputs": [],
      "name": "initialized",
      "outputs": [
        {
          "internalType": "bool",
          "name": "",
          "type": "bool"
        }
      ],
      "stateMutability": "view",
      "type": "function"
    },
    {
      "inputs": [
        {
          "internalType": "string",
          "name": "serviceType",
          "type": "string"
        },
        {
          "internalType": "string",
          "name": "version",
          "type": "string"
        }
      ],
      "name": "isRecommendedVersion",
      "outputs": [
        {
          "internalType": "bool",
          "name": "",
          "type": "bool"
        }
      ],
      "stateMutability": "view",
      "type": "function"
    },
    {
      "inputs": [],
      "name": "migrateUserServiceProvidersMapping",
      "outputs": [],
      "stateMutability": "nonpayable",
      "type": "function"
    },
    {
      "inputs": [],
      "name": "owner",
      "outputs": [
        {
          "internalType": "address",
          "name": "",
          "type": "address"
        }
      ],
      "stateMutability": "view",
      "type": "function"
    },
    {
      "inputs": [
        {
          "internalType": "uint256",
          "name": "amount",
          "type": "uint256"
        }
      ],
      "name": "refund",
      "outputs": [],
      "stateMutability": "nonpayable",
      "type": "function"
    },
    {
      "inputs": [
        {
          "internalType": "string",
          "name": "serviceType",
          "type": "string"
        },
        {
          "internalType": "string",
          "name": "version",
          "type": "string"
        },
        {
          "internalType": "address",
          "name": "serviceAddress",
          "type": "address"
        },
        {
          "internalType": "string",
          "name": "description",
          "type": "string"
        }
      ],
      "name": "registerService",
      "outputs": [],
      "stateMutability": "nonpayable",
      "type": "function"
    },
    {
      "inputs": [],
      "name": "renounceOwnership",
      "outputs": [],
      "stateMutability": "nonpayable",
      "type": "function"
    },
    {
      "inputs": [
        {
          "internalType": "address[]",
          "name": "providers",
          "type": "address[]"
        },
        {
          "internalType": "string",
          "name": "serviceName",
          "type": "string"
        }
      ],
      "name": "retrieveFund",
      "outputs": [],
      "stateMutability": "nonpayable",
      "type": "function"
    },
    {
      "inputs": [
        {
          "internalType": "string",
          "name": "serviceType",
          "type": "string"
        },
        {
          "internalType": "string",
          "name": "version",
          "type": "string"
        }
      ],
      "name": "setRecommendedService",
      "outputs": [],
      "stateMutability": "nonpayable",
      "type": "function"
    },
    {
      "inputs": [
        {
          "internalType": "address",
          "name": "user",
          "type": "address"
        },
        {
          "internalType": "uint256",
          "name": "amount",
          "type": "uint256"
        }
      ],
      "name": "spendFund",
      "outputs": [],
      "stateMutability": "nonpayable",
      "type": "function"
    },
    {
      "inputs": [
        {
          "internalType": "address",
          "name": "provider",
          "type": "address"
        },
        {
          "internalType": "string",
          "name": "serviceName",
          "type": "string"
        },
        {
          "internalType": "uint256",
          "name": "amount",
          "type": "uint256"
        }
      ],
      "name": "transferFund",
      "outputs": [],
      "stateMutability": "nonpayable",
      "type": "function"
    },
    {
      "inputs": [
        {
          "internalType": "address",
          "name": "newOwner",
          "type": "address"
        }
      ],
      "name": "transferOwnership",
      "outputs": [],
      "stateMutability": "nonpayable",
      "type": "function"
    },
    {
      "inputs": [
        {
          "internalType": "string",
          "name": "additionalInfo",
          "type": "string"
        }
      ],
      "name": "updateAdditionalInfo",
      "outputs": [],
      "stateMutability": "nonpayable",
      "type": "function"
    },
    {
      "stateMutability": "payable",
      "type": "receive"
    }
  ],
  "transactionHash": "0xac186c5e228b4f97743a60ebd13a44435568f040b832a103026a7b4a82ae57de",
  "args": [],
  "numDeployments": 2,
  "solcInputHash": "8062c7171d1f88506ed1078eb8b42b9f",
  "bytecode": "0x608080604052346100c15760008054336001600160a01b031982168117808455919260ff9291906001600160a01b038516907f8be0079c531659141344cd1fd0a4f28419497f9722a3daafe3b4186f6b6457e09080a36001805560a81c1615610073575b604051613b629081620000c78239f35b600161ff0160a01b0319163360ff60a81b191617600160a81b1760005560ff81527f7f26b83ff96e1f2b6a682f133852f6798a09c465da95921460cefb384740249890602090a13880610063565b600080fdfe60806040526004361015610023575b361561001957600080fd5b610021612f82565b005b60003560e01c806304c86acd1461022357806307940ea21461021e5780630e86417414610219578063158ef93e146102145780631ef4dc441461020f578063278ecde11461020a5780632ba43b821461020557806331404a19146102005780633c3dbbc7146101fb578063410b3815146101f6578063715018a6146101f157806373ef900f146101ec5780638158c9e5146101e75780638d0d8cb6146101e25780638da5cb5b146101dd5780639449fe17146101d8578063987086f0146101d35780639ade3972146101ce578063a2610565146101c9578063ac30b622146101c4578063aef42173146101bf578063b8d5e581146101ba578063c4d66de8146101b5578063c5e53f7e146101b0578063d4dca96d146101ab578063dd8a4118146101a6578063e032f732146101a1578063e374248d1461019c578063f2fde38b14610197578063f585f3ea14610192578063f7cd6af91461018d5763ffc22b5f0361000e57611be2565b611b5b565b611a22565b611995565b611978565b611892565b6117be565b611604565b611428565b611349565b611324565b61124f565b6111de565b6111bb565b6110fa565b610f7c565b610f27565b610efe565b610ddc565b610c01565b610ba2565b610b47565b610a88565b610a65565b6109bb565b6108fb565b61077c565b6106fe565b6106ae565b6105f2565b610416565b610238565b600091031261023357565b600080fd5b34610233576000806003193601126104135761025261300d565b600080516020613a4d83398151915254801561040157815b818110610275578280f35b610290610284610284836135ee565b6001600160a01b031690565b6102a4600261029e83611d8e565b01611ebe565b90600080516020613acd8339815191525491855b8381106102cb575050505060010161026a565b6102ec6102df6102da8361362f565b611edb565b546001600160a01b031690565b6001600160a01b03811660009081527f0bb5d42557ea6926c17416c5b1c1c29c28d9006d6f713295a2d385f07156ed096020526040902061032d9084611f71565b8481549283156103f5579061034461035b92611db5565b9060018060a01b0316600052602052604060002090565b895b83811061039e575050885b82811061037c575050506001905b016102b8565b6001906103976103916102846102848661365e565b84613065565b5001610368565b806103b761028461028461028461028460019689613671565b6103d86103d4828660019160005201602052604060002054151590565b1590565b6103e4575b500161035d565b6103ee908461379c565b50386103dd565b50505050600190610376565b6040516355dcae9160e11b8152600490fd5b80fd5b346102335760003660031901126102335760206040516101f48152f35b634e487b7160e01b600052604160045260246000fd5b608081019081106001600160401b0382111761046457604052565b610433565b6001600160401b03811161046457604052565b602081019081106001600160401b0382111761046457604052565b606081019081106001600160401b0382111761046457604052565b90601f801991011681019081106001600160401b0382111761046457604052565b6040519061010082018281106001600160401b0382111761046457604052565b6001600160401b03811161046457601f01601f191660200190565b81601f8201121561023357803590610525826104f3565b9261053360405194856104b2565b8284526020838301011161023357816000926020809301838601378301015290565b602060031982011261023357600435906001600160401b0382116102335761057f9160040161050e565b90565b60005b8381106105955750506000910152565b8181015183820152602001610585565b906020916105be81518092818552858086019101610582565b601f01601f1916010190565b906105e26020919493946040845260408401906105a5565b6001600160a01b03909416910152565b346102335761060036610555565b604051602081019061062a602082855161061d8187858a01610582565b81010380845201826104b2565b51902060009081527f0bb5d42557ea6926c17416c5b1c1c29c28d9006d6f713295a2d385f07156ed0460205260409020546001600160a01b031690811561068d575061067a600361029e83611d8e565b610689604051928392836105ca565b0390f35b6040516316fab7f360e21b81529081906106aa9060048301611f97565b0390fd5b3461023357600036600319011261023357602060ff60005460a01c166040519015158152f35b600435906001600160a01b038216820361023357565b35906001600160a01b038216820361023357565b34610233576080366003190112610233576001600160401b036004358181116102335761072f90369060040161050e565b6024358281116102335761074790369060040161050e565b604435906001600160a01b0382168203610233576064359384116102335761077661002194369060040161050e565b92611fa8565b346102335760203660031901126102335760043561079933613158565b600091818352600080516020613a6d833981519152908160205260409160ff83862054166108ea57838552602052818420805460ff191660011790556107de3361318d565b6001810180548381106108d3576107f584826123da565b801515806108c2575b61089b5750836002889594869594610818879687966123da565b9055016108268282546123da565b8091551561086a575b335af161083a61245b565b501561085a575061084d61085791611ef8565b805460ff19169055565b80f35b516312171d8360e31b8152600490fd5b61088d61088861087933613158565b61088281613895565b50611edb565b6123ec565b610896336131f8565b61082f565b85516315110fb160e21b815260048101919091526729a2241af62c00006024820152604490fd5b506729a2241af62c000081106107fe565b845163112fed8b60e31b8152336004820152602490fd5b825163344f180560e11b8152600490fd5b34610233576060366003190112610233576109146106d4565b6024356001600160401b0381116102335761093390369060040161050e565b9061093d33613158565b91600092808452600080516020613a6d8339815191528060205260ff604086205416610992576108579361084d9361098d9284885260205260408720600160ff19825416179055604435916124e7565b611ef8565b60405163344f180560e11b8152600490fd5b6001600160401b0381116104645760051b60200190565b34610233576040366003190112610233576001600160401b0360043581811161023357366023820112156102335780600401356109f7816109a4565b91610a0560405193846104b2565b8183526020916024602085019160051b8301019136831161023357602401905b828210610a4e576024358587821161023357610a4861002192369060040161050e565b9061276c565b838091610a5a846106ea565b815201910190610a25565b34610233576000366003190112610233576020604051670de0b6b3a76400008152f35b346102335760008060031936011261041357600260015414610b02576002600155610ab233613158565b808252600080516020613a6d8339815191528060205260ff6040842054166109925781835260205260408220805460ff19166001179055610af99061084d9061098d612a7a565b61085760018055565b60405162461bcd60e51b815260206004820152601f60248201527f5265656e7472616e637947756172643a207265656e7472616e742063616c6c006044820152606490fd5b346102335760008060031936011261041357610b6161300d565b80546001600160a01b03198116825581906001600160a01b03167f8be0079c531659141344cd1fd0a4f28419497f9722a3daafe3b4186f6b6457e08280a380f35b3461023357600036600319011261023357602060405160328152f35b906040600319830112610233576001600160401b036004358181116102335783610bea9160040161050e565b926024359182116102335761057f9160040161050e565b3461023357610c0f36610bbe565b610c1761300d565b60405191610c616102df84610c48610c42610c356020840187611f15565b602d60f81b815260010190565b86611f15565b0394610c5c601f19968781018352826104b2565b611f2c565b926001600160a01b03808516918215610dbb5785610d45610d8c947f22cc4700d5c4d3ff57ddfb4bb70d5a0e1bed5c060482e8eeeb8672d4471ad5e2989487610d6495610cc66040519182610cba602082018096611f15565b039081018352826104b2565b51902091610d006102df846000527f0bb5d42557ea6926c17416c5b1c1c29c28d9006d6f713295a2d385f07156ed04602052604060002090565b918216908115159182610db0575b5050610d91575b506000527f0bb5d42557ea6926c17416c5b1c1c29c28d9006d6f713295a2d385f07156ed04602052604060002090565b80546001600160a01b0319166001600160a01b03909216919091179055565b610d806006610d7283611d8e565b01805460ff19166001179055565b60405193849384612ae3565b0390a1005b6006610d9f610daa92611d8e565b01805460ff19169055565b38610d15565b141590503880610d0e565b60405163b536580760e01b81526001600160a01b0387166004820152602490fd5b60008060031936011261041357610df233613158565b808252600080516020613a6d8339815191528060205260ff6040842054166109925781835260205260408220805460ff191660011790553415610eec57610e3833613158565b610e5f6103d482600052600080516020613a8d833981519152602052604060002054151590565b15610eb6576729a2241af62c00003410610e90576108579161098d61084d92610e86612448565b9034903390613476565b6040516315110fb160e21b81523460048201526729a2241af62c00006024820152604490fd5b610857916002610ec861084d93611edb565b60018101610ed7348254612a6d565b905501610ee5348254612a6d565b9055611ef8565b6040516307a1cab560e11b8152600490fd5b34610233576000366003190112610233576000546040516001600160a01b039091168152602090f35b3461023357600036600319011261023357602060405160148152f35b906080606061057f9360018060a01b038151168452602081015160208501526040810151604085015201519181606082015201906105a5565b3461023357604036600319011261023357610f9b602435600435612bd5565b906040519060408201926040835281518094526060830160608560051b850101926020809101916000905b878210610fda578680878760208301520390f35b909192948380610ff6600193605f198b82030186528951610f43565b970192019201909291610fc6565b80516001600160a01b031682529060e08061108161106f61105d61104b6101006020898101516001600160a01b0316908901526040890151908060408a01528801906105a5565b606088015187820360608901526105a5565b608087015186820360808801526105a5565b60a086015185820360a08701526105a5565b60c08086015115159085015293015191015290565b6020808201906020835283518092526040830192602060408460051b8301019501936000915b8483106110cc5750505050505090565b90919293949584806110ea600193603f198682030187528a51611004565b98019301930191949392906110bc565b3461023357600036600319011261023357600080516020613a4d83398151915254611124816109a4565b9061113260405192836104b2565b808252601f19611141826109a4565b0160005b8181106111a457505060005b81811061116657604051806106898582611096565b8061118861118361117e6102846102846001966135ee565b611d8e565b612cd4565b6111928286612a39565b5261119d8185612a39565b5001611151565b6020906111af612c83565b82828701015201611145565b346102335760206111d46111ce36610bbe565b90612d67565b6040519015158152f35b346102335760003660031901126102335760206040516729a2241af62c00008152f35b90815180825260208080930193019160005b828110611221575050505090565b83516001600160a01b031685529381019392810192600101611213565b90602061057f928181520190611201565b34610233576040366003190112610233576112686106d4565b6024356001600160401b038111610233576001600160a01b039061129490610c5c90369060040161050e565b54168015611301576103446112a892611db5565b80546112b381612de7565b9160005b8281106112cc5760405180610689868261123e565b806112fb6112e261028461028460019587613671565b6112ec8388612a39565b6001600160a01b039091169052565b016112b7565b60405163b536580760e01b81526001600160a01b03919091166004820152602490fd5b346102335760206001600160a01b0361133f610c5c36610555565b5416604051908152f35b34610233576020366003190112610233576113626106d4565b60005460ff8160a01c16159081611419575b50156113c9576000805460ff60a01b1916600160a01b179055611396906133ea565b604051600181527f7f26b83ff96e1f2b6a682f133852f6798a09c465da95921460cefb3847402498908060208101610d8c565b60405162461bcd60e51b815260206004820152602260248201527f496e697469616c697a61626c653a20616c726561647920696e697469616c697a604482015261195960f21b6064820152608490fd5b60ff915060a81c161538611374565b61143136610555565b61143a33613158565b80600052600080516020613a6d833981519152918260205260409260ff846000205416611543578260005260205282600020600160ff198254161790556729a2241af62c0000341061151e57805161100080821161150157505061149d33613158565b916114c283600052600080516020613a8d833981519152602052604060002054151590565b6114ea5761098d61084d926114da9434903390613476565b5134815260006020820152604090f35b835163cde58aa160e01b8152336004820152602490fd5b60449250845191631a78290b60e21b835260048301526024820152fd5b82516315110fb160e21b81523460048201526729a2241af62c00006024820152604490fd5b835163344f180560e11b8152600490fd5b909160608201906060835283518092526080830160808360051b850101926020809601916000905b8282106115d45750505050906115989183820385850152611201565b90604081830391015281808451928381520193019160005b8281106115be575050505090565b83511515855293810193928101926001016115b0565b9091929487806115f3600193607f9b9a9b198c820301865289516105a5565b97019201920190929196959661157c565b346102335761161236610555565b600080516020613a4d83398151915254600091825b828110611742575061163883612eac565b9161164b61164585612de7565b94612de7565b91600090815b8381106116685760405180610689878a8a84611554565b611677610284610284836135ee565b61168081611d8e565b9088886040805160206116c58183018361169d8260028c01612e19565b03936116b1601f19958681018352826104b2565b51902093519182019282610cba858d611f15565b519020146116da575b50505050600101611651565b60068461171a89956112ec876117339761171460019c9e6117229961170460036117389f01611ebe565b61170e8383612a39565b52612a39565b50612a39565b015460ff1690565b61172c838a612a39565b9015159052565b612e9d565b92903888886116ce565b600261175661117e610284610284856135ee565b01604090815190611799602091836117718482018093612e19565b0393611785601f19958681018352826104b2565b51902093519182019282610cba8589611f15565b519020146117aa575b600101611627565b926117b6600191612e9d565b9390506117a2565b3461023357604080600319360112610233576117d86106d4565b336000908152600080516020613aad83398151915260205282812054909291906001600160a01b03161561186a5761180f81613158565b91828452600080516020613a6d8339815191528060205260ff8286205416611859578385526020528320805460ff191660011790556108579161084d9161098d9060243590612ef6565b815163344f180560e11b8152600490fd5b8151631b8815cf60e01b8152336004820152602490fd5b90602061057f928181520190611004565b34610233576020366003190112610233576118ab6106d4565b6118b3612c83565b506001600160a01b03166000908152600080516020613aad833981519152602052604090206106899060076118e66104d3565b82546001600160a01b031681529160018101546001600160a01b0316602084015261191360028201611ebe565b604084015261192460038201611ebe565b606084015261193560048201611ebe565b608084015261194660058201611ebe565b60a084015261196561195c600683015460ff1690565b151560c0850152565b015460e082015260405191829182611881565b346102335760003660031901126102335760206040516110008152f35b34610233576020366003190112610233576119ae6106d4565b6119b661300d565b6001600160a01b038116156119ce57610021906133ea565b60405162461bcd60e51b815260206004820152602660248201527f4f776e61626c653a206e6577206f776e657220697320746865207a65726f206160448201526564647265737360d01b6064820152608490fd5b602036600319011261023357611a366106d4565b611a3f81613158565b600091818352600080516020613a6d8339815191528060205260409060ff828620541661185957838552602052808420805460ff191660011790556001600160a01b03821615611b3a573415611b2a57611a9882613158565b90611ac06103d483600052600080516020613a8d833981519152602052604060002054151590565b15611b15576729a2241af62c00003410611af157509161098d61084d9261085794611ae9612448565b913491613476565b516315110fb160e21b81523460048201526729a2241af62c00006024820152604490fd5b5061084d9150916002610ec861085794611edb565b516307a1cab560e11b8152600490fd5b516342bcdf7f60e11b8152600490fd5b90602061057f928181520190610f43565b3461023357602036600319011261023357610689611b88611b7a6106d4565b611b82612b0d565b5061318d565b6003611bd160405192611b9a84610449565b60018060a01b0381541684526001810154602085015260028101546040850152611bca6040518094819301611e28565b03826104b2565b606082015260405191829182611b4a565b3461023357611bf036610555565b611bf933613158565b600091818352600080516020613a6d8339815191526020908060205260ff6040862054166109925783855260205260408420600190600160ff198254161790558251611000808211611d705750506003611c523361318d565b01918351916001600160401b03831161046457611c7983611c738654611dee565b866121f5565b602091601f8411600114611cf957505091611cb38261084d959361085797958991611cee575b508160011b916000199060031b1c19161790565b90555b7f12d213c9bc59dc8d250f0d6aba2d21e4e500a72a76621a44600697a285833fb160405180611ce6339482611f97565b0390a2611ef8565b905084015138611c9f565b9190601f19841690611d1086600052602060002090565b9389915b838310611d5957505050926108579694926001928261084d989610611d40575b5050811b019055611cb6565b85015160001960f88460031b161c191690553880611d34565b888501518655948501949381019391810191611d14565b6044925060405191631a78290b60e21b835260048301526024820152fd5b6001600160a01b03166000908152600080516020613aad8339815191526020526040902090565b6001600160a01b031660009081527f0bb5d42557ea6926c17416c5b1c1c29c28d9006d6f713295a2d385f07156ed0a6020526040902090565b90600182811c92168015611e1e575b6020831014611e0857565b634e487b7160e01b600052602260045260246000fd5b91607f1691611dfd565b805460009392611e3782611dee565b91828252602093600191600181169081600014611e9f5750600114611e5e575b5050505050565b90939495506000929192528360002092846000945b838610611e8b57505050500101903880808080611e57565b805485870183015294019385908201611e73565b60ff19168685015250505090151560051b010191503880808080611e57565b90611ed9611ed29260405193848092611e28565b03836104b2565b565b600052600080516020613aed833981519152602052604060002090565b600052600080516020613a6d833981519152602052604060002090565b90611f2860209282815194859201610582565b0190565b6020611f45918160405193828580945193849201610582565b81017f0bb5d42557ea6926c17416c5b1c1c29c28d9006d6f713295a2d385f07156ed0181520301902090565b602090611f8b928260405194838680955193849201610582565b82019081520301902090565b90602061057f9281815201906105a5565b929091611fb361300d565b6001600160a01b03811693841561219f5780511561218d5783511561217b57611fe16102846102df84611d8e565b61215a5760409283519461201686612008612002610c356020840188611f15565b84611f15565b03601f1981018852876104b2565b6120256102846102df88611f2c565b612140576120356103d485613078565b612120576120456103d4856130fb565b612120576101f4600080516020613a4d83398151915254101561210757926120e561210295936120ee937f4c76643f3c678c590db6e8ad9fe0bb6e75d36cb853c3bd06c487607ff35e6f71989661209a6104d3565b6001600160a01b0386168152926001600160a01b038c16602085015287840152606083015286608083015260a0820152600060c08201524260e08201526120e083611d8e565b61230b565b610d4584611f2c565b6120f785613685565b505191829182611f97565b0390a2565b845163f1d44a5160e01b81526101f46004820152602490fd5b84516316219dbf60e11b81526001600160a01b0385166004820152602490fd5b845163057f36eb60e21b8152806106aa8860048301611f97565b6040516353752f3960e11b81526001600160a01b0383166004820152602490fd5b604051630e84c45560e31b8152600490fd5b604051638dfa0f6f60e01b8152600490fd5b6040516364db873d60e11b81526001600160a01b0383166004820152602490fd5b916121da9183549060031b91821b91600019901b19161790565b9055565b8181106121e9575050565b600081556001016121de565b9190601f811161220457505050565b611ed9926000526020600020906020601f840160051c83019310612230575b601f0160051c01906121de565b9091508190612223565b91909182516001600160401b038111610464576122618161225b8454611dee565b846121f5565b602080601f83116001146122a0575081906121da939495600092612295575b50508160011b916000199060031b1c19161790565b015190503880612280565b90601f198316956122b685600052602060002090565b926000905b8882106122f3575050836001959697106122da575b505050811b019055565b015160001960f88460031b161c191690553880806122d0565b806001859682949686015181550195019301906122bb565b815181546001600160a01b0319166001600160a01b039091161781559060079060e09060208101516001850180546001600160a01b0319166001600160a01b0390921691909117905561236560408201516002860161223a565b61237660608201516003860161223a565b61238760808201516004860161223a565b61239860a08201516005860161223a565b6123bd6123a860c0830151151590565b600686019060ff801983541691151516179055565b0151910155565b634e487b7160e01b600052601160045260246000fd5b919082039182116123e757565b6123c4565b60036000918281558260018201558260028201550161240b8154611dee565b8061241557505050565b82601f821160011461242657505055565b9091808252612444601f60208420940160051c8401600185016121de565b5555565b604051906124558261047c565b60008252565b3d15612486573d9061246c826104f3565b9161247a60405193846104b2565b82523d6000602084013e565b606090565b90816020910312610233575180151581036102335790565b6040513d6000823e3d90fd5b6001600160a01b0391821681529116602082015260606040820181905261057f92910190611e28565b90816020910312610233575190565b916124fd6102df6124f73361318d565b93611f2c565b926001600160a01b038085161561274b5761251785611d8e565b80546001909101546040805163147500e360e01b81523360048201526001600160a01b038681166024830152919893821696602095909316909116929082908581604481885afa9081156126a45760009161271e575b50156126a95750508651631320b9eb60e11b81523360048201526001600160a01b0385166024820152918390839060449082905afa9182156126a4576125cc6125c560019461260f93600091612677575b50846133d8565b80936123da565b885163745e87f760e01b868201523360248201526001600160a01b039096166044870152606486019290925290939081608481015b03601f1981018352826104b2565b945b0180548381106126575791839161262d600097958897956123da565b905583519301915af161263e61245b565b50156126475750565b51633204506f60e01b8152600490fd5b865163adb9e04360e01b8152600481019190915260248101849052604490fd5b6126979150873d891161269d575b61268f81836104b2565b8101906124d8565b386125be565b503d612685565b6124a3565b949190969250670de0b6b3a764000081106126f75750865163e50688f960e01b84820152600192916126f2916126eb81612601600387018533602485016124af565b9733613351565b612611565b87516315110fb160e21b81526004810191909152670de0b6b3a76400006024820152604490fd5b61273e9150863d8811612744575b61273681836104b2565b81019061248b565b3861256d565b503d61272c565b60405163b536580760e01b81526001600160a01b0386166004820152602490fd5b919061277733613158565b90600090828252600080516020613a6d8339815191529060208260205260409260ff84862054166115435785855260205282842091600192600160ff19825416179055875160148111612a0357506102df6127d191611f2c565b6001600160a01b039490858116156129e15761280360016127f58693959495611d8e565b01546001600160a01b031690565b9861280d3361318d565b998497859116925b612839575b505050505050509061084d91610ee56001611ed9959601918254612a6d565b81518110156129dc5761285c61284f8284612a39565b516001600160a01b031690565b875163147500e360e01b8152336004808301919091526001600160a01b039290921660248201528581604481885afa9081156126a45787916129bf575b506128a8575b50850185612815565b976128b661284f8385612a39565b885163271e279160e11b8152338b82019081526001600160a01b039092166020830152606092909183908390819060400103818b8a5af19182156126a45761290693899361298e575b5050612a6d565b9761291461284f8385612a39565b90843b1561298a578851636c79158d60e01b8152339181019182526001600160a01b03909216602082015290959493929190859087908190604001038183875af19081156126a45787968792612971575b5091929394955061289f565b8061297e61298492610469565b80610228565b38612965565b8680fd5b6129ae929350803d106129b8575b6129a681836104b2565b810190612a52565b50509038806128ff565b503d61299c565b6129d69150863d88116127445761273681836104b2565b38612899565b61281a565b845163b536580760e01b81526001600160a01b03919091166004820152602490fd5b845163414f261960e11b8152600481019190915260146024820152604490fd5b634e487b7160e01b600052603260045260246000fd5b8051821015612a4d5760209160051b010190565b612a23565b90816060910312610233578051916040602083015192015190565b919082018092116123e757565b6002612a853361318d565b015480612acb5750612a96336131f8565b612a9f33613158565b612aa881613895565b50600052600080516020613aed833981519152602052611ed960406000206123ec565b6024906040519063f6ba0ebf60e01b82526004820152fd5b916105e290612aff6040939695966060865260608601906105a5565b9084820360208601526105a5565b60405190612b1a82610449565b606080836000815260006020820152600060408201520152565b90612b3e826109a4565b612b4b60405191826104b2565b8281528092612b5c601f19916109a4565b019060005b828110612b6d57505050565b602090612b78612b0d565b82828501015201612b61565b9060036060604051612b9581610449565b612bd1819560018060a01b0381541683526001810154602084015260028101546040840152612bca6040518096819301611e28565b03846104b2565b0152565b600080516020613acd83398151915254929183821015612c6d5780612c68575060325b81018082116123e75781612c0f85612c14936133d8565b6123da565b612c1d81612b34565b9160005b828110612c2f575050509190565b80612c4c612c47612c4260019486612a6d565b613431565b612b84565b612c568287612a39565b52612c618186612a39565b5001612c21565b612bf8565b5050604051612c7b8161047c565b600081529190565b6040519061010082018281106001600160401b0382111761046457604052600060e0838281528260208201526060604082015260608082015260606080820152606060a08201528260c08201520152565b906007612cdf6104d3565b83546001600160a01b031681529260018101546001600160a01b03166020850152612d0c60028201611ebe565b6040850152612d1d60038201611ebe565b6060850152612d2e60048201611ebe565b6080850152612d3f60058201611ebe565b60a0850152612d5e612d55600683015460ff1690565b151560c0860152565b015460e0830152565b6021612db4916040519381612d86869351809260208087019101610582565b8201602d60f81b6020820152612da58251809360208785019101610582565b010360018101845201826104b2565b6001600160a01b0390612dc690611f2c565b54168015612de1576006612ddb60ff92611d8e565b01541690565b50600090565b90612df1826109a4565b612dfe60405191826104b2565b8281528092612e0f601f19916109a4565b0190602036910137565b600092918154612e2881611dee565b92600191808316908115612e825750600114612e45575b50505050565b9091929394506000526020906020600020906000915b858310612e715750505050019038808080612e3f565b805485840152918301918101612e5b565b60ff1916845250505081151590910201915038808080612e3f565b60001981146123e75760010190565b90612eb6826109a4565b612ec360405191826104b2565b8281528092612ed4601f19916109a4565b019060005b828110612ee557505050565b806060602080938501015201612ed9565b90612f008261318d565b600281016001815492015482038281116123e757838110612f6157508282039182116123e7575560405190815233916001600160a01b0316907f6f81b9cf4ed9328799879be7651da4420ab1bc260b34ea71f72e9659aa548e6890602090a3565b60405163adb9e04360e01b8152600481019190915260248101849052604490fd5b336000908152600080516020613aad83398151915260205260409020546001600160a01b0316611ed95760405162461bcd60e51b815260206004820152603360248201527f446972656374206465706f736974732064697361626c65643b207573652064656044820152721c1bdcda5d119d5b990a0a481a5b9cdd195859606a1b6064820152608490fd5b6000546001600160a01b0316330361302157565b606460405162461bcd60e51b815260206004820152602060248201527f4f776e61626c653a2063616c6c6572206973206e6f7420746865206f776e65726044820152fd5b61057f916001600160a01b03169061394a565b613081816139f3565b90816130e9575b81613091575090565b60209150600090604051838101906301ffc9a760e01b8083526024820152602481526130bc81610497565b5191617530fa6000513d826130dd575b50816130d6575090565b9050151590565b602011159150386130cc565b90506130f481613a1c565b1590613088565b613104816139f3565b9081613146575b81613114575090565b60209150600090604051838101906301ffc9a760e01b825263160841b160e01b6024820152602481526130bc81610497565b905061315181613a1c565b159061310b565b604051602081019160018060a01b0316825260208152604081018181106001600160401b038211176104645760405251902090565b61319681613158565b9081600052600080516020613a8d833981519152602052604060002054156131d65750600052600080516020613aed833981519152602052604060002090565b604051637d2d536b60e01b81526001600160a01b039091166004820152602490fd5b600080516020613a4d8339815191525460005b81811061321757505050565b613226610284610284836135ee565b61323c61323282611d8e565b9161034486611db5565b80549061324882612de7565b9160005b818110613335575050600091600180809501905b613272575b505050505060010161320b565b815184101561333057805461328f906001600160a01b0316610284565b61329c61284f8685612a39565b94813b1561023357604051639721672560e01b81526001600160a01b038b81166004830152969096166024870152869586926000908290604490829084905af1908161331d575b50613307576132fe6132f861284f8387612a39565b86613065565b505b0193613260565b6133176132f861284f8387612a39565b50613300565b8061297e61332a92610469565b386132e3565b613265565b8061334b6112e261028461028460019588613671565b0161324c565b6001600160a01b0390811660009081527f0bb5d42557ea6926c17416c5b1c1c29c28d9006d6f713295a2d385f07156ed0a602090815260408083209484168352939052919091209192919081549360328510156133b8576133b5939450169061379c565b50565b60405163e949933760e01b81526004810186905260326024820152604490fd5b90808210156133e5575090565b905090565b600080546001600160a01b039283166001600160a01b03198216811783559216907f8be0079c531659141344cd1fd0a4f28419497f9722a3daafe3b4186f6b6457e09080a3565b600080516020613acd83398151915254811015612a4d57600080516020613b0d8339815191520154600052600080516020613aed833981519152602052604060002090565b9190939293826000526003602091600080516020613aed8339815191526020526134cf6040600020916001958060018501556002840155829060018060a01b03166bffffffffffffffffffffffff60a01b825416179055565b01918551916001600160401b038311610464576134f083611c738654611dee565b602091601f841160011461352e5750509080613527926133b596976000926122955750508160011b916000199060031b1c19161790565b9055613726565b96601f9291921984169761354786600052602060002090565b936000915b8a831061358e57505050908392916001946133b5989910613575575b505050811b019055613726565b015160001960f88460031b161c19169055388080613568565b83850151865594850194938101939181019161354c565b600080516020613acd8339815191528054821015612a4d57600052600080516020613b0d8339815191520190600090565b8054821015612a4d5760005260206000200190600090565b600080516020613a4d8339815191528054821015612a4d576000527f10f78b23dc0eb204a6d6fa9709ff7d389ae78db91903b42d2351233e11ab5ab8015490565b600080516020613acd8339815191528054821015612a4d57600052600080516020613b0d833981519152015490565b805415612a4d5760005260206000205490565b9061367b916135d6565b90549060031b1c90565b806000527f0bb5d42557ea6926c17416c5b1c1c29c28d9006d6f713295a2d385f07156ed03806020526040600020541560001461371f57600080516020613a4d8339815191528054600160401b8110156104645760018101808355811015612a4d5783907f10f78b23dc0eb204a6d6fa9709ff7d389ae78db91903b42d2351233e11ab5ab801555491600052602052604060002055600190565b5050600090565b80600052600080516020613a8d833981519152806020526040600020541560001461371f57600080516020613acd8339815191528054600160401b8110156104645760018101808355811015612a4d578390600080516020613b0d83398151915201555491600052602052604060002055600190565b600082815260018201602052604090205461371f57805490600160401b82101561046457826137ec6137d58460018096018555846135d6565b819391549060031b91821b91600019901b19161790565b905580549260005201602052604060002055600190565b600080516020613acd83398151915280549081156138555760001982019180831015612a4d577fb41db55c7d24928028896a7eb7f5b05917c002e0088f26af95b1bfac47132b52600091838352015555565b634e487b7160e01b600052603160045260246000fd5b8054908115613855576000199182019161388583836135d6565b909182549160031b1b1916905555565b6000818152600080516020613a8d8339815191526020526040902054801561371f5760001991818301918083116123e757600080516020613acd833981519152549384019384116123e7578383613917946000960361391d575b5050506138fa613803565b600052600080516020613a8d833981519152602052604060002090565b55600190565b6138fa61393b9161393361367b613941956135a5565b9283916135a5565b906121c0565b553880806138ef565b60018101918060005282602052604060002054928315156000146139ea5760001992848401908582116123e75780549485019485116123e757600095858361399e9461391798036139ad575b50505061386b565b90600052602052604060002090565b6139d161393b916139c16139e194876135d6565b90549060031b1c928391876135d6565b8590600052602052604060002090565b55388080613996565b50505050600090565b6000602091604051838101906301ffc9a760e01b8083526024820152602481526130bc81610497565b6000602091604051838101906301ffc9a760e01b825263ffffffff60e01b6024820152602481526130bc8161049756fe0bb5d42557ea6926c17416c5b1c1c29c28d9006d6f713295a2d385f07156ed020bb5d42557ea6926c17416c5b1c1c29c28d9006d6f713295a2d385f07156ed080bb5d42557ea6926c17416c5b1c1c29c28d9006d6f713295a2d385f07156ed060bb5d42557ea6926c17416c5b1c1c29c28d9006d6f713295a2d385f07156ed000bb5d42557ea6926c17416c5b1c1c29c28d9006d6f713295a2d385f07156ed050bb5d42557ea6926c17416c5b1c1c29c28d9006d6f713295a2d385f07156ed07b41db55c7d24928028896a7eb7f5b05917c002e0088f26af95b1bfac47132b53a26469706673582212204f5621b6da57ffd27c244200238b6fea02c1cd437e4d4a2a61c6de73902b473464736f6c63430008180033",
  "devdoc": {
    "events": {
      "Initialized(uint8)": {
        "details": "Triggered when the contract has been initialized or reinitialized."
      }
    },
    "kind": "dev",
    "methods": {
      "constructor": {
        "custom:oz-upgrades-unsafe-allow": "constructor"
      },
      "migrateUserServiceProvidersMapping()": {
        "details": "Migrates userServiceProviders (serviceType-based) to userServiceProvidersByAddress (serviceAddress-based)Can be called by owner after contract upgrade to migrate existing dataSafe to call multiple times - will only migrate data that hasn't been migrated yet"
      },
      "owner()": {
        "details": "Returns the address of the current owner."
      },
      "renounceOwnership()": {
        "details": "Leaves the contract without owner. It will not be possible to call `onlyOwner` functions anymore. Can only be called by the current owner. NOTE: Renouncing ownership will leave the contract without an owner, thereby removing any functionality that is only available to the owner."
      },
      "transferOwnership(address)": {
        "details": "Transfers ownership of the contract to a new account (`newOwner`). Can only be called by the current owner."
      },
      "updateAdditionalInfo(string)": {
        "params": {
          "additionalInfo": "New additional info (max 4KB)"
        }
      }
    },
    "version": 1
  },
  "userdoc": {
    "kind": "user",
    "methods": {
      "migrateUserServiceProvidersMapping()": {
        "notice": "One-time migration function to move data from old mapping to new mapping"
      },
      "updateAdditionalInfo(string)": {
        "notice": "Update additional info for an existing ledger"
      }
    },
    "version": 1
  },
  "storageLayout": {
    "storage": [
      {
        "astId": 7,
        "contract": "contracts/ledger/LedgerManager.sol:LedgerManager",
        "label": "_owner",
        "offset": 0,
        "slot": "0",
        "type": "t_address"
      },
      {
        "astId": 15640,
        "contract": "contracts/ledger/LedgerManager.sol:LedgerManager",
        "label": "initialized",
        "offset": 20,
        "slot": "0",
        "type": "t_bool"
      },
      {
        "astId": 15643,
        "contract": "contracts/ledger/LedgerManager.sol:LedgerManager",
        "label": "_initializationLocked",
        "offset": 21,
        "slot": "0",
        "type": "t_bool"
      },
      {
        "astId": 123,
        "contract": "contracts/ledger/LedgerManager.sol:LedgerManager",
        "label": "_status",
        "offset": 0,
        "slot": "1",
        "type": "t_uint256"
      }
    ],
    "types": {
      "t_address": {
        "encoding": "inplace",
        "label": "address",
        "numberOfBytes": "20"
      },
      "t_bool": {
        "encoding": "inplace",
        "label": "bool",
        "numberOfBytes": "1"
      },
      "t_uint256": {
        "encoding": "inplace",
        "label": "uint256",
        "numberOfBytes": "32"
      }
    }
  }
}